{
	"contracts/DegenToken.sol": {
		"DegenToken": {
			"abi": [
				{
					"inputs": [],
					"stateMutability": "nonpayable",
					"type": "constructor"
				},
				{
					"anonymous": false,
					"inputs": [
						{
							"indexed": true,
							"internalType": "address",
							"name": "owner",
							"type": "address"
						},
						{
							"indexed": true,
							"internalType": "address",
							"name": "spender",
							"type": "address"
						},
						{
							"indexed": false,
							"internalType": "uint256",
							"name": "value",
							"type": "uint256"
						}
					],
					"name": "Approval",
					"type": "event"
				},
				{
					"anonymous": false,
					"inputs": [
						{
							"indexed": true,
							"internalType": "address",
							"name": "previousOwner",
							"type": "address"
						},
						{
							"indexed": true,
							"internalType": "address",
							"name": "newOwner",
							"type": "address"
						}
					],
					"name": "OwnershipTransferred",
					"type": "event"
				},
				{
					"anonymous": false,
					"inputs": [
						{
							"indexed": true,
							"internalType": "address",
							"name": "from",
							"type": "address"
						},
						{
							"indexed": true,
							"internalType": "address",
							"name": "to",
							"type": "address"
						},
						{
							"indexed": false,
							"internalType": "uint256",
							"name": "value",
							"type": "uint256"
						}
					],
					"name": "Transfer",
					"type": "event"
				},
				{
					"inputs": [
						{
							"internalType": "address",
							"name": "",
							"type": "address"
						},
						{
							"internalType": "uint256",
							"name": "",
							"type": "uint256"
						}
					],
					"name": "CarsNftCollection",
					"outputs": [
						{
							"internalType": "uint256",
							"name": "",
							"type": "uint256"
						}
					],
					"stateMutability": "view",
					"type": "function"
				},
				{
					"inputs": [
						{
							"internalType": "address",
							"name": "owner",
							"type": "address"
						},
						{
							"internalType": "address",
							"name": "spender",
							"type": "address"
						}
					],
					"name": "allowance",
					"outputs": [
						{
							"internalType": "uint256",
							"name": "",
							"type": "uint256"
						}
					],
					"stateMutability": "view",
					"type": "function"
				},
				{
					"inputs": [
						{
							"internalType": "address",
							"name": "spender",
							"type": "address"
						},
						{
							"internalType": "uint256",
							"name": "amount",
							"type": "uint256"
						}
					],
					"name": "approve",
					"outputs": [
						{
							"internalType": "bool",
							"name": "",
							"type": "bool"
						}
					],
					"stateMutability": "nonpayable",
					"type": "function"
				},
				{
					"inputs": [
						{
							"internalType": "address",
							"name": "account",
							"type": "address"
						}
					],
					"name": "balanceOf",
					"outputs": [
						{
							"internalType": "uint256",
							"name": "",
							"type": "uint256"
						}
					],
					"stateMutability": "view",
					"type": "function"
				},
				{
					"inputs": [
						{
							"internalType": "uint256",
							"name": "val",
							"type": "uint256"
						}
					],
					"name": "burn",
					"outputs": [],
					"stateMutability": "nonpayable",
					"type": "function"
				},
				{
					"inputs": [],
					"name": "decimals",
					"outputs": [
						{
							"internalType": "uint8",
							"name": "",
							"type": "uint8"
						}
					],
					"stateMutability": "view",
					"type": "function"
				},
				{
					"inputs": [
						{
							"internalType": "address",
							"name": "spender",
							"type": "address"
						},
						{
							"internalType": "uint256",
							"name": "subtractedValue",
							"type": "uint256"
						}
					],
					"name": "decreaseAllowance",
					"outputs": [
						{
							"internalType": "bool",
							"name": "",
							"type": "bool"
						}
					],
					"stateMutability": "nonpayable",
					"type": "function"
				},
				{
					"inputs": [
						{
							"internalType": "address",
							"name": "spender",
							"type": "address"
						},
						{
							"internalType": "uint256",
							"name": "addedValue",
							"type": "uint256"
						}
					],
					"name": "increaseAllowance",
					"outputs": [
						{
							"internalType": "bool",
							"name": "",
							"type": "bool"
						}
					],
					"stateMutability": "nonpayable",
					"type": "function"
				},
				{
					"inputs": [
						{
							"internalType": "address",
							"name": "to",
							"type": "address"
						},
						{
							"internalType": "uint256",
							"name": "amount",
							"type": "uint256"
						}
					],
					"name": "mint",
					"outputs": [],
					"stateMutability": "nonpayable",
					"type": "function"
				},
				{
					"inputs": [],
					"name": "name",
					"outputs": [
						{
							"internalType": "string",
							"name": "",
							"type": "string"
						}
					],
					"stateMutability": "view",
					"type": "function"
				},
				{
					"inputs": [],
					"name": "owner",
					"outputs": [
						{
							"internalType": "address",
							"name": "",
							"type": "address"
						}
					],
					"stateMutability": "view",
					"type": "function"
				},
				{
					"inputs": [
						{
							"internalType": "address",
							"name": "spender",
							"type": "address"
						},
						{
							"internalType": "uint256",
							"name": "carId",
							"type": "uint256"
						}
					],
					"name": "redeemToken",
					"outputs": [],
					"stateMutability": "payable",
					"type": "function"
				},
				{
					"inputs": [
						{
							"internalType": "uint256",
							"name": "",
							"type": "uint256"
						}
					],
					"name": "redeemableCars",
					"outputs": [
						{
							"internalType": "string",
							"name": "name",
							"type": "string"
						},
						{
							"internalType": "uint256",
							"name": "price",
							"type": "uint256"
						}
					],
					"stateMutability": "view",
					"type": "function"
				},
				{
					"inputs": [],
					"name": "renounceOwnership",
					"outputs": [],
					"stateMutability": "nonpayable",
					"type": "function"
				},
				{
					"inputs": [],
					"name": "showStore",
					"outputs": [
						{
							"internalType": "string[]",
							"name": "",
							"type": "string[]"
						}
					],
					"stateMutability": "view",
					"type": "function"
				},
				{
					"inputs": [
						{
							"internalType": "address",
							"name": "user",
							"type": "address"
						}
					],
					"name": "showUserCollection",
					"outputs": [
						{
							"internalType": "string[]",
							"name": "",
							"type": "string[]"
						}
					],
					"stateMutability": "view",
					"type": "function"
				},
				{
					"inputs": [],
					"name": "symbol",
					"outputs": [
						{
							"internalType": "string",
							"name": "",
							"type": "string"
						}
					],
					"stateMutability": "view",
					"type": "function"
				},
				{
					"inputs": [],
					"name": "totalSupply",
					"outputs": [
						{
							"internalType": "uint256",
							"name": "",
							"type": "uint256"
						}
					],
					"stateMutability": "view",
					"type": "function"
				},
				{
					"inputs": [
						{
							"internalType": "address",
							"name": "to",
							"type": "address"
						},
						{
							"internalType": "uint256",
							"name": "amount",
							"type": "uint256"
						}
					],
					"name": "transfer",
					"outputs": [
						{
							"internalType": "bool",
							"name": "",
							"type": "bool"
						}
					],
					"stateMutability": "nonpayable",
					"type": "function"
				},
				{
					"inputs": [
						{
							"internalType": "address",
							"name": "from",
							"type": "address"
						},
						{
							"internalType": "address",
							"name": "to",
							"type": "address"
						},
						{
							"internalType": "uint256",
							"name": "amount",
							"type": "uint256"
						}
					],
					"name": "transferFrom",
					"outputs": [
						{
							"internalType": "bool",
							"name": "",
							"type": "bool"
						}
					],
					"stateMutability": "nonpayable",
					"type": "function"
				},
				{
					"inputs": [
						{
							"internalType": "address",
							"name": "newOwner",
							"type": "address"
						}
					],
					"name": "transferOwnership",
					"outputs": [],
					"stateMutability": "nonpayable",
					"type": "function"
				},
				{
					"inputs": [
						{
							"internalType": "address",
							"name": "sender",
							"type": "address"
						},
						{
							"internalType": "address",
							"name": "_receiver",
							"type": "address"
						},
						{
							"internalType": "uint256",
							"name": "val",
							"type": "uint256"
						}
					],
					"name": "transferToken",
					"outputs": [],
					"stateMutability": "nonpayable",
					"type": "function"
				},
				{
					"inputs": [
						{
							"internalType": "address",
							"name": "",
							"type": "address"
						},
						{
							"internalType": "uint256",
							"name": "",
							"type": "uint256"
						}
					],
					"name": "userCollections",
					"outputs": [
						{
							"internalType": "string",
							"name": "name",
							"type": "string"
						},
						{
							"internalType": "uint256",
							"name": "id",
							"type": "uint256"
						}
					],
					"stateMutability": "view",
					"type": "function"
				}
			],
			"devdoc": {
				"events": {
					"Approval(address,address,uint256)": {
						"details": "Emitted when the allowance of a `spender` for an `owner` is set by a call to {approve}. `value` is the new allowance."
					},
					"Transfer(address,address,uint256)": {
						"details": "Emitted when `value` tokens are moved from one account (`from`) to another (`to`). Note that `value` may be zero."
					}
				},
				"kind": "dev",
				"methods": {
					"allowance(address,address)": {
						"details": "See {IERC20-allowance}."
					},
					"approve(address,uint256)": {
						"details": "See {IERC20-approve}. NOTE: If `amount` is the maximum `uint256`, the allowance is not updated on `transferFrom`. This is semantically equivalent to an infinite approval. Requirements: - `spender` cannot be the zero address."
					},
					"balanceOf(address)": {
						"details": "See {IERC20-balanceOf}."
					},
					"decimals()": {
						"details": "Returns the number of decimals used to get its user representation. For example, if `decimals` equals `2`, a balance of `505` tokens should be displayed to a user as `5.05` (`505 / 10 ** 2`). Tokens usually opt for a value of 18, imitating the relationship between Ether and Wei. This is the default value returned by this function, unless it's overridden. NOTE: This information is only used for _display_ purposes: it in no way affects any of the arithmetic of the contract, including {IERC20-balanceOf} and {IERC20-transfer}."
					},
					"decreaseAllowance(address,uint256)": {
						"details": "Atomically decreases the allowance granted to `spender` by the caller. This is an alternative to {approve} that can be used as a mitigation for problems described in {IERC20-approve}. Emits an {Approval} event indicating the updated allowance. Requirements: - `spender` cannot be the zero address. - `spender` must have allowance for the caller of at least `subtractedValue`."
					},
					"increaseAllowance(address,uint256)": {
						"details": "Atomically increases the allowance granted to `spender` by the caller. This is an alternative to {approve} that can be used as a mitigation for problems described in {IERC20-approve}. Emits an {Approval} event indicating the updated allowance. Requirements: - `spender` cannot be the zero address."
					},
					"name()": {
						"details": "Returns the name of the token."
					},
					"owner()": {
						"details": "Returns the address of the current owner."
					},
					"renounceOwnership()": {
						"details": "Leaves the contract without owner. It will not be possible to call `onlyOwner` functions. Can only be called by the current owner. NOTE: Renouncing ownership will leave the contract without an owner, thereby disabling any functionality that is only available to the owner."
					},
					"symbol()": {
						"details": "Returns the symbol of the token, usually a shorter version of the name."
					},
					"totalSupply()": {
						"details": "See {IERC20-totalSupply}."
					},
					"transfer(address,uint256)": {
						"details": "See {IERC20-transfer}. Requirements: - `to` cannot be the zero address. - the caller must have a balance of at least `amount`."
					},
					"transferFrom(address,address,uint256)": {
						"details": "See {IERC20-transferFrom}. Emits an {Approval} event indicating the updated allowance. This is not required by the EIP. See the note at the beginning of {ERC20}. NOTE: Does not update the allowance if the current allowance is the maximum `uint256`. Requirements: - `from` and `to` cannot be the zero address. - `from` must have a balance of at least `amount`. - the caller must have allowance for ``from``'s tokens of at least `amount`."
					},
					"transferOwnership(address)": {
						"details": "Transfers ownership of the contract to a new account (`newOwner`). Can only be called by the current owner."
					}
				},
				"version": 1
			},
			"evm": {
				"assembly": "    /* \"contracts/DegenToken.sol\":174:2930  contract DegenToken is ERC20, Ownable {... */\n  mstore(0x40, 0x80)\n    /* \"contracts/DegenToken.sol\":580:1171  constructor() ERC20(\"Degen Token\", \"DEGEN\") {... */\n  callvalue\n  dup1\n  iszero\n  tag_1\n  jumpi\n  0x00\n  dup1\n  revert\ntag_1:\n  pop\n    /* \"@openzeppelin/contracts/token/ERC20/ERC20.sol\":1980:2093  constructor(string memory name_, string memory symbol_) {... */\n  mload(0x40)\n  dup1\n  0x40\n  add\n  0x40\n  mstore\n  dup1\n  0x0b\n  dup2\n  mstore\n  0x20\n  add\n  0x446567656e20546f6b656e000000000000000000000000000000000000000000\n  dup2\n  mstore\n  pop\n  mload(0x40)\n  dup1\n  0x40\n  add\n  0x40\n  mstore\n  dup1\n  0x05\n  dup2\n  mstore\n  0x20\n  add\n  0x444547454e000000000000000000000000000000000000000000000000000000\n  dup2\n  mstore\n  pop\n    /* \"@openzeppelin/contracts/token/ERC20/ERC20.sol\":2054:2059  name_ */\n  dup2\n    /* \"@openzeppelin/contracts/token/ERC20/ERC20.sol\":2046:2051  _name */\n  0x03\n    /* \"@openzeppelin/contracts/token/ERC20/ERC20.sol\":2046:2059  _name = name_ */\n  swap1\n  dup2\n  tag_6\n  swap2\n  swap1\n  tag_7\n  jump\t// in\ntag_6:\n  pop\n    /* \"@openzeppelin/contracts/token/ERC20/ERC20.sol\":2079:2086  symbol_ */\n  dup1\n    /* \"@openzeppelin/contracts/token/ERC20/ERC20.sol\":2069:2076  _symbol */\n  0x04\n    /* \"@openzeppelin/contracts/token/ERC20/ERC20.sol\":2069:2086  _symbol = symbol_ */\n  swap1\n  dup2\n  tag_8\n  swap2\n  swap1\n  tag_7\n  jump\t// in\ntag_8:\n  pop\n    /* \"@openzeppelin/contracts/token/ERC20/ERC20.sol\":1980:2093  constructor(string memory name_, string memory symbol_) {... */\n  pop\n  pop\n    /* \"@openzeppelin/contracts/access/Ownable.sol\":936:968  _transferOwnership(_msgSender()) */\n  tag_10\n    /* \"@openzeppelin/contracts/access/Ownable.sol\":955:967  _msgSender() */\n  tag_11\n    /* \"@openzeppelin/contracts/access/Ownable.sol\":955:965  _msgSender */\n  shl(0x20, tag_12)\n    /* \"@openzeppelin/contracts/access/Ownable.sol\":955:967  _msgSender() */\n  0x20\n  shr\n  jump\t// in\ntag_11:\n    /* \"@openzeppelin/contracts/access/Ownable.sol\":936:954  _transferOwnership */\n  shl(0x20, tag_13)\n    /* \"@openzeppelin/contracts/access/Ownable.sol\":936:968  _transferOwnership(_msgSender()) */\n  0x20\n  shr\n  jump\t// in\ntag_10:\n    /* \"contracts/DegenToken.sol\":655:689  Store(\"NFT: Bugatti Chiron\", 8500) */\n  mload(0x40)\n  dup1\n  0x40\n  add\n  0x40\n  mstore\n  dup1\n  mload(0x40)\n  dup1\n  0x40\n  add\n  0x40\n  mstore\n  dup1\n  0x13\n  dup2\n  mstore\n  0x20\n  add\n  0x4e46543a204275676174746920436869726f6e00000000000000000000000000\n  dup2\n  mstore\n  pop\n  dup2\n  mstore\n  0x20\n  add\n    /* \"contracts/DegenToken.sol\":684:688  8500 */\n  0x2134\n    /* \"contracts/DegenToken.sol\":655:689  Store(\"NFT: Bugatti Chiron\", 8500) */\n  dup2\n  mstore\n  pop\n    /* \"contracts/DegenToken.sol\":635:649  redeemableCars */\n  0x06\n    /* \"contracts/DegenToken.sol\":635:652  redeemableCars[1] */\n  0x00\n    /* \"contracts/DegenToken.sol\":650:651  1 */\n  0x01\n    /* \"contracts/DegenToken.sol\":635:652  redeemableCars[1] */\n  dup2\n  mstore\n  0x20\n  add\n  swap1\n  dup2\n  mstore\n  0x20\n  add\n  0x00\n  keccak256\n    /* \"contracts/DegenToken.sol\":635:689  redeemableCars[1] = Store(\"NFT: Bugatti Chiron\", 8500) */\n  0x00\n  dup3\n  add\n  mload\n  dup2\n  0x00\n  add\n  swap1\n  dup2\n  tag_15\n  swap2\n  swap1\n  tag_7\n  jump\t// in\ntag_15:\n  pop\n  0x20\n  dup3\n  add\n  mload\n  dup2\n  0x01\n  add\n  sstore\n  swap1\n  pop\n  pop\n    /* \"contracts/DegenToken.sol\":720:761  Store(\"NFT: Lamborghini Aventador\", 2000) */\n  mload(0x40)\n  dup1\n  0x40\n  add\n  0x40\n  mstore\n  dup1\n  mload(0x40)\n  dup1\n  0x40\n  add\n  0x40\n  mstore\n  dup1\n  0x1a\n  dup2\n  mstore\n  0x20\n  add\n  0x4e46543a204c616d626f726768696e69204176656e7461646f72000000000000\n  dup2\n  mstore\n  pop\n  dup2\n  mstore\n  0x20\n  add\n    /* \"contracts/DegenToken.sol\":756:760  2000 */\n  0x07d0\n    /* \"contracts/DegenToken.sol\":720:761  Store(\"NFT: Lamborghini Aventador\", 2000) */\n  dup2\n  mstore\n  pop\n    /* \"contracts/DegenToken.sol\":700:714  redeemableCars */\n  0x06\n    /* \"contracts/DegenToken.sol\":700:717  redeemableCars[2] */\n  0x00\n    /* \"contracts/DegenToken.sol\":715:716  2 */\n  0x02\n    /* \"contracts/DegenToken.sol\":700:717  redeemableCars[2] */\n  dup2\n  mstore\n  0x20\n  add\n  swap1\n  dup2\n  mstore\n  0x20\n  add\n  0x00\n  keccak256\n    /* \"contracts/DegenToken.sol\":700:761  redeemableCars[2] = Store(\"NFT: Lamborghini Aventador\", 2000) */\n  0x00\n  dup3\n  add\n  mload\n  dup2\n  0x00\n  add\n  swap1\n  dup2\n  tag_16\n  swap2\n  swap1\n  tag_7\n  jump\t// in\ntag_16:\n  pop\n  0x20\n  dup3\n  add\n  mload\n  dup2\n  0x01\n  add\n  sstore\n  swap1\n  pop\n  pop\n    /* \"contracts/DegenToken.sol\":792:829  Store(\"NFT: Ferrari LaFerrari\", 3000) */\n  mload(0x40)\n  dup1\n  0x40\n  add\n  0x40\n  mstore\n  dup1\n  mload(0x40)\n  dup1\n  0x40\n  add\n  0x40\n  mstore\n  dup1\n  0x16\n  dup2\n  mstore\n  0x20\n  add\n  0x4e46543a2046657272617269204c614665727261726900000000000000000000\n  dup2\n  mstore\n  pop\n  dup2\n  mstore\n  0x20\n  add\n    /* \"contracts/DegenToken.sol\":824:828  3000 */\n  0x0bb8\n    /* \"contracts/DegenToken.sol\":792:829  Store(\"NFT: Ferrari LaFerrari\", 3000) */\n  dup2\n  mstore\n  pop\n    /* \"contracts/DegenToken.sol\":772:786  redeemableCars */\n  0x06\n    /* \"contracts/DegenToken.sol\":772:789  redeemableCars[3] */\n  0x00\n    /* \"contracts/DegenToken.sol\":787:788  3 */\n  0x03\n    /* \"contracts/DegenToken.sol\":772:789  redeemableCars[3] */\n  dup2\n  mstore\n  0x20\n  add\n  swap1\n  dup2\n  mstore\n  0x20\n  add\n  0x00\n  keccak256\n    /* \"contracts/DegenToken.sol\":772:829  redeemableCars[3] = Store(\"NFT: Ferrari LaFerrari\", 3000) */\n  0x00\n  dup3\n  add\n  mload\n  dup2\n  0x00\n  add\n  swap1\n  dup2\n  tag_17\n  swap2\n  swap1\n  tag_7\n  jump\t// in\ntag_17:\n  pop\n  0x20\n  dup3\n  add\n  mload\n  dup2\n  0x01\n  add\n  sstore\n  swap1\n  pop\n  pop\n    /* \"contracts/DegenToken.sol\":860:899  Store(\"NFT: Rolls-Royce Phantom\", 5000) */\n  mload(0x40)\n  dup1\n  0x40\n  add\n  0x40\n  mstore\n  dup1\n  mload(0x40)\n  dup1\n  0x40\n  add\n  0x40\n  mstore\n  dup1\n  0x18\n  dup2\n  mstore\n  0x20\n  add\n  0x4e46543a20526f6c6c732d526f796365205068616e746f6d0000000000000000\n  dup2\n  mstore\n  pop\n  dup2\n  mstore\n  0x20\n  add\n    /* \"contracts/DegenToken.sol\":894:898  5000 */\n  0x1388\n    /* \"contracts/DegenToken.sol\":860:899  Store(\"NFT: Rolls-Royce Phantom\", 5000) */\n  dup2\n  mstore\n  pop\n    /* \"contracts/DegenToken.sol\":840:854  redeemableCars */\n  0x06\n    /* \"contracts/DegenToken.sol\":840:857  redeemableCars[4] */\n  0x00\n    /* \"contracts/DegenToken.sol\":855:856  4 */\n  0x04\n    /* \"contracts/DegenToken.sol\":840:857  redeemableCars[4] */\n  dup2\n  mstore\n  0x20\n  add\n  swap1\n  dup2\n  mstore\n  0x20\n  add\n  0x00\n  keccak256\n    /* \"contracts/DegenToken.sol\":840:899  redeemableCars[4] = Store(\"NFT: Rolls-Royce Phantom\", 5000) */\n  0x00\n  dup3\n  add\n  mload\n  dup2\n  0x00\n  add\n  swap1\n  dup2\n  tag_18\n  swap2\n  swap1\n  tag_7\n  jump\t// in\ntag_18:\n  pop\n  0x20\n  dup3\n  add\n  mload\n  dup2\n  0x01\n  add\n  sstore\n  swap1\n  pop\n  pop\n    /* \"contracts/DegenToken.sol\":930:971  Store(\"NFT: Aston Martin Valkyrie\", 6000) */\n  mload(0x40)\n  dup1\n  0x40\n  add\n  0x40\n  mstore\n  dup1\n  mload(0x40)\n  dup1\n  0x40\n  add\n  0x40\n  mstore\n  dup1\n  0x1a\n  dup2\n  mstore\n  0x20\n  add\n  0x4e46543a204173746f6e204d617274696e2056616c6b79726965000000000000\n  dup2\n  mstore\n  pop\n  dup2\n  mstore\n  0x20\n  add\n    /* \"contracts/DegenToken.sol\":966:970  6000 */\n  0x1770\n    /* \"contracts/DegenToken.sol\":930:971  Store(\"NFT: Aston Martin Valkyrie\", 6000) */\n  dup2\n  mstore\n  pop\n    /* \"contracts/DegenToken.sol\":910:924  redeemableCars */\n  0x06\n    /* \"contracts/DegenToken.sol\":910:927  redeemableCars[5] */\n  0x00\n    /* \"contracts/DegenToken.sol\":925:926  5 */\n  0x05\n    /* \"contracts/DegenToken.sol\":910:927  redeemableCars[5] */\n  dup2\n  mstore\n  0x20\n  add\n  swap1\n  dup2\n  mstore\n  0x20\n  add\n  0x00\n  keccak256\n    /* \"contracts/DegenToken.sol\":910:971  redeemableCars[5] = Store(\"NFT: Aston Martin Valkyrie\", 6000) */\n  0x00\n  dup3\n  add\n  mload\n  dup2\n  0x00\n  add\n  swap1\n  dup2\n  tag_19\n  swap2\n  swap1\n  tag_7\n  jump\t// in\ntag_19:\n  pop\n  0x20\n  dup3\n  add\n  mload\n  dup2\n  0x01\n  add\n  sstore\n  swap1\n  pop\n  pop\n    /* \"contracts/DegenToken.sol\":1002:1032  Store(\"NFT: McLaren P1\", 6000) */\n  mload(0x40)\n  dup1\n  0x40\n  add\n  0x40\n  mstore\n  dup1\n  mload(0x40)\n  dup1\n  0x40\n  add\n  0x40\n  mstore\n  dup1\n  0x0f\n  dup2\n  mstore\n  0x20\n  add\n  0x4e46543a204d634c6172656e2050310000000000000000000000000000000000\n  dup2\n  mstore\n  pop\n  dup2\n  mstore\n  0x20\n  add\n    /* \"contracts/DegenToken.sol\":1027:1031  6000 */\n  0x1770\n    /* \"contracts/DegenToken.sol\":1002:1032  Store(\"NFT: McLaren P1\", 6000) */\n  dup2\n  mstore\n  pop\n    /* \"contracts/DegenToken.sol\":982:996  redeemableCars */\n  0x06\n    /* \"contracts/DegenToken.sol\":982:999  redeemableCars[6] */\n  0x00\n    /* \"contracts/DegenToken.sol\":997:998  6 */\n  0x06\n    /* \"contracts/DegenToken.sol\":982:999  redeemableCars[6] */\n  dup2\n  mstore\n  0x20\n  add\n  swap1\n  dup2\n  mstore\n  0x20\n  add\n  0x00\n  keccak256\n    /* \"contracts/DegenToken.sol\":982:1032  redeemableCars[6] = Store(\"NFT: McLaren P1\", 6000) */\n  0x00\n  dup3\n  add\n  mload\n  dup2\n  0x00\n  add\n  swap1\n  dup2\n  tag_20\n  swap2\n  swap1\n  tag_7\n  jump\t// in\ntag_20:\n  pop\n  0x20\n  dup3\n  add\n  mload\n  dup2\n  0x01\n  add\n  sstore\n  swap1\n  pop\n  pop\n    /* \"contracts/DegenToken.sol\":1063:1099  Store(\"NFT: Koenigsegg Jesko\", 7000) */\n  mload(0x40)\n  dup1\n  0x40\n  add\n  0x40\n  mstore\n  dup1\n  mload(0x40)\n  dup1\n  0x40\n  add\n  0x40\n  mstore\n  dup1\n  0x15\n  dup2\n  mstore\n  0x20\n  add\n  0x4e46543a204b6f656e696773656767204a65736b6f0000000000000000000000\n  dup2\n  mstore\n  pop\n  dup2\n  mstore\n  0x20\n  add\n    /* \"contracts/DegenToken.sol\":1094:1098  7000 */\n  0x1b58\n    /* \"contracts/DegenToken.sol\":1063:1099  Store(\"NFT: Koenigsegg Jesko\", 7000) */\n  dup2\n  mstore\n  pop\n    /* \"contracts/DegenToken.sol\":1043:1057  redeemableCars */\n  0x06\n    /* \"contracts/DegenToken.sol\":1043:1060  redeemableCars[7] */\n  0x00\n    /* \"contracts/DegenToken.sol\":1058:1059  7 */\n  0x07\n    /* \"contracts/DegenToken.sol\":1043:1060  redeemableCars[7] */\n  dup2\n  mstore\n  0x20\n  add\n  swap1\n  dup2\n  mstore\n  0x20\n  add\n  0x00\n  keccak256\n    /* \"contracts/DegenToken.sol\":1043:1099  redeemableCars[7] = Store(\"NFT: Koenigsegg Jesko\", 7000) */\n  0x00\n  dup3\n  add\n  mload\n  dup2\n  0x00\n  add\n  swap1\n  dup2\n  tag_21\n  swap2\n  swap1\n  tag_7\n  jump\t// in\ntag_21:\n  pop\n  0x20\n  dup3\n  add\n  mload\n  dup2\n  0x01\n  add\n  sstore\n  swap1\n  pop\n  pop\n    /* \"contracts/DegenToken.sol\":1130:1163  Store(\"NFT: Pagani Huayra\", 8000) */\n  mload(0x40)\n  dup1\n  0x40\n  add\n  0x40\n  mstore\n  dup1\n  mload(0x40)\n  dup1\n  0x40\n  add\n  0x40\n  mstore\n  dup1\n  0x12\n  dup2\n  mstore\n  0x20\n  add\n  0x4e46543a20506167616e69204875617972610000000000000000000000000000\n  dup2\n  mstore\n  pop\n  dup2\n  mstore\n  0x20\n  add\n    /* \"contracts/DegenToken.sol\":1158:1162  8000 */\n  0x1f40\n    /* \"contracts/DegenToken.sol\":1130:1163  Store(\"NFT: Pagani Huayra\", 8000) */\n  dup2\n  mstore\n  pop\n    /* \"contracts/DegenToken.sol\":1110:1124  redeemableCars */\n  0x06\n    /* \"contracts/DegenToken.sol\":1110:1127  redeemableCars[8] */\n  0x00\n    /* \"contracts/DegenToken.sol\":1125:1126  8 */\n  0x08\n    /* \"contracts/DegenToken.sol\":1110:1127  redeemableCars[8] */\n  dup2\n  mstore\n  0x20\n  add\n  swap1\n  dup2\n  mstore\n  0x20\n  add\n  0x00\n  keccak256\n    /* \"contracts/DegenToken.sol\":1110:1163  redeemableCars[8] = Store(\"NFT: Pagani Huayra\", 8000) */\n  0x00\n  dup3\n  add\n  mload\n  dup2\n  0x00\n  add\n  swap1\n  dup2\n  tag_22\n  swap2\n  swap1\n  tag_7\n  jump\t// in\ntag_22:\n  pop\n  0x20\n  dup3\n  add\n  mload\n  dup2\n  0x01\n  add\n  sstore\n  swap1\n  pop\n  pop\n    /* \"contracts/DegenToken.sol\":174:2930  contract DegenToken is ERC20, Ownable {... */\n  jump(tag_23)\n    /* \"@openzeppelin/contracts/utils/Context.sol\":655:751  function _msgSender() internal view virtual returns (address) {... */\ntag_12:\n    /* \"@openzeppelin/contracts/utils/Context.sol\":708:715  address */\n  0x00\n    /* \"@openzeppelin/contracts/utils/Context.sol\":734:744  msg.sender */\n  caller\n    /* \"@openzeppelin/contracts/utils/Context.sol\":727:744  return msg.sender */\n  swap1\n  pop\n    /* \"@openzeppelin/contracts/utils/Context.sol\":655:751  function _msgSender() internal view virtual returns (address) {... */\n  swap1\n  jump\t// out\n    /* \"@openzeppelin/contracts/access/Ownable.sol\":2426:2613  function _transferOwnership(address newOwner) internal virtual {... */\ntag_13:\n    /* \"@openzeppelin/contracts/access/Ownable.sol\":2499:2515  address oldOwner */\n  0x00\n    /* \"@openzeppelin/contracts/access/Ownable.sol\":2518:2524  _owner */\n  0x05\n  0x00\n  swap1\n  sload\n  swap1\n  0x0100\n  exp\n  swap1\n  div\n  0xffffffffffffffffffffffffffffffffffffffff\n  and\n    /* \"@openzeppelin/contracts/access/Ownable.sol\":2499:2524  address oldOwner = _owner */\n  swap1\n  pop\n    /* \"@openzeppelin/contracts/access/Ownable.sol\":2543:2551  newOwner */\n  dup2\n    /* \"@openzeppelin/contracts/access/Ownable.sol\":2534:2540  _owner */\n  0x05\n  0x00\n    /* \"@openzeppelin/contracts/access/Ownable.sol\":2534:2551  _owner = newOwner */\n  0x0100\n  exp\n  dup2\n  sload\n  dup2\n  0xffffffffffffffffffffffffffffffffffffffff\n  mul\n  not\n  and\n  swap1\n  dup4\n  0xffffffffffffffffffffffffffffffffffffffff\n  and\n  mul\n  or\n  swap1\n  sstore\n  pop\n    /* \"@openzeppelin/contracts/access/Ownable.sol\":2597:2605  newOwner */\n  dup2\n    /* \"@openzeppelin/contracts/access/Ownable.sol\":2566:2606  OwnershipTransferred(oldOwner, newOwner) */\n  0xffffffffffffffffffffffffffffffffffffffff\n  and\n    /* \"@openzeppelin/contracts/access/Ownable.sol\":2587:2595  oldOwner */\n  dup2\n    /* \"@openzeppelin/contracts/access/Ownable.sol\":2566:2606  OwnershipTransferred(oldOwner, newOwner) */\n  0xffffffffffffffffffffffffffffffffffffffff\n  and\n  0x8be0079c531659141344cd1fd0a4f28419497f9722a3daafe3b4186f6b6457e0\n  mload(0x40)\n  mload(0x40)\n  dup1\n  swap2\n  sub\n  swap1\n  log3\n    /* \"@openzeppelin/contracts/access/Ownable.sol\":2489:2613  {... */\n  pop\n    /* \"@openzeppelin/contracts/access/Ownable.sol\":2426:2613  function _transferOwnership(address newOwner) internal virtual {... */\n  pop\n  jump\t// out\n    /* \"#utility.yul\":7:106   */\ntag_26:\n    /* \"#utility.yul\":59:65   */\n  0x00\n    /* \"#utility.yul\":93:98   */\n  dup2\n    /* \"#utility.yul\":87:99   */\n  mload\n    /* \"#utility.yul\":77:99   */\n  swap1\n  pop\n    /* \"#utility.yul\":7:106   */\n  swap2\n  swap1\n  pop\n  jump\t// out\n    /* \"#utility.yul\":112:292   */\ntag_27:\n    /* \"#utility.yul\":160:237   */\n  0x4e487b7100000000000000000000000000000000000000000000000000000000\n    /* \"#utility.yul\":157:158   */\n  0x00\n    /* \"#utility.yul\":150:238   */\n  mstore\n    /* \"#utility.yul\":257:261   */\n  0x41\n    /* \"#utility.yul\":254:255   */\n  0x04\n    /* \"#utility.yul\":247:262   */\n  mstore\n    /* \"#utility.yul\":281:285   */\n  0x24\n    /* \"#utility.yul\":278:279   */\n  0x00\n    /* \"#utility.yul\":271:286   */\n  revert\n    /* \"#utility.yul\":298:478   */\ntag_28:\n    /* \"#utility.yul\":346:423   */\n  0x4e487b7100000000000000000000000000000000000000000000000000000000\n    /* \"#utility.yul\":343:344   */\n  0x00\n    /* \"#utility.yul\":336:424   */\n  mstore\n    /* \"#utility.yul\":443:447   */\n  0x22\n    /* \"#utility.yul\":440:441   */\n  0x04\n    /* \"#utility.yul\":433:448   */\n  mstore\n    /* \"#utility.yul\":467:471   */\n  0x24\n    /* \"#utility.yul\":464:465   */\n  0x00\n    /* \"#utility.yul\":457:472   */\n  revert\n    /* \"#utility.yul\":484:804   */\ntag_29:\n    /* \"#utility.yul\":528:534   */\n  0x00\n    /* \"#utility.yul\":565:566   */\n  0x02\n    /* \"#utility.yul\":559:563   */\n  dup3\n    /* \"#utility.yul\":555:567   */\n  div\n    /* \"#utility.yul\":545:567   */\n  swap1\n  pop\n    /* \"#utility.yul\":612:613   */\n  0x01\n    /* \"#utility.yul\":606:610   */\n  dup3\n    /* \"#utility.yul\":602:614   */\n  and\n    /* \"#utility.yul\":633:651   */\n  dup1\n    /* \"#utility.yul\":623:704   */\n  tag_51\n  jumpi\n    /* \"#utility.yul\":689:693   */\n  0x7f\n    /* \"#utility.yul\":681:687   */\n  dup3\n    /* \"#utility.yul\":677:694   */\n  and\n    /* \"#utility.yul\":667:694   */\n  swap2\n  pop\n    /* \"#utility.yul\":623:704   */\ntag_51:\n    /* \"#utility.yul\":751:753   */\n  0x20\n    /* \"#utility.yul\":743:749   */\n  dup3\n    /* \"#utility.yul\":740:754   */\n  lt\n    /* \"#utility.yul\":720:738   */\n  dup2\n    /* \"#utility.yul\":717:755   */\n  sub\n    /* \"#utility.yul\":714:798   */\n  tag_52\n  jumpi\n    /* \"#utility.yul\":770:788   */\n  tag_53\n  tag_28\n  jump\t// in\ntag_53:\n    /* \"#utility.yul\":714:798   */\ntag_52:\n    /* \"#utility.yul\":535:804   */\n  pop\n    /* \"#utility.yul\":484:804   */\n  swap2\n  swap1\n  pop\n  jump\t// out\n    /* \"#utility.yul\":810:951   */\ntag_30:\n    /* \"#utility.yul\":859:863   */\n  0x00\n    /* \"#utility.yul\":882:885   */\n  dup2\n    /* \"#utility.yul\":874:885   */\n  swap1\n  pop\n    /* \"#utility.yul\":905:908   */\n  dup2\n    /* \"#utility.yul\":902:903   */\n  0x00\n    /* \"#utility.yul\":895:909   */\n  mstore\n    /* \"#utility.yul\":939:943   */\n  0x20\n    /* \"#utility.yul\":936:937   */\n  0x00\n    /* \"#utility.yul\":926:944   */\n  keccak256\n    /* \"#utility.yul\":918:944   */\n  swap1\n  pop\n    /* \"#utility.yul\":810:951   */\n  swap2\n  swap1\n  pop\n  jump\t// out\n    /* \"#utility.yul\":957:1050   */\ntag_31:\n    /* \"#utility.yul\":994:1000   */\n  0x00\n    /* \"#utility.yul\":1041:1043   */\n  0x20\n    /* \"#utility.yul\":1036:1038   */\n  0x1f\n    /* \"#utility.yul\":1029:1034   */\n  dup4\n    /* \"#utility.yul\":1025:1039   */\n  add\n    /* \"#utility.yul\":1021:1044   */\n  div\n    /* \"#utility.yul\":1011:1044   */\n  swap1\n  pop\n    /* \"#utility.yul\":957:1050   */\n  swap2\n  swap1\n  pop\n  jump\t// out\n    /* \"#utility.yul\":1056:1163   */\ntag_32:\n    /* \"#utility.yul\":1100:1108   */\n  0x00\n    /* \"#utility.yul\":1150:1155   */\n  dup3\n    /* \"#utility.yul\":1144:1148   */\n  dup3\n    /* \"#utility.yul\":1140:1156   */\n  shl\n    /* \"#utility.yul\":1119:1156   */\n  swap1\n  pop\n    /* \"#utility.yul\":1056:1163   */\n  swap3\n  swap2\n  pop\n  pop\n  jump\t// out\n    /* \"#utility.yul\":1169:1562   */\ntag_33:\n    /* \"#utility.yul\":1238:1244   */\n  0x00\n    /* \"#utility.yul\":1288:1289   */\n  0x08\n    /* \"#utility.yul\":1276:1286   */\n  dup4\n    /* \"#utility.yul\":1272:1290   */\n  mul\n    /* \"#utility.yul\":1311:1408   */\n  tag_58\n    /* \"#utility.yul\":1341:1407   */\n  0xffffffffffffffffffffffffffffffffffffffffffffffffffffffffffffffff\n    /* \"#utility.yul\":1330:1339   */\n  dup3\n    /* \"#utility.yul\":1311:1408   */\n  tag_32\n  jump\t// in\ntag_58:\n    /* \"#utility.yul\":1429:1468   */\n  tag_59\n    /* \"#utility.yul\":1459:1467   */\n  dup7\n    /* \"#utility.yul\":1448:1457   */\n  dup4\n    /* \"#utility.yul\":1429:1468   */\n  tag_32\n  jump\t// in\ntag_59:\n    /* \"#utility.yul\":1417:1468   */\n  swap6\n  pop\n    /* \"#utility.yul\":1501:1505   */\n  dup1\n    /* \"#utility.yul\":1497:1506   */\n  not\n    /* \"#utility.yul\":1490:1495   */\n  dup5\n    /* \"#utility.yul\":1486:1507   */\n  and\n    /* \"#utility.yul\":1477:1507   */\n  swap4\n  pop\n    /* \"#utility.yul\":1550:1554   */\n  dup1\n    /* \"#utility.yul\":1540:1548   */\n  dup7\n    /* \"#utility.yul\":1536:1555   */\n  and\n    /* \"#utility.yul\":1529:1534   */\n  dup5\n    /* \"#utility.yul\":1526:1556   */\n  or\n    /* \"#utility.yul\":1516:1556   */\n  swap3\n  pop\n    /* \"#utility.yul\":1245:1562   */\n  pop\n  pop\n    /* \"#utility.yul\":1169:1562   */\n  swap4\n  swap3\n  pop\n  pop\n  pop\n  jump\t// out\n    /* \"#utility.yul\":1568:1645   */\ntag_34:\n    /* \"#utility.yul\":1605:1612   */\n  0x00\n    /* \"#utility.yul\":1634:1639   */\n  dup2\n    /* \"#utility.yul\":1623:1639   */\n  swap1\n  pop\n    /* \"#utility.yul\":1568:1645   */\n  swap2\n  swap1\n  pop\n  jump\t// out\n    /* \"#utility.yul\":1651:1711   */\ntag_35:\n    /* \"#utility.yul\":1679:1682   */\n  0x00\n    /* \"#utility.yul\":1700:1705   */\n  dup2\n    /* \"#utility.yul\":1693:1705   */\n  swap1\n  pop\n    /* \"#utility.yul\":1651:1711   */\n  swap2\n  swap1\n  pop\n  jump\t// out\n    /* \"#utility.yul\":1717:1859   */\ntag_36:\n    /* \"#utility.yul\":1767:1776   */\n  0x00\n    /* \"#utility.yul\":1800:1853   */\n  tag_63\n    /* \"#utility.yul\":1818:1852   */\n  tag_64\n    /* \"#utility.yul\":1827:1851   */\n  tag_65\n    /* \"#utility.yul\":1845:1850   */\n  dup5\n    /* \"#utility.yul\":1827:1851   */\n  tag_34\n  jump\t// in\ntag_65:\n    /* \"#utility.yul\":1818:1852   */\n  tag_35\n  jump\t// in\ntag_64:\n    /* \"#utility.yul\":1800:1853   */\n  tag_34\n  jump\t// in\ntag_63:\n    /* \"#utility.yul\":1787:1853   */\n  swap1\n  pop\n    /* \"#utility.yul\":1717:1859   */\n  swap2\n  swap1\n  pop\n  jump\t// out\n    /* \"#utility.yul\":1865:1940   */\ntag_37:\n    /* \"#utility.yul\":1908:1911   */\n  0x00\n    /* \"#utility.yul\":1929:1934   */\n  dup2\n    /* \"#utility.yul\":1922:1934   */\n  swap1\n  pop\n    /* \"#utility.yul\":1865:1940   */\n  swap2\n  swap1\n  pop\n  jump\t// out\n    /* \"#utility.yul\":1946:2215   */\ntag_38:\n    /* \"#utility.yul\":2056:2095   */\n  tag_68\n    /* \"#utility.yul\":2087:2094   */\n  dup4\n    /* \"#utility.yul\":2056:2095   */\n  tag_36\n  jump\t// in\ntag_68:\n    /* \"#utility.yul\":2117:2208   */\n  tag_69\n    /* \"#utility.yul\":2166:2207   */\n  tag_70\n    /* \"#utility.yul\":2190:2206   */\n  dup3\n    /* \"#utility.yul\":2166:2207   */\n  tag_37\n  jump\t// in\ntag_70:\n    /* \"#utility.yul\":2158:2164   */\n  dup5\n    /* \"#utility.yul\":2151:2155   */\n  dup5\n    /* \"#utility.yul\":2145:2156   */\n  sload\n    /* \"#utility.yul\":2117:2208   */\n  tag_33\n  jump\t// in\ntag_69:\n    /* \"#utility.yul\":2111:2115   */\n  dup3\n    /* \"#utility.yul\":2104:2209   */\n  sstore\n    /* \"#utility.yul\":2022:2215   */\n  pop\n    /* \"#utility.yul\":1946:2215   */\n  pop\n  pop\n  pop\n  jump\t// out\n    /* \"#utility.yul\":2221:2294   */\ntag_39:\n    /* \"#utility.yul\":2266:2269   */\n  0x00\n    /* \"#utility.yul\":2221:2294   */\n  swap1\n  jump\t// out\n    /* \"#utility.yul\":2300:2489   */\ntag_40:\n    /* \"#utility.yul\":2377:2409   */\n  tag_73\n  tag_39\n  jump\t// in\ntag_73:\n    /* \"#utility.yul\":2418:2483   */\n  tag_74\n    /* \"#utility.yul\":2476:2482   */\n  dup2\n    /* \"#utility.yul\":2468:2474   */\n  dup5\n    /* \"#utility.yul\":2462:2466   */\n  dup5\n    /* \"#utility.yul\":2418:2483   */\n  tag_38\n  jump\t// in\ntag_74:\n    /* \"#utility.yul\":2353:2489   */\n  pop\n    /* \"#utility.yul\":2300:2489   */\n  pop\n  pop\n  jump\t// out\n    /* \"#utility.yul\":2495:2681   */\ntag_41:\n    /* \"#utility.yul\":2555:2675   */\ntag_76:\n    /* \"#utility.yul\":2572:2575   */\n  dup2\n    /* \"#utility.yul\":2565:2570   */\n  dup2\n    /* \"#utility.yul\":2562:2576   */\n  lt\n    /* \"#utility.yul\":2555:2675   */\n  iszero\n  tag_78\n  jumpi\n    /* \"#utility.yul\":2626:2665   */\n  tag_79\n    /* \"#utility.yul\":2663:2664   */\n  0x00\n    /* \"#utility.yul\":2656:2661   */\n  dup3\n    /* \"#utility.yul\":2626:2665   */\n  tag_40\n  jump\t// in\ntag_79:\n    /* \"#utility.yul\":2599:2600   */\n  0x01\n    /* \"#utility.yul\":2592:2597   */\n  dup2\n    /* \"#utility.yul\":2588:2601   */\n  add\n    /* \"#utility.yul\":2579:2601   */\n  swap1\n  pop\n    /* \"#utility.yul\":2555:2675   */\n  jump(tag_76)\ntag_78:\n    /* \"#utility.yul\":2495:2681   */\n  pop\n  pop\n  jump\t// out\n    /* \"#utility.yul\":2687:3230   */\ntag_42:\n    /* \"#utility.yul\":2788:2790   */\n  0x1f\n    /* \"#utility.yul\":2783:2786   */\n  dup3\n    /* \"#utility.yul\":2780:2791   */\n  gt\n    /* \"#utility.yul\":2777:3223   */\n  iszero\n  tag_81\n  jumpi\n    /* \"#utility.yul\":2822:2860   */\n  tag_82\n    /* \"#utility.yul\":2854:2859   */\n  dup2\n    /* \"#utility.yul\":2822:2860   */\n  tag_30\n  jump\t// in\ntag_82:\n    /* \"#utility.yul\":2906:2935   */\n  tag_83\n    /* \"#utility.yul\":2924:2934   */\n  dup5\n    /* \"#utility.yul\":2906:2935   */\n  tag_31\n  jump\t// in\ntag_83:\n    /* \"#utility.yul\":2896:2904   */\n  dup2\n    /* \"#utility.yul\":2892:2936   */\n  add\n    /* \"#utility.yul\":3089:3091   */\n  0x20\n    /* \"#utility.yul\":3077:3087   */\n  dup6\n    /* \"#utility.yul\":3074:3092   */\n  lt\n    /* \"#utility.yul\":3071:3120   */\n  iszero\n  tag_84\n  jumpi\n    /* \"#utility.yul\":3110:3118   */\n  dup2\n    /* \"#utility.yul\":3095:3118   */\n  swap1\n  pop\n    /* \"#utility.yul\":3071:3120   */\ntag_84:\n    /* \"#utility.yul\":3133:3213   */\n  tag_85\n    /* \"#utility.yul\":3189:3211   */\n  tag_86\n    /* \"#utility.yul\":3207:3210   */\n  dup6\n    /* \"#utility.yul\":3189:3211   */\n  tag_31\n  jump\t// in\ntag_86:\n    /* \"#utility.yul\":3179:3187   */\n  dup4\n    /* \"#utility.yul\":3175:3212   */\n  add\n    /* \"#utility.yul\":3162:3173   */\n  dup3\n    /* \"#utility.yul\":3133:3213   */\n  tag_41\n  jump\t// in\ntag_85:\n    /* \"#utility.yul\":2792:3223   */\n  pop\n  pop\n    /* \"#utility.yul\":2777:3223   */\ntag_81:\n    /* \"#utility.yul\":2687:3230   */\n  pop\n  pop\n  pop\n  jump\t// out\n    /* \"#utility.yul\":3236:3353   */\ntag_43:\n    /* \"#utility.yul\":3290:3298   */\n  0x00\n    /* \"#utility.yul\":3340:3345   */\n  dup3\n    /* \"#utility.yul\":3334:3338   */\n  dup3\n    /* \"#utility.yul\":3330:3346   */\n  shr\n    /* \"#utility.yul\":3309:3346   */\n  swap1\n  pop\n    /* \"#utility.yul\":3236:3353   */\n  swap3\n  swap2\n  pop\n  pop\n  jump\t// out\n    /* \"#utility.yul\":3359:3528   */\ntag_44:\n    /* \"#utility.yul\":3403:3409   */\n  0x00\n    /* \"#utility.yul\":3436:3487   */\n  tag_89\n    /* \"#utility.yul\":3484:3485   */\n  0x00\n    /* \"#utility.yul\":3480:3486   */\n  not\n    /* \"#utility.yul\":3472:3477   */\n  dup5\n    /* \"#utility.yul\":3469:3470   */\n  0x08\n    /* \"#utility.yul\":3465:3478   */\n  mul\n    /* \"#utility.yul\":3436:3487   */\n  tag_43\n  jump\t// in\ntag_89:\n    /* \"#utility.yul\":3432:3488   */\n  not\n    /* \"#utility.yul\":3517:3521   */\n  dup1\n    /* \"#utility.yul\":3511:3515   */\n  dup4\n    /* \"#utility.yul\":3507:3522   */\n  and\n    /* \"#utility.yul\":3497:3522   */\n  swap2\n  pop\n    /* \"#utility.yul\":3410:3528   */\n  pop\n    /* \"#utility.yul\":3359:3528   */\n  swap3\n  swap2\n  pop\n  pop\n  jump\t// out\n    /* \"#utility.yul\":3533:3828   */\ntag_45:\n    /* \"#utility.yul\":3609:3613   */\n  0x00\n    /* \"#utility.yul\":3755:3784   */\n  tag_91\n    /* \"#utility.yul\":3780:3783   */\n  dup4\n    /* \"#utility.yul\":3774:3778   */\n  dup4\n    /* \"#utility.yul\":3755:3784   */\n  tag_44\n  jump\t// in\ntag_91:\n    /* \"#utility.yul\":3747:3784   */\n  swap2\n  pop\n    /* \"#utility.yul\":3817:3820   */\n  dup3\n    /* \"#utility.yul\":3814:3815   */\n  0x02\n    /* \"#utility.yul\":3810:3821   */\n  mul\n    /* \"#utility.yul\":3804:3808   */\n  dup3\n    /* \"#utility.yul\":3801:3822   */\n  or\n    /* \"#utility.yul\":3793:3822   */\n  swap1\n  pop\n    /* \"#utility.yul\":3533:3828   */\n  swap3\n  swap2\n  pop\n  pop\n  jump\t// out\n    /* \"#utility.yul\":3833:5228   */\ntag_7:\n    /* \"#utility.yul\":3950:3987   */\n  tag_93\n    /* \"#utility.yul\":3983:3986   */\n  dup3\n    /* \"#utility.yul\":3950:3987   */\n  tag_26\n  jump\t// in\ntag_93:\n    /* \"#utility.yul\":4052:4070   */\n  0xffffffffffffffff\n    /* \"#utility.yul\":4044:4050   */\n  dup2\n    /* \"#utility.yul\":4041:4071   */\n  gt\n    /* \"#utility.yul\":4038:4094   */\n  iszero\n  tag_94\n  jumpi\n    /* \"#utility.yul\":4074:4092   */\n  tag_95\n  tag_27\n  jump\t// in\ntag_95:\n    /* \"#utility.yul\":4038:4094   */\ntag_94:\n    /* \"#utility.yul\":4118:4156   */\n  tag_96\n    /* \"#utility.yul\":4150:4154   */\n  dup3\n    /* \"#utility.yul\":4144:4155   */\n  sload\n    /* \"#utility.yul\":4118:4156   */\n  tag_29\n  jump\t// in\ntag_96:\n    /* \"#utility.yul\":4203:4270   */\n  tag_97\n    /* \"#utility.yul\":4263:4269   */\n  dup3\n    /* \"#utility.yul\":4255:4261   */\n  dup3\n    /* \"#utility.yul\":4249:4253   */\n  dup6\n    /* \"#utility.yul\":4203:4270   */\n  tag_42\n  jump\t// in\ntag_97:\n    /* \"#utility.yul\":4297:4298   */\n  0x00\n    /* \"#utility.yul\":4321:4325   */\n  0x20\n    /* \"#utility.yul\":4308:4325   */\n  swap1\n  pop\n    /* \"#utility.yul\":4353:4355   */\n  0x1f\n    /* \"#utility.yul\":4345:4351   */\n  dup4\n    /* \"#utility.yul\":4342:4356   */\n  gt\n    /* \"#utility.yul\":4370:4371   */\n  0x01\n    /* \"#utility.yul\":4365:4983   */\n  dup2\n  eq\n  tag_99\n  jumpi\n    /* \"#utility.yul\":5027:5028   */\n  0x00\n    /* \"#utility.yul\":5044:5050   */\n  dup5\n    /* \"#utility.yul\":5041:5118   */\n  iszero\n  tag_100\n  jumpi\n    /* \"#utility.yul\":5093:5102   */\n  dup3\n    /* \"#utility.yul\":5088:5091   */\n  dup8\n    /* \"#utility.yul\":5084:5103   */\n  add\n    /* \"#utility.yul\":5078:5104   */\n  mload\n    /* \"#utility.yul\":5069:5104   */\n  swap1\n  pop\n    /* \"#utility.yul\":5041:5118   */\ntag_100:\n    /* \"#utility.yul\":5144:5211   */\n  tag_101\n    /* \"#utility.yul\":5204:5210   */\n  dup6\n    /* \"#utility.yul\":5197:5202   */\n  dup3\n    /* \"#utility.yul\":5144:5211   */\n  tag_45\n  jump\t// in\ntag_101:\n    /* \"#utility.yul\":5138:5142   */\n  dup7\n    /* \"#utility.yul\":5131:5212   */\n  sstore\n    /* \"#utility.yul\":5000:5222   */\n  pop\n    /* \"#utility.yul\":4335:5222   */\n  jump(tag_98)\n    /* \"#utility.yul\":4365:4983   */\ntag_99:\n    /* \"#utility.yul\":4417:4421   */\n  0x1f\n    /* \"#utility.yul\":4413:4422   */\n  not\n    /* \"#utility.yul\":4405:4411   */\n  dup5\n    /* \"#utility.yul\":4401:4423   */\n  and\n    /* \"#utility.yul\":4451:4488   */\n  tag_102\n    /* \"#utility.yul\":4483:4487   */\n  dup7\n    /* \"#utility.yul\":4451:4488   */\n  tag_30\n  jump\t// in\ntag_102:\n    /* \"#utility.yul\":4510:4511   */\n  0x00\n    /* \"#utility.yul\":4524:4732   */\ntag_103:\n    /* \"#utility.yul\":4538:4545   */\n  dup3\n    /* \"#utility.yul\":4535:4536   */\n  dup2\n    /* \"#utility.yul\":4532:4546   */\n  lt\n    /* \"#utility.yul\":4524:4732   */\n  iszero\n  tag_105\n  jumpi\n    /* \"#utility.yul\":4617:4626   */\n  dup5\n    /* \"#utility.yul\":4612:4615   */\n  dup10\n    /* \"#utility.yul\":4608:4627   */\n  add\n    /* \"#utility.yul\":4602:4628   */\n  mload\n    /* \"#utility.yul\":4594:4600   */\n  dup3\n    /* \"#utility.yul\":4587:4629   */\n  sstore\n    /* \"#utility.yul\":4668:4669   */\n  0x01\n    /* \"#utility.yul\":4660:4666   */\n  dup3\n    /* \"#utility.yul\":4656:4670   */\n  add\n    /* \"#utility.yul\":4646:4670   */\n  swap2\n  pop\n    /* \"#utility.yul\":4715:4717   */\n  0x20\n    /* \"#utility.yul\":4704:4713   */\n  dup6\n    /* \"#utility.yul\":4700:4718   */\n  add\n    /* \"#utility.yul\":4687:4718   */\n  swap5\n  pop\n    /* \"#utility.yul\":4561:4565   */\n  0x20\n    /* \"#utility.yul\":4558:4559   */\n  dup2\n    /* \"#utility.yul\":4554:4566   */\n  add\n    /* \"#utility.yul\":4549:4566   */\n  swap1\n  pop\n    /* \"#utility.yul\":4524:4732   */\n  jump(tag_103)\ntag_105:\n    /* \"#utility.yul\":4760:4766   */\n  dup7\n    /* \"#utility.yul\":4751:4758   */\n  dup4\n    /* \"#utility.yul\":4748:4767   */\n  lt\n    /* \"#utility.yul\":4745:4924   */\n  iszero\n  tag_106\n  jumpi\n    /* \"#utility.yul\":4818:4827   */\n  dup5\n    /* \"#utility.yul\":4813:4816   */\n  dup10\n    /* \"#utility.yul\":4809:4828   */\n  add\n    /* \"#utility.yul\":4803:4829   */\n  mload\n    /* \"#utility.yul\":4861:4909   */\n  tag_107\n    /* \"#utility.yul\":4903:4907   */\n  0x1f\n    /* \"#utility.yul\":4895:4901   */\n  dup10\n    /* \"#utility.yul\":4891:4908   */\n  and\n    /* \"#utility.yul\":4880:4889   */\n  dup3\n    /* \"#utility.yul\":4861:4909   */\n  tag_44\n  jump\t// in\ntag_107:\n    /* \"#utility.yul\":4853:4859   */\n  dup4\n    /* \"#utility.yul\":4846:4910   */\n  sstore\n    /* \"#utility.yul\":4768:4924   */\n  pop\n    /* \"#utility.yul\":4745:4924   */\ntag_106:\n    /* \"#utility.yul\":4970:4971   */\n  0x01\n    /* \"#utility.yul\":4966:4967   */\n  0x02\n    /* \"#utility.yul\":4958:4964   */\n  dup9\n    /* \"#utility.yul\":4954:4968   */\n  mul\n    /* \"#utility.yul\":4950:4972   */\n  add\n    /* \"#utility.yul\":4944:4948   */\n  dup9\n    /* \"#utility.yul\":4937:4973   */\n  sstore\n    /* \"#utility.yul\":4372:4983   */\n  pop\n  pop\n  pop\n    /* \"#utility.yul\":4335:5222   */\ntag_98:\n  pop\n    /* \"#utility.yul\":3925:5228   */\n  pop\n  pop\n  pop\n    /* \"#utility.yul\":3833:5228   */\n  pop\n  pop\n  jump\t// out\n    /* \"contracts/DegenToken.sol\":174:2930  contract DegenToken is ERC20, Ownable {... */\ntag_23:\n  dataSize(sub_0)\n  dup1\n  dataOffset(sub_0)\n  0x00\n  codecopy\n  0x00\n  return\nstop\n\nsub_0: assembly {\n        /* \"contracts/DegenToken.sol\":174:2930  contract DegenToken is ERC20, Ownable {... */\n      mstore(0x40, 0x80)\n      jumpi(tag_1, lt(calldatasize, 0x04))\n      shr(0xe0, calldataload(0x00))\n      dup1\n      0x70a08231\n      gt\n      tag_25\n      jumpi\n      dup1\n      0xa9059cbb\n      gt\n      tag_26\n      jumpi\n      dup1\n      0xa9059cbb\n      eq\n      tag_19\n      jumpi\n      dup1\n      0xa9d0e2e5\n      eq\n      tag_20\n      jumpi\n      dup1\n      0xacc8b146\n      eq\n      tag_21\n      jumpi\n      dup1\n      0xdd62ed3e\n      eq\n      tag_22\n      jumpi\n      dup1\n      0xf2fde38b\n      eq\n      tag_23\n      jumpi\n      dup1\n      0xf5537ede\n      eq\n      tag_24\n      jumpi\n      jump(tag_1)\n    tag_26:\n      dup1\n      0x70a08231\n      eq\n      tag_13\n      jumpi\n      dup1\n      0x715018a6\n      eq\n      tag_14\n      jumpi\n      dup1\n      0x830cbbbd\n      eq\n      tag_15\n      jumpi\n      dup1\n      0x8da5cb5b\n      eq\n      tag_16\n      jumpi\n      dup1\n      0x95d89b41\n      eq\n      tag_17\n      jumpi\n      dup1\n      0xa457c2d7\n      eq\n      tag_18\n      jumpi\n      jump(tag_1)\n    tag_25:\n      dup1\n      0x313ce567\n      gt\n      tag_27\n      jumpi\n      dup1\n      0x313ce567\n      eq\n      tag_7\n      jumpi\n      dup1\n      0x39509351\n      eq\n      tag_8\n      jumpi\n      dup1\n      0x3dfcf101\n      eq\n      tag_9\n      jumpi\n      dup1\n      0x40c10f19\n      eq\n      tag_10\n      jumpi\n      dup1\n      0x428a6171\n      eq\n      tag_11\n      jumpi\n      dup1\n      0x42966c68\n      eq\n      tag_12\n      jumpi\n      jump(tag_1)\n    tag_27:\n      dup1\n      0x06fdde03\n      eq\n      tag_2\n      jumpi\n      dup1\n      0x095ea7b3\n      eq\n      tag_3\n      jumpi\n      dup1\n      0x0e63afed\n      eq\n      tag_4\n      jumpi\n      dup1\n      0x18160ddd\n      eq\n      tag_5\n      jumpi\n      dup1\n      0x23b872dd\n      eq\n      tag_6\n      jumpi\n    tag_1:\n      0x00\n      dup1\n      revert\n        /* \"@openzeppelin/contracts/token/ERC20/ERC20.sol\":2158:2256  function name() public view virtual override returns (string memory) {... */\n    tag_2:\n      callvalue\n      dup1\n      iszero\n      tag_28\n      jumpi\n      0x00\n      dup1\n      revert\n    tag_28:\n      pop\n      tag_29\n      tag_30\n      jump\t// in\n    tag_29:\n      mload(0x40)\n      tag_31\n      swap2\n      swap1\n      tag_32\n      jump\t// in\n    tag_31:\n      mload(0x40)\n      dup1\n      swap2\n      sub\n      swap1\n      return\n        /* \"@openzeppelin/contracts/token/ERC20/ERC20.sol\":4444:4641  function approve(address spender, uint256 amount) public virtual override returns (bool) {... */\n    tag_3:\n      callvalue\n      dup1\n      iszero\n      tag_33\n      jumpi\n      0x00\n      dup1\n      revert\n    tag_33:\n      pop\n      tag_34\n      0x04\n      dup1\n      calldatasize\n      sub\n      dup2\n      add\n      swap1\n      tag_35\n      swap2\n      swap1\n      tag_36\n      jump\t// in\n    tag_35:\n      tag_37\n      jump\t// in\n    tag_34:\n      mload(0x40)\n      tag_38\n      swap2\n      swap1\n      tag_39\n      jump\t// in\n    tag_38:\n      mload(0x40)\n      dup1\n      swap2\n      sub\n      swap1\n      return\n        /* \"contracts/DegenToken.sol\":433:505  mapping(address => mapping(uint256 => uint256)) public CarsNftCollection */\n    tag_4:\n      callvalue\n      dup1\n      iszero\n      tag_40\n      jumpi\n      0x00\n      dup1\n      revert\n    tag_40:\n      pop\n      tag_41\n      0x04\n      dup1\n      calldatasize\n      sub\n      dup2\n      add\n      swap1\n      tag_42\n      swap2\n      swap1\n      tag_36\n      jump\t// in\n    tag_42:\n      tag_43\n      jump\t// in\n    tag_41:\n      mload(0x40)\n      tag_44\n      swap2\n      swap1\n      tag_45\n      jump\t// in\n    tag_44:\n      mload(0x40)\n      dup1\n      swap2\n      sub\n      swap1\n      return\n        /* \"@openzeppelin/contracts/token/ERC20/ERC20.sol\":3255:3361  function totalSupply() public view virtual override returns (uint256) {... */\n    tag_5:\n      callvalue\n      dup1\n      iszero\n      tag_46\n      jumpi\n      0x00\n      dup1\n      revert\n    tag_46:\n      pop\n      tag_47\n      tag_48\n      jump\t// in\n    tag_47:\n      mload(0x40)\n      tag_49\n      swap2\n      swap1\n      tag_45\n      jump\t// in\n    tag_49:\n      mload(0x40)\n      dup1\n      swap2\n      sub\n      swap1\n      return\n        /* \"@openzeppelin/contracts/token/ERC20/ERC20.sol\":5203:5459  function transferFrom(address from, address to, uint256 amount) public virtual override returns (bool) {... */\n    tag_6:\n      callvalue\n      dup1\n      iszero\n      tag_50\n      jumpi\n      0x00\n      dup1\n      revert\n    tag_50:\n      pop\n      tag_51\n      0x04\n      dup1\n      calldatasize\n      sub\n      dup2\n      add\n      swap1\n      tag_52\n      swap2\n      swap1\n      tag_53\n      jump\t// in\n    tag_52:\n      tag_54\n      jump\t// in\n    tag_51:\n      mload(0x40)\n      tag_55\n      swap2\n      swap1\n      tag_39\n      jump\t// in\n    tag_55:\n      mload(0x40)\n      dup1\n      swap2\n      sub\n      swap1\n      return\n        /* \"@openzeppelin/contracts/token/ERC20/ERC20.sol\":3104:3195  function decimals() public view virtual override returns (uint8) {... */\n    tag_7:\n      callvalue\n      dup1\n      iszero\n      tag_56\n      jumpi\n      0x00\n      dup1\n      revert\n    tag_56:\n      pop\n      tag_57\n      tag_58\n      jump\t// in\n    tag_57:\n      mload(0x40)\n      tag_59\n      swap2\n      swap1\n      tag_60\n      jump\t// in\n    tag_59:\n      mload(0x40)\n      dup1\n      swap2\n      sub\n      swap1\n      return\n        /* \"@openzeppelin/contracts/token/ERC20/ERC20.sol\":5854:6088  function increaseAllowance(address spender, uint256 addedValue) public virtual returns (bool) {... */\n    tag_8:\n      callvalue\n      dup1\n      iszero\n      tag_61\n      jumpi\n      0x00\n      dup1\n      revert\n    tag_61:\n      pop\n      tag_62\n      0x04\n      dup1\n      calldatasize\n      sub\n      dup2\n      add\n      swap1\n      tag_63\n      swap2\n      swap1\n      tag_36\n      jump\t// in\n    tag_63:\n      tag_64\n      jump\t// in\n    tag_62:\n      mload(0x40)\n      tag_65\n      swap2\n      swap1\n      tag_39\n      jump\t// in\n    tag_65:\n      mload(0x40)\n      dup1\n      swap2\n      sub\n      swap1\n      return\n        /* \"contracts/DegenToken.sol\":379:426  mapping(uint256 => Store) public redeemableCars */\n    tag_9:\n      callvalue\n      dup1\n      iszero\n      tag_66\n      jumpi\n      0x00\n      dup1\n      revert\n    tag_66:\n      pop\n      tag_67\n      0x04\n      dup1\n      calldatasize\n      sub\n      dup2\n      add\n      swap1\n      tag_68\n      swap2\n      swap1\n      tag_69\n      jump\t// in\n    tag_68:\n      tag_70\n      jump\t// in\n    tag_67:\n      mload(0x40)\n      tag_71\n      swap3\n      swap2\n      swap1\n      tag_72\n      jump\t// in\n    tag_71:\n      mload(0x40)\n      dup1\n      swap2\n      sub\n      swap1\n      return\n        /* \"contracts/DegenToken.sol\":1179:1274  function mint(address to, uint256 amount) public onlyOwner {... */\n    tag_10:\n      callvalue\n      dup1\n      iszero\n      tag_73\n      jumpi\n      0x00\n      dup1\n      revert\n    tag_73:\n      pop\n      tag_74\n      0x04\n      dup1\n      calldatasize\n      sub\n      dup2\n      add\n      swap1\n      tag_75\n      swap2\n      swap1\n      tag_36\n      jump\t// in\n    tag_75:\n      tag_76\n      jump\t// in\n    tag_74:\n      stop\n        /* \"contracts/DegenToken.sol\":512:571  mapping(address => UserCollection[]) public userCollections */\n    tag_11:\n      callvalue\n      dup1\n      iszero\n      tag_77\n      jumpi\n      0x00\n      dup1\n      revert\n    tag_77:\n      pop\n      tag_78\n      0x04\n      dup1\n      calldatasize\n      sub\n      dup2\n      add\n      swap1\n      tag_79\n      swap2\n      swap1\n      tag_36\n      jump\t// in\n    tag_79:\n      tag_80\n      jump\t// in\n    tag_78:\n      mload(0x40)\n      tag_81\n      swap3\n      swap2\n      swap1\n      tag_72\n      jump\t// in\n    tag_81:\n      mload(0x40)\n      dup1\n      swap2\n      sub\n      swap1\n      return\n        /* \"contracts/DegenToken.sol\":1282:1451  function burn(uint256 val) public {... */\n    tag_12:\n      callvalue\n      dup1\n      iszero\n      tag_82\n      jumpi\n      0x00\n      dup1\n      revert\n    tag_82:\n      pop\n      tag_83\n      0x04\n      dup1\n      calldatasize\n      sub\n      dup2\n      add\n      swap1\n      tag_84\n      swap2\n      swap1\n      tag_69\n      jump\t// in\n    tag_84:\n      tag_85\n      jump\t// in\n    tag_83:\n      stop\n        /* \"@openzeppelin/contracts/token/ERC20/ERC20.sol\":3419:3544  function balanceOf(address account) public view virtual override returns (uint256) {... */\n    tag_13:\n      callvalue\n      dup1\n      iszero\n      tag_86\n      jumpi\n      0x00\n      dup1\n      revert\n    tag_86:\n      pop\n      tag_87\n      0x04\n      dup1\n      calldatasize\n      sub\n      dup2\n      add\n      swap1\n      tag_88\n      swap2\n      swap1\n      tag_89\n      jump\t// in\n    tag_88:\n      tag_90\n      jump\t// in\n    tag_87:\n      mload(0x40)\n      tag_91\n      swap2\n      swap1\n      tag_45\n      jump\t// in\n    tag_91:\n      mload(0x40)\n      dup1\n      swap2\n      sub\n      swap1\n      return\n        /* \"@openzeppelin/contracts/access/Ownable.sol\":1824:1925  function renounceOwnership() public virtual onlyOwner {... */\n    tag_14:\n      callvalue\n      dup1\n      iszero\n      tag_92\n      jumpi\n      0x00\n      dup1\n      revert\n    tag_92:\n      pop\n      tag_93\n      tag_94\n      jump\t// in\n    tag_93:\n      stop\n        /* \"contracts/DegenToken.sol\":1724:2204  function redeemToken(address spender, uint256 carId) external payable {... */\n    tag_15:\n      tag_95\n      0x04\n      dup1\n      calldatasize\n      sub\n      dup2\n      add\n      swap1\n      tag_96\n      swap2\n      swap1\n      tag_36\n      jump\t// in\n    tag_96:\n      tag_97\n      jump\t// in\n    tag_95:\n      stop\n        /* \"@openzeppelin/contracts/access/Ownable.sol\":1201:1286  function owner() public view virtual returns (address) {... */\n    tag_16:\n      callvalue\n      dup1\n      iszero\n      tag_98\n      jumpi\n      0x00\n      dup1\n      revert\n    tag_98:\n      pop\n      tag_99\n      tag_100\n      jump\t// in\n    tag_99:\n      mload(0x40)\n      tag_101\n      swap2\n      swap1\n      tag_102\n      jump\t// in\n    tag_101:\n      mload(0x40)\n      dup1\n      swap2\n      sub\n      swap1\n      return\n        /* \"@openzeppelin/contracts/token/ERC20/ERC20.sol\":2369:2471  function symbol() public view virtual override returns (string memory) {... */\n    tag_17:\n      callvalue\n      dup1\n      iszero\n      tag_103\n      jumpi\n      0x00\n      dup1\n      revert\n    tag_103:\n      pop\n      tag_104\n      tag_105\n      jump\t// in\n    tag_104:\n      mload(0x40)\n      tag_106\n      swap2\n      swap1\n      tag_32\n      jump\t// in\n    tag_106:\n      mload(0x40)\n      dup1\n      swap2\n      sub\n      swap1\n      return\n        /* \"@openzeppelin/contracts/token/ERC20/ERC20.sol\":6575:7002  function decreaseAllowance(address spender, uint256 subtractedValue) public virtual returns (bool) {... */\n    tag_18:\n      callvalue\n      dup1\n      iszero\n      tag_107\n      jumpi\n      0x00\n      dup1\n      revert\n    tag_107:\n      pop\n      tag_108\n      0x04\n      dup1\n      calldatasize\n      sub\n      dup2\n      add\n      swap1\n      tag_109\n      swap2\n      swap1\n      tag_36\n      jump\t// in\n    tag_109:\n      tag_110\n      jump\t// in\n    tag_108:\n      mload(0x40)\n      tag_111\n      swap2\n      swap1\n      tag_39\n      jump\t// in\n    tag_111:\n      mload(0x40)\n      dup1\n      swap2\n      sub\n      swap1\n      return\n        /* \"@openzeppelin/contracts/token/ERC20/ERC20.sol\":3740:3929  function transfer(address to, uint256 amount) public virtual override returns (bool) {... */\n    tag_19:\n      callvalue\n      dup1\n      iszero\n      tag_112\n      jumpi\n      0x00\n      dup1\n      revert\n    tag_112:\n      pop\n      tag_113\n      0x04\n      dup1\n      calldatasize\n      sub\n      dup2\n      add\n      swap1\n      tag_114\n      swap2\n      swap1\n      tag_36\n      jump\t// in\n    tag_114:\n      tag_115\n      jump\t// in\n    tag_113:\n      mload(0x40)\n      tag_116\n      swap2\n      swap1\n      tag_39\n      jump\t// in\n    tag_116:\n      mload(0x40)\n      dup1\n      swap2\n      sub\n      swap1\n      return\n        /* \"contracts/DegenToken.sol\":2649:2927  function showStore() public view returns (string[] memory) {... */\n    tag_20:\n      callvalue\n      dup1\n      iszero\n      tag_117\n      jumpi\n      0x00\n      dup1\n      revert\n    tag_117:\n      pop\n      tag_118\n      tag_119\n      jump\t// in\n    tag_118:\n      mload(0x40)\n      tag_120\n      swap2\n      swap1\n      tag_121\n      jump\t// in\n    tag_120:\n      mload(0x40)\n      dup1\n      swap2\n      sub\n      swap1\n      return\n        /* \"contracts/DegenToken.sol\":2215:2635  function showUserCollection(address user) public view returns (string[] memory) {... */\n    tag_21:\n      callvalue\n      dup1\n      iszero\n      tag_122\n      jumpi\n      0x00\n      dup1\n      revert\n    tag_122:\n      pop\n      tag_123\n      0x04\n      dup1\n      calldatasize\n      sub\n      dup2\n      add\n      swap1\n      tag_124\n      swap2\n      swap1\n      tag_89\n      jump\t// in\n    tag_124:\n      tag_125\n      jump\t// in\n    tag_123:\n      mload(0x40)\n      tag_126\n      swap2\n      swap1\n      tag_121\n      jump\t// in\n    tag_126:\n      mload(0x40)\n      dup1\n      swap2\n      sub\n      swap1\n      return\n        /* \"@openzeppelin/contracts/token/ERC20/ERC20.sol\":3987:4136  function allowance(address owner, address spender) public view virtual override returns (uint256) {... */\n    tag_22:\n      callvalue\n      dup1\n      iszero\n      tag_127\n      jumpi\n      0x00\n      dup1\n      revert\n    tag_127:\n      pop\n      tag_128\n      0x04\n      dup1\n      calldatasize\n      sub\n      dup2\n      add\n      swap1\n      tag_129\n      swap2\n      swap1\n      tag_130\n      jump\t// in\n    tag_129:\n      tag_131\n      jump\t// in\n    tag_128:\n      mload(0x40)\n      tag_132\n      swap2\n      swap1\n      tag_45\n      jump\t// in\n    tag_132:\n      mload(0x40)\n      dup1\n      swap2\n      sub\n      swap1\n      return\n        /* \"@openzeppelin/contracts/access/Ownable.sol\":2074:2272  function transferOwnership(address newOwner) public virtual onlyOwner {... */\n    tag_23:\n      callvalue\n      dup1\n      iszero\n      tag_133\n      jumpi\n      0x00\n      dup1\n      revert\n    tag_133:\n      pop\n      tag_134\n      0x04\n      dup1\n      calldatasize\n      sub\n      dup2\n      add\n      swap1\n      tag_135\n      swap2\n      swap1\n      tag_89\n      jump\t// in\n    tag_135:\n      tag_136\n      jump\t// in\n    tag_134:\n      stop\n        /* \"contracts/DegenToken.sol\":1459:1716  function transferToken(address sender, address _receiver, uint256 val) external {... */\n    tag_24:\n      callvalue\n      dup1\n      iszero\n      tag_137\n      jumpi\n      0x00\n      dup1\n      revert\n    tag_137:\n      pop\n      tag_138\n      0x04\n      dup1\n      calldatasize\n      sub\n      dup2\n      add\n      swap1\n      tag_139\n      swap2\n      swap1\n      tag_53\n      jump\t// in\n    tag_139:\n      tag_140\n      jump\t// in\n    tag_138:\n      stop\n        /* \"@openzeppelin/contracts/token/ERC20/ERC20.sol\":2158:2256  function name() public view virtual override returns (string memory) {... */\n    tag_30:\n        /* \"@openzeppelin/contracts/token/ERC20/ERC20.sol\":2212:2225  string memory */\n      0x60\n        /* \"@openzeppelin/contracts/token/ERC20/ERC20.sol\":2244:2249  _name */\n      0x03\n        /* \"@openzeppelin/contracts/token/ERC20/ERC20.sol\":2237:2249  return _name */\n      dup1\n      sload\n      tag_142\n      swap1\n      tag_143\n      jump\t// in\n    tag_142:\n      dup1\n      0x1f\n      add\n      0x20\n      dup1\n      swap2\n      div\n      mul\n      0x20\n      add\n      mload(0x40)\n      swap1\n      dup2\n      add\n      0x40\n      mstore\n      dup1\n      swap3\n      swap2\n      swap1\n      dup2\n      dup2\n      mstore\n      0x20\n      add\n      dup3\n      dup1\n      sload\n      tag_144\n      swap1\n      tag_143\n      jump\t// in\n    tag_144:\n      dup1\n      iszero\n      tag_145\n      jumpi\n      dup1\n      0x1f\n      lt\n      tag_146\n      jumpi\n      0x0100\n      dup1\n      dup4\n      sload\n      div\n      mul\n      dup4\n      mstore\n      swap2\n      0x20\n      add\n      swap2\n      jump(tag_145)\n    tag_146:\n      dup3\n      add\n      swap2\n      swap1\n      0x00\n      mstore\n      keccak256(0x00, 0x20)\n      swap1\n    tag_147:\n      dup2\n      sload\n      dup2\n      mstore\n      swap1\n      0x01\n      add\n      swap1\n      0x20\n      add\n      dup1\n      dup4\n      gt\n      tag_147\n      jumpi\n      dup3\n      swap1\n      sub\n      0x1f\n      and\n      dup3\n      add\n      swap2\n    tag_145:\n      pop\n      pop\n      pop\n      pop\n      pop\n      swap1\n      pop\n        /* \"@openzeppelin/contracts/token/ERC20/ERC20.sol\":2158:2256  function name() public view virtual override returns (string memory) {... */\n      swap1\n      jump\t// out\n        /* \"@openzeppelin/contracts/token/ERC20/ERC20.sol\":4444:4641  function approve(address spender, uint256 amount) public virtual override returns (bool) {... */\n    tag_37:\n        /* \"@openzeppelin/contracts/token/ERC20/ERC20.sol\":4527:4531  bool */\n      0x00\n        /* \"@openzeppelin/contracts/token/ERC20/ERC20.sol\":4543:4556  address owner */\n      dup1\n        /* \"@openzeppelin/contracts/token/ERC20/ERC20.sol\":4559:4571  _msgSender() */\n      tag_149\n        /* \"@openzeppelin/contracts/token/ERC20/ERC20.sol\":4559:4569  _msgSender */\n      tag_150\n        /* \"@openzeppelin/contracts/token/ERC20/ERC20.sol\":4559:4571  _msgSender() */\n      jump\t// in\n    tag_149:\n        /* \"@openzeppelin/contracts/token/ERC20/ERC20.sol\":4543:4571  address owner = _msgSender() */\n      swap1\n      pop\n        /* \"@openzeppelin/contracts/token/ERC20/ERC20.sol\":4581:4613  _approve(owner, spender, amount) */\n      tag_151\n        /* \"@openzeppelin/contracts/token/ERC20/ERC20.sol\":4590:4595  owner */\n      dup2\n        /* \"@openzeppelin/contracts/token/ERC20/ERC20.sol\":4597:4604  spender */\n      dup6\n        /* \"@openzeppelin/contracts/token/ERC20/ERC20.sol\":4606:4612  amount */\n      dup6\n        /* \"@openzeppelin/contracts/token/ERC20/ERC20.sol\":4581:4589  _approve */\n      tag_152\n        /* \"@openzeppelin/contracts/token/ERC20/ERC20.sol\":4581:4613  _approve(owner, spender, amount) */\n      jump\t// in\n    tag_151:\n        /* \"@openzeppelin/contracts/token/ERC20/ERC20.sol\":4630:4634  true */\n      0x01\n        /* \"@openzeppelin/contracts/token/ERC20/ERC20.sol\":4623:4634  return true */\n      swap2\n      pop\n      pop\n        /* \"@openzeppelin/contracts/token/ERC20/ERC20.sol\":4444:4641  function approve(address spender, uint256 amount) public virtual override returns (bool) {... */\n      swap3\n      swap2\n      pop\n      pop\n      jump\t// out\n        /* \"contracts/DegenToken.sol\":433:505  mapping(address => mapping(uint256 => uint256)) public CarsNftCollection */\n    tag_43:\n      mstore(0x20, 0x07)\n      dup2\n      0x00\n      mstore\n      mstore(0x20, keccak256(0x00, 0x40))\n      dup1\n      0x00\n      mstore\n      keccak256(0x00, 0x40)\n      0x00\n      swap2\n      pop\n      swap2\n      pop\n      pop\n      sload\n      dup2\n      jump\t// out\n        /* \"@openzeppelin/contracts/token/ERC20/ERC20.sol\":3255:3361  function totalSupply() public view virtual override returns (uint256) {... */\n    tag_48:\n        /* \"@openzeppelin/contracts/token/ERC20/ERC20.sol\":3316:3323  uint256 */\n      0x00\n        /* \"@openzeppelin/contracts/token/ERC20/ERC20.sol\":3342:3354  _totalSupply */\n      sload(0x02)\n        /* \"@openzeppelin/contracts/token/ERC20/ERC20.sol\":3335:3354  return _totalSupply */\n      swap1\n      pop\n        /* \"@openzeppelin/contracts/token/ERC20/ERC20.sol\":3255:3361  function totalSupply() public view virtual override returns (uint256) {... */\n      swap1\n      jump\t// out\n        /* \"@openzeppelin/contracts/token/ERC20/ERC20.sol\":5203:5459  function transferFrom(address from, address to, uint256 amount) public virtual override returns (bool) {... */\n    tag_54:\n        /* \"@openzeppelin/contracts/token/ERC20/ERC20.sol\":5300:5304  bool */\n      0x00\n        /* \"@openzeppelin/contracts/token/ERC20/ERC20.sol\":5316:5331  address spender */\n      dup1\n        /* \"@openzeppelin/contracts/token/ERC20/ERC20.sol\":5334:5346  _msgSender() */\n      tag_155\n        /* \"@openzeppelin/contracts/token/ERC20/ERC20.sol\":5334:5344  _msgSender */\n      tag_150\n        /* \"@openzeppelin/contracts/token/ERC20/ERC20.sol\":5334:5346  _msgSender() */\n      jump\t// in\n    tag_155:\n        /* \"@openzeppelin/contracts/token/ERC20/ERC20.sol\":5316:5346  address spender = _msgSender() */\n      swap1\n      pop\n        /* \"@openzeppelin/contracts/token/ERC20/ERC20.sol\":5356:5394  _spendAllowance(from, spender, amount) */\n      tag_156\n        /* \"@openzeppelin/contracts/token/ERC20/ERC20.sol\":5372:5376  from */\n      dup6\n        /* \"@openzeppelin/contracts/token/ERC20/ERC20.sol\":5378:5385  spender */\n      dup3\n        /* \"@openzeppelin/contracts/token/ERC20/ERC20.sol\":5387:5393  amount */\n      dup6\n        /* \"@openzeppelin/contracts/token/ERC20/ERC20.sol\":5356:5371  _spendAllowance */\n      tag_157\n        /* \"@openzeppelin/contracts/token/ERC20/ERC20.sol\":5356:5394  _spendAllowance(from, spender, amount) */\n      jump\t// in\n    tag_156:\n        /* \"@openzeppelin/contracts/token/ERC20/ERC20.sol\":5404:5431  _transfer(from, to, amount) */\n      tag_158\n        /* \"@openzeppelin/contracts/token/ERC20/ERC20.sol\":5414:5418  from */\n      dup6\n        /* \"@openzeppelin/contracts/token/ERC20/ERC20.sol\":5420:5422  to */\n      dup6\n        /* \"@openzeppelin/contracts/token/ERC20/ERC20.sol\":5424:5430  amount */\n      dup6\n        /* \"@openzeppelin/contracts/token/ERC20/ERC20.sol\":5404:5413  _transfer */\n      tag_159\n        /* \"@openzeppelin/contracts/token/ERC20/ERC20.sol\":5404:5431  _transfer(from, to, amount) */\n      jump\t// in\n    tag_158:\n        /* \"@openzeppelin/contracts/token/ERC20/ERC20.sol\":5448:5452  true */\n      0x01\n        /* \"@openzeppelin/contracts/token/ERC20/ERC20.sol\":5441:5452  return true */\n      swap2\n      pop\n      pop\n        /* \"@openzeppelin/contracts/token/ERC20/ERC20.sol\":5203:5459  function transferFrom(address from, address to, uint256 amount) public virtual override returns (bool) {... */\n      swap4\n      swap3\n      pop\n      pop\n      pop\n      jump\t// out\n        /* \"@openzeppelin/contracts/token/ERC20/ERC20.sol\":3104:3195  function decimals() public view virtual override returns (uint8) {... */\n    tag_58:\n        /* \"@openzeppelin/contracts/token/ERC20/ERC20.sol\":3162:3167  uint8 */\n      0x00\n        /* \"@openzeppelin/contracts/token/ERC20/ERC20.sol\":3186:3188  18 */\n      0x12\n        /* \"@openzeppelin/contracts/token/ERC20/ERC20.sol\":3179:3188  return 18 */\n      swap1\n      pop\n        /* \"@openzeppelin/contracts/token/ERC20/ERC20.sol\":3104:3195  function decimals() public view virtual override returns (uint8) {... */\n      swap1\n      jump\t// out\n        /* \"@openzeppelin/contracts/token/ERC20/ERC20.sol\":5854:6088  function increaseAllowance(address spender, uint256 addedValue) public virtual returns (bool) {... */\n    tag_64:\n        /* \"@openzeppelin/contracts/token/ERC20/ERC20.sol\":5942:5946  bool */\n      0x00\n        /* \"@openzeppelin/contracts/token/ERC20/ERC20.sol\":5958:5971  address owner */\n      dup1\n        /* \"@openzeppelin/contracts/token/ERC20/ERC20.sol\":5974:5986  _msgSender() */\n      tag_162\n        /* \"@openzeppelin/contracts/token/ERC20/ERC20.sol\":5974:5984  _msgSender */\n      tag_150\n        /* \"@openzeppelin/contracts/token/ERC20/ERC20.sol\":5974:5986  _msgSender() */\n      jump\t// in\n    tag_162:\n        /* \"@openzeppelin/contracts/token/ERC20/ERC20.sol\":5958:5986  address owner = _msgSender() */\n      swap1\n      pop\n        /* \"@openzeppelin/contracts/token/ERC20/ERC20.sol\":5996:6060  _approve(owner, spender, allowance(owner, spender) + addedValue) */\n      tag_163\n        /* \"@openzeppelin/contracts/token/ERC20/ERC20.sol\":6005:6010  owner */\n      dup2\n        /* \"@openzeppelin/contracts/token/ERC20/ERC20.sol\":6012:6019  spender */\n      dup6\n        /* \"@openzeppelin/contracts/token/ERC20/ERC20.sol\":6049:6059  addedValue */\n      dup6\n        /* \"@openzeppelin/contracts/token/ERC20/ERC20.sol\":6021:6046  allowance(owner, spender) */\n      tag_164\n        /* \"@openzeppelin/contracts/token/ERC20/ERC20.sol\":6031:6036  owner */\n      dup6\n        /* \"@openzeppelin/contracts/token/ERC20/ERC20.sol\":6038:6045  spender */\n      dup10\n        /* \"@openzeppelin/contracts/token/ERC20/ERC20.sol\":6021:6030  allowance */\n      tag_131\n        /* \"@openzeppelin/contracts/token/ERC20/ERC20.sol\":6021:6046  allowance(owner, spender) */\n      jump\t// in\n    tag_164:\n        /* \"@openzeppelin/contracts/token/ERC20/ERC20.sol\":6021:6059  allowance(owner, spender) + addedValue */\n      tag_165\n      swap2\n      swap1\n      tag_166\n      jump\t// in\n    tag_165:\n        /* \"@openzeppelin/contracts/token/ERC20/ERC20.sol\":5996:6004  _approve */\n      tag_152\n        /* \"@openzeppelin/contracts/token/ERC20/ERC20.sol\":5996:6060  _approve(owner, spender, allowance(owner, spender) + addedValue) */\n      jump\t// in\n    tag_163:\n        /* \"@openzeppelin/contracts/token/ERC20/ERC20.sol\":6077:6081  true */\n      0x01\n        /* \"@openzeppelin/contracts/token/ERC20/ERC20.sol\":6070:6081  return true */\n      swap2\n      pop\n      pop\n        /* \"@openzeppelin/contracts/token/ERC20/ERC20.sol\":5854:6088  function increaseAllowance(address spender, uint256 addedValue) public virtual returns (bool) {... */\n      swap3\n      swap2\n      pop\n      pop\n      jump\t// out\n        /* \"contracts/DegenToken.sol\":379:426  mapping(uint256 => Store) public redeemableCars */\n    tag_70:\n      mstore(0x20, 0x06)\n      dup1\n      0x00\n      mstore\n      keccak256(0x00, 0x40)\n      0x00\n      swap2\n      pop\n      swap1\n      pop\n      dup1\n      0x00\n      add\n      dup1\n      sload\n      tag_167\n      swap1\n      tag_143\n      jump\t// in\n    tag_167:\n      dup1\n      0x1f\n      add\n      0x20\n      dup1\n      swap2\n      div\n      mul\n      0x20\n      add\n      mload(0x40)\n      swap1\n      dup2\n      add\n      0x40\n      mstore\n      dup1\n      swap3\n      swap2\n      swap1\n      dup2\n      dup2\n      mstore\n      0x20\n      add\n      dup3\n      dup1\n      sload\n      tag_168\n      swap1\n      tag_143\n      jump\t// in\n    tag_168:\n      dup1\n      iszero\n      tag_169\n      jumpi\n      dup1\n      0x1f\n      lt\n      tag_170\n      jumpi\n      0x0100\n      dup1\n      dup4\n      sload\n      div\n      mul\n      dup4\n      mstore\n      swap2\n      0x20\n      add\n      swap2\n      jump(tag_169)\n    tag_170:\n      dup3\n      add\n      swap2\n      swap1\n      0x00\n      mstore\n      keccak256(0x00, 0x20)\n      swap1\n    tag_171:\n      dup2\n      sload\n      dup2\n      mstore\n      swap1\n      0x01\n      add\n      swap1\n      0x20\n      add\n      dup1\n      dup4\n      gt\n      tag_171\n      jumpi\n      dup3\n      swap1\n      sub\n      0x1f\n      and\n      dup3\n      add\n      swap2\n    tag_169:\n      pop\n      pop\n      pop\n      pop\n      pop\n      swap1\n      dup1\n      0x01\n      add\n      sload\n      swap1\n      pop\n      dup3\n      jump\t// out\n        /* \"contracts/DegenToken.sol\":1179:1274  function mint(address to, uint256 amount) public onlyOwner {... */\n    tag_76:\n        /* \"@openzeppelin/contracts/access/Ownable.sol\":1094:1107  _checkOwner() */\n      tag_173\n        /* \"@openzeppelin/contracts/access/Ownable.sol\":1094:1105  _checkOwner */\n      tag_174\n        /* \"@openzeppelin/contracts/access/Ownable.sol\":1094:1107  _checkOwner() */\n      jump\t// in\n    tag_173:\n        /* \"contracts/DegenToken.sol\":1249:1266  _mint(to, amount) */\n      tag_176\n        /* \"contracts/DegenToken.sol\":1255:1257  to */\n      dup3\n        /* \"contracts/DegenToken.sol\":1259:1265  amount */\n      dup3\n        /* \"contracts/DegenToken.sol\":1249:1254  _mint */\n      tag_177\n        /* \"contracts/DegenToken.sol\":1249:1266  _mint(to, amount) */\n      jump\t// in\n    tag_176:\n        /* \"contracts/DegenToken.sol\":1179:1274  function mint(address to, uint256 amount) public onlyOwner {... */\n      pop\n      pop\n      jump\t// out\n        /* \"contracts/DegenToken.sol\":512:571  mapping(address => UserCollection[]) public userCollections */\n    tag_80:\n      mstore(0x20, 0x08)\n      dup2\n      0x00\n      mstore\n      keccak256(0x00, 0x40)\n      dup2\n      dup2\n      sload\n      dup2\n      lt\n      tag_178\n      jumpi\n      0x00\n      dup1\n      revert\n    tag_178:\n      swap1\n      0x00\n      mstore\n      keccak256(0x00, 0x20)\n      swap1\n      0x02\n      mul\n      add\n      0x00\n      swap2\n      pop\n      swap2\n      pop\n      pop\n      dup1\n      0x00\n      add\n      dup1\n      sload\n      tag_180\n      swap1\n      tag_143\n      jump\t// in\n    tag_180:\n      dup1\n      0x1f\n      add\n      0x20\n      dup1\n      swap2\n      div\n      mul\n      0x20\n      add\n      mload(0x40)\n      swap1\n      dup2\n      add\n      0x40\n      mstore\n      dup1\n      swap3\n      swap2\n      swap1\n      dup2\n      dup2\n      mstore\n      0x20\n      add\n      dup3\n      dup1\n      sload\n      tag_181\n      swap1\n      tag_143\n      jump\t// in\n    tag_181:\n      dup1\n      iszero\n      tag_182\n      jumpi\n      dup1\n      0x1f\n      lt\n      tag_183\n      jumpi\n      0x0100\n      dup1\n      dup4\n      sload\n      div\n      mul\n      dup4\n      mstore\n      swap2\n      0x20\n      add\n      swap2\n      jump(tag_182)\n    tag_183:\n      dup3\n      add\n      swap2\n      swap1\n      0x00\n      mstore\n      keccak256(0x00, 0x20)\n      swap1\n    tag_184:\n      dup2\n      sload\n      dup2\n      mstore\n      swap1\n      0x01\n      add\n      swap1\n      0x20\n      add\n      dup1\n      dup4\n      gt\n      tag_184\n      jumpi\n      dup3\n      swap1\n      sub\n      0x1f\n      and\n      dup3\n      add\n      swap2\n    tag_182:\n      pop\n      pop\n      pop\n      pop\n      pop\n      swap1\n      dup1\n      0x01\n      add\n      sload\n      swap1\n      pop\n      dup3\n      jump\t// out\n        /* \"contracts/DegenToken.sol\":1282:1451  function burn(uint256 val) public {... */\n    tag_85:\n        /* \"contracts/DegenToken.sol\":1360:1363  val */\n      dup1\n        /* \"contracts/DegenToken.sol\":1335:1356  balanceOf(msg.sender) */\n      tag_186\n        /* \"contracts/DegenToken.sol\":1345:1355  msg.sender */\n      caller\n        /* \"contracts/DegenToken.sol\":1335:1344  balanceOf */\n      tag_90\n        /* \"contracts/DegenToken.sol\":1335:1356  balanceOf(msg.sender) */\n      jump\t// in\n    tag_186:\n        /* \"contracts/DegenToken.sol\":1335:1363  balanceOf(msg.sender) >= val */\n      lt\n      iszero\n        /* \"contracts/DegenToken.sol\":1327:1410  require(balanceOf(msg.sender) >= val, \"You don't have enough Degen tokens to burn\") */\n      tag_187\n      jumpi\n      mload(0x40)\n      0x08c379a000000000000000000000000000000000000000000000000000000000\n      dup2\n      mstore\n      0x04\n      add\n      tag_188\n      swap1\n      tag_189\n      jump\t// in\n    tag_188:\n      mload(0x40)\n      dup1\n      swap2\n      sub\n      swap1\n      revert\n    tag_187:\n        /* \"contracts/DegenToken.sol\":1421:1443  _burn(msg.sender, val) */\n      tag_190\n        /* \"contracts/DegenToken.sol\":1427:1437  msg.sender */\n      caller\n        /* \"contracts/DegenToken.sol\":1439:1442  val */\n      dup3\n        /* \"contracts/DegenToken.sol\":1421:1426  _burn */\n      tag_191\n        /* \"contracts/DegenToken.sol\":1421:1443  _burn(msg.sender, val) */\n      jump\t// in\n    tag_190:\n        /* \"contracts/DegenToken.sol\":1282:1451  function burn(uint256 val) public {... */\n      pop\n      jump\t// out\n        /* \"@openzeppelin/contracts/token/ERC20/ERC20.sol\":3419:3544  function balanceOf(address account) public view virtual override returns (uint256) {... */\n    tag_90:\n        /* \"@openzeppelin/contracts/token/ERC20/ERC20.sol\":3493:3500  uint256 */\n      0x00\n        /* \"@openzeppelin/contracts/token/ERC20/ERC20.sol\":3519:3528  _balances */\n      dup1\n        /* \"@openzeppelin/contracts/token/ERC20/ERC20.sol\":3519:3537  _balances[account] */\n      0x00\n        /* \"@openzeppelin/contracts/token/ERC20/ERC20.sol\":3529:3536  account */\n      dup4\n        /* \"@openzeppelin/contracts/token/ERC20/ERC20.sol\":3519:3537  _balances[account] */\n      0xffffffffffffffffffffffffffffffffffffffff\n      and\n      0xffffffffffffffffffffffffffffffffffffffff\n      and\n      dup2\n      mstore\n      0x20\n      add\n      swap1\n      dup2\n      mstore\n      0x20\n      add\n      0x00\n      keccak256\n      sload\n        /* \"@openzeppelin/contracts/token/ERC20/ERC20.sol\":3512:3537  return _balances[account] */\n      swap1\n      pop\n        /* \"@openzeppelin/contracts/token/ERC20/ERC20.sol\":3419:3544  function balanceOf(address account) public view virtual override returns (uint256) {... */\n      swap2\n      swap1\n      pop\n      jump\t// out\n        /* \"@openzeppelin/contracts/access/Ownable.sol\":1824:1925  function renounceOwnership() public virtual onlyOwner {... */\n    tag_94:\n        /* \"@openzeppelin/contracts/access/Ownable.sol\":1094:1107  _checkOwner() */\n      tag_194\n        /* \"@openzeppelin/contracts/access/Ownable.sol\":1094:1105  _checkOwner */\n      tag_174\n        /* \"@openzeppelin/contracts/access/Ownable.sol\":1094:1107  _checkOwner() */\n      jump\t// in\n    tag_194:\n        /* \"@openzeppelin/contracts/access/Ownable.sol\":1888:1918  _transferOwnership(address(0)) */\n      tag_196\n        /* \"@openzeppelin/contracts/access/Ownable.sol\":1915:1916  0 */\n      0x00\n        /* \"@openzeppelin/contracts/access/Ownable.sol\":1888:1906  _transferOwnership */\n      tag_197\n        /* \"@openzeppelin/contracts/access/Ownable.sol\":1888:1918  _transferOwnership(address(0)) */\n      jump\t// in\n    tag_196:\n        /* \"@openzeppelin/contracts/access/Ownable.sol\":1824:1925  function renounceOwnership() public virtual onlyOwner {... */\n      jump\t// out\n        /* \"contracts/DegenToken.sol\":1724:2204  function redeemToken(address spender, uint256 carId) external payable {... */\n    tag_97:\n        /* \"contracts/DegenToken.sol\":1844:1862  balanceOf(spender) */\n      tag_199\n        /* \"contracts/DegenToken.sol\":1854:1861  spender */\n      dup3\n        /* \"contracts/DegenToken.sol\":1844:1853  balanceOf */\n      tag_90\n        /* \"contracts/DegenToken.sol\":1844:1862  balanceOf(spender) */\n      jump\t// in\n    tag_199:\n        /* \"contracts/DegenToken.sol\":1813:1827  redeemableCars */\n      0x06\n        /* \"contracts/DegenToken.sol\":1813:1834  redeemableCars[carId] */\n      0x00\n        /* \"contracts/DegenToken.sol\":1828:1833  carId */\n      dup4\n        /* \"contracts/DegenToken.sol\":1813:1834  redeemableCars[carId] */\n      dup2\n      mstore\n      0x20\n      add\n      swap1\n      dup2\n      mstore\n      0x20\n      add\n      0x00\n      keccak256\n        /* \"contracts/DegenToken.sol\":1813:1840  redeemableCars[carId].price */\n      0x01\n      add\n      sload\n        /* \"contracts/DegenToken.sol\":1813:1862  redeemableCars[carId].price <= balanceOf(spender) */\n      gt\n      iszero\n        /* \"contracts/DegenToken.sol\":1805:1885  require(redeemableCars[carId].price <= balanceOf(spender), \"Insufficient funds\") */\n      tag_200\n      jumpi\n      mload(0x40)\n      0x08c379a000000000000000000000000000000000000000000000000000000000\n      dup2\n      mstore\n      0x04\n      add\n      tag_201\n      swap1\n      tag_202\n      jump\t// in\n    tag_201:\n      mload(0x40)\n      dup1\n      swap2\n      sub\n      swap1\n      revert\n    tag_200:\n        /* \"contracts/DegenToken.sol\":1926:1940  redeemableCars */\n      0x06\n        /* \"contracts/DegenToken.sol\":1926:1947  redeemableCars[carId] */\n      0x00\n        /* \"contracts/DegenToken.sol\":1941:1946  carId */\n      dup3\n        /* \"contracts/DegenToken.sol\":1926:1947  redeemableCars[carId] */\n      dup2\n      mstore\n      0x20\n      add\n      swap1\n      dup2\n      mstore\n      0x20\n      add\n      0x00\n      keccak256\n        /* \"contracts/DegenToken.sol\":1926:1953  redeemableCars[carId].price */\n      0x01\n      add\n      sload\n        /* \"contracts/DegenToken.sol\":1904:1922  balanceOf(spender) */\n      tag_203\n        /* \"contracts/DegenToken.sol\":1914:1921  spender */\n      dup4\n        /* \"contracts/DegenToken.sol\":1904:1913  balanceOf */\n      tag_90\n        /* \"contracts/DegenToken.sol\":1904:1922  balanceOf(spender) */\n      jump\t// in\n    tag_203:\n        /* \"contracts/DegenToken.sol\":1904:1953  balanceOf(spender) >= redeemableCars[carId].price */\n      lt\n      iszero\n        /* \"contracts/DegenToken.sol\":1896:2002  require(balanceOf(spender) >= redeemableCars[carId].price, \"You don't have enough Degen tokens to redeem\") */\n      tag_204\n      jumpi\n      mload(0x40)\n      0x08c379a000000000000000000000000000000000000000000000000000000000\n      dup2\n      mstore\n      0x04\n      add\n      tag_205\n      swap1\n      tag_206\n      jump\t// in\n    tag_205:\n      mload(0x40)\n      dup1\n      swap2\n      sub\n      swap1\n      revert\n    tag_204:\n        /* \"contracts/DegenToken.sol\":2013:2056  _burn(spender, redeemableCars[carId].price) */\n      tag_207\n        /* \"contracts/DegenToken.sol\":2019:2026  spender */\n      dup3\n        /* \"contracts/DegenToken.sol\":2028:2042  redeemableCars */\n      0x06\n        /* \"contracts/DegenToken.sol\":2028:2049  redeemableCars[carId] */\n      0x00\n        /* \"contracts/DegenToken.sol\":2043:2048  carId */\n      dup5\n        /* \"contracts/DegenToken.sol\":2028:2049  redeemableCars[carId] */\n      dup2\n      mstore\n      0x20\n      add\n      swap1\n      dup2\n      mstore\n      0x20\n      add\n      0x00\n      keccak256\n        /* \"contracts/DegenToken.sol\":2028:2055  redeemableCars[carId].price */\n      0x01\n      add\n      sload\n        /* \"contracts/DegenToken.sol\":2013:2018  _burn */\n      tag_191\n        /* \"contracts/DegenToken.sol\":2013:2056  _burn(spender, redeemableCars[carId].price) */\n      jump\t// in\n    tag_207:\n        /* \"contracts/DegenToken.sol\":2104:2105  1 */\n      0x01\n        /* \"contracts/DegenToken.sol\":2067:2084  CarsNftCollection */\n      0x07\n        /* \"contracts/DegenToken.sol\":2067:2093  CarsNftCollection[spender] */\n      0x00\n        /* \"contracts/DegenToken.sol\":2085:2092  spender */\n      dup5\n        /* \"contracts/DegenToken.sol\":2067:2093  CarsNftCollection[spender] */\n      0xffffffffffffffffffffffffffffffffffffffff\n      and\n      0xffffffffffffffffffffffffffffffffffffffff\n      and\n      dup2\n      mstore\n      0x20\n      add\n      swap1\n      dup2\n      mstore\n      0x20\n      add\n      0x00\n      keccak256\n        /* \"contracts/DegenToken.sol\":2067:2100  CarsNftCollection[spender][carId] */\n      0x00\n        /* \"contracts/DegenToken.sol\":2094:2099  carId */\n      dup4\n        /* \"contracts/DegenToken.sol\":2067:2100  CarsNftCollection[spender][carId] */\n      dup2\n      mstore\n      0x20\n      add\n      swap1\n      dup2\n      mstore\n      0x20\n      add\n      0x00\n      keccak256\n      0x00\n        /* \"contracts/DegenToken.sol\":2067:2105  CarsNftCollection[spender][carId] += 1 */\n      dup3\n      dup3\n      sload\n      tag_208\n      swap2\n      swap1\n      tag_166\n      jump\t// in\n    tag_208:\n      swap3\n      pop\n      pop\n      dup2\n      swap1\n      sstore\n      pop\n        /* \"contracts/DegenToken.sol\":2116:2131  userCollections */\n      0x08\n        /* \"contracts/DegenToken.sol\":2116:2140  userCollections[spender] */\n      0x00\n        /* \"contracts/DegenToken.sol\":2132:2139  spender */\n      dup4\n        /* \"contracts/DegenToken.sol\":2116:2140  userCollections[spender] */\n      0xffffffffffffffffffffffffffffffffffffffff\n      and\n      0xffffffffffffffffffffffffffffffffffffffff\n      and\n      dup2\n      mstore\n      0x20\n      add\n      swap1\n      dup2\n      mstore\n      0x20\n      add\n      0x00\n      keccak256\n        /* \"contracts/DegenToken.sol\":2146:2195  UserCollection(redeemableCars[carId].name, carId) */\n      mload(0x40)\n      dup1\n      0x40\n      add\n      0x40\n      mstore\n      dup1\n        /* \"contracts/DegenToken.sol\":2161:2175  redeemableCars */\n      0x06\n        /* \"contracts/DegenToken.sol\":2161:2182  redeemableCars[carId] */\n      0x00\n        /* \"contracts/DegenToken.sol\":2176:2181  carId */\n      dup6\n        /* \"contracts/DegenToken.sol\":2161:2182  redeemableCars[carId] */\n      dup2\n      mstore\n      0x20\n      add\n      swap1\n      dup2\n      mstore\n      0x20\n      add\n      0x00\n      keccak256\n        /* \"contracts/DegenToken.sol\":2161:2187  redeemableCars[carId].name */\n      0x00\n      add\n        /* \"contracts/DegenToken.sol\":2146:2195  UserCollection(redeemableCars[carId].name, carId) */\n      dup1\n      sload\n      tag_209\n      swap1\n      tag_143\n      jump\t// in\n    tag_209:\n      dup1\n      0x1f\n      add\n      0x20\n      dup1\n      swap2\n      div\n      mul\n      0x20\n      add\n      mload(0x40)\n      swap1\n      dup2\n      add\n      0x40\n      mstore\n      dup1\n      swap3\n      swap2\n      swap1\n      dup2\n      dup2\n      mstore\n      0x20\n      add\n      dup3\n      dup1\n      sload\n      tag_210\n      swap1\n      tag_143\n      jump\t// in\n    tag_210:\n      dup1\n      iszero\n      tag_211\n      jumpi\n      dup1\n      0x1f\n      lt\n      tag_212\n      jumpi\n      0x0100\n      dup1\n      dup4\n      sload\n      div\n      mul\n      dup4\n      mstore\n      swap2\n      0x20\n      add\n      swap2\n      jump(tag_211)\n    tag_212:\n      dup3\n      add\n      swap2\n      swap1\n      0x00\n      mstore\n      keccak256(0x00, 0x20)\n      swap1\n    tag_213:\n      dup2\n      sload\n      dup2\n      mstore\n      swap1\n      0x01\n      add\n      swap1\n      0x20\n      add\n      dup1\n      dup4\n      gt\n      tag_213\n      jumpi\n      dup3\n      swap1\n      sub\n      0x1f\n      and\n      dup3\n      add\n      swap2\n    tag_211:\n      pop\n      pop\n      pop\n      pop\n      pop\n      dup2\n      mstore\n      0x20\n      add\n        /* \"contracts/DegenToken.sol\":2189:2194  carId */\n      dup4\n        /* \"contracts/DegenToken.sol\":2146:2195  UserCollection(redeemableCars[carId].name, carId) */\n      dup2\n      mstore\n      pop\n        /* \"contracts/DegenToken.sol\":2116:2196  userCollections[spender].push(UserCollection(redeemableCars[carId].name, carId)) */\n      swap1\n      dup1\n      0x01\n      dup2\n      sload\n      add\n      dup1\n      dup3\n      sstore\n      dup1\n      swap2\n      pop\n      pop\n      0x01\n      swap1\n      sub\n      swap1\n      0x00\n      mstore\n      keccak256(0x00, 0x20)\n      swap1\n      0x02\n      mul\n      add\n      0x00\n      swap1\n      swap2\n      swap1\n      swap2\n      swap1\n      swap2\n      pop\n      0x00\n      dup3\n      add\n      mload\n      dup2\n      0x00\n      add\n      swap1\n      dup2\n      tag_215\n      swap2\n      swap1\n      tag_216\n      jump\t// in\n    tag_215:\n      pop\n      0x20\n      dup3\n      add\n      mload\n      dup2\n      0x01\n      add\n      sstore\n      pop\n      pop\n        /* \"contracts/DegenToken.sol\":1724:2204  function redeemToken(address spender, uint256 carId) external payable {... */\n      pop\n      pop\n      jump\t// out\n        /* \"@openzeppelin/contracts/access/Ownable.sol\":1201:1286  function owner() public view virtual returns (address) {... */\n    tag_100:\n        /* \"@openzeppelin/contracts/access/Ownable.sol\":1247:1254  address */\n      0x00\n        /* \"@openzeppelin/contracts/access/Ownable.sol\":1273:1279  _owner */\n      0x05\n      0x00\n      swap1\n      sload\n      swap1\n      0x0100\n      exp\n      swap1\n      div\n      0xffffffffffffffffffffffffffffffffffffffff\n      and\n        /* \"@openzeppelin/contracts/access/Ownable.sol\":1266:1279  return _owner */\n      swap1\n      pop\n        /* \"@openzeppelin/contracts/access/Ownable.sol\":1201:1286  function owner() public view virtual returns (address) {... */\n      swap1\n      jump\t// out\n        /* \"@openzeppelin/contracts/token/ERC20/ERC20.sol\":2369:2471  function symbol() public view virtual override returns (string memory) {... */\n    tag_105:\n        /* \"@openzeppelin/contracts/token/ERC20/ERC20.sol\":2425:2438  string memory */\n      0x60\n        /* \"@openzeppelin/contracts/token/ERC20/ERC20.sol\":2457:2464  _symbol */\n      0x04\n        /* \"@openzeppelin/contracts/token/ERC20/ERC20.sol\":2450:2464  return _symbol */\n      dup1\n      sload\n      tag_219\n      swap1\n      tag_143\n      jump\t// in\n    tag_219:\n      dup1\n      0x1f\n      add\n      0x20\n      dup1\n      swap2\n      div\n      mul\n      0x20\n      add\n      mload(0x40)\n      swap1\n      dup2\n      add\n      0x40\n      mstore\n      dup1\n      swap3\n      swap2\n      swap1\n      dup2\n      dup2\n      mstore\n      0x20\n      add\n      dup3\n      dup1\n      sload\n      tag_220\n      swap1\n      tag_143\n      jump\t// in\n    tag_220:\n      dup1\n      iszero\n      tag_221\n      jumpi\n      dup1\n      0x1f\n      lt\n      tag_222\n      jumpi\n      0x0100\n      dup1\n      dup4\n      sload\n      div\n      mul\n      dup4\n      mstore\n      swap2\n      0x20\n      add\n      swap2\n      jump(tag_221)\n    tag_222:\n      dup3\n      add\n      swap2\n      swap1\n      0x00\n      mstore\n      keccak256(0x00, 0x20)\n      swap1\n    tag_223:\n      dup2\n      sload\n      dup2\n      mstore\n      swap1\n      0x01\n      add\n      swap1\n      0x20\n      add\n      dup1\n      dup4\n      gt\n      tag_223\n      jumpi\n      dup3\n      swap1\n      sub\n      0x1f\n      and\n      dup3\n      add\n      swap2\n    tag_221:\n      pop\n      pop\n      pop\n      pop\n      pop\n      swap1\n      pop\n        /* \"@openzeppelin/contracts/token/ERC20/ERC20.sol\":2369:2471  function symbol() public view virtual override returns (string memory) {... */\n      swap1\n      jump\t// out\n        /* \"@openzeppelin/contracts/token/ERC20/ERC20.sol\":6575:7002  function decreaseAllowance(address spender, uint256 subtractedValue) public virtual returns (bool) {... */\n    tag_110:\n        /* \"@openzeppelin/contracts/token/ERC20/ERC20.sol\":6668:6672  bool */\n      0x00\n        /* \"@openzeppelin/contracts/token/ERC20/ERC20.sol\":6684:6697  address owner */\n      dup1\n        /* \"@openzeppelin/contracts/token/ERC20/ERC20.sol\":6700:6712  _msgSender() */\n      tag_225\n        /* \"@openzeppelin/contracts/token/ERC20/ERC20.sol\":6700:6710  _msgSender */\n      tag_150\n        /* \"@openzeppelin/contracts/token/ERC20/ERC20.sol\":6700:6712  _msgSender() */\n      jump\t// in\n    tag_225:\n        /* \"@openzeppelin/contracts/token/ERC20/ERC20.sol\":6684:6712  address owner = _msgSender() */\n      swap1\n      pop\n        /* \"@openzeppelin/contracts/token/ERC20/ERC20.sol\":6722:6746  uint256 currentAllowance */\n      0x00\n        /* \"@openzeppelin/contracts/token/ERC20/ERC20.sol\":6749:6774  allowance(owner, spender) */\n      tag_226\n        /* \"@openzeppelin/contracts/token/ERC20/ERC20.sol\":6759:6764  owner */\n      dup3\n        /* \"@openzeppelin/contracts/token/ERC20/ERC20.sol\":6766:6773  spender */\n      dup7\n        /* \"@openzeppelin/contracts/token/ERC20/ERC20.sol\":6749:6758  allowance */\n      tag_131\n        /* \"@openzeppelin/contracts/token/ERC20/ERC20.sol\":6749:6774  allowance(owner, spender) */\n      jump\t// in\n    tag_226:\n        /* \"@openzeppelin/contracts/token/ERC20/ERC20.sol\":6722:6774  uint256 currentAllowance = allowance(owner, spender) */\n      swap1\n      pop\n        /* \"@openzeppelin/contracts/token/ERC20/ERC20.sol\":6812:6827  subtractedValue */\n      dup4\n        /* \"@openzeppelin/contracts/token/ERC20/ERC20.sol\":6792:6808  currentAllowance */\n      dup2\n        /* \"@openzeppelin/contracts/token/ERC20/ERC20.sol\":6792:6827  currentAllowance >= subtractedValue */\n      lt\n      iszero\n        /* \"@openzeppelin/contracts/token/ERC20/ERC20.sol\":6784:6869  require(currentAllowance >= subtractedValue, \"ERC20: decreased allowance below zero\") */\n      tag_227\n      jumpi\n      mload(0x40)\n      0x08c379a000000000000000000000000000000000000000000000000000000000\n      dup2\n      mstore\n      0x04\n      add\n      tag_228\n      swap1\n      tag_229\n      jump\t// in\n    tag_228:\n      mload(0x40)\n      dup1\n      swap2\n      sub\n      swap1\n      revert\n    tag_227:\n        /* \"@openzeppelin/contracts/token/ERC20/ERC20.sol\":6903:6963  _approve(owner, spender, currentAllowance - subtractedValue) */\n      tag_230\n        /* \"@openzeppelin/contracts/token/ERC20/ERC20.sol\":6912:6917  owner */\n      dup3\n        /* \"@openzeppelin/contracts/token/ERC20/ERC20.sol\":6919:6926  spender */\n      dup7\n        /* \"@openzeppelin/contracts/token/ERC20/ERC20.sol\":6947:6962  subtractedValue */\n      dup7\n        /* \"@openzeppelin/contracts/token/ERC20/ERC20.sol\":6928:6944  currentAllowance */\n      dup5\n        /* \"@openzeppelin/contracts/token/ERC20/ERC20.sol\":6928:6962  currentAllowance - subtractedValue */\n      sub\n        /* \"@openzeppelin/contracts/token/ERC20/ERC20.sol\":6903:6911  _approve */\n      tag_152\n        /* \"@openzeppelin/contracts/token/ERC20/ERC20.sol\":6903:6963  _approve(owner, spender, currentAllowance - subtractedValue) */\n      jump\t// in\n    tag_230:\n        /* \"@openzeppelin/contracts/token/ERC20/ERC20.sol\":6991:6995  true */\n      0x01\n        /* \"@openzeppelin/contracts/token/ERC20/ERC20.sol\":6984:6995  return true */\n      swap3\n      pop\n      pop\n      pop\n        /* \"@openzeppelin/contracts/token/ERC20/ERC20.sol\":6575:7002  function decreaseAllowance(address spender, uint256 subtractedValue) public virtual returns (bool) {... */\n      swap3\n      swap2\n      pop\n      pop\n      jump\t// out\n        /* \"@openzeppelin/contracts/token/ERC20/ERC20.sol\":3740:3929  function transfer(address to, uint256 amount) public virtual override returns (bool) {... */\n    tag_115:\n        /* \"@openzeppelin/contracts/token/ERC20/ERC20.sol\":3819:3823  bool */\n      0x00\n        /* \"@openzeppelin/contracts/token/ERC20/ERC20.sol\":3835:3848  address owner */\n      dup1\n        /* \"@openzeppelin/contracts/token/ERC20/ERC20.sol\":3851:3863  _msgSender() */\n      tag_232\n        /* \"@openzeppelin/contracts/token/ERC20/ERC20.sol\":3851:3861  _msgSender */\n      tag_150\n        /* \"@openzeppelin/contracts/token/ERC20/ERC20.sol\":3851:3863  _msgSender() */\n      jump\t// in\n    tag_232:\n        /* \"@openzeppelin/contracts/token/ERC20/ERC20.sol\":3835:3863  address owner = _msgSender() */\n      swap1\n      pop\n        /* \"@openzeppelin/contracts/token/ERC20/ERC20.sol\":3873:3901  _transfer(owner, to, amount) */\n      tag_233\n        /* \"@openzeppelin/contracts/token/ERC20/ERC20.sol\":3883:3888  owner */\n      dup2\n        /* \"@openzeppelin/contracts/token/ERC20/ERC20.sol\":3890:3892  to */\n      dup6\n        /* \"@openzeppelin/contracts/token/ERC20/ERC20.sol\":3894:3900  amount */\n      dup6\n        /* \"@openzeppelin/contracts/token/ERC20/ERC20.sol\":3873:3882  _transfer */\n      tag_159\n        /* \"@openzeppelin/contracts/token/ERC20/ERC20.sol\":3873:3901  _transfer(owner, to, amount) */\n      jump\t// in\n    tag_233:\n        /* \"@openzeppelin/contracts/token/ERC20/ERC20.sol\":3918:3922  true */\n      0x01\n        /* \"@openzeppelin/contracts/token/ERC20/ERC20.sol\":3911:3922  return true */\n      swap2\n      pop\n      pop\n        /* \"@openzeppelin/contracts/token/ERC20/ERC20.sol\":3740:3929  function transfer(address to, uint256 amount) public virtual override returns (bool) {... */\n      swap3\n      swap2\n      pop\n      pop\n      jump\t// out\n        /* \"contracts/DegenToken.sol\":2649:2927  function showStore() public view returns (string[] memory) {... */\n    tag_119:\n        /* \"contracts/DegenToken.sol\":2691:2706  string[] memory */\n      0x60\n        /* \"contracts/DegenToken.sol\":2719:2745  string[] memory storeItems */\n      0x00\n        /* \"contracts/DegenToken.sol\":2761:2762  8 */\n      0x08\n        /* \"contracts/DegenToken.sol\":2748:2763  new string[](8) */\n      0xffffffffffffffff\n      dup2\n      gt\n      iszero\n      tag_235\n      jumpi\n      tag_236\n      tag_237\n      jump\t// in\n    tag_236:\n    tag_235:\n      mload(0x40)\n      swap1\n      dup1\n      dup3\n      mstore\n      dup1\n      0x20\n      mul\n      0x20\n      add\n      dup3\n      add\n      0x40\n      mstore\n      dup1\n      iszero\n      tag_238\n      jumpi\n      dup2\n      0x20\n      add\n    tag_239:\n      0x60\n      dup2\n      mstore\n      0x20\n      add\n      swap1\n      0x01\n      swap1\n      sub\n      swap1\n      dup2\n      tag_239\n      jumpi\n      swap1\n      pop\n    tag_238:\n      pop\n        /* \"contracts/DegenToken.sol\":2719:2763  string[] memory storeItems = new string[](8) */\n      swap1\n      pop\n        /* \"contracts/DegenToken.sol\":2781:2790  uint256 i */\n      0x00\n        /* \"contracts/DegenToken.sol\":2793:2794  1 */\n      0x01\n        /* \"contracts/DegenToken.sol\":2781:2794  uint256 i = 1 */\n      swap1\n      pop\n        /* \"contracts/DegenToken.sol\":2776:2890  for (uint256 i = 1; i <= 8; i++) {... */\n    tag_240:\n        /* \"contracts/DegenToken.sol\":2801:2802  8 */\n      0x08\n        /* \"contracts/DegenToken.sol\":2796:2797  i */\n      dup2\n        /* \"contracts/DegenToken.sol\":2796:2802  i <= 8 */\n      gt\n        /* \"contracts/DegenToken.sol\":2776:2890  for (uint256 i = 1; i <= 8; i++) {... */\n      tag_241\n      jumpi\n        /* \"contracts/DegenToken.sol\":2842:2856  redeemableCars */\n      0x06\n        /* \"contracts/DegenToken.sol\":2842:2859  redeemableCars[i] */\n      0x00\n        /* \"contracts/DegenToken.sol\":2857:2858  i */\n      dup3\n        /* \"contracts/DegenToken.sol\":2842:2859  redeemableCars[i] */\n      dup2\n      mstore\n      0x20\n      add\n      swap1\n      dup2\n      mstore\n      0x20\n      add\n      0x00\n      keccak256\n        /* \"contracts/DegenToken.sol\":2842:2864  redeemableCars[i].name */\n      0x00\n      add\n        /* \"contracts/DegenToken.sol\":2824:2864  storeItems[i-1] = redeemableCars[i].name */\n      dup1\n      sload\n      tag_243\n      swap1\n      tag_143\n      jump\t// in\n    tag_243:\n      dup1\n      0x1f\n      add\n      0x20\n      dup1\n      swap2\n      div\n      mul\n      0x20\n      add\n      mload(0x40)\n      swap1\n      dup2\n      add\n      0x40\n      mstore\n      dup1\n      swap3\n      swap2\n      swap1\n      dup2\n      dup2\n      mstore\n      0x20\n      add\n      dup3\n      dup1\n      sload\n      tag_244\n      swap1\n      tag_143\n      jump\t// in\n    tag_244:\n      dup1\n      iszero\n      tag_245\n      jumpi\n      dup1\n      0x1f\n      lt\n      tag_246\n      jumpi\n      0x0100\n      dup1\n      dup4\n      sload\n      div\n      mul\n      dup4\n      mstore\n      swap2\n      0x20\n      add\n      swap2\n      jump(tag_245)\n    tag_246:\n      dup3\n      add\n      swap2\n      swap1\n      0x00\n      mstore\n      keccak256(0x00, 0x20)\n      swap1\n    tag_247:\n      dup2\n      sload\n      dup2\n      mstore\n      swap1\n      0x01\n      add\n      swap1\n      0x20\n      add\n      dup1\n      dup4\n      gt\n      tag_247\n      jumpi\n      dup3\n      swap1\n      sub\n      0x1f\n      and\n      dup3\n      add\n      swap2\n    tag_245:\n      pop\n      pop\n      pop\n      pop\n      pop\n        /* \"contracts/DegenToken.sol\":2824:2834  storeItems */\n      dup3\n        /* \"contracts/DegenToken.sol\":2837:2838  1 */\n      0x01\n        /* \"contracts/DegenToken.sol\":2835:2836  i */\n      dup4\n        /* \"contracts/DegenToken.sol\":2835:2838  i-1 */\n      tag_248\n      swap2\n      swap1\n      tag_249\n      jump\t// in\n    tag_248:\n        /* \"contracts/DegenToken.sol\":2824:2839  storeItems[i-1] */\n      dup2\n      mload\n      dup2\n      lt\n      tag_250\n      jumpi\n      tag_251\n      tag_252\n      jump\t// in\n    tag_251:\n    tag_250:\n      0x20\n      mul\n      0x20\n      add\n      add\n        /* \"contracts/DegenToken.sol\":2824:2864  storeItems[i-1] = redeemableCars[i].name */\n      dup2\n      swap1\n      mstore\n      pop\n        /* \"contracts/DegenToken.sol\":2804:2807  i++ */\n      dup1\n      dup1\n      tag_253\n      swap1\n      tag_254\n      jump\t// in\n    tag_253:\n      swap2\n      pop\n      pop\n        /* \"contracts/DegenToken.sol\":2776:2890  for (uint256 i = 1; i <= 8; i++) {... */\n      jump(tag_240)\n    tag_241:\n      pop\n        /* \"contracts/DegenToken.sol\":2909:2919  storeItems */\n      dup1\n        /* \"contracts/DegenToken.sol\":2902:2919  return storeItems */\n      swap2\n      pop\n      pop\n        /* \"contracts/DegenToken.sol\":2649:2927  function showStore() public view returns (string[] memory) {... */\n      swap1\n      jump\t// out\n        /* \"contracts/DegenToken.sol\":2215:2635  function showUserCollection(address user) public view returns (string[] memory) {... */\n    tag_125:\n        /* \"contracts/DegenToken.sol\":2278:2293  string[] memory */\n      0x60\n        /* \"contracts/DegenToken.sol\":2306:2330  uint256 collectionLength */\n      0x00\n        /* \"contracts/DegenToken.sol\":2333:2348  userCollections */\n      0x08\n        /* \"contracts/DegenToken.sol\":2333:2354  userCollections[user] */\n      0x00\n        /* \"contracts/DegenToken.sol\":2349:2353  user */\n      dup5\n        /* \"contracts/DegenToken.sol\":2333:2354  userCollections[user] */\n      0xffffffffffffffffffffffffffffffffffffffff\n      and\n      0xffffffffffffffffffffffffffffffffffffffff\n      and\n      dup2\n      mstore\n      0x20\n      add\n      swap1\n      dup2\n      mstore\n      0x20\n      add\n      0x00\n      keccak256\n        /* \"contracts/DegenToken.sol\":2333:2361  userCollections[user].length */\n      dup1\n      sload\n      swap1\n      pop\n        /* \"contracts/DegenToken.sol\":2306:2361  uint256 collectionLength = userCollections[user].length */\n      swap1\n      pop\n        /* \"contracts/DegenToken.sol\":2372:2407  string[] memory userCollectionItems */\n      0x00\n        /* \"contracts/DegenToken.sol\":2423:2439  collectionLength */\n      dup2\n        /* \"contracts/DegenToken.sol\":2410:2440  new string[](collectionLength) */\n      0xffffffffffffffff\n      dup2\n      gt\n      iszero\n      tag_256\n      jumpi\n      tag_257\n      tag_237\n      jump\t// in\n    tag_257:\n    tag_256:\n      mload(0x40)\n      swap1\n      dup1\n      dup3\n      mstore\n      dup1\n      0x20\n      mul\n      0x20\n      add\n      dup3\n      add\n      0x40\n      mstore\n      dup1\n      iszero\n      tag_258\n      jumpi\n      dup2\n      0x20\n      add\n    tag_259:\n      0x60\n      dup2\n      mstore\n      0x20\n      add\n      swap1\n      0x01\n      swap1\n      sub\n      swap1\n      dup2\n      tag_259\n      jumpi\n      swap1\n      pop\n    tag_258:\n      pop\n        /* \"contracts/DegenToken.sol\":2372:2440  string[] memory userCollectionItems = new string[](collectionLength) */\n      swap1\n      pop\n        /* \"contracts/DegenToken.sol\":2462:2471  uint256 i */\n      0x00\n        /* \"contracts/DegenToken.sol\":2457:2585  for (uint256 i = 0; i < collectionLength; i++) {... */\n    tag_260:\n        /* \"contracts/DegenToken.sol\":2481:2497  collectionLength */\n      dup3\n        /* \"contracts/DegenToken.sol\":2477:2478  i */\n      dup2\n        /* \"contracts/DegenToken.sol\":2477:2497  i < collectionLength */\n      lt\n        /* \"contracts/DegenToken.sol\":2457:2585  for (uint256 i = 0; i < collectionLength; i++) {... */\n      iszero\n      tag_261\n      jumpi\n        /* \"contracts/DegenToken.sol\":2544:2559  userCollections */\n      0x08\n        /* \"contracts/DegenToken.sol\":2544:2565  userCollections[user] */\n      0x00\n        /* \"contracts/DegenToken.sol\":2560:2564  user */\n      dup7\n        /* \"contracts/DegenToken.sol\":2544:2565  userCollections[user] */\n      0xffffffffffffffffffffffffffffffffffffffff\n      and\n      0xffffffffffffffffffffffffffffffffffffffff\n      and\n      dup2\n      mstore\n      0x20\n      add\n      swap1\n      dup2\n      mstore\n      0x20\n      add\n      0x00\n      keccak256\n        /* \"contracts/DegenToken.sol\":2566:2567  i */\n      dup2\n        /* \"contracts/DegenToken.sol\":2544:2568  userCollections[user][i] */\n      dup2\n      sload\n      dup2\n      lt\n      tag_263\n      jumpi\n      tag_264\n      tag_252\n      jump\t// in\n    tag_264:\n    tag_263:\n      swap1\n      0x00\n      mstore\n      keccak256(0x00, 0x20)\n      swap1\n      0x02\n      mul\n      add\n        /* \"contracts/DegenToken.sol\":2544:2573  userCollections[user][i].name */\n      0x00\n      add\n        /* \"contracts/DegenToken.sol\":2519:2573  userCollectionItems[i] = userCollections[user][i].name */\n      dup1\n      sload\n      tag_266\n      swap1\n      tag_143\n      jump\t// in\n    tag_266:\n      dup1\n      0x1f\n      add\n      0x20\n      dup1\n      swap2\n      div\n      mul\n      0x20\n      add\n      mload(0x40)\n      swap1\n      dup2\n      add\n      0x40\n      mstore\n      dup1\n      swap3\n      swap2\n      swap1\n      dup2\n      dup2\n      mstore\n      0x20\n      add\n      dup3\n      dup1\n      sload\n      tag_267\n      swap1\n      tag_143\n      jump\t// in\n    tag_267:\n      dup1\n      iszero\n      tag_268\n      jumpi\n      dup1\n      0x1f\n      lt\n      tag_269\n      jumpi\n      0x0100\n      dup1\n      dup4\n      sload\n      div\n      mul\n      dup4\n      mstore\n      swap2\n      0x20\n      add\n      swap2\n      jump(tag_268)\n    tag_269:\n      dup3\n      add\n      swap2\n      swap1\n      0x00\n      mstore\n      keccak256(0x00, 0x20)\n      swap1\n    tag_270:\n      dup2\n      sload\n      dup2\n      mstore\n      swap1\n      0x01\n      add\n      swap1\n      0x20\n      add\n      dup1\n      dup4\n      gt\n      tag_270\n      jumpi\n      dup3\n      swap1\n      sub\n      0x1f\n      and\n      dup3\n      add\n      swap2\n    tag_268:\n      pop\n      pop\n      pop\n      pop\n      pop\n        /* \"contracts/DegenToken.sol\":2519:2538  userCollectionItems */\n      dup3\n        /* \"contracts/DegenToken.sol\":2539:2540  i */\n      dup3\n        /* \"contracts/DegenToken.sol\":2519:2541  userCollectionItems[i] */\n      dup2\n      mload\n      dup2\n      lt\n      tag_271\n      jumpi\n      tag_272\n      tag_252\n      jump\t// in\n    tag_272:\n    tag_271:\n      0x20\n      mul\n      0x20\n      add\n      add\n        /* \"contracts/DegenToken.sol\":2519:2573  userCollectionItems[i] = userCollections[user][i].name */\n      dup2\n      swap1\n      mstore\n      pop\n        /* \"contracts/DegenToken.sol\":2499:2502  i++ */\n      dup1\n      dup1\n      0x01\n      add\n      swap2\n      pop\n      pop\n        /* \"contracts/DegenToken.sol\":2457:2585  for (uint256 i = 0; i < collectionLength; i++) {... */\n      jump(tag_260)\n    tag_261:\n      pop\n        /* \"contracts/DegenToken.sol\":2608:2627  userCollectionItems */\n      dup1\n        /* \"contracts/DegenToken.sol\":2601:2627  return userCollectionItems */\n      swap3\n      pop\n      pop\n      pop\n        /* \"contracts/DegenToken.sol\":2215:2635  function showUserCollection(address user) public view returns (string[] memory) {... */\n      swap2\n      swap1\n      pop\n      jump\t// out\n        /* \"@openzeppelin/contracts/token/ERC20/ERC20.sol\":3987:4136  function allowance(address owner, address spender) public view virtual override returns (uint256) {... */\n    tag_131:\n        /* \"@openzeppelin/contracts/token/ERC20/ERC20.sol\":4076:4083  uint256 */\n      0x00\n        /* \"@openzeppelin/contracts/token/ERC20/ERC20.sol\":4102:4113  _allowances */\n      0x01\n        /* \"@openzeppelin/contracts/token/ERC20/ERC20.sol\":4102:4120  _allowances[owner] */\n      0x00\n        /* \"@openzeppelin/contracts/token/ERC20/ERC20.sol\":4114:4119  owner */\n      dup5\n        /* \"@openzeppelin/contracts/token/ERC20/ERC20.sol\":4102:4120  _allowances[owner] */\n      0xffffffffffffffffffffffffffffffffffffffff\n      and\n      0xffffffffffffffffffffffffffffffffffffffff\n      and\n      dup2\n      mstore\n      0x20\n      add\n      swap1\n      dup2\n      mstore\n      0x20\n      add\n      0x00\n      keccak256\n        /* \"@openzeppelin/contracts/token/ERC20/ERC20.sol\":4102:4129  _allowances[owner][spender] */\n      0x00\n        /* \"@openzeppelin/contracts/token/ERC20/ERC20.sol\":4121:4128  spender */\n      dup4\n        /* \"@openzeppelin/contracts/token/ERC20/ERC20.sol\":4102:4129  _allowances[owner][spender] */\n      0xffffffffffffffffffffffffffffffffffffffff\n      and\n      0xffffffffffffffffffffffffffffffffffffffff\n      and\n      dup2\n      mstore\n      0x20\n      add\n      swap1\n      dup2\n      mstore\n      0x20\n      add\n      0x00\n      keccak256\n      sload\n        /* \"@openzeppelin/contracts/token/ERC20/ERC20.sol\":4095:4129  return _allowances[owner][spender] */\n      swap1\n      pop\n        /* \"@openzeppelin/contracts/token/ERC20/ERC20.sol\":3987:4136  function allowance(address owner, address spender) public view virtual override returns (uint256) {... */\n      swap3\n      swap2\n      pop\n      pop\n      jump\t// out\n        /* \"@openzeppelin/contracts/access/Ownable.sol\":2074:2272  function transferOwnership(address newOwner) public virtual onlyOwner {... */\n    tag_136:\n        /* \"@openzeppelin/contracts/access/Ownable.sol\":1094:1107  _checkOwner() */\n      tag_275\n        /* \"@openzeppelin/contracts/access/Ownable.sol\":1094:1105  _checkOwner */\n      tag_174\n        /* \"@openzeppelin/contracts/access/Ownable.sol\":1094:1107  _checkOwner() */\n      jump\t// in\n    tag_275:\n        /* \"@openzeppelin/contracts/access/Ownable.sol\":2182:2183  0 */\n      0x00\n        /* \"@openzeppelin/contracts/access/Ownable.sol\":2162:2184  newOwner != address(0) */\n      0xffffffffffffffffffffffffffffffffffffffff\n      and\n        /* \"@openzeppelin/contracts/access/Ownable.sol\":2162:2170  newOwner */\n      dup2\n        /* \"@openzeppelin/contracts/access/Ownable.sol\":2162:2184  newOwner != address(0) */\n      0xffffffffffffffffffffffffffffffffffffffff\n      and\n      sub\n        /* \"@openzeppelin/contracts/access/Ownable.sol\":2154:2227  require(newOwner != address(0), \"Ownable: new owner is the zero address\") */\n      tag_277\n      jumpi\n      mload(0x40)\n      0x08c379a000000000000000000000000000000000000000000000000000000000\n      dup2\n      mstore\n      0x04\n      add\n      tag_278\n      swap1\n      tag_279\n      jump\t// in\n    tag_278:\n      mload(0x40)\n      dup1\n      swap2\n      sub\n      swap1\n      revert\n    tag_277:\n        /* \"@openzeppelin/contracts/access/Ownable.sol\":2237:2265  _transferOwnership(newOwner) */\n      tag_280\n        /* \"@openzeppelin/contracts/access/Ownable.sol\":2256:2264  newOwner */\n      dup2\n        /* \"@openzeppelin/contracts/access/Ownable.sol\":2237:2255  _transferOwnership */\n      tag_197\n        /* \"@openzeppelin/contracts/access/Ownable.sol\":2237:2265  _transferOwnership(newOwner) */\n      jump\t// in\n    tag_280:\n        /* \"@openzeppelin/contracts/access/Ownable.sol\":2074:2272  function transferOwnership(address newOwner) public virtual onlyOwner {... */\n      pop\n      jump\t// out\n        /* \"contracts/DegenToken.sol\":1459:1716  function transferToken(address sender, address _receiver, uint256 val) external {... */\n    tag_140:\n        /* \"contracts/DegenToken.sol\":1579:1582  val */\n      dup1\n        /* \"contracts/DegenToken.sol\":1558:1575  balanceOf(sender) */\n      tag_282\n        /* \"contracts/DegenToken.sol\":1568:1574  sender */\n      dup5\n        /* \"contracts/DegenToken.sol\":1558:1567  balanceOf */\n      tag_90\n        /* \"contracts/DegenToken.sol\":1558:1575  balanceOf(sender) */\n      jump\t// in\n    tag_282:\n        /* \"contracts/DegenToken.sol\":1558:1582  balanceOf(sender) >= val */\n      lt\n      iszero\n        /* \"contracts/DegenToken.sol\":1550:1633  require(balanceOf(sender) >= val, \"You don't have enough Degen tokens to transfer\") */\n      tag_283\n      jumpi\n      mload(0x40)\n      0x08c379a000000000000000000000000000000000000000000000000000000000\n      dup2\n      mstore\n      0x04\n      add\n      tag_284\n      swap1\n      tag_285\n      jump\t// in\n    tag_284:\n      mload(0x40)\n      dup1\n      swap2\n      sub\n      swap1\n      revert\n    tag_283:\n        /* \"contracts/DegenToken.sol\":1644:1664  approve(sender, val) */\n      tag_286\n        /* \"contracts/DegenToken.sol\":1652:1658  sender */\n      dup4\n        /* \"contracts/DegenToken.sol\":1660:1663  val */\n      dup3\n        /* \"contracts/DegenToken.sol\":1644:1651  approve */\n      tag_37\n        /* \"contracts/DegenToken.sol\":1644:1664  approve(sender, val) */\n      jump\t// in\n    tag_286:\n      pop\n        /* \"contracts/DegenToken.sol\":1675:1708  _transfer(sender, _receiver, val) */\n      tag_287\n        /* \"contracts/DegenToken.sol\":1685:1691  sender */\n      dup4\n        /* \"contracts/DegenToken.sol\":1693:1702  _receiver */\n      dup4\n        /* \"contracts/DegenToken.sol\":1704:1707  val */\n      dup4\n        /* \"contracts/DegenToken.sol\":1675:1684  _transfer */\n      tag_159\n        /* \"contracts/DegenToken.sol\":1675:1708  _transfer(sender, _receiver, val) */\n      jump\t// in\n    tag_287:\n        /* \"contracts/DegenToken.sol\":1459:1716  function transferToken(address sender, address _receiver, uint256 val) external {... */\n      pop\n      pop\n      pop\n      jump\t// out\n        /* \"@openzeppelin/contracts/utils/Context.sol\":655:751  function _msgSender() internal view virtual returns (address) {... */\n    tag_150:\n        /* \"@openzeppelin/contracts/utils/Context.sol\":708:715  address */\n      0x00\n        /* \"@openzeppelin/contracts/utils/Context.sol\":734:744  msg.sender */\n      caller\n        /* \"@openzeppelin/contracts/utils/Context.sol\":727:744  return msg.sender */\n      swap1\n      pop\n        /* \"@openzeppelin/contracts/utils/Context.sol\":655:751  function _msgSender() internal view virtual returns (address) {... */\n      swap1\n      jump\t// out\n        /* \"@openzeppelin/contracts/token/ERC20/ERC20.sol\":10457:10797  function _approve(address owner, address spender, uint256 amount) internal virtual {... */\n    tag_152:\n        /* \"@openzeppelin/contracts/token/ERC20/ERC20.sol\":10575:10576  0 */\n      0x00\n        /* \"@openzeppelin/contracts/token/ERC20/ERC20.sol\":10558:10577  owner != address(0) */\n      0xffffffffffffffffffffffffffffffffffffffff\n      and\n        /* \"@openzeppelin/contracts/token/ERC20/ERC20.sol\":10558:10563  owner */\n      dup4\n        /* \"@openzeppelin/contracts/token/ERC20/ERC20.sol\":10558:10577  owner != address(0) */\n      0xffffffffffffffffffffffffffffffffffffffff\n      and\n      sub\n        /* \"@openzeppelin/contracts/token/ERC20/ERC20.sol\":10550:10618  require(owner != address(0), \"ERC20: approve from the zero address\") */\n      tag_290\n      jumpi\n      mload(0x40)\n      0x08c379a000000000000000000000000000000000000000000000000000000000\n      dup2\n      mstore\n      0x04\n      add\n      tag_291\n      swap1\n      tag_292\n      jump\t// in\n    tag_291:\n      mload(0x40)\n      dup1\n      swap2\n      sub\n      swap1\n      revert\n    tag_290:\n        /* \"@openzeppelin/contracts/token/ERC20/ERC20.sol\":10655:10656  0 */\n      0x00\n        /* \"@openzeppelin/contracts/token/ERC20/ERC20.sol\":10636:10657  spender != address(0) */\n      0xffffffffffffffffffffffffffffffffffffffff\n      and\n        /* \"@openzeppelin/contracts/token/ERC20/ERC20.sol\":10636:10643  spender */\n      dup3\n        /* \"@openzeppelin/contracts/token/ERC20/ERC20.sol\":10636:10657  spender != address(0) */\n      0xffffffffffffffffffffffffffffffffffffffff\n      and\n      sub\n        /* \"@openzeppelin/contracts/token/ERC20/ERC20.sol\":10628:10696  require(spender != address(0), \"ERC20: approve to the zero address\") */\n      tag_293\n      jumpi\n      mload(0x40)\n      0x08c379a000000000000000000000000000000000000000000000000000000000\n      dup2\n      mstore\n      0x04\n      add\n      tag_294\n      swap1\n      tag_295\n      jump\t// in\n    tag_294:\n      mload(0x40)\n      dup1\n      swap2\n      sub\n      swap1\n      revert\n    tag_293:\n        /* \"@openzeppelin/contracts/token/ERC20/ERC20.sol\":10737:10743  amount */\n      dup1\n        /* \"@openzeppelin/contracts/token/ERC20/ERC20.sol\":10707:10718  _allowances */\n      0x01\n        /* \"@openzeppelin/contracts/token/ERC20/ERC20.sol\":10707:10725  _allowances[owner] */\n      0x00\n        /* \"@openzeppelin/contracts/token/ERC20/ERC20.sol\":10719:10724  owner */\n      dup6\n        /* \"@openzeppelin/contracts/token/ERC20/ERC20.sol\":10707:10725  _allowances[owner] */\n      0xffffffffffffffffffffffffffffffffffffffff\n      and\n      0xffffffffffffffffffffffffffffffffffffffff\n      and\n      dup2\n      mstore\n      0x20\n      add\n      swap1\n      dup2\n      mstore\n      0x20\n      add\n      0x00\n      keccak256\n        /* \"@openzeppelin/contracts/token/ERC20/ERC20.sol\":10707:10734  _allowances[owner][spender] */\n      0x00\n        /* \"@openzeppelin/contracts/token/ERC20/ERC20.sol\":10726:10733  spender */\n      dup5\n        /* \"@openzeppelin/contracts/token/ERC20/ERC20.sol\":10707:10734  _allowances[owner][spender] */\n      0xffffffffffffffffffffffffffffffffffffffff\n      and\n      0xffffffffffffffffffffffffffffffffffffffff\n      and\n      dup2\n      mstore\n      0x20\n      add\n      swap1\n      dup2\n      mstore\n      0x20\n      add\n      0x00\n      keccak256\n        /* \"@openzeppelin/contracts/token/ERC20/ERC20.sol\":10707:10743  _allowances[owner][spender] = amount */\n      dup2\n      swap1\n      sstore\n      pop\n        /* \"@openzeppelin/contracts/token/ERC20/ERC20.sol\":10774:10781  spender */\n      dup2\n        /* \"@openzeppelin/contracts/token/ERC20/ERC20.sol\":10758:10790  Approval(owner, spender, amount) */\n      0xffffffffffffffffffffffffffffffffffffffff\n      and\n        /* \"@openzeppelin/contracts/token/ERC20/ERC20.sol\":10767:10772  owner */\n      dup4\n        /* \"@openzeppelin/contracts/token/ERC20/ERC20.sol\":10758:10790  Approval(owner, spender, amount) */\n      0xffffffffffffffffffffffffffffffffffffffff\n      and\n      0x8c5be1e5ebec7d5bd14f71427d1e84f3dd0314c0f7b2291e5b200ac8c7c3b925\n        /* \"@openzeppelin/contracts/token/ERC20/ERC20.sol\":10783:10789  amount */\n      dup4\n        /* \"@openzeppelin/contracts/token/ERC20/ERC20.sol\":10758:10790  Approval(owner, spender, amount) */\n      mload(0x40)\n      tag_296\n      swap2\n      swap1\n      tag_45\n      jump\t// in\n    tag_296:\n      mload(0x40)\n      dup1\n      swap2\n      sub\n      swap1\n      log3\n        /* \"@openzeppelin/contracts/token/ERC20/ERC20.sol\":10457:10797  function _approve(address owner, address spender, uint256 amount) internal virtual {... */\n      pop\n      pop\n      pop\n      jump\t// out\n        /* \"@openzeppelin/contracts/token/ERC20/ERC20.sol\":11078:11489  function _spendAllowance(address owner, address spender, uint256 amount) internal virtual {... */\n    tag_157:\n        /* \"@openzeppelin/contracts/token/ERC20/ERC20.sol\":11178:11202  uint256 currentAllowance */\n      0x00\n        /* \"@openzeppelin/contracts/token/ERC20/ERC20.sol\":11205:11230  allowance(owner, spender) */\n      tag_298\n        /* \"@openzeppelin/contracts/token/ERC20/ERC20.sol\":11215:11220  owner */\n      dup5\n        /* \"@openzeppelin/contracts/token/ERC20/ERC20.sol\":11222:11229  spender */\n      dup5\n        /* \"@openzeppelin/contracts/token/ERC20/ERC20.sol\":11205:11214  allowance */\n      tag_131\n        /* \"@openzeppelin/contracts/token/ERC20/ERC20.sol\":11205:11230  allowance(owner, spender) */\n      jump\t// in\n    tag_298:\n        /* \"@openzeppelin/contracts/token/ERC20/ERC20.sol\":11178:11230  uint256 currentAllowance = allowance(owner, spender) */\n      swap1\n      pop\n        /* \"@openzeppelin/contracts/token/ERC20/ERC20.sol\":11264:11281  type(uint256).max */\n      0xffffffffffffffffffffffffffffffffffffffffffffffffffffffffffffffff\n        /* \"@openzeppelin/contracts/token/ERC20/ERC20.sol\":11244:11260  currentAllowance */\n      dup2\n        /* \"@openzeppelin/contracts/token/ERC20/ERC20.sol\":11244:11281  currentAllowance != type(uint256).max */\n      eq\n        /* \"@openzeppelin/contracts/token/ERC20/ERC20.sol\":11240:11483  if (currentAllowance != type(uint256).max) {... */\n      tag_299\n      jumpi\n        /* \"@openzeppelin/contracts/token/ERC20/ERC20.sol\":11325:11331  amount */\n      dup2\n        /* \"@openzeppelin/contracts/token/ERC20/ERC20.sol\":11305:11321  currentAllowance */\n      dup2\n        /* \"@openzeppelin/contracts/token/ERC20/ERC20.sol\":11305:11331  currentAllowance >= amount */\n      lt\n      iszero\n        /* \"@openzeppelin/contracts/token/ERC20/ERC20.sol\":11297:11365  require(currentAllowance >= amount, \"ERC20: insufficient allowance\") */\n      tag_300\n      jumpi\n      mload(0x40)\n      0x08c379a000000000000000000000000000000000000000000000000000000000\n      dup2\n      mstore\n      0x04\n      add\n      tag_301\n      swap1\n      tag_302\n      jump\t// in\n    tag_301:\n      mload(0x40)\n      dup1\n      swap2\n      sub\n      swap1\n      revert\n    tag_300:\n        /* \"@openzeppelin/contracts/token/ERC20/ERC20.sol\":11407:11458  _approve(owner, spender, currentAllowance - amount) */\n      tag_303\n        /* \"@openzeppelin/contracts/token/ERC20/ERC20.sol\":11416:11421  owner */\n      dup5\n        /* \"@openzeppelin/contracts/token/ERC20/ERC20.sol\":11423:11430  spender */\n      dup5\n        /* \"@openzeppelin/contracts/token/ERC20/ERC20.sol\":11451:11457  amount */\n      dup5\n        /* \"@openzeppelin/contracts/token/ERC20/ERC20.sol\":11432:11448  currentAllowance */\n      dup5\n        /* \"@openzeppelin/contracts/token/ERC20/ERC20.sol\":11432:11457  currentAllowance - amount */\n      sub\n        /* \"@openzeppelin/contracts/token/ERC20/ERC20.sol\":11407:11415  _approve */\n      tag_152\n        /* \"@openzeppelin/contracts/token/ERC20/ERC20.sol\":11407:11458  _approve(owner, spender, currentAllowance - amount) */\n      jump\t// in\n    tag_303:\n        /* \"@openzeppelin/contracts/token/ERC20/ERC20.sol\":11240:11483  if (currentAllowance != type(uint256).max) {... */\n    tag_299:\n        /* \"@openzeppelin/contracts/token/ERC20/ERC20.sol\":11168:11489  {... */\n      pop\n        /* \"@openzeppelin/contracts/token/ERC20/ERC20.sol\":11078:11489  function _spendAllowance(address owner, address spender, uint256 amount) internal virtual {... */\n      pop\n      pop\n      pop\n      jump\t// out\n        /* \"@openzeppelin/contracts/token/ERC20/ERC20.sol\":7456:8244  function _transfer(address from, address to, uint256 amount) internal virtual {... */\n    tag_159:\n        /* \"@openzeppelin/contracts/token/ERC20/ERC20.sol\":7568:7569  0 */\n      0x00\n        /* \"@openzeppelin/contracts/token/ERC20/ERC20.sol\":7552:7570  from != address(0) */\n      0xffffffffffffffffffffffffffffffffffffffff\n      and\n        /* \"@openzeppelin/contracts/token/ERC20/ERC20.sol\":7552:7556  from */\n      dup4\n        /* \"@openzeppelin/contracts/token/ERC20/ERC20.sol\":7552:7570  from != address(0) */\n      0xffffffffffffffffffffffffffffffffffffffff\n      and\n      sub\n        /* \"@openzeppelin/contracts/token/ERC20/ERC20.sol\":7544:7612  require(from != address(0), \"ERC20: transfer from the zero address\") */\n      tag_305\n      jumpi\n      mload(0x40)\n      0x08c379a000000000000000000000000000000000000000000000000000000000\n      dup2\n      mstore\n      0x04\n      add\n      tag_306\n      swap1\n      tag_307\n      jump\t// in\n    tag_306:\n      mload(0x40)\n      dup1\n      swap2\n      sub\n      swap1\n      revert\n    tag_305:\n        /* \"@openzeppelin/contracts/token/ERC20/ERC20.sol\":7644:7645  0 */\n      0x00\n        /* \"@openzeppelin/contracts/token/ERC20/ERC20.sol\":7630:7646  to != address(0) */\n      0xffffffffffffffffffffffffffffffffffffffff\n      and\n        /* \"@openzeppelin/contracts/token/ERC20/ERC20.sol\":7630:7632  to */\n      dup3\n        /* \"@openzeppelin/contracts/token/ERC20/ERC20.sol\":7630:7646  to != address(0) */\n      0xffffffffffffffffffffffffffffffffffffffff\n      and\n      sub\n        /* \"@openzeppelin/contracts/token/ERC20/ERC20.sol\":7622:7686  require(to != address(0), \"ERC20: transfer to the zero address\") */\n      tag_308\n      jumpi\n      mload(0x40)\n      0x08c379a000000000000000000000000000000000000000000000000000000000\n      dup2\n      mstore\n      0x04\n      add\n      tag_309\n      swap1\n      tag_310\n      jump\t// in\n    tag_309:\n      mload(0x40)\n      dup1\n      swap2\n      sub\n      swap1\n      revert\n    tag_308:\n        /* \"@openzeppelin/contracts/token/ERC20/ERC20.sol\":7697:7735  _beforeTokenTransfer(from, to, amount) */\n      tag_311\n        /* \"@openzeppelin/contracts/token/ERC20/ERC20.sol\":7718:7722  from */\n      dup4\n        /* \"@openzeppelin/contracts/token/ERC20/ERC20.sol\":7724:7726  to */\n      dup4\n        /* \"@openzeppelin/contracts/token/ERC20/ERC20.sol\":7728:7734  amount */\n      dup4\n        /* \"@openzeppelin/contracts/token/ERC20/ERC20.sol\":7697:7717  _beforeTokenTransfer */\n      tag_312\n        /* \"@openzeppelin/contracts/token/ERC20/ERC20.sol\":7697:7735  _beforeTokenTransfer(from, to, amount) */\n      jump\t// in\n    tag_311:\n        /* \"@openzeppelin/contracts/token/ERC20/ERC20.sol\":7746:7765  uint256 fromBalance */\n      0x00\n        /* \"@openzeppelin/contracts/token/ERC20/ERC20.sol\":7768:7777  _balances */\n      dup1\n        /* \"@openzeppelin/contracts/token/ERC20/ERC20.sol\":7768:7783  _balances[from] */\n      0x00\n        /* \"@openzeppelin/contracts/token/ERC20/ERC20.sol\":7778:7782  from */\n      dup6\n        /* \"@openzeppelin/contracts/token/ERC20/ERC20.sol\":7768:7783  _balances[from] */\n      0xffffffffffffffffffffffffffffffffffffffff\n      and\n      0xffffffffffffffffffffffffffffffffffffffff\n      and\n      dup2\n      mstore\n      0x20\n      add\n      swap1\n      dup2\n      mstore\n      0x20\n      add\n      0x00\n      keccak256\n      sload\n        /* \"@openzeppelin/contracts/token/ERC20/ERC20.sol\":7746:7783  uint256 fromBalance = _balances[from] */\n      swap1\n      pop\n        /* \"@openzeppelin/contracts/token/ERC20/ERC20.sol\":7816:7822  amount */\n      dup2\n        /* \"@openzeppelin/contracts/token/ERC20/ERC20.sol\":7801:7812  fromBalance */\n      dup2\n        /* \"@openzeppelin/contracts/token/ERC20/ERC20.sol\":7801:7822  fromBalance >= amount */\n      lt\n      iszero\n        /* \"@openzeppelin/contracts/token/ERC20/ERC20.sol\":7793:7865  require(fromBalance >= amount, \"ERC20: transfer amount exceeds balance\") */\n      tag_313\n      jumpi\n      mload(0x40)\n      0x08c379a000000000000000000000000000000000000000000000000000000000\n      dup2\n      mstore\n      0x04\n      add\n      tag_314\n      swap1\n      tag_315\n      jump\t// in\n    tag_314:\n      mload(0x40)\n      dup1\n      swap2\n      sub\n      swap1\n      revert\n    tag_313:\n        /* \"@openzeppelin/contracts/token/ERC20/ERC20.sol\":7931:7937  amount */\n      dup2\n        /* \"@openzeppelin/contracts/token/ERC20/ERC20.sol\":7917:7928  fromBalance */\n      dup2\n        /* \"@openzeppelin/contracts/token/ERC20/ERC20.sol\":7917:7937  fromBalance - amount */\n      sub\n        /* \"@openzeppelin/contracts/token/ERC20/ERC20.sol\":7899:7908  _balances */\n      0x00\n        /* \"@openzeppelin/contracts/token/ERC20/ERC20.sol\":7899:7914  _balances[from] */\n      dup1\n        /* \"@openzeppelin/contracts/token/ERC20/ERC20.sol\":7909:7913  from */\n      dup7\n        /* \"@openzeppelin/contracts/token/ERC20/ERC20.sol\":7899:7914  _balances[from] */\n      0xffffffffffffffffffffffffffffffffffffffff\n      and\n      0xffffffffffffffffffffffffffffffffffffffff\n      and\n      dup2\n      mstore\n      0x20\n      add\n      swap1\n      dup2\n      mstore\n      0x20\n      add\n      0x00\n      keccak256\n        /* \"@openzeppelin/contracts/token/ERC20/ERC20.sol\":7899:7937  _balances[from] = fromBalance - amount */\n      dup2\n      swap1\n      sstore\n      pop\n        /* \"@openzeppelin/contracts/token/ERC20/ERC20.sol\":8131:8137  amount */\n      dup2\n        /* \"@openzeppelin/contracts/token/ERC20/ERC20.sol\":8114:8123  _balances */\n      0x00\n        /* \"@openzeppelin/contracts/token/ERC20/ERC20.sol\":8114:8127  _balances[to] */\n      dup1\n        /* \"@openzeppelin/contracts/token/ERC20/ERC20.sol\":8124:8126  to */\n      dup6\n        /* \"@openzeppelin/contracts/token/ERC20/ERC20.sol\":8114:8127  _balances[to] */\n      0xffffffffffffffffffffffffffffffffffffffff\n      and\n      0xffffffffffffffffffffffffffffffffffffffff\n      and\n      dup2\n      mstore\n      0x20\n      add\n      swap1\n      dup2\n      mstore\n      0x20\n      add\n      0x00\n      keccak256\n      0x00\n        /* \"@openzeppelin/contracts/token/ERC20/ERC20.sol\":8114:8137  _balances[to] += amount */\n      dup3\n      dup3\n      sload\n      add\n      swap3\n      pop\n      pop\n      dup2\n      swap1\n      sstore\n      pop\n        /* \"@openzeppelin/contracts/token/ERC20/ERC20.sol\":8178:8180  to */\n      dup3\n        /* \"@openzeppelin/contracts/token/ERC20/ERC20.sol\":8163:8189  Transfer(from, to, amount) */\n      0xffffffffffffffffffffffffffffffffffffffff\n      and\n        /* \"@openzeppelin/contracts/token/ERC20/ERC20.sol\":8172:8176  from */\n      dup5\n        /* \"@openzeppelin/contracts/token/ERC20/ERC20.sol\":8163:8189  Transfer(from, to, amount) */\n      0xffffffffffffffffffffffffffffffffffffffff\n      and\n      0xddf252ad1be2c89b69c2b068fc378daa952ba7f163c4a11628f55a4df523b3ef\n        /* \"@openzeppelin/contracts/token/ERC20/ERC20.sol\":8182:8188  amount */\n      dup5\n        /* \"@openzeppelin/contracts/token/ERC20/ERC20.sol\":8163:8189  Transfer(from, to, amount) */\n      mload(0x40)\n      tag_316\n      swap2\n      swap1\n      tag_45\n      jump\t// in\n    tag_316:\n      mload(0x40)\n      dup1\n      swap2\n      sub\n      swap1\n      log3\n        /* \"@openzeppelin/contracts/token/ERC20/ERC20.sol\":8200:8237  _afterTokenTransfer(from, to, amount) */\n      tag_317\n        /* \"@openzeppelin/contracts/token/ERC20/ERC20.sol\":8220:8224  from */\n      dup5\n        /* \"@openzeppelin/contracts/token/ERC20/ERC20.sol\":8226:8228  to */\n      dup5\n        /* \"@openzeppelin/contracts/token/ERC20/ERC20.sol\":8230:8236  amount */\n      dup5\n        /* \"@openzeppelin/contracts/token/ERC20/ERC20.sol\":8200:8219  _afterTokenTransfer */\n      tag_318\n        /* \"@openzeppelin/contracts/token/ERC20/ERC20.sol\":8200:8237  _afterTokenTransfer(from, to, amount) */\n      jump\t// in\n    tag_317:\n        /* \"@openzeppelin/contracts/token/ERC20/ERC20.sol\":7534:8244  {... */\n      pop\n        /* \"@openzeppelin/contracts/token/ERC20/ERC20.sol\":7456:8244  function _transfer(address from, address to, uint256 amount) internal virtual {... */\n      pop\n      pop\n      pop\n      jump\t// out\n        /* \"@openzeppelin/contracts/access/Ownable.sol\":1359:1489  function _checkOwner() internal view virtual {... */\n    tag_174:\n        /* \"@openzeppelin/contracts/access/Ownable.sol\":1433:1445  _msgSender() */\n      tag_320\n        /* \"@openzeppelin/contracts/access/Ownable.sol\":1433:1443  _msgSender */\n      tag_150\n        /* \"@openzeppelin/contracts/access/Ownable.sol\":1433:1445  _msgSender() */\n      jump\t// in\n    tag_320:\n        /* \"@openzeppelin/contracts/access/Ownable.sol\":1422:1445  owner() == _msgSender() */\n      0xffffffffffffffffffffffffffffffffffffffff\n      and\n        /* \"@openzeppelin/contracts/access/Ownable.sol\":1422:1429  owner() */\n      tag_321\n        /* \"@openzeppelin/contracts/access/Ownable.sol\":1422:1427  owner */\n      tag_100\n        /* \"@openzeppelin/contracts/access/Ownable.sol\":1422:1429  owner() */\n      jump\t// in\n    tag_321:\n        /* \"@openzeppelin/contracts/access/Ownable.sol\":1422:1445  owner() == _msgSender() */\n      0xffffffffffffffffffffffffffffffffffffffff\n      and\n      eq\n        /* \"@openzeppelin/contracts/access/Ownable.sol\":1414:1482  require(owner() == _msgSender(), \"Ownable: caller is not the owner\") */\n      tag_322\n      jumpi\n      mload(0x40)\n      0x08c379a000000000000000000000000000000000000000000000000000000000\n      dup2\n      mstore\n      0x04\n      add\n      tag_323\n      swap1\n      tag_324\n      jump\t// in\n    tag_323:\n      mload(0x40)\n      dup1\n      swap2\n      sub\n      swap1\n      revert\n    tag_322:\n        /* \"@openzeppelin/contracts/access/Ownable.sol\":1359:1489  function _checkOwner() internal view virtual {... */\n      jump\t// out\n        /* \"@openzeppelin/contracts/token/ERC20/ERC20.sol\":8520:9055  function _mint(address account, uint256 amount) internal virtual {... */\n    tag_177:\n        /* \"@openzeppelin/contracts/token/ERC20/ERC20.sol\":8622:8623  0 */\n      0x00\n        /* \"@openzeppelin/contracts/token/ERC20/ERC20.sol\":8603:8624  account != address(0) */\n      0xffffffffffffffffffffffffffffffffffffffff\n      and\n        /* \"@openzeppelin/contracts/token/ERC20/ERC20.sol\":8603:8610  account */\n      dup3\n        /* \"@openzeppelin/contracts/token/ERC20/ERC20.sol\":8603:8624  account != address(0) */\n      0xffffffffffffffffffffffffffffffffffffffff\n      and\n      sub\n        /* \"@openzeppelin/contracts/token/ERC20/ERC20.sol\":8595:8660  require(account != address(0), \"ERC20: mint to the zero address\") */\n      tag_326\n      jumpi\n      mload(0x40)\n      0x08c379a000000000000000000000000000000000000000000000000000000000\n      dup2\n      mstore\n      0x04\n      add\n      tag_327\n      swap1\n      tag_328\n      jump\t// in\n    tag_327:\n      mload(0x40)\n      dup1\n      swap2\n      sub\n      swap1\n      revert\n    tag_326:\n        /* \"@openzeppelin/contracts/token/ERC20/ERC20.sol\":8671:8720  _beforeTokenTransfer(address(0), account, amount) */\n      tag_329\n        /* \"@openzeppelin/contracts/token/ERC20/ERC20.sol\":8700:8701  0 */\n      0x00\n        /* \"@openzeppelin/contracts/token/ERC20/ERC20.sol\":8704:8711  account */\n      dup4\n        /* \"@openzeppelin/contracts/token/ERC20/ERC20.sol\":8713:8719  amount */\n      dup4\n        /* \"@openzeppelin/contracts/token/ERC20/ERC20.sol\":8671:8691  _beforeTokenTransfer */\n      tag_312\n        /* \"@openzeppelin/contracts/token/ERC20/ERC20.sol\":8671:8720  _beforeTokenTransfer(address(0), account, amount) */\n      jump\t// in\n    tag_329:\n        /* \"@openzeppelin/contracts/token/ERC20/ERC20.sol\":8747:8753  amount */\n      dup1\n        /* \"@openzeppelin/contracts/token/ERC20/ERC20.sol\":8731:8743  _totalSupply */\n      0x02\n      0x00\n        /* \"@openzeppelin/contracts/token/ERC20/ERC20.sol\":8731:8753  _totalSupply += amount */\n      dup3\n      dup3\n      sload\n      tag_330\n      swap2\n      swap1\n      tag_166\n      jump\t// in\n    tag_330:\n      swap3\n      pop\n      pop\n      dup2\n      swap1\n      sstore\n      pop\n        /* \"@openzeppelin/contracts/token/ERC20/ERC20.sol\":8921:8927  amount */\n      dup1\n        /* \"@openzeppelin/contracts/token/ERC20/ERC20.sol\":8899:8908  _balances */\n      0x00\n        /* \"@openzeppelin/contracts/token/ERC20/ERC20.sol\":8899:8917  _balances[account] */\n      dup1\n        /* \"@openzeppelin/contracts/token/ERC20/ERC20.sol\":8909:8916  account */\n      dup5\n        /* \"@openzeppelin/contracts/token/ERC20/ERC20.sol\":8899:8917  _balances[account] */\n      0xffffffffffffffffffffffffffffffffffffffff\n      and\n      0xffffffffffffffffffffffffffffffffffffffff\n      and\n      dup2\n      mstore\n      0x20\n      add\n      swap1\n      dup2\n      mstore\n      0x20\n      add\n      0x00\n      keccak256\n      0x00\n        /* \"@openzeppelin/contracts/token/ERC20/ERC20.sol\":8899:8927  _balances[account] += amount */\n      dup3\n      dup3\n      sload\n      add\n      swap3\n      pop\n      pop\n      dup2\n      swap1\n      sstore\n      pop\n        /* \"@openzeppelin/contracts/token/ERC20/ERC20.sol\":8973:8980  account */\n      dup2\n        /* \"@openzeppelin/contracts/token/ERC20/ERC20.sol\":8952:8989  Transfer(address(0), account, amount) */\n      0xffffffffffffffffffffffffffffffffffffffff\n      and\n        /* \"@openzeppelin/contracts/token/ERC20/ERC20.sol\":8969:8970  0 */\n      0x00\n        /* \"@openzeppelin/contracts/token/ERC20/ERC20.sol\":8952:8989  Transfer(address(0), account, amount) */\n      0xffffffffffffffffffffffffffffffffffffffff\n      and\n      0xddf252ad1be2c89b69c2b068fc378daa952ba7f163c4a11628f55a4df523b3ef\n        /* \"@openzeppelin/contracts/token/ERC20/ERC20.sol\":8982:8988  amount */\n      dup4\n        /* \"@openzeppelin/contracts/token/ERC20/ERC20.sol\":8952:8989  Transfer(address(0), account, amount) */\n      mload(0x40)\n      tag_331\n      swap2\n      swap1\n      tag_45\n      jump\t// in\n    tag_331:\n      mload(0x40)\n      dup1\n      swap2\n      sub\n      swap1\n      log3\n        /* \"@openzeppelin/contracts/token/ERC20/ERC20.sol\":9000:9048  _afterTokenTransfer(address(0), account, amount) */\n      tag_332\n        /* \"@openzeppelin/contracts/token/ERC20/ERC20.sol\":9028:9029  0 */\n      0x00\n        /* \"@openzeppelin/contracts/token/ERC20/ERC20.sol\":9032:9039  account */\n      dup4\n        /* \"@openzeppelin/contracts/token/ERC20/ERC20.sol\":9041:9047  amount */\n      dup4\n        /* \"@openzeppelin/contracts/token/ERC20/ERC20.sol\":9000:9019  _afterTokenTransfer */\n      tag_318\n        /* \"@openzeppelin/contracts/token/ERC20/ERC20.sol\":9000:9048  _afterTokenTransfer(address(0), account, amount) */\n      jump\t// in\n    tag_332:\n        /* \"@openzeppelin/contracts/token/ERC20/ERC20.sol\":8520:9055  function _mint(address account, uint256 amount) internal virtual {... */\n      pop\n      pop\n      jump\t// out\n        /* \"@openzeppelin/contracts/token/ERC20/ERC20.sol\":9375:10034  function _burn(address account, uint256 amount) internal virtual {... */\n    tag_191:\n        /* \"@openzeppelin/contracts/token/ERC20/ERC20.sol\":9477:9478  0 */\n      0x00\n        /* \"@openzeppelin/contracts/token/ERC20/ERC20.sol\":9458:9479  account != address(0) */\n      0xffffffffffffffffffffffffffffffffffffffff\n      and\n        /* \"@openzeppelin/contracts/token/ERC20/ERC20.sol\":9458:9465  account */\n      dup3\n        /* \"@openzeppelin/contracts/token/ERC20/ERC20.sol\":9458:9479  account != address(0) */\n      0xffffffffffffffffffffffffffffffffffffffff\n      and\n      sub\n        /* \"@openzeppelin/contracts/token/ERC20/ERC20.sol\":9450:9517  require(account != address(0), \"ERC20: burn from the zero address\") */\n      tag_334\n      jumpi\n      mload(0x40)\n      0x08c379a000000000000000000000000000000000000000000000000000000000\n      dup2\n      mstore\n      0x04\n      add\n      tag_335\n      swap1\n      tag_336\n      jump\t// in\n    tag_335:\n      mload(0x40)\n      dup1\n      swap2\n      sub\n      swap1\n      revert\n    tag_334:\n        /* \"@openzeppelin/contracts/token/ERC20/ERC20.sol\":9528:9577  _beforeTokenTransfer(account, address(0), amount) */\n      tag_337\n        /* \"@openzeppelin/contracts/token/ERC20/ERC20.sol\":9549:9556  account */\n      dup3\n        /* \"@openzeppelin/contracts/token/ERC20/ERC20.sol\":9566:9567  0 */\n      0x00\n        /* \"@openzeppelin/contracts/token/ERC20/ERC20.sol\":9570:9576  amount */\n      dup4\n        /* \"@openzeppelin/contracts/token/ERC20/ERC20.sol\":9528:9548  _beforeTokenTransfer */\n      tag_312\n        /* \"@openzeppelin/contracts/token/ERC20/ERC20.sol\":9528:9577  _beforeTokenTransfer(account, address(0), amount) */\n      jump\t// in\n    tag_337:\n        /* \"@openzeppelin/contracts/token/ERC20/ERC20.sol\":9588:9610  uint256 accountBalance */\n      0x00\n        /* \"@openzeppelin/contracts/token/ERC20/ERC20.sol\":9613:9622  _balances */\n      dup1\n        /* \"@openzeppelin/contracts/token/ERC20/ERC20.sol\":9613:9631  _balances[account] */\n      0x00\n        /* \"@openzeppelin/contracts/token/ERC20/ERC20.sol\":9623:9630  account */\n      dup5\n        /* \"@openzeppelin/contracts/token/ERC20/ERC20.sol\":9613:9631  _balances[account] */\n      0xffffffffffffffffffffffffffffffffffffffff\n      and\n      0xffffffffffffffffffffffffffffffffffffffff\n      and\n      dup2\n      mstore\n      0x20\n      add\n      swap1\n      dup2\n      mstore\n      0x20\n      add\n      0x00\n      keccak256\n      sload\n        /* \"@openzeppelin/contracts/token/ERC20/ERC20.sol\":9588:9631  uint256 accountBalance = _balances[account] */\n      swap1\n      pop\n        /* \"@openzeppelin/contracts/token/ERC20/ERC20.sol\":9667:9673  amount */\n      dup2\n        /* \"@openzeppelin/contracts/token/ERC20/ERC20.sol\":9649:9663  accountBalance */\n      dup2\n        /* \"@openzeppelin/contracts/token/ERC20/ERC20.sol\":9649:9673  accountBalance >= amount */\n      lt\n      iszero\n        /* \"@openzeppelin/contracts/token/ERC20/ERC20.sol\":9641:9712  require(accountBalance >= amount, \"ERC20: burn amount exceeds balance\") */\n      tag_338\n      jumpi\n      mload(0x40)\n      0x08c379a000000000000000000000000000000000000000000000000000000000\n      dup2\n      mstore\n      0x04\n      add\n      tag_339\n      swap1\n      tag_340\n      jump\t// in\n    tag_339:\n      mload(0x40)\n      dup1\n      swap2\n      sub\n      swap1\n      revert\n    tag_338:\n        /* \"@openzeppelin/contracts/token/ERC20/ERC20.sol\":9784:9790  amount */\n      dup2\n        /* \"@openzeppelin/contracts/token/ERC20/ERC20.sol\":9767:9781  accountBalance */\n      dup2\n        /* \"@openzeppelin/contracts/token/ERC20/ERC20.sol\":9767:9790  accountBalance - amount */\n      sub\n        /* \"@openzeppelin/contracts/token/ERC20/ERC20.sol\":9746:9755  _balances */\n      0x00\n        /* \"@openzeppelin/contracts/token/ERC20/ERC20.sol\":9746:9764  _balances[account] */\n      dup1\n        /* \"@openzeppelin/contracts/token/ERC20/ERC20.sol\":9756:9763  account */\n      dup6\n        /* \"@openzeppelin/contracts/token/ERC20/ERC20.sol\":9746:9764  _balances[account] */\n      0xffffffffffffffffffffffffffffffffffffffff\n      and\n      0xffffffffffffffffffffffffffffffffffffffff\n      and\n      dup2\n      mstore\n      0x20\n      add\n      swap1\n      dup2\n      mstore\n      0x20\n      add\n      0x00\n      keccak256\n        /* \"@openzeppelin/contracts/token/ERC20/ERC20.sol\":9746:9790  _balances[account] = accountBalance - amount */\n      dup2\n      swap1\n      sstore\n      pop\n        /* \"@openzeppelin/contracts/token/ERC20/ERC20.sol\":9899:9905  amount */\n      dup2\n        /* \"@openzeppelin/contracts/token/ERC20/ERC20.sol\":9883:9895  _totalSupply */\n      0x02\n      0x00\n        /* \"@openzeppelin/contracts/token/ERC20/ERC20.sol\":9883:9905  _totalSupply -= amount */\n      dup3\n      dup3\n      sload\n      sub\n      swap3\n      pop\n      pop\n      dup2\n      swap1\n      sstore\n      pop\n        /* \"@openzeppelin/contracts/token/ERC20/ERC20.sol\":9957:9958  0 */\n      0x00\n        /* \"@openzeppelin/contracts/token/ERC20/ERC20.sol\":9931:9968  Transfer(account, address(0), amount) */\n      0xffffffffffffffffffffffffffffffffffffffff\n      and\n        /* \"@openzeppelin/contracts/token/ERC20/ERC20.sol\":9940:9947  account */\n      dup4\n        /* \"@openzeppelin/contracts/token/ERC20/ERC20.sol\":9931:9968  Transfer(account, address(0), amount) */\n      0xffffffffffffffffffffffffffffffffffffffff\n      and\n      0xddf252ad1be2c89b69c2b068fc378daa952ba7f163c4a11628f55a4df523b3ef\n        /* \"@openzeppelin/contracts/token/ERC20/ERC20.sol\":9961:9967  amount */\n      dup5\n        /* \"@openzeppelin/contracts/token/ERC20/ERC20.sol\":9931:9968  Transfer(account, address(0), amount) */\n      mload(0x40)\n      tag_341\n      swap2\n      swap1\n      tag_45\n      jump\t// in\n    tag_341:\n      mload(0x40)\n      dup1\n      swap2\n      sub\n      swap1\n      log3\n        /* \"@openzeppelin/contracts/token/ERC20/ERC20.sol\":9979:10027  _afterTokenTransfer(account, address(0), amount) */\n      tag_342\n        /* \"@openzeppelin/contracts/token/ERC20/ERC20.sol\":9999:10006  account */\n      dup4\n        /* \"@openzeppelin/contracts/token/ERC20/ERC20.sol\":10016:10017  0 */\n      0x00\n        /* \"@openzeppelin/contracts/token/ERC20/ERC20.sol\":10020:10026  amount */\n      dup5\n        /* \"@openzeppelin/contracts/token/ERC20/ERC20.sol\":9979:9998  _afterTokenTransfer */\n      tag_318\n        /* \"@openzeppelin/contracts/token/ERC20/ERC20.sol\":9979:10027  _afterTokenTransfer(account, address(0), amount) */\n      jump\t// in\n    tag_342:\n        /* \"@openzeppelin/contracts/token/ERC20/ERC20.sol\":9440:10034  {... */\n      pop\n        /* \"@openzeppelin/contracts/token/ERC20/ERC20.sol\":9375:10034  function _burn(address account, uint256 amount) internal virtual {... */\n      pop\n      pop\n      jump\t// out\n        /* \"@openzeppelin/contracts/access/Ownable.sol\":2426:2613  function _transferOwnership(address newOwner) internal virtual {... */\n    tag_197:\n        /* \"@openzeppelin/contracts/access/Ownable.sol\":2499:2515  address oldOwner */\n      0x00\n        /* \"@openzeppelin/contracts/access/Ownable.sol\":2518:2524  _owner */\n      0x05\n      0x00\n      swap1\n      sload\n      swap1\n      0x0100\n      exp\n      swap1\n      div\n      0xffffffffffffffffffffffffffffffffffffffff\n      and\n        /* \"@openzeppelin/contracts/access/Ownable.sol\":2499:2524  address oldOwner = _owner */\n      swap1\n      pop\n        /* \"@openzeppelin/contracts/access/Ownable.sol\":2543:2551  newOwner */\n      dup2\n        /* \"@openzeppelin/contracts/access/Ownable.sol\":2534:2540  _owner */\n      0x05\n      0x00\n        /* \"@openzeppelin/contracts/access/Ownable.sol\":2534:2551  _owner = newOwner */\n      0x0100\n      exp\n      dup2\n      sload\n      dup2\n      0xffffffffffffffffffffffffffffffffffffffff\n      mul\n      not\n      and\n      swap1\n      dup4\n      0xffffffffffffffffffffffffffffffffffffffff\n      and\n      mul\n      or\n      swap1\n      sstore\n      pop\n        /* \"@openzeppelin/contracts/access/Ownable.sol\":2597:2605  newOwner */\n      dup2\n        /* \"@openzeppelin/contracts/access/Ownable.sol\":2566:2606  OwnershipTransferred(oldOwner, newOwner) */\n      0xffffffffffffffffffffffffffffffffffffffff\n      and\n        /* \"@openzeppelin/contracts/access/Ownable.sol\":2587:2595  oldOwner */\n      dup2\n        /* \"@openzeppelin/contracts/access/Ownable.sol\":2566:2606  OwnershipTransferred(oldOwner, newOwner) */\n      0xffffffffffffffffffffffffffffffffffffffff\n      and\n      0x8be0079c531659141344cd1fd0a4f28419497f9722a3daafe3b4186f6b6457e0\n      mload(0x40)\n      mload(0x40)\n      dup1\n      swap2\n      sub\n      swap1\n      log3\n        /* \"@openzeppelin/contracts/access/Ownable.sol\":2489:2613  {... */\n      pop\n        /* \"@openzeppelin/contracts/access/Ownable.sol\":2426:2613  function _transferOwnership(address newOwner) internal virtual {... */\n      pop\n      jump\t// out\n        /* \"@openzeppelin/contracts/token/ERC20/ERC20.sol\":12073:12164  function _beforeTokenTransfer(address from, address to, uint256 amount) internal virtual {} */\n    tag_312:\n      pop\n      pop\n      pop\n      jump\t// out\n        /* \"@openzeppelin/contracts/token/ERC20/ERC20.sol\":12752:12842  function _afterTokenTransfer(address from, address to, uint256 amount) internal virtual {} */\n    tag_318:\n      pop\n      pop\n      pop\n      jump\t// out\n        /* \"#utility.yul\":7:106   */\n    tag_346:\n        /* \"#utility.yul\":59:65   */\n      0x00\n        /* \"#utility.yul\":93:98   */\n      dup2\n        /* \"#utility.yul\":87:99   */\n      mload\n        /* \"#utility.yul\":77:99   */\n      swap1\n      pop\n        /* \"#utility.yul\":7:106   */\n      swap2\n      swap1\n      pop\n      jump\t// out\n        /* \"#utility.yul\":112:281   */\n    tag_347:\n        /* \"#utility.yul\":196:207   */\n      0x00\n        /* \"#utility.yul\":230:236   */\n      dup3\n        /* \"#utility.yul\":225:228   */\n      dup3\n        /* \"#utility.yul\":218:237   */\n      mstore\n        /* \"#utility.yul\":270:274   */\n      0x20\n        /* \"#utility.yul\":265:268   */\n      dup3\n        /* \"#utility.yul\":261:275   */\n      add\n        /* \"#utility.yul\":246:275   */\n      swap1\n      pop\n        /* \"#utility.yul\":112:281   */\n      swap3\n      swap2\n      pop\n      pop\n      jump\t// out\n        /* \"#utility.yul\":287:426   */\n    tag_348:\n        /* \"#utility.yul\":376:382   */\n      dup3\n        /* \"#utility.yul\":371:374   */\n      dup2\n        /* \"#utility.yul\":366:369   */\n      dup4\n        /* \"#utility.yul\":360:383   */\n      mcopy\n        /* \"#utility.yul\":417:418   */\n      0x00\n        /* \"#utility.yul\":408:414   */\n      dup4\n        /* \"#utility.yul\":403:406   */\n      dup4\n        /* \"#utility.yul\":399:415   */\n      add\n        /* \"#utility.yul\":392:419   */\n      mstore\n        /* \"#utility.yul\":287:426   */\n      pop\n      pop\n      pop\n      jump\t// out\n        /* \"#utility.yul\":432:534   */\n    tag_349:\n        /* \"#utility.yul\":473:479   */\n      0x00\n        /* \"#utility.yul\":524:526   */\n      0x1f\n        /* \"#utility.yul\":520:527   */\n      not\n        /* \"#utility.yul\":515:517   */\n      0x1f\n        /* \"#utility.yul\":508:513   */\n      dup4\n        /* \"#utility.yul\":504:518   */\n      add\n        /* \"#utility.yul\":500:528   */\n      and\n        /* \"#utility.yul\":490:528   */\n      swap1\n      pop\n        /* \"#utility.yul\":432:534   */\n      swap2\n      swap1\n      pop\n      jump\t// out\n        /* \"#utility.yul\":540:917   */\n    tag_350:\n        /* \"#utility.yul\":628:631   */\n      0x00\n        /* \"#utility.yul\":656:695   */\n      tag_430\n        /* \"#utility.yul\":689:694   */\n      dup3\n        /* \"#utility.yul\":656:695   */\n      tag_346\n      jump\t// in\n    tag_430:\n        /* \"#utility.yul\":711:782   */\n      tag_431\n        /* \"#utility.yul\":775:781   */\n      dup2\n        /* \"#utility.yul\":770:773   */\n      dup6\n        /* \"#utility.yul\":711:782   */\n      tag_347\n      jump\t// in\n    tag_431:\n        /* \"#utility.yul\":704:782   */\n      swap4\n      pop\n        /* \"#utility.yul\":791:856   */\n      tag_432\n        /* \"#utility.yul\":849:855   */\n      dup2\n        /* \"#utility.yul\":844:847   */\n      dup6\n        /* \"#utility.yul\":837:841   */\n      0x20\n        /* \"#utility.yul\":830:835   */\n      dup7\n        /* \"#utility.yul\":826:842   */\n      add\n        /* \"#utility.yul\":791:856   */\n      tag_348\n      jump\t// in\n    tag_432:\n        /* \"#utility.yul\":881:910   */\n      tag_433\n        /* \"#utility.yul\":903:909   */\n      dup2\n        /* \"#utility.yul\":881:910   */\n      tag_349\n      jump\t// in\n    tag_433:\n        /* \"#utility.yul\":876:879   */\n      dup5\n        /* \"#utility.yul\":872:911   */\n      add\n        /* \"#utility.yul\":865:911   */\n      swap2\n      pop\n        /* \"#utility.yul\":632:917   */\n      pop\n        /* \"#utility.yul\":540:917   */\n      swap3\n      swap2\n      pop\n      pop\n      jump\t// out\n        /* \"#utility.yul\":923:1236   */\n    tag_32:\n        /* \"#utility.yul\":1036:1040   */\n      0x00\n        /* \"#utility.yul\":1074:1076   */\n      0x20\n        /* \"#utility.yul\":1063:1072   */\n      dup3\n        /* \"#utility.yul\":1059:1077   */\n      add\n        /* \"#utility.yul\":1051:1077   */\n      swap1\n      pop\n        /* \"#utility.yul\":1123:1132   */\n      dup2\n        /* \"#utility.yul\":1117:1121   */\n      dup2\n        /* \"#utility.yul\":1113:1133   */\n      sub\n        /* \"#utility.yul\":1109:1110   */\n      0x00\n        /* \"#utility.yul\":1098:1107   */\n      dup4\n        /* \"#utility.yul\":1094:1111   */\n      add\n        /* \"#utility.yul\":1087:1134   */\n      mstore\n        /* \"#utility.yul\":1151:1229   */\n      tag_435\n        /* \"#utility.yul\":1224:1228   */\n      dup2\n        /* \"#utility.yul\":1215:1221   */\n      dup5\n        /* \"#utility.yul\":1151:1229   */\n      tag_350\n      jump\t// in\n    tag_435:\n        /* \"#utility.yul\":1143:1229   */\n      swap1\n      pop\n        /* \"#utility.yul\":923:1236   */\n      swap3\n      swap2\n      pop\n      pop\n      jump\t// out\n        /* \"#utility.yul\":1323:1440   */\n    tag_352:\n        /* \"#utility.yul\":1432:1433   */\n      0x00\n        /* \"#utility.yul\":1429:1430   */\n      dup1\n        /* \"#utility.yul\":1422:1434   */\n      revert\n        /* \"#utility.yul\":1569:1695   */\n    tag_354:\n        /* \"#utility.yul\":1606:1613   */\n      0x00\n        /* \"#utility.yul\":1646:1688   */\n      0xffffffffffffffffffffffffffffffffffffffff\n        /* \"#utility.yul\":1639:1644   */\n      dup3\n        /* \"#utility.yul\":1635:1689   */\n      and\n        /* \"#utility.yul\":1624:1689   */\n      swap1\n      pop\n        /* \"#utility.yul\":1569:1695   */\n      swap2\n      swap1\n      pop\n      jump\t// out\n        /* \"#utility.yul\":1701:1797   */\n    tag_355:\n        /* \"#utility.yul\":1738:1745   */\n      0x00\n        /* \"#utility.yul\":1767:1791   */\n      tag_441\n        /* \"#utility.yul\":1785:1790   */\n      dup3\n        /* \"#utility.yul\":1767:1791   */\n      tag_354\n      jump\t// in\n    tag_441:\n        /* \"#utility.yul\":1756:1791   */\n      swap1\n      pop\n        /* \"#utility.yul\":1701:1797   */\n      swap2\n      swap1\n      pop\n      jump\t// out\n        /* \"#utility.yul\":1803:1925   */\n    tag_356:\n        /* \"#utility.yul\":1876:1900   */\n      tag_443\n        /* \"#utility.yul\":1894:1899   */\n      dup2\n        /* \"#utility.yul\":1876:1900   */\n      tag_355\n      jump\t// in\n    tag_443:\n        /* \"#utility.yul\":1869:1874   */\n      dup2\n        /* \"#utility.yul\":1866:1901   */\n      eq\n        /* \"#utility.yul\":1856:1919   */\n      tag_444\n      jumpi\n        /* \"#utility.yul\":1915:1916   */\n      0x00\n        /* \"#utility.yul\":1912:1913   */\n      dup1\n        /* \"#utility.yul\":1905:1917   */\n      revert\n        /* \"#utility.yul\":1856:1919   */\n    tag_444:\n        /* \"#utility.yul\":1803:1925   */\n      pop\n      jump\t// out\n        /* \"#utility.yul\":1931:2070   */\n    tag_357:\n        /* \"#utility.yul\":1977:1982   */\n      0x00\n        /* \"#utility.yul\":2015:2021   */\n      dup2\n        /* \"#utility.yul\":2002:2022   */\n      calldataload\n        /* \"#utility.yul\":1993:2022   */\n      swap1\n      pop\n        /* \"#utility.yul\":2031:2064   */\n      tag_446\n        /* \"#utility.yul\":2058:2063   */\n      dup2\n        /* \"#utility.yul\":2031:2064   */\n      tag_356\n      jump\t// in\n    tag_446:\n        /* \"#utility.yul\":1931:2070   */\n      swap3\n      swap2\n      pop\n      pop\n      jump\t// out\n        /* \"#utility.yul\":2076:2153   */\n    tag_358:\n        /* \"#utility.yul\":2113:2120   */\n      0x00\n        /* \"#utility.yul\":2142:2147   */\n      dup2\n        /* \"#utility.yul\":2131:2147   */\n      swap1\n      pop\n        /* \"#utility.yul\":2076:2153   */\n      swap2\n      swap1\n      pop\n      jump\t// out\n        /* \"#utility.yul\":2159:2281   */\n    tag_359:\n        /* \"#utility.yul\":2232:2256   */\n      tag_449\n        /* \"#utility.yul\":2250:2255   */\n      dup2\n        /* \"#utility.yul\":2232:2256   */\n      tag_358\n      jump\t// in\n    tag_449:\n        /* \"#utility.yul\":2225:2230   */\n      dup2\n        /* \"#utility.yul\":2222:2257   */\n      eq\n        /* \"#utility.yul\":2212:2275   */\n      tag_450\n      jumpi\n        /* \"#utility.yul\":2271:2272   */\n      0x00\n        /* \"#utility.yul\":2268:2269   */\n      dup1\n        /* \"#utility.yul\":2261:2273   */\n      revert\n        /* \"#utility.yul\":2212:2275   */\n    tag_450:\n        /* \"#utility.yul\":2159:2281   */\n      pop\n      jump\t// out\n        /* \"#utility.yul\":2287:2426   */\n    tag_360:\n        /* \"#utility.yul\":2333:2338   */\n      0x00\n        /* \"#utility.yul\":2371:2377   */\n      dup2\n        /* \"#utility.yul\":2358:2378   */\n      calldataload\n        /* \"#utility.yul\":2349:2378   */\n      swap1\n      pop\n        /* \"#utility.yul\":2387:2420   */\n      tag_452\n        /* \"#utility.yul\":2414:2419   */\n      dup2\n        /* \"#utility.yul\":2387:2420   */\n      tag_359\n      jump\t// in\n    tag_452:\n        /* \"#utility.yul\":2287:2426   */\n      swap3\n      swap2\n      pop\n      pop\n      jump\t// out\n        /* \"#utility.yul\":2432:2906   */\n    tag_36:\n        /* \"#utility.yul\":2500:2506   */\n      0x00\n        /* \"#utility.yul\":2508:2514   */\n      dup1\n        /* \"#utility.yul\":2557:2559   */\n      0x40\n        /* \"#utility.yul\":2545:2554   */\n      dup4\n        /* \"#utility.yul\":2536:2543   */\n      dup6\n        /* \"#utility.yul\":2532:2555   */\n      sub\n        /* \"#utility.yul\":2528:2560   */\n      slt\n        /* \"#utility.yul\":2525:2644   */\n      iszero\n      tag_454\n      jumpi\n        /* \"#utility.yul\":2563:2642   */\n      tag_455\n      tag_352\n      jump\t// in\n    tag_455:\n        /* \"#utility.yul\":2525:2644   */\n    tag_454:\n        /* \"#utility.yul\":2683:2684   */\n      0x00\n        /* \"#utility.yul\":2708:2761   */\n      tag_456\n        /* \"#utility.yul\":2753:2760   */\n      dup6\n        /* \"#utility.yul\":2744:2750   */\n      dup3\n        /* \"#utility.yul\":2733:2742   */\n      dup7\n        /* \"#utility.yul\":2729:2751   */\n      add\n        /* \"#utility.yul\":2708:2761   */\n      tag_357\n      jump\t// in\n    tag_456:\n        /* \"#utility.yul\":2698:2761   */\n      swap3\n      pop\n        /* \"#utility.yul\":2654:2771   */\n      pop\n        /* \"#utility.yul\":2810:2812   */\n      0x20\n        /* \"#utility.yul\":2836:2889   */\n      tag_457\n        /* \"#utility.yul\":2881:2888   */\n      dup6\n        /* \"#utility.yul\":2872:2878   */\n      dup3\n        /* \"#utility.yul\":2861:2870   */\n      dup7\n        /* \"#utility.yul\":2857:2879   */\n      add\n        /* \"#utility.yul\":2836:2889   */\n      tag_360\n      jump\t// in\n    tag_457:\n        /* \"#utility.yul\":2826:2889   */\n      swap2\n      pop\n        /* \"#utility.yul\":2781:2899   */\n      pop\n        /* \"#utility.yul\":2432:2906   */\n      swap3\n      pop\n      swap3\n      swap1\n      pop\n      jump\t// out\n        /* \"#utility.yul\":2912:3002   */\n    tag_361:\n        /* \"#utility.yul\":2946:2953   */\n      0x00\n        /* \"#utility.yul\":2989:2994   */\n      dup2\n        /* \"#utility.yul\":2982:2995   */\n      iszero\n        /* \"#utility.yul\":2975:2996   */\n      iszero\n        /* \"#utility.yul\":2964:2996   */\n      swap1\n      pop\n        /* \"#utility.yul\":2912:3002   */\n      swap2\n      swap1\n      pop\n      jump\t// out\n        /* \"#utility.yul\":3008:3117   */\n    tag_362:\n        /* \"#utility.yul\":3089:3110   */\n      tag_460\n        /* \"#utility.yul\":3104:3109   */\n      dup2\n        /* \"#utility.yul\":3089:3110   */\n      tag_361\n      jump\t// in\n    tag_460:\n        /* \"#utility.yul\":3084:3087   */\n      dup3\n        /* \"#utility.yul\":3077:3111   */\n      mstore\n        /* \"#utility.yul\":3008:3117   */\n      pop\n      pop\n      jump\t// out\n        /* \"#utility.yul\":3123:3333   */\n    tag_39:\n        /* \"#utility.yul\":3210:3214   */\n      0x00\n        /* \"#utility.yul\":3248:3250   */\n      0x20\n        /* \"#utility.yul\":3237:3246   */\n      dup3\n        /* \"#utility.yul\":3233:3251   */\n      add\n        /* \"#utility.yul\":3225:3251   */\n      swap1\n      pop\n        /* \"#utility.yul\":3261:3326   */\n      tag_462\n        /* \"#utility.yul\":3323:3324   */\n      0x00\n        /* \"#utility.yul\":3312:3321   */\n      dup4\n        /* \"#utility.yul\":3308:3325   */\n      add\n        /* \"#utility.yul\":3299:3305   */\n      dup5\n        /* \"#utility.yul\":3261:3326   */\n      tag_362\n      jump\t// in\n    tag_462:\n        /* \"#utility.yul\":3123:3333   */\n      swap3\n      swap2\n      pop\n      pop\n      jump\t// out\n        /* \"#utility.yul\":3339:3457   */\n    tag_363:\n        /* \"#utility.yul\":3426:3450   */\n      tag_464\n        /* \"#utility.yul\":3444:3449   */\n      dup2\n        /* \"#utility.yul\":3426:3450   */\n      tag_358\n      jump\t// in\n    tag_464:\n        /* \"#utility.yul\":3421:3424   */\n      dup3\n        /* \"#utility.yul\":3414:3451   */\n      mstore\n        /* \"#utility.yul\":3339:3457   */\n      pop\n      pop\n      jump\t// out\n        /* \"#utility.yul\":3463:3685   */\n    tag_45:\n        /* \"#utility.yul\":3556:3560   */\n      0x00\n        /* \"#utility.yul\":3594:3596   */\n      0x20\n        /* \"#utility.yul\":3583:3592   */\n      dup3\n        /* \"#utility.yul\":3579:3597   */\n      add\n        /* \"#utility.yul\":3571:3597   */\n      swap1\n      pop\n        /* \"#utility.yul\":3607:3678   */\n      tag_466\n        /* \"#utility.yul\":3675:3676   */\n      0x00\n        /* \"#utility.yul\":3664:3673   */\n      dup4\n        /* \"#utility.yul\":3660:3677   */\n      add\n        /* \"#utility.yul\":3651:3657   */\n      dup5\n        /* \"#utility.yul\":3607:3678   */\n      tag_363\n      jump\t// in\n    tag_466:\n        /* \"#utility.yul\":3463:3685   */\n      swap3\n      swap2\n      pop\n      pop\n      jump\t// out\n        /* \"#utility.yul\":3691:4310   */\n    tag_53:\n        /* \"#utility.yul\":3768:3774   */\n      0x00\n        /* \"#utility.yul\":3776:3782   */\n      dup1\n        /* \"#utility.yul\":3784:3790   */\n      0x00\n        /* \"#utility.yul\":3833:3835   */\n      0x60\n        /* \"#utility.yul\":3821:3830   */\n      dup5\n        /* \"#utility.yul\":3812:3819   */\n      dup7\n        /* \"#utility.yul\":3808:3831   */\n      sub\n        /* \"#utility.yul\":3804:3836   */\n      slt\n        /* \"#utility.yul\":3801:3920   */\n      iszero\n      tag_468\n      jumpi\n        /* \"#utility.yul\":3839:3918   */\n      tag_469\n      tag_352\n      jump\t// in\n    tag_469:\n        /* \"#utility.yul\":3801:3920   */\n    tag_468:\n        /* \"#utility.yul\":3959:3960   */\n      0x00\n        /* \"#utility.yul\":3984:4037   */\n      tag_470\n        /* \"#utility.yul\":4029:4036   */\n      dup7\n        /* \"#utility.yul\":4020:4026   */\n      dup3\n        /* \"#utility.yul\":4009:4018   */\n      dup8\n        /* \"#utility.yul\":4005:4027   */\n      add\n        /* \"#utility.yul\":3984:4037   */\n      tag_357\n      jump\t// in\n    tag_470:\n        /* \"#utility.yul\":3974:4037   */\n      swap4\n      pop\n        /* \"#utility.yul\":3930:4047   */\n      pop\n        /* \"#utility.yul\":4086:4088   */\n      0x20\n        /* \"#utility.yul\":4112:4165   */\n      tag_471\n        /* \"#utility.yul\":4157:4164   */\n      dup7\n        /* \"#utility.yul\":4148:4154   */\n      dup3\n        /* \"#utility.yul\":4137:4146   */\n      dup8\n        /* \"#utility.yul\":4133:4155   */\n      add\n        /* \"#utility.yul\":4112:4165   */\n      tag_357\n      jump\t// in\n    tag_471:\n        /* \"#utility.yul\":4102:4165   */\n      swap3\n      pop\n        /* \"#utility.yul\":4057:4175   */\n      pop\n        /* \"#utility.yul\":4214:4216   */\n      0x40\n        /* \"#utility.yul\":4240:4293   */\n      tag_472\n        /* \"#utility.yul\":4285:4292   */\n      dup7\n        /* \"#utility.yul\":4276:4282   */\n      dup3\n        /* \"#utility.yul\":4265:4274   */\n      dup8\n        /* \"#utility.yul\":4261:4283   */\n      add\n        /* \"#utility.yul\":4240:4293   */\n      tag_360\n      jump\t// in\n    tag_472:\n        /* \"#utility.yul\":4230:4293   */\n      swap2\n      pop\n        /* \"#utility.yul\":4185:4303   */\n      pop\n        /* \"#utility.yul\":3691:4310   */\n      swap3\n      pop\n      swap3\n      pop\n      swap3\n      jump\t// out\n        /* \"#utility.yul\":4316:4402   */\n    tag_364:\n        /* \"#utility.yul\":4351:4358   */\n      0x00\n        /* \"#utility.yul\":4391:4395   */\n      0xff\n        /* \"#utility.yul\":4384:4389   */\n      dup3\n        /* \"#utility.yul\":4380:4396   */\n      and\n        /* \"#utility.yul\":4369:4396   */\n      swap1\n      pop\n        /* \"#utility.yul\":4316:4402   */\n      swap2\n      swap1\n      pop\n      jump\t// out\n        /* \"#utility.yul\":4408:4520   */\n    tag_365:\n        /* \"#utility.yul\":4491:4513   */\n      tag_475\n        /* \"#utility.yul\":4507:4512   */\n      dup2\n        /* \"#utility.yul\":4491:4513   */\n      tag_364\n      jump\t// in\n    tag_475:\n        /* \"#utility.yul\":4486:4489   */\n      dup3\n        /* \"#utility.yul\":4479:4514   */\n      mstore\n        /* \"#utility.yul\":4408:4520   */\n      pop\n      pop\n      jump\t// out\n        /* \"#utility.yul\":4526:4740   */\n    tag_60:\n        /* \"#utility.yul\":4615:4619   */\n      0x00\n        /* \"#utility.yul\":4653:4655   */\n      0x20\n        /* \"#utility.yul\":4642:4651   */\n      dup3\n        /* \"#utility.yul\":4638:4656   */\n      add\n        /* \"#utility.yul\":4630:4656   */\n      swap1\n      pop\n        /* \"#utility.yul\":4666:4733   */\n      tag_477\n        /* \"#utility.yul\":4730:4731   */\n      0x00\n        /* \"#utility.yul\":4719:4728   */\n      dup4\n        /* \"#utility.yul\":4715:4732   */\n      add\n        /* \"#utility.yul\":4706:4712   */\n      dup5\n        /* \"#utility.yul\":4666:4733   */\n      tag_365\n      jump\t// in\n    tag_477:\n        /* \"#utility.yul\":4526:4740   */\n      swap3\n      swap2\n      pop\n      pop\n      jump\t// out\n        /* \"#utility.yul\":4746:5075   */\n    tag_69:\n        /* \"#utility.yul\":4805:4811   */\n      0x00\n        /* \"#utility.yul\":4854:4856   */\n      0x20\n        /* \"#utility.yul\":4842:4851   */\n      dup3\n        /* \"#utility.yul\":4833:4840   */\n      dup5\n        /* \"#utility.yul\":4829:4852   */\n      sub\n        /* \"#utility.yul\":4825:4857   */\n      slt\n        /* \"#utility.yul\":4822:4941   */\n      iszero\n      tag_479\n      jumpi\n        /* \"#utility.yul\":4860:4939   */\n      tag_480\n      tag_352\n      jump\t// in\n    tag_480:\n        /* \"#utility.yul\":4822:4941   */\n    tag_479:\n        /* \"#utility.yul\":4980:4981   */\n      0x00\n        /* \"#utility.yul\":5005:5058   */\n      tag_481\n        /* \"#utility.yul\":5050:5057   */\n      dup5\n        /* \"#utility.yul\":5041:5047   */\n      dup3\n        /* \"#utility.yul\":5030:5039   */\n      dup6\n        /* \"#utility.yul\":5026:5048   */\n      add\n        /* \"#utility.yul\":5005:5058   */\n      tag_360\n      jump\t// in\n    tag_481:\n        /* \"#utility.yul\":4995:5058   */\n      swap2\n      pop\n        /* \"#utility.yul\":4951:5068   */\n      pop\n        /* \"#utility.yul\":4746:5075   */\n      swap3\n      swap2\n      pop\n      pop\n      jump\t// out\n        /* \"#utility.yul\":5081:5504   */\n    tag_72:\n        /* \"#utility.yul\":5222:5226   */\n      0x00\n        /* \"#utility.yul\":5260:5262   */\n      0x40\n        /* \"#utility.yul\":5249:5258   */\n      dup3\n        /* \"#utility.yul\":5245:5263   */\n      add\n        /* \"#utility.yul\":5237:5263   */\n      swap1\n      pop\n        /* \"#utility.yul\":5309:5318   */\n      dup2\n        /* \"#utility.yul\":5303:5307   */\n      dup2\n        /* \"#utility.yul\":5299:5319   */\n      sub\n        /* \"#utility.yul\":5295:5296   */\n      0x00\n        /* \"#utility.yul\":5284:5293   */\n      dup4\n        /* \"#utility.yul\":5280:5297   */\n      add\n        /* \"#utility.yul\":5273:5320   */\n      mstore\n        /* \"#utility.yul\":5337:5415   */\n      tag_483\n        /* \"#utility.yul\":5410:5414   */\n      dup2\n        /* \"#utility.yul\":5401:5407   */\n      dup6\n        /* \"#utility.yul\":5337:5415   */\n      tag_350\n      jump\t// in\n    tag_483:\n        /* \"#utility.yul\":5329:5415   */\n      swap1\n      pop\n        /* \"#utility.yul\":5425:5497   */\n      tag_484\n        /* \"#utility.yul\":5493:5495   */\n      0x20\n        /* \"#utility.yul\":5482:5491   */\n      dup4\n        /* \"#utility.yul\":5478:5496   */\n      add\n        /* \"#utility.yul\":5469:5475   */\n      dup5\n        /* \"#utility.yul\":5425:5497   */\n      tag_363\n      jump\t// in\n    tag_484:\n        /* \"#utility.yul\":5081:5504   */\n      swap4\n      swap3\n      pop\n      pop\n      pop\n      jump\t// out\n        /* \"#utility.yul\":5510:5839   */\n    tag_89:\n        /* \"#utility.yul\":5569:5575   */\n      0x00\n        /* \"#utility.yul\":5618:5620   */\n      0x20\n        /* \"#utility.yul\":5606:5615   */\n      dup3\n        /* \"#utility.yul\":5597:5604   */\n      dup5\n        /* \"#utility.yul\":5593:5616   */\n      sub\n        /* \"#utility.yul\":5589:5621   */\n      slt\n        /* \"#utility.yul\":5586:5705   */\n      iszero\n      tag_486\n      jumpi\n        /* \"#utility.yul\":5624:5703   */\n      tag_487\n      tag_352\n      jump\t// in\n    tag_487:\n        /* \"#utility.yul\":5586:5705   */\n    tag_486:\n        /* \"#utility.yul\":5744:5745   */\n      0x00\n        /* \"#utility.yul\":5769:5822   */\n      tag_488\n        /* \"#utility.yul\":5814:5821   */\n      dup5\n        /* \"#utility.yul\":5805:5811   */\n      dup3\n        /* \"#utility.yul\":5794:5803   */\n      dup6\n        /* \"#utility.yul\":5790:5812   */\n      add\n        /* \"#utility.yul\":5769:5822   */\n      tag_357\n      jump\t// in\n    tag_488:\n        /* \"#utility.yul\":5759:5822   */\n      swap2\n      pop\n        /* \"#utility.yul\":5715:5832   */\n      pop\n        /* \"#utility.yul\":5510:5839   */\n      swap3\n      swap2\n      pop\n      pop\n      jump\t// out\n        /* \"#utility.yul\":5845:5963   */\n    tag_366:\n        /* \"#utility.yul\":5932:5956   */\n      tag_490\n        /* \"#utility.yul\":5950:5955   */\n      dup2\n        /* \"#utility.yul\":5932:5956   */\n      tag_355\n      jump\t// in\n    tag_490:\n        /* \"#utility.yul\":5927:5930   */\n      dup3\n        /* \"#utility.yul\":5920:5957   */\n      mstore\n        /* \"#utility.yul\":5845:5963   */\n      pop\n      pop\n      jump\t// out\n        /* \"#utility.yul\":5969:6191   */\n    tag_102:\n        /* \"#utility.yul\":6062:6066   */\n      0x00\n        /* \"#utility.yul\":6100:6102   */\n      0x20\n        /* \"#utility.yul\":6089:6098   */\n      dup3\n        /* \"#utility.yul\":6085:6103   */\n      add\n        /* \"#utility.yul\":6077:6103   */\n      swap1\n      pop\n        /* \"#utility.yul\":6113:6184   */\n      tag_492\n        /* \"#utility.yul\":6181:6182   */\n      0x00\n        /* \"#utility.yul\":6170:6179   */\n      dup4\n        /* \"#utility.yul\":6166:6183   */\n      add\n        /* \"#utility.yul\":6157:6163   */\n      dup5\n        /* \"#utility.yul\":6113:6184   */\n      tag_366\n      jump\t// in\n    tag_492:\n        /* \"#utility.yul\":5969:6191   */\n      swap3\n      swap2\n      pop\n      pop\n      jump\t// out\n        /* \"#utility.yul\":6197:6321   */\n    tag_367:\n        /* \"#utility.yul\":6274:6280   */\n      0x00\n        /* \"#utility.yul\":6308:6313   */\n      dup2\n        /* \"#utility.yul\":6302:6314   */\n      mload\n        /* \"#utility.yul\":6292:6314   */\n      swap1\n      pop\n        /* \"#utility.yul\":6197:6321   */\n      swap2\n      swap1\n      pop\n      jump\t// out\n        /* \"#utility.yul\":6327:6521   */\n    tag_368:\n        /* \"#utility.yul\":6436:6447   */\n      0x00\n        /* \"#utility.yul\":6470:6476   */\n      dup3\n        /* \"#utility.yul\":6465:6468   */\n      dup3\n        /* \"#utility.yul\":6458:6477   */\n      mstore\n        /* \"#utility.yul\":6510:6514   */\n      0x20\n        /* \"#utility.yul\":6505:6508   */\n      dup3\n        /* \"#utility.yul\":6501:6515   */\n      add\n        /* \"#utility.yul\":6486:6515   */\n      swap1\n      pop\n        /* \"#utility.yul\":6327:6521   */\n      swap3\n      swap2\n      pop\n      pop\n      jump\t// out\n        /* \"#utility.yul\":6527:6669   */\n    tag_369:\n        /* \"#utility.yul\":6604:6608   */\n      0x00\n        /* \"#utility.yul\":6627:6630   */\n      dup2\n        /* \"#utility.yul\":6619:6630   */\n      swap1\n      pop\n        /* \"#utility.yul\":6657:6661   */\n      0x20\n        /* \"#utility.yul\":6652:6655   */\n      dup3\n        /* \"#utility.yul\":6648:6662   */\n      add\n        /* \"#utility.yul\":6640:6662   */\n      swap1\n      pop\n        /* \"#utility.yul\":6527:6669   */\n      swap2\n      swap1\n      pop\n      jump\t// out\n        /* \"#utility.yul\":6675:6834   */\n    tag_370:\n        /* \"#utility.yul\":6749:6760   */\n      0x00\n        /* \"#utility.yul\":6783:6789   */\n      dup3\n        /* \"#utility.yul\":6778:6781   */\n      dup3\n        /* \"#utility.yul\":6771:6790   */\n      mstore\n        /* \"#utility.yul\":6823:6827   */\n      0x20\n        /* \"#utility.yul\":6818:6821   */\n      dup3\n        /* \"#utility.yul\":6814:6828   */\n      add\n        /* \"#utility.yul\":6799:6828   */\n      swap1\n      pop\n        /* \"#utility.yul\":6675:6834   */\n      swap3\n      swap2\n      pop\n      pop\n      jump\t// out\n        /* \"#utility.yul\":6840:7197   */\n    tag_371:\n        /* \"#utility.yul\":6918:6921   */\n      0x00\n        /* \"#utility.yul\":6946:6985   */\n      tag_498\n        /* \"#utility.yul\":6979:6984   */\n      dup3\n        /* \"#utility.yul\":6946:6985   */\n      tag_346\n      jump\t// in\n    tag_498:\n        /* \"#utility.yul\":7001:7062   */\n      tag_499\n        /* \"#utility.yul\":7055:7061   */\n      dup2\n        /* \"#utility.yul\":7050:7053   */\n      dup6\n        /* \"#utility.yul\":7001:7062   */\n      tag_370\n      jump\t// in\n    tag_499:\n        /* \"#utility.yul\":6994:7062   */\n      swap4\n      pop\n        /* \"#utility.yul\":7071:7136   */\n      tag_500\n        /* \"#utility.yul\":7129:7135   */\n      dup2\n        /* \"#utility.yul\":7124:7127   */\n      dup6\n        /* \"#utility.yul\":7117:7121   */\n      0x20\n        /* \"#utility.yul\":7110:7115   */\n      dup7\n        /* \"#utility.yul\":7106:7122   */\n      add\n        /* \"#utility.yul\":7071:7136   */\n      tag_348\n      jump\t// in\n    tag_500:\n        /* \"#utility.yul\":7161:7190   */\n      tag_501\n        /* \"#utility.yul\":7183:7189   */\n      dup2\n        /* \"#utility.yul\":7161:7190   */\n      tag_349\n      jump\t// in\n    tag_501:\n        /* \"#utility.yul\":7156:7159   */\n      dup5\n        /* \"#utility.yul\":7152:7191   */\n      add\n        /* \"#utility.yul\":7145:7191   */\n      swap2\n      pop\n        /* \"#utility.yul\":6922:7197   */\n      pop\n        /* \"#utility.yul\":6840:7197   */\n      swap3\n      swap2\n      pop\n      pop\n      jump\t// out\n        /* \"#utility.yul\":7203:7399   */\n    tag_372:\n        /* \"#utility.yul\":7292:7302   */\n      0x00\n        /* \"#utility.yul\":7327:7393   */\n      tag_503\n        /* \"#utility.yul\":7389:7392   */\n      dup4\n        /* \"#utility.yul\":7381:7387   */\n      dup4\n        /* \"#utility.yul\":7327:7393   */\n      tag_371\n      jump\t// in\n    tag_503:\n        /* \"#utility.yul\":7313:7393   */\n      swap1\n      pop\n        /* \"#utility.yul\":7203:7399   */\n      swap3\n      swap2\n      pop\n      pop\n      jump\t// out\n        /* \"#utility.yul\":7405:7528   */\n    tag_373:\n        /* \"#utility.yul\":7485:7489   */\n      0x00\n        /* \"#utility.yul\":7517:7521   */\n      0x20\n        /* \"#utility.yul\":7512:7515   */\n      dup3\n        /* \"#utility.yul\":7508:7522   */\n      add\n        /* \"#utility.yul\":7500:7522   */\n      swap1\n      pop\n        /* \"#utility.yul\":7405:7528   */\n      swap2\n      swap1\n      pop\n      jump\t// out\n        /* \"#utility.yul\":7562:8553   */\n    tag_374:\n        /* \"#utility.yul\":7701:7704   */\n      0x00\n        /* \"#utility.yul\":7730:7794   */\n      tag_506\n        /* \"#utility.yul\":7788:7793   */\n      dup3\n        /* \"#utility.yul\":7730:7794   */\n      tag_367\n      jump\t// in\n    tag_506:\n        /* \"#utility.yul\":7810:7906   */\n      tag_507\n        /* \"#utility.yul\":7899:7905   */\n      dup2\n        /* \"#utility.yul\":7894:7897   */\n      dup6\n        /* \"#utility.yul\":7810:7906   */\n      tag_368\n      jump\t// in\n    tag_507:\n        /* \"#utility.yul\":7803:7906   */\n      swap4\n      pop\n        /* \"#utility.yul\":7932:7935   */\n      dup4\n        /* \"#utility.yul\":7977:7981   */\n      0x20\n        /* \"#utility.yul\":7969:7975   */\n      dup3\n        /* \"#utility.yul\":7965:7982   */\n      mul\n        /* \"#utility.yul\":7960:7963   */\n      dup6\n        /* \"#utility.yul\":7956:7983   */\n      add\n        /* \"#utility.yul\":8007:8073   */\n      tag_508\n        /* \"#utility.yul\":8067:8072   */\n      dup6\n        /* \"#utility.yul\":8007:8073   */\n      tag_369\n      jump\t// in\n    tag_508:\n        /* \"#utility.yul\":8096:8103   */\n      dup1\n        /* \"#utility.yul\":8127:8128   */\n      0x00\n        /* \"#utility.yul\":8112:8508   */\n    tag_509:\n        /* \"#utility.yul\":8137:8143   */\n      dup6\n        /* \"#utility.yul\":8134:8135   */\n      dup2\n        /* \"#utility.yul\":8131:8144   */\n      lt\n        /* \"#utility.yul\":8112:8508   */\n      iszero\n      tag_511\n      jumpi\n        /* \"#utility.yul\":8208:8217   */\n      dup5\n        /* \"#utility.yul\":8202:8206   */\n      dup5\n        /* \"#utility.yul\":8198:8218   */\n      sub\n        /* \"#utility.yul\":8193:8196   */\n      dup10\n        /* \"#utility.yul\":8186:8219   */\n      mstore\n        /* \"#utility.yul\":8259:8265   */\n      dup2\n        /* \"#utility.yul\":8253:8266   */\n      mload\n        /* \"#utility.yul\":8287:8371   */\n      tag_512\n        /* \"#utility.yul\":8366:8370   */\n      dup6\n        /* \"#utility.yul\":8351:8364   */\n      dup3\n        /* \"#utility.yul\":8287:8371   */\n      tag_372\n      jump\t// in\n    tag_512:\n        /* \"#utility.yul\":8279:8371   */\n      swap5\n      pop\n        /* \"#utility.yul\":8394:8464   */\n      tag_513\n        /* \"#utility.yul\":8457:8463   */\n      dup4\n        /* \"#utility.yul\":8394:8464   */\n      tag_373\n      jump\t// in\n    tag_513:\n        /* \"#utility.yul\":8384:8464   */\n      swap3\n      pop\n        /* \"#utility.yul\":8493:8497   */\n      0x20\n        /* \"#utility.yul\":8488:8491   */\n      dup11\n        /* \"#utility.yul\":8484:8498   */\n      add\n        /* \"#utility.yul\":8477:8498   */\n      swap10\n      pop\n        /* \"#utility.yul\":8172:8508   */\n      pop\n        /* \"#utility.yul\":8159:8160   */\n      0x01\n        /* \"#utility.yul\":8156:8157   */\n      dup2\n        /* \"#utility.yul\":8152:8161   */\n      add\n        /* \"#utility.yul\":8147:8161   */\n      swap1\n      pop\n        /* \"#utility.yul\":8112:8508   */\n      jump(tag_509)\n    tag_511:\n        /* \"#utility.yul\":8116:8130   */\n      pop\n        /* \"#utility.yul\":8524:8528   */\n      dup3\n        /* \"#utility.yul\":8517:8528   */\n      swap8\n      pop\n        /* \"#utility.yul\":8544:8547   */\n      dup8\n        /* \"#utility.yul\":8537:8547   */\n      swap6\n      pop\n        /* \"#utility.yul\":7706:8553   */\n      pop\n      pop\n      pop\n      pop\n      pop\n        /* \"#utility.yul\":7562:8553   */\n      swap3\n      swap2\n      pop\n      pop\n      jump\t// out\n        /* \"#utility.yul\":8559:8972   */\n    tag_121:\n        /* \"#utility.yul\":8722:8726   */\n      0x00\n        /* \"#utility.yul\":8760:8762   */\n      0x20\n        /* \"#utility.yul\":8749:8758   */\n      dup3\n        /* \"#utility.yul\":8745:8763   */\n      add\n        /* \"#utility.yul\":8737:8763   */\n      swap1\n      pop\n        /* \"#utility.yul\":8809:8818   */\n      dup2\n        /* \"#utility.yul\":8803:8807   */\n      dup2\n        /* \"#utility.yul\":8799:8819   */\n      sub\n        /* \"#utility.yul\":8795:8796   */\n      0x00\n        /* \"#utility.yul\":8784:8793   */\n      dup4\n        /* \"#utility.yul\":8780:8797   */\n      add\n        /* \"#utility.yul\":8773:8820   */\n      mstore\n        /* \"#utility.yul\":8837:8965   */\n      tag_515\n        /* \"#utility.yul\":8960:8964   */\n      dup2\n        /* \"#utility.yul\":8951:8957   */\n      dup5\n        /* \"#utility.yul\":8837:8965   */\n      tag_374\n      jump\t// in\n    tag_515:\n        /* \"#utility.yul\":8829:8965   */\n      swap1\n      pop\n        /* \"#utility.yul\":8559:8972   */\n      swap3\n      swap2\n      pop\n      pop\n      jump\t// out\n        /* \"#utility.yul\":8978:9452   */\n    tag_130:\n        /* \"#utility.yul\":9046:9052   */\n      0x00\n        /* \"#utility.yul\":9054:9060   */\n      dup1\n        /* \"#utility.yul\":9103:9105   */\n      0x40\n        /* \"#utility.yul\":9091:9100   */\n      dup4\n        /* \"#utility.yul\":9082:9089   */\n      dup6\n        /* \"#utility.yul\":9078:9101   */\n      sub\n        /* \"#utility.yul\":9074:9106   */\n      slt\n        /* \"#utility.yul\":9071:9190   */\n      iszero\n      tag_517\n      jumpi\n        /* \"#utility.yul\":9109:9188   */\n      tag_518\n      tag_352\n      jump\t// in\n    tag_518:\n        /* \"#utility.yul\":9071:9190   */\n    tag_517:\n        /* \"#utility.yul\":9229:9230   */\n      0x00\n        /* \"#utility.yul\":9254:9307   */\n      tag_519\n        /* \"#utility.yul\":9299:9306   */\n      dup6\n        /* \"#utility.yul\":9290:9296   */\n      dup3\n        /* \"#utility.yul\":9279:9288   */\n      dup7\n        /* \"#utility.yul\":9275:9297   */\n      add\n        /* \"#utility.yul\":9254:9307   */\n      tag_357\n      jump\t// in\n    tag_519:\n        /* \"#utility.yul\":9244:9307   */\n      swap3\n      pop\n        /* \"#utility.yul\":9200:9317   */\n      pop\n        /* \"#utility.yul\":9356:9358   */\n      0x20\n        /* \"#utility.yul\":9382:9435   */\n      tag_520\n        /* \"#utility.yul\":9427:9434   */\n      dup6\n        /* \"#utility.yul\":9418:9424   */\n      dup3\n        /* \"#utility.yul\":9407:9416   */\n      dup7\n        /* \"#utility.yul\":9403:9425   */\n      add\n        /* \"#utility.yul\":9382:9435   */\n      tag_357\n      jump\t// in\n    tag_520:\n        /* \"#utility.yul\":9372:9435   */\n      swap2\n      pop\n        /* \"#utility.yul\":9327:9445   */\n      pop\n        /* \"#utility.yul\":8978:9452   */\n      swap3\n      pop\n      swap3\n      swap1\n      pop\n      jump\t// out\n        /* \"#utility.yul\":9458:9638   */\n    tag_375:\n        /* \"#utility.yul\":9506:9583   */\n      0x4e487b7100000000000000000000000000000000000000000000000000000000\n        /* \"#utility.yul\":9503:9504   */\n      0x00\n        /* \"#utility.yul\":9496:9584   */\n      mstore\n        /* \"#utility.yul\":9603:9607   */\n      0x22\n        /* \"#utility.yul\":9600:9601   */\n      0x04\n        /* \"#utility.yul\":9593:9608   */\n      mstore\n        /* \"#utility.yul\":9627:9631   */\n      0x24\n        /* \"#utility.yul\":9624:9625   */\n      0x00\n        /* \"#utility.yul\":9617:9632   */\n      revert\n        /* \"#utility.yul\":9644:9964   */\n    tag_143:\n        /* \"#utility.yul\":9688:9694   */\n      0x00\n        /* \"#utility.yul\":9725:9726   */\n      0x02\n        /* \"#utility.yul\":9719:9723   */\n      dup3\n        /* \"#utility.yul\":9715:9727   */\n      div\n        /* \"#utility.yul\":9705:9727   */\n      swap1\n      pop\n        /* \"#utility.yul\":9772:9773   */\n      0x01\n        /* \"#utility.yul\":9766:9770   */\n      dup3\n        /* \"#utility.yul\":9762:9774   */\n      and\n        /* \"#utility.yul\":9793:9811   */\n      dup1\n        /* \"#utility.yul\":9783:9864   */\n      tag_523\n      jumpi\n        /* \"#utility.yul\":9849:9853   */\n      0x7f\n        /* \"#utility.yul\":9841:9847   */\n      dup3\n        /* \"#utility.yul\":9837:9854   */\n      and\n        /* \"#utility.yul\":9827:9854   */\n      swap2\n      pop\n        /* \"#utility.yul\":9783:9864   */\n    tag_523:\n        /* \"#utility.yul\":9911:9913   */\n      0x20\n        /* \"#utility.yul\":9903:9909   */\n      dup3\n        /* \"#utility.yul\":9900:9914   */\n      lt\n        /* \"#utility.yul\":9880:9898   */\n      dup2\n        /* \"#utility.yul\":9877:9915   */\n      sub\n        /* \"#utility.yul\":9874:9958   */\n      tag_524\n      jumpi\n        /* \"#utility.yul\":9930:9948   */\n      tag_525\n      tag_375\n      jump\t// in\n    tag_525:\n        /* \"#utility.yul\":9874:9958   */\n    tag_524:\n        /* \"#utility.yul\":9695:9964   */\n      pop\n        /* \"#utility.yul\":9644:9964   */\n      swap2\n      swap1\n      pop\n      jump\t// out\n        /* \"#utility.yul\":9970:10150   */\n    tag_376:\n        /* \"#utility.yul\":10018:10095   */\n      0x4e487b7100000000000000000000000000000000000000000000000000000000\n        /* \"#utility.yul\":10015:10016   */\n      0x00\n        /* \"#utility.yul\":10008:10096   */\n      mstore\n        /* \"#utility.yul\":10115:10119   */\n      0x11\n        /* \"#utility.yul\":10112:10113   */\n      0x04\n        /* \"#utility.yul\":10105:10120   */\n      mstore\n        /* \"#utility.yul\":10139:10143   */\n      0x24\n        /* \"#utility.yul\":10136:10137   */\n      0x00\n        /* \"#utility.yul\":10129:10144   */\n      revert\n        /* \"#utility.yul\":10156:10347   */\n    tag_166:\n        /* \"#utility.yul\":10196:10199   */\n      0x00\n        /* \"#utility.yul\":10215:10235   */\n      tag_528\n        /* \"#utility.yul\":10233:10234   */\n      dup3\n        /* \"#utility.yul\":10215:10235   */\n      tag_358\n      jump\t// in\n    tag_528:\n        /* \"#utility.yul\":10210:10235   */\n      swap2\n      pop\n        /* \"#utility.yul\":10249:10269   */\n      tag_529\n        /* \"#utility.yul\":10267:10268   */\n      dup4\n        /* \"#utility.yul\":10249:10269   */\n      tag_358\n      jump\t// in\n    tag_529:\n        /* \"#utility.yul\":10244:10269   */\n      swap3\n      pop\n        /* \"#utility.yul\":10292:10293   */\n      dup3\n        /* \"#utility.yul\":10289:10290   */\n      dup3\n        /* \"#utility.yul\":10285:10294   */\n      add\n        /* \"#utility.yul\":10278:10294   */\n      swap1\n      pop\n        /* \"#utility.yul\":10313:10316   */\n      dup1\n        /* \"#utility.yul\":10310:10311   */\n      dup3\n        /* \"#utility.yul\":10307:10317   */\n      gt\n        /* \"#utility.yul\":10304:10340   */\n      iszero\n      tag_530\n      jumpi\n        /* \"#utility.yul\":10320:10338   */\n      tag_531\n      tag_376\n      jump\t// in\n    tag_531:\n        /* \"#utility.yul\":10304:10340   */\n    tag_530:\n        /* \"#utility.yul\":10156:10347   */\n      swap3\n      swap2\n      pop\n      pop\n      jump\t// out\n        /* \"#utility.yul\":10353:10582   */\n    tag_377:\n        /* \"#utility.yul\":10493:10527   */\n      0x596f7520646f6e2774206861766520656e6f75676820446567656e20746f6b65\n        /* \"#utility.yul\":10489:10490   */\n      0x00\n        /* \"#utility.yul\":10481:10487   */\n      dup3\n        /* \"#utility.yul\":10477:10491   */\n      add\n        /* \"#utility.yul\":10470:10528   */\n      mstore\n        /* \"#utility.yul\":10562:10574   */\n      0x6e7320746f206275726e00000000000000000000000000000000000000000000\n        /* \"#utility.yul\":10557:10559   */\n      0x20\n        /* \"#utility.yul\":10549:10555   */\n      dup3\n        /* \"#utility.yul\":10545:10560   */\n      add\n        /* \"#utility.yul\":10538:10575   */\n      mstore\n        /* \"#utility.yul\":10353:10582   */\n      pop\n      jump\t// out\n        /* \"#utility.yul\":10588:10954   */\n    tag_378:\n        /* \"#utility.yul\":10730:10733   */\n      0x00\n        /* \"#utility.yul\":10751:10818   */\n      tag_534\n        /* \"#utility.yul\":10815:10817   */\n      0x2a\n        /* \"#utility.yul\":10810:10813   */\n      dup4\n        /* \"#utility.yul\":10751:10818   */\n      tag_347\n      jump\t// in\n    tag_534:\n        /* \"#utility.yul\":10744:10818   */\n      swap2\n      pop\n        /* \"#utility.yul\":10827:10920   */\n      tag_535\n        /* \"#utility.yul\":10916:10919   */\n      dup3\n        /* \"#utility.yul\":10827:10920   */\n      tag_377\n      jump\t// in\n    tag_535:\n        /* \"#utility.yul\":10945:10947   */\n      0x40\n        /* \"#utility.yul\":10940:10943   */\n      dup3\n        /* \"#utility.yul\":10936:10948   */\n      add\n        /* \"#utility.yul\":10929:10948   */\n      swap1\n      pop\n        /* \"#utility.yul\":10588:10954   */\n      swap2\n      swap1\n      pop\n      jump\t// out\n        /* \"#utility.yul\":10960:11379   */\n    tag_189:\n        /* \"#utility.yul\":11126:11130   */\n      0x00\n        /* \"#utility.yul\":11164:11166   */\n      0x20\n        /* \"#utility.yul\":11153:11162   */\n      dup3\n        /* \"#utility.yul\":11149:11167   */\n      add\n        /* \"#utility.yul\":11141:11167   */\n      swap1\n      pop\n        /* \"#utility.yul\":11213:11222   */\n      dup2\n        /* \"#utility.yul\":11207:11211   */\n      dup2\n        /* \"#utility.yul\":11203:11223   */\n      sub\n        /* \"#utility.yul\":11199:11200   */\n      0x00\n        /* \"#utility.yul\":11188:11197   */\n      dup4\n        /* \"#utility.yul\":11184:11201   */\n      add\n        /* \"#utility.yul\":11177:11224   */\n      mstore\n        /* \"#utility.yul\":11241:11372   */\n      tag_537\n        /* \"#utility.yul\":11367:11371   */\n      dup2\n        /* \"#utility.yul\":11241:11372   */\n      tag_378\n      jump\t// in\n    tag_537:\n        /* \"#utility.yul\":11233:11372   */\n      swap1\n      pop\n        /* \"#utility.yul\":10960:11379   */\n      swap2\n      swap1\n      pop\n      jump\t// out\n        /* \"#utility.yul\":11385:11553   */\n    tag_379:\n        /* \"#utility.yul\":11525:11545   */\n      0x496e73756666696369656e742066756e64730000000000000000000000000000\n        /* \"#utility.yul\":11521:11522   */\n      0x00\n        /* \"#utility.yul\":11513:11519   */\n      dup3\n        /* \"#utility.yul\":11509:11523   */\n      add\n        /* \"#utility.yul\":11502:11546   */\n      mstore\n        /* \"#utility.yul\":11385:11553   */\n      pop\n      jump\t// out\n        /* \"#utility.yul\":11559:11925   */\n    tag_380:\n        /* \"#utility.yul\":11701:11704   */\n      0x00\n        /* \"#utility.yul\":11722:11789   */\n      tag_540\n        /* \"#utility.yul\":11786:11788   */\n      0x12\n        /* \"#utility.yul\":11781:11784   */\n      dup4\n        /* \"#utility.yul\":11722:11789   */\n      tag_347\n      jump\t// in\n    tag_540:\n        /* \"#utility.yul\":11715:11789   */\n      swap2\n      pop\n        /* \"#utility.yul\":11798:11891   */\n      tag_541\n        /* \"#utility.yul\":11887:11890   */\n      dup3\n        /* \"#utility.yul\":11798:11891   */\n      tag_379\n      jump\t// in\n    tag_541:\n        /* \"#utility.yul\":11916:11918   */\n      0x20\n        /* \"#utility.yul\":11911:11914   */\n      dup3\n        /* \"#utility.yul\":11907:11919   */\n      add\n        /* \"#utility.yul\":11900:11919   */\n      swap1\n      pop\n        /* \"#utility.yul\":11559:11925   */\n      swap2\n      swap1\n      pop\n      jump\t// out\n        /* \"#utility.yul\":11931:12350   */\n    tag_202:\n        /* \"#utility.yul\":12097:12101   */\n      0x00\n        /* \"#utility.yul\":12135:12137   */\n      0x20\n        /* \"#utility.yul\":12124:12133   */\n      dup3\n        /* \"#utility.yul\":12120:12138   */\n      add\n        /* \"#utility.yul\":12112:12138   */\n      swap1\n      pop\n        /* \"#utility.yul\":12184:12193   */\n      dup2\n        /* \"#utility.yul\":12178:12182   */\n      dup2\n        /* \"#utility.yul\":12174:12194   */\n      sub\n        /* \"#utility.yul\":12170:12171   */\n      0x00\n        /* \"#utility.yul\":12159:12168   */\n      dup4\n        /* \"#utility.yul\":12155:12172   */\n      add\n        /* \"#utility.yul\":12148:12195   */\n      mstore\n        /* \"#utility.yul\":12212:12343   */\n      tag_543\n        /* \"#utility.yul\":12338:12342   */\n      dup2\n        /* \"#utility.yul\":12212:12343   */\n      tag_380\n      jump\t// in\n    tag_543:\n        /* \"#utility.yul\":12204:12343   */\n      swap1\n      pop\n        /* \"#utility.yul\":11931:12350   */\n      swap2\n      swap1\n      pop\n      jump\t// out\n        /* \"#utility.yul\":12356:12587   */\n    tag_381:\n        /* \"#utility.yul\":12496:12530   */\n      0x596f7520646f6e2774206861766520656e6f75676820446567656e20746f6b65\n        /* \"#utility.yul\":12492:12493   */\n      0x00\n        /* \"#utility.yul\":12484:12490   */\n      dup3\n        /* \"#utility.yul\":12480:12494   */\n      add\n        /* \"#utility.yul\":12473:12531   */\n      mstore\n        /* \"#utility.yul\":12565:12579   */\n      0x6e7320746f2072656465656d0000000000000000000000000000000000000000\n        /* \"#utility.yul\":12560:12562   */\n      0x20\n        /* \"#utility.yul\":12552:12558   */\n      dup3\n        /* \"#utility.yul\":12548:12563   */\n      add\n        /* \"#utility.yul\":12541:12580   */\n      mstore\n        /* \"#utility.yul\":12356:12587   */\n      pop\n      jump\t// out\n        /* \"#utility.yul\":12593:12959   */\n    tag_382:\n        /* \"#utility.yul\":12735:12738   */\n      0x00\n        /* \"#utility.yul\":12756:12823   */\n      tag_546\n        /* \"#utility.yul\":12820:12822   */\n      0x2c\n        /* \"#utility.yul\":12815:12818   */\n      dup4\n        /* \"#utility.yul\":12756:12823   */\n      tag_347\n      jump\t// in\n    tag_546:\n        /* \"#utility.yul\":12749:12823   */\n      swap2\n      pop\n        /* \"#utility.yul\":12832:12925   */\n      tag_547\n        /* \"#utility.yul\":12921:12924   */\n      dup3\n        /* \"#utility.yul\":12832:12925   */\n      tag_381\n      jump\t// in\n    tag_547:\n        /* \"#utility.yul\":12950:12952   */\n      0x40\n        /* \"#utility.yul\":12945:12948   */\n      dup3\n        /* \"#utility.yul\":12941:12953   */\n      add\n        /* \"#utility.yul\":12934:12953   */\n      swap1\n      pop\n        /* \"#utility.yul\":12593:12959   */\n      swap2\n      swap1\n      pop\n      jump\t// out\n        /* \"#utility.yul\":12965:13384   */\n    tag_206:\n        /* \"#utility.yul\":13131:13135   */\n      0x00\n        /* \"#utility.yul\":13169:13171   */\n      0x20\n        /* \"#utility.yul\":13158:13167   */\n      dup3\n        /* \"#utility.yul\":13154:13172   */\n      add\n        /* \"#utility.yul\":13146:13172   */\n      swap1\n      pop\n        /* \"#utility.yul\":13218:13227   */\n      dup2\n        /* \"#utility.yul\":13212:13216   */\n      dup2\n        /* \"#utility.yul\":13208:13228   */\n      sub\n        /* \"#utility.yul\":13204:13205   */\n      0x00\n        /* \"#utility.yul\":13193:13202   */\n      dup4\n        /* \"#utility.yul\":13189:13206   */\n      add\n        /* \"#utility.yul\":13182:13229   */\n      mstore\n        /* \"#utility.yul\":13246:13377   */\n      tag_549\n        /* \"#utility.yul\":13372:13376   */\n      dup2\n        /* \"#utility.yul\":13246:13377   */\n      tag_382\n      jump\t// in\n    tag_549:\n        /* \"#utility.yul\":13238:13377   */\n      swap1\n      pop\n        /* \"#utility.yul\":12965:13384   */\n      swap2\n      swap1\n      pop\n      jump\t// out\n        /* \"#utility.yul\":13390:13570   */\n    tag_237:\n        /* \"#utility.yul\":13438:13515   */\n      0x4e487b7100000000000000000000000000000000000000000000000000000000\n        /* \"#utility.yul\":13435:13436   */\n      0x00\n        /* \"#utility.yul\":13428:13516   */\n      mstore\n        /* \"#utility.yul\":13535:13539   */\n      0x41\n        /* \"#utility.yul\":13532:13533   */\n      0x04\n        /* \"#utility.yul\":13525:13540   */\n      mstore\n        /* \"#utility.yul\":13559:13563   */\n      0x24\n        /* \"#utility.yul\":13556:13557   */\n      0x00\n        /* \"#utility.yul\":13549:13564   */\n      revert\n        /* \"#utility.yul\":13576:13717   */\n    tag_383:\n        /* \"#utility.yul\":13625:13629   */\n      0x00\n        /* \"#utility.yul\":13648:13651   */\n      dup2\n        /* \"#utility.yul\":13640:13651   */\n      swap1\n      pop\n        /* \"#utility.yul\":13671:13674   */\n      dup2\n        /* \"#utility.yul\":13668:13669   */\n      0x00\n        /* \"#utility.yul\":13661:13675   */\n      mstore\n        /* \"#utility.yul\":13705:13709   */\n      0x20\n        /* \"#utility.yul\":13702:13703   */\n      0x00\n        /* \"#utility.yul\":13692:13710   */\n      keccak256\n        /* \"#utility.yul\":13684:13710   */\n      swap1\n      pop\n        /* \"#utility.yul\":13576:13717   */\n      swap2\n      swap1\n      pop\n      jump\t// out\n        /* \"#utility.yul\":13723:13816   */\n    tag_384:\n        /* \"#utility.yul\":13760:13766   */\n      0x00\n        /* \"#utility.yul\":13807:13809   */\n      0x20\n        /* \"#utility.yul\":13802:13804   */\n      0x1f\n        /* \"#utility.yul\":13795:13800   */\n      dup4\n        /* \"#utility.yul\":13791:13805   */\n      add\n        /* \"#utility.yul\":13787:13810   */\n      div\n        /* \"#utility.yul\":13777:13810   */\n      swap1\n      pop\n        /* \"#utility.yul\":13723:13816   */\n      swap2\n      swap1\n      pop\n      jump\t// out\n        /* \"#utility.yul\":13822:13929   */\n    tag_385:\n        /* \"#utility.yul\":13866:13874   */\n      0x00\n        /* \"#utility.yul\":13916:13921   */\n      dup3\n        /* \"#utility.yul\":13910:13914   */\n      dup3\n        /* \"#utility.yul\":13906:13922   */\n      shl\n        /* \"#utility.yul\":13885:13922   */\n      swap1\n      pop\n        /* \"#utility.yul\":13822:13929   */\n      swap3\n      swap2\n      pop\n      pop\n      jump\t// out\n        /* \"#utility.yul\":13935:14328   */\n    tag_386:\n        /* \"#utility.yul\":14004:14010   */\n      0x00\n        /* \"#utility.yul\":14054:14055   */\n      0x08\n        /* \"#utility.yul\":14042:14052   */\n      dup4\n        /* \"#utility.yul\":14038:14056   */\n      mul\n        /* \"#utility.yul\":14077:14174   */\n      tag_555\n        /* \"#utility.yul\":14107:14173   */\n      0xffffffffffffffffffffffffffffffffffffffffffffffffffffffffffffffff\n        /* \"#utility.yul\":14096:14105   */\n      dup3\n        /* \"#utility.yul\":14077:14174   */\n      tag_385\n      jump\t// in\n    tag_555:\n        /* \"#utility.yul\":14195:14234   */\n      tag_556\n        /* \"#utility.yul\":14225:14233   */\n      dup7\n        /* \"#utility.yul\":14214:14223   */\n      dup4\n        /* \"#utility.yul\":14195:14234   */\n      tag_385\n      jump\t// in\n    tag_556:\n        /* \"#utility.yul\":14183:14234   */\n      swap6\n      pop\n        /* \"#utility.yul\":14267:14271   */\n      dup1\n        /* \"#utility.yul\":14263:14272   */\n      not\n        /* \"#utility.yul\":14256:14261   */\n      dup5\n        /* \"#utility.yul\":14252:14273   */\n      and\n        /* \"#utility.yul\":14243:14273   */\n      swap4\n      pop\n        /* \"#utility.yul\":14316:14320   */\n      dup1\n        /* \"#utility.yul\":14306:14314   */\n      dup7\n        /* \"#utility.yul\":14302:14321   */\n      and\n        /* \"#utility.yul\":14295:14300   */\n      dup5\n        /* \"#utility.yul\":14292:14322   */\n      or\n        /* \"#utility.yul\":14282:14322   */\n      swap3\n      pop\n        /* \"#utility.yul\":14011:14328   */\n      pop\n      pop\n        /* \"#utility.yul\":13935:14328   */\n      swap4\n      swap3\n      pop\n      pop\n      pop\n      jump\t// out\n        /* \"#utility.yul\":14334:14394   */\n    tag_387:\n        /* \"#utility.yul\":14362:14365   */\n      0x00\n        /* \"#utility.yul\":14383:14388   */\n      dup2\n        /* \"#utility.yul\":14376:14388   */\n      swap1\n      pop\n        /* \"#utility.yul\":14334:14394   */\n      swap2\n      swap1\n      pop\n      jump\t// out\n        /* \"#utility.yul\":14400:14542   */\n    tag_388:\n        /* \"#utility.yul\":14450:14459   */\n      0x00\n        /* \"#utility.yul\":14483:14536   */\n      tag_559\n        /* \"#utility.yul\":14501:14535   */\n      tag_560\n        /* \"#utility.yul\":14510:14534   */\n      tag_561\n        /* \"#utility.yul\":14528:14533   */\n      dup5\n        /* \"#utility.yul\":14510:14534   */\n      tag_358\n      jump\t// in\n    tag_561:\n        /* \"#utility.yul\":14501:14535   */\n      tag_387\n      jump\t// in\n    tag_560:\n        /* \"#utility.yul\":14483:14536   */\n      tag_358\n      jump\t// in\n    tag_559:\n        /* \"#utility.yul\":14470:14536   */\n      swap1\n      pop\n        /* \"#utility.yul\":14400:14542   */\n      swap2\n      swap1\n      pop\n      jump\t// out\n        /* \"#utility.yul\":14548:14623   */\n    tag_389:\n        /* \"#utility.yul\":14591:14594   */\n      0x00\n        /* \"#utility.yul\":14612:14617   */\n      dup2\n        /* \"#utility.yul\":14605:14617   */\n      swap1\n      pop\n        /* \"#utility.yul\":14548:14623   */\n      swap2\n      swap1\n      pop\n      jump\t// out\n        /* \"#utility.yul\":14629:14898   */\n    tag_390:\n        /* \"#utility.yul\":14739:14778   */\n      tag_564\n        /* \"#utility.yul\":14770:14777   */\n      dup4\n        /* \"#utility.yul\":14739:14778   */\n      tag_388\n      jump\t// in\n    tag_564:\n        /* \"#utility.yul\":14800:14891   */\n      tag_565\n        /* \"#utility.yul\":14849:14890   */\n      tag_566\n        /* \"#utility.yul\":14873:14889   */\n      dup3\n        /* \"#utility.yul\":14849:14890   */\n      tag_389\n      jump\t// in\n    tag_566:\n        /* \"#utility.yul\":14841:14847   */\n      dup5\n        /* \"#utility.yul\":14834:14838   */\n      dup5\n        /* \"#utility.yul\":14828:14839   */\n      sload\n        /* \"#utility.yul\":14800:14891   */\n      tag_386\n      jump\t// in\n    tag_565:\n        /* \"#utility.yul\":14794:14798   */\n      dup3\n        /* \"#utility.yul\":14787:14892   */\n      sstore\n        /* \"#utility.yul\":14705:14898   */\n      pop\n        /* \"#utility.yul\":14629:14898   */\n      pop\n      pop\n      pop\n      jump\t// out\n        /* \"#utility.yul\":14904:14977   */\n    tag_391:\n        /* \"#utility.yul\":14949:14952   */\n      0x00\n        /* \"#utility.yul\":14904:14977   */\n      swap1\n      jump\t// out\n        /* \"#utility.yul\":14983:15172   */\n    tag_392:\n        /* \"#utility.yul\":15060:15092   */\n      tag_569\n      tag_391\n      jump\t// in\n    tag_569:\n        /* \"#utility.yul\":15101:15166   */\n      tag_570\n        /* \"#utility.yul\":15159:15165   */\n      dup2\n        /* \"#utility.yul\":15151:15157   */\n      dup5\n        /* \"#utility.yul\":15145:15149   */\n      dup5\n        /* \"#utility.yul\":15101:15166   */\n      tag_390\n      jump\t// in\n    tag_570:\n        /* \"#utility.yul\":15036:15172   */\n      pop\n        /* \"#utility.yul\":14983:15172   */\n      pop\n      pop\n      jump\t// out\n        /* \"#utility.yul\":15178:15364   */\n    tag_393:\n        /* \"#utility.yul\":15238:15358   */\n    tag_572:\n        /* \"#utility.yul\":15255:15258   */\n      dup2\n        /* \"#utility.yul\":15248:15253   */\n      dup2\n        /* \"#utility.yul\":15245:15259   */\n      lt\n        /* \"#utility.yul\":15238:15358   */\n      iszero\n      tag_574\n      jumpi\n        /* \"#utility.yul\":15309:15348   */\n      tag_575\n        /* \"#utility.yul\":15346:15347   */\n      0x00\n        /* \"#utility.yul\":15339:15344   */\n      dup3\n        /* \"#utility.yul\":15309:15348   */\n      tag_392\n      jump\t// in\n    tag_575:\n        /* \"#utility.yul\":15282:15283   */\n      0x01\n        /* \"#utility.yul\":15275:15280   */\n      dup2\n        /* \"#utility.yul\":15271:15284   */\n      add\n        /* \"#utility.yul\":15262:15284   */\n      swap1\n      pop\n        /* \"#utility.yul\":15238:15358   */\n      jump(tag_572)\n    tag_574:\n        /* \"#utility.yul\":15178:15364   */\n      pop\n      pop\n      jump\t// out\n        /* \"#utility.yul\":15370:15913   */\n    tag_394:\n        /* \"#utility.yul\":15471:15473   */\n      0x1f\n        /* \"#utility.yul\":15466:15469   */\n      dup3\n        /* \"#utility.yul\":15463:15474   */\n      gt\n        /* \"#utility.yul\":15460:15906   */\n      iszero\n      tag_577\n      jumpi\n        /* \"#utility.yul\":15505:15543   */\n      tag_578\n        /* \"#utility.yul\":15537:15542   */\n      dup2\n        /* \"#utility.yul\":15505:15543   */\n      tag_383\n      jump\t// in\n    tag_578:\n        /* \"#utility.yul\":15589:15618   */\n      tag_579\n        /* \"#utility.yul\":15607:15617   */\n      dup5\n        /* \"#utility.yul\":15589:15618   */\n      tag_384\n      jump\t// in\n    tag_579:\n        /* \"#utility.yul\":15579:15587   */\n      dup2\n        /* \"#utility.yul\":15575:15619   */\n      add\n        /* \"#utility.yul\":15772:15774   */\n      0x20\n        /* \"#utility.yul\":15760:15770   */\n      dup6\n        /* \"#utility.yul\":15757:15775   */\n      lt\n        /* \"#utility.yul\":15754:15803   */\n      iszero\n      tag_580\n      jumpi\n        /* \"#utility.yul\":15793:15801   */\n      dup2\n        /* \"#utility.yul\":15778:15801   */\n      swap1\n      pop\n        /* \"#utility.yul\":15754:15803   */\n    tag_580:\n        /* \"#utility.yul\":15816:15896   */\n      tag_581\n        /* \"#utility.yul\":15872:15894   */\n      tag_582\n        /* \"#utility.yul\":15890:15893   */\n      dup6\n        /* \"#utility.yul\":15872:15894   */\n      tag_384\n      jump\t// in\n    tag_582:\n        /* \"#utility.yul\":15862:15870   */\n      dup4\n        /* \"#utility.yul\":15858:15895   */\n      add\n        /* \"#utility.yul\":15845:15856   */\n      dup3\n        /* \"#utility.yul\":15816:15896   */\n      tag_393\n      jump\t// in\n    tag_581:\n        /* \"#utility.yul\":15475:15906   */\n      pop\n      pop\n        /* \"#utility.yul\":15460:15906   */\n    tag_577:\n        /* \"#utility.yul\":15370:15913   */\n      pop\n      pop\n      pop\n      jump\t// out\n        /* \"#utility.yul\":15919:16036   */\n    tag_395:\n        /* \"#utility.yul\":15973:15981   */\n      0x00\n        /* \"#utility.yul\":16023:16028   */\n      dup3\n        /* \"#utility.yul\":16017:16021   */\n      dup3\n        /* \"#utility.yul\":16013:16029   */\n      shr\n        /* \"#utility.yul\":15992:16029   */\n      swap1\n      pop\n        /* \"#utility.yul\":15919:16036   */\n      swap3\n      swap2\n      pop\n      pop\n      jump\t// out\n        /* \"#utility.yul\":16042:16211   */\n    tag_396:\n        /* \"#utility.yul\":16086:16092   */\n      0x00\n        /* \"#utility.yul\":16119:16170   */\n      tag_585\n        /* \"#utility.yul\":16167:16168   */\n      0x00\n        /* \"#utility.yul\":16163:16169   */\n      not\n        /* \"#utility.yul\":16155:16160   */\n      dup5\n        /* \"#utility.yul\":16152:16153   */\n      0x08\n        /* \"#utility.yul\":16148:16161   */\n      mul\n        /* \"#utility.yul\":16119:16170   */\n      tag_395\n      jump\t// in\n    tag_585:\n        /* \"#utility.yul\":16115:16171   */\n      not\n        /* \"#utility.yul\":16200:16204   */\n      dup1\n        /* \"#utility.yul\":16194:16198   */\n      dup4\n        /* \"#utility.yul\":16190:16205   */\n      and\n        /* \"#utility.yul\":16180:16205   */\n      swap2\n      pop\n        /* \"#utility.yul\":16093:16211   */\n      pop\n        /* \"#utility.yul\":16042:16211   */\n      swap3\n      swap2\n      pop\n      pop\n      jump\t// out\n        /* \"#utility.yul\":16216:16511   */\n    tag_397:\n        /* \"#utility.yul\":16292:16296   */\n      0x00\n        /* \"#utility.yul\":16438:16467   */\n      tag_587\n        /* \"#utility.yul\":16463:16466   */\n      dup4\n        /* \"#utility.yul\":16457:16461   */\n      dup4\n        /* \"#utility.yul\":16438:16467   */\n      tag_396\n      jump\t// in\n    tag_587:\n        /* \"#utility.yul\":16430:16467   */\n      swap2\n      pop\n        /* \"#utility.yul\":16500:16503   */\n      dup3\n        /* \"#utility.yul\":16497:16498   */\n      0x02\n        /* \"#utility.yul\":16493:16504   */\n      mul\n        /* \"#utility.yul\":16487:16491   */\n      dup3\n        /* \"#utility.yul\":16484:16505   */\n      or\n        /* \"#utility.yul\":16476:16505   */\n      swap1\n      pop\n        /* \"#utility.yul\":16216:16511   */\n      swap3\n      swap2\n      pop\n      pop\n      jump\t// out\n        /* \"#utility.yul\":16516:17911   */\n    tag_216:\n        /* \"#utility.yul\":16633:16670   */\n      tag_589\n        /* \"#utility.yul\":16666:16669   */\n      dup3\n        /* \"#utility.yul\":16633:16670   */\n      tag_346\n      jump\t// in\n    tag_589:\n        /* \"#utility.yul\":16735:16753   */\n      0xffffffffffffffff\n        /* \"#utility.yul\":16727:16733   */\n      dup2\n        /* \"#utility.yul\":16724:16754   */\n      gt\n        /* \"#utility.yul\":16721:16777   */\n      iszero\n      tag_590\n      jumpi\n        /* \"#utility.yul\":16757:16775   */\n      tag_591\n      tag_237\n      jump\t// in\n    tag_591:\n        /* \"#utility.yul\":16721:16777   */\n    tag_590:\n        /* \"#utility.yul\":16801:16839   */\n      tag_592\n        /* \"#utility.yul\":16833:16837   */\n      dup3\n        /* \"#utility.yul\":16827:16838   */\n      sload\n        /* \"#utility.yul\":16801:16839   */\n      tag_143\n      jump\t// in\n    tag_592:\n        /* \"#utility.yul\":16886:16953   */\n      tag_593\n        /* \"#utility.yul\":16946:16952   */\n      dup3\n        /* \"#utility.yul\":16938:16944   */\n      dup3\n        /* \"#utility.yul\":16932:16936   */\n      dup6\n        /* \"#utility.yul\":16886:16953   */\n      tag_394\n      jump\t// in\n    tag_593:\n        /* \"#utility.yul\":16980:16981   */\n      0x00\n        /* \"#utility.yul\":17004:17008   */\n      0x20\n        /* \"#utility.yul\":16991:17008   */\n      swap1\n      pop\n        /* \"#utility.yul\":17036:17038   */\n      0x1f\n        /* \"#utility.yul\":17028:17034   */\n      dup4\n        /* \"#utility.yul\":17025:17039   */\n      gt\n        /* \"#utility.yul\":17053:17054   */\n      0x01\n        /* \"#utility.yul\":17048:17666   */\n      dup2\n      eq\n      tag_595\n      jumpi\n        /* \"#utility.yul\":17710:17711   */\n      0x00\n        /* \"#utility.yul\":17727:17733   */\n      dup5\n        /* \"#utility.yul\":17724:17801   */\n      iszero\n      tag_596\n      jumpi\n        /* \"#utility.yul\":17776:17785   */\n      dup3\n        /* \"#utility.yul\":17771:17774   */\n      dup8\n        /* \"#utility.yul\":17767:17786   */\n      add\n        /* \"#utility.yul\":17761:17787   */\n      mload\n        /* \"#utility.yul\":17752:17787   */\n      swap1\n      pop\n        /* \"#utility.yul\":17724:17801   */\n    tag_596:\n        /* \"#utility.yul\":17827:17894   */\n      tag_597\n        /* \"#utility.yul\":17887:17893   */\n      dup6\n        /* \"#utility.yul\":17880:17885   */\n      dup3\n        /* \"#utility.yul\":17827:17894   */\n      tag_397\n      jump\t// in\n    tag_597:\n        /* \"#utility.yul\":17821:17825   */\n      dup7\n        /* \"#utility.yul\":17814:17895   */\n      sstore\n        /* \"#utility.yul\":17683:17905   */\n      pop\n        /* \"#utility.yul\":17018:17905   */\n      jump(tag_594)\n        /* \"#utility.yul\":17048:17666   */\n    tag_595:\n        /* \"#utility.yul\":17100:17104   */\n      0x1f\n        /* \"#utility.yul\":17096:17105   */\n      not\n        /* \"#utility.yul\":17088:17094   */\n      dup5\n        /* \"#utility.yul\":17084:17106   */\n      and\n        /* \"#utility.yul\":17134:17171   */\n      tag_598\n        /* \"#utility.yul\":17166:17170   */\n      dup7\n        /* \"#utility.yul\":17134:17171   */\n      tag_383\n      jump\t// in\n    tag_598:\n        /* \"#utility.yul\":17193:17194   */\n      0x00\n        /* \"#utility.yul\":17207:17415   */\n    tag_599:\n        /* \"#utility.yul\":17221:17228   */\n      dup3\n        /* \"#utility.yul\":17218:17219   */\n      dup2\n        /* \"#utility.yul\":17215:17229   */\n      lt\n        /* \"#utility.yul\":17207:17415   */\n      iszero\n      tag_601\n      jumpi\n        /* \"#utility.yul\":17300:17309   */\n      dup5\n        /* \"#utility.yul\":17295:17298   */\n      dup10\n        /* \"#utility.yul\":17291:17310   */\n      add\n        /* \"#utility.yul\":17285:17311   */\n      mload\n        /* \"#utility.yul\":17277:17283   */\n      dup3\n        /* \"#utility.yul\":17270:17312   */\n      sstore\n        /* \"#utility.yul\":17351:17352   */\n      0x01\n        /* \"#utility.yul\":17343:17349   */\n      dup3\n        /* \"#utility.yul\":17339:17353   */\n      add\n        /* \"#utility.yul\":17329:17353   */\n      swap2\n      pop\n        /* \"#utility.yul\":17398:17400   */\n      0x20\n        /* \"#utility.yul\":17387:17396   */\n      dup6\n        /* \"#utility.yul\":17383:17401   */\n      add\n        /* \"#utility.yul\":17370:17401   */\n      swap5\n      pop\n        /* \"#utility.yul\":17244:17248   */\n      0x20\n        /* \"#utility.yul\":17241:17242   */\n      dup2\n        /* \"#utility.yul\":17237:17249   */\n      add\n        /* \"#utility.yul\":17232:17249   */\n      swap1\n      pop\n        /* \"#utility.yul\":17207:17415   */\n      jump(tag_599)\n    tag_601:\n        /* \"#utility.yul\":17443:17449   */\n      dup7\n        /* \"#utility.yul\":17434:17441   */\n      dup4\n        /* \"#utility.yul\":17431:17450   */\n      lt\n        /* \"#utility.yul\":17428:17607   */\n      iszero\n      tag_602\n      jumpi\n        /* \"#utility.yul\":17501:17510   */\n      dup5\n        /* \"#utility.yul\":17496:17499   */\n      dup10\n        /* \"#utility.yul\":17492:17511   */\n      add\n        /* \"#utility.yul\":17486:17512   */\n      mload\n        /* \"#utility.yul\":17544:17592   */\n      tag_603\n        /* \"#utility.yul\":17586:17590   */\n      0x1f\n        /* \"#utility.yul\":17578:17584   */\n      dup10\n        /* \"#utility.yul\":17574:17591   */\n      and\n        /* \"#utility.yul\":17563:17572   */\n      dup3\n        /* \"#utility.yul\":17544:17592   */\n      tag_396\n      jump\t// in\n    tag_603:\n        /* \"#utility.yul\":17536:17542   */\n      dup4\n        /* \"#utility.yul\":17529:17593   */\n      sstore\n        /* \"#utility.yul\":17451:17607   */\n      pop\n        /* \"#utility.yul\":17428:17607   */\n    tag_602:\n        /* \"#utility.yul\":17653:17654   */\n      0x01\n        /* \"#utility.yul\":17649:17650   */\n      0x02\n        /* \"#utility.yul\":17641:17647   */\n      dup9\n        /* \"#utility.yul\":17637:17651   */\n      mul\n        /* \"#utility.yul\":17633:17655   */\n      add\n        /* \"#utility.yul\":17627:17631   */\n      dup9\n        /* \"#utility.yul\":17620:17656   */\n      sstore\n        /* \"#utility.yul\":17055:17666   */\n      pop\n      pop\n      pop\n        /* \"#utility.yul\":17018:17905   */\n    tag_594:\n      pop\n        /* \"#utility.yul\":16608:17911   */\n      pop\n      pop\n      pop\n        /* \"#utility.yul\":16516:17911   */\n      pop\n      pop\n      jump\t// out\n        /* \"#utility.yul\":17917:18141   */\n    tag_398:\n        /* \"#utility.yul\":18057:18091   */\n      0x45524332303a2064656372656173656420616c6c6f77616e63652062656c6f77\n        /* \"#utility.yul\":18053:18054   */\n      0x00\n        /* \"#utility.yul\":18045:18051   */\n      dup3\n        /* \"#utility.yul\":18041:18055   */\n      add\n        /* \"#utility.yul\":18034:18092   */\n      mstore\n        /* \"#utility.yul\":18126:18133   */\n      0x207a65726f000000000000000000000000000000000000000000000000000000\n        /* \"#utility.yul\":18121:18123   */\n      0x20\n        /* \"#utility.yul\":18113:18119   */\n      dup3\n        /* \"#utility.yul\":18109:18124   */\n      add\n        /* \"#utility.yul\":18102:18134   */\n      mstore\n        /* \"#utility.yul\":17917:18141   */\n      pop\n      jump\t// out\n        /* \"#utility.yul\":18147:18513   */\n    tag_399:\n        /* \"#utility.yul\":18289:18292   */\n      0x00\n        /* \"#utility.yul\":18310:18377   */\n      tag_606\n        /* \"#utility.yul\":18374:18376   */\n      0x25\n        /* \"#utility.yul\":18369:18372   */\n      dup4\n        /* \"#utility.yul\":18310:18377   */\n      tag_347\n      jump\t// in\n    tag_606:\n        /* \"#utility.yul\":18303:18377   */\n      swap2\n      pop\n        /* \"#utility.yul\":18386:18479   */\n      tag_607\n        /* \"#utility.yul\":18475:18478   */\n      dup3\n        /* \"#utility.yul\":18386:18479   */\n      tag_398\n      jump\t// in\n    tag_607:\n        /* \"#utility.yul\":18504:18506   */\n      0x40\n        /* \"#utility.yul\":18499:18502   */\n      dup3\n        /* \"#utility.yul\":18495:18507   */\n      add\n        /* \"#utility.yul\":18488:18507   */\n      swap1\n      pop\n        /* \"#utility.yul\":18147:18513   */\n      swap2\n      swap1\n      pop\n      jump\t// out\n        /* \"#utility.yul\":18519:18938   */\n    tag_229:\n        /* \"#utility.yul\":18685:18689   */\n      0x00\n        /* \"#utility.yul\":18723:18725   */\n      0x20\n        /* \"#utility.yul\":18712:18721   */\n      dup3\n        /* \"#utility.yul\":18708:18726   */\n      add\n        /* \"#utility.yul\":18700:18726   */\n      swap1\n      pop\n        /* \"#utility.yul\":18772:18781   */\n      dup2\n        /* \"#utility.yul\":18766:18770   */\n      dup2\n        /* \"#utility.yul\":18762:18782   */\n      sub\n        /* \"#utility.yul\":18758:18759   */\n      0x00\n        /* \"#utility.yul\":18747:18756   */\n      dup4\n        /* \"#utility.yul\":18743:18760   */\n      add\n        /* \"#utility.yul\":18736:18783   */\n      mstore\n        /* \"#utility.yul\":18800:18931   */\n      tag_609\n        /* \"#utility.yul\":18926:18930   */\n      dup2\n        /* \"#utility.yul\":18800:18931   */\n      tag_399\n      jump\t// in\n    tag_609:\n        /* \"#utility.yul\":18792:18931   */\n      swap1\n      pop\n        /* \"#utility.yul\":18519:18938   */\n      swap2\n      swap1\n      pop\n      jump\t// out\n        /* \"#utility.yul\":18944:19138   */\n    tag_249:\n        /* \"#utility.yul\":18984:18988   */\n      0x00\n        /* \"#utility.yul\":19004:19024   */\n      tag_611\n        /* \"#utility.yul\":19022:19023   */\n      dup3\n        /* \"#utility.yul\":19004:19024   */\n      tag_358\n      jump\t// in\n    tag_611:\n        /* \"#utility.yul\":18999:19024   */\n      swap2\n      pop\n        /* \"#utility.yul\":19038:19058   */\n      tag_612\n        /* \"#utility.yul\":19056:19057   */\n      dup4\n        /* \"#utility.yul\":19038:19058   */\n      tag_358\n      jump\t// in\n    tag_612:\n        /* \"#utility.yul\":19033:19058   */\n      swap3\n      pop\n        /* \"#utility.yul\":19082:19083   */\n      dup3\n        /* \"#utility.yul\":19079:19080   */\n      dup3\n        /* \"#utility.yul\":19075:19084   */\n      sub\n        /* \"#utility.yul\":19067:19084   */\n      swap1\n      pop\n        /* \"#utility.yul\":19106:19107   */\n      dup2\n        /* \"#utility.yul\":19100:19104   */\n      dup2\n        /* \"#utility.yul\":19097:19108   */\n      gt\n        /* \"#utility.yul\":19094:19131   */\n      iszero\n      tag_613\n      jumpi\n        /* \"#utility.yul\":19111:19129   */\n      tag_614\n      tag_376\n      jump\t// in\n    tag_614:\n        /* \"#utility.yul\":19094:19131   */\n    tag_613:\n        /* \"#utility.yul\":18944:19138   */\n      swap3\n      swap2\n      pop\n      pop\n      jump\t// out\n        /* \"#utility.yul\":19144:19324   */\n    tag_252:\n        /* \"#utility.yul\":19192:19269   */\n      0x4e487b7100000000000000000000000000000000000000000000000000000000\n        /* \"#utility.yul\":19189:19190   */\n      0x00\n        /* \"#utility.yul\":19182:19270   */\n      mstore\n        /* \"#utility.yul\":19289:19293   */\n      0x32\n        /* \"#utility.yul\":19286:19287   */\n      0x04\n        /* \"#utility.yul\":19279:19294   */\n      mstore\n        /* \"#utility.yul\":19313:19317   */\n      0x24\n        /* \"#utility.yul\":19310:19311   */\n      0x00\n        /* \"#utility.yul\":19303:19318   */\n      revert\n        /* \"#utility.yul\":19330:19563   */\n    tag_254:\n        /* \"#utility.yul\":19369:19372   */\n      0x00\n        /* \"#utility.yul\":19392:19416   */\n      tag_617\n        /* \"#utility.yul\":19410:19415   */\n      dup3\n        /* \"#utility.yul\":19392:19416   */\n      tag_358\n      jump\t// in\n    tag_617:\n        /* \"#utility.yul\":19383:19416   */\n      swap2\n      pop\n        /* \"#utility.yul\":19438:19504   */\n      0xffffffffffffffffffffffffffffffffffffffffffffffffffffffffffffffff\n        /* \"#utility.yul\":19431:19436   */\n      dup3\n        /* \"#utility.yul\":19428:19505   */\n      sub\n        /* \"#utility.yul\":19425:19528   */\n      tag_618\n      jumpi\n        /* \"#utility.yul\":19508:19526   */\n      tag_619\n      tag_376\n      jump\t// in\n    tag_619:\n        /* \"#utility.yul\":19425:19528   */\n    tag_618:\n        /* \"#utility.yul\":19555:19556   */\n      0x01\n        /* \"#utility.yul\":19548:19553   */\n      dup3\n        /* \"#utility.yul\":19544:19557   */\n      add\n        /* \"#utility.yul\":19537:19557   */\n      swap1\n      pop\n        /* \"#utility.yul\":19330:19563   */\n      swap2\n      swap1\n      pop\n      jump\t// out\n        /* \"#utility.yul\":19569:19794   */\n    tag_400:\n        /* \"#utility.yul\":19709:19743   */\n      0x4f776e61626c653a206e6577206f776e657220697320746865207a65726f2061\n        /* \"#utility.yul\":19705:19706   */\n      0x00\n        /* \"#utility.yul\":19697:19703   */\n      dup3\n        /* \"#utility.yul\":19693:19707   */\n      add\n        /* \"#utility.yul\":19686:19744   */\n      mstore\n        /* \"#utility.yul\":19778:19786   */\n      0x6464726573730000000000000000000000000000000000000000000000000000\n        /* \"#utility.yul\":19773:19775   */\n      0x20\n        /* \"#utility.yul\":19765:19771   */\n      dup3\n        /* \"#utility.yul\":19761:19776   */\n      add\n        /* \"#utility.yul\":19754:19787   */\n      mstore\n        /* \"#utility.yul\":19569:19794   */\n      pop\n      jump\t// out\n        /* \"#utility.yul\":19800:20166   */\n    tag_401:\n        /* \"#utility.yul\":19942:19945   */\n      0x00\n        /* \"#utility.yul\":19963:20030   */\n      tag_622\n        /* \"#utility.yul\":20027:20029   */\n      0x26\n        /* \"#utility.yul\":20022:20025   */\n      dup4\n        /* \"#utility.yul\":19963:20030   */\n      tag_347\n      jump\t// in\n    tag_622:\n        /* \"#utility.yul\":19956:20030   */\n      swap2\n      pop\n        /* \"#utility.yul\":20039:20132   */\n      tag_623\n        /* \"#utility.yul\":20128:20131   */\n      dup3\n        /* \"#utility.yul\":20039:20132   */\n      tag_400\n      jump\t// in\n    tag_623:\n        /* \"#utility.yul\":20157:20159   */\n      0x40\n        /* \"#utility.yul\":20152:20155   */\n      dup3\n        /* \"#utility.yul\":20148:20160   */\n      add\n        /* \"#utility.yul\":20141:20160   */\n      swap1\n      pop\n        /* \"#utility.yul\":19800:20166   */\n      swap2\n      swap1\n      pop\n      jump\t// out\n        /* \"#utility.yul\":20172:20591   */\n    tag_279:\n        /* \"#utility.yul\":20338:20342   */\n      0x00\n        /* \"#utility.yul\":20376:20378   */\n      0x20\n        /* \"#utility.yul\":20365:20374   */\n      dup3\n        /* \"#utility.yul\":20361:20379   */\n      add\n        /* \"#utility.yul\":20353:20379   */\n      swap1\n      pop\n        /* \"#utility.yul\":20425:20434   */\n      dup2\n        /* \"#utility.yul\":20419:20423   */\n      dup2\n        /* \"#utility.yul\":20415:20435   */\n      sub\n        /* \"#utility.yul\":20411:20412   */\n      0x00\n        /* \"#utility.yul\":20400:20409   */\n      dup4\n        /* \"#utility.yul\":20396:20413   */\n      add\n        /* \"#utility.yul\":20389:20436   */\n      mstore\n        /* \"#utility.yul\":20453:20584   */\n      tag_625\n        /* \"#utility.yul\":20579:20583   */\n      dup2\n        /* \"#utility.yul\":20453:20584   */\n      tag_401\n      jump\t// in\n    tag_625:\n        /* \"#utility.yul\":20445:20584   */\n      swap1\n      pop\n        /* \"#utility.yul\":20172:20591   */\n      swap2\n      swap1\n      pop\n      jump\t// out\n        /* \"#utility.yul\":20597:20830   */\n    tag_402:\n        /* \"#utility.yul\":20737:20771   */\n      0x596f7520646f6e2774206861766520656e6f75676820446567656e20746f6b65\n        /* \"#utility.yul\":20733:20734   */\n      0x00\n        /* \"#utility.yul\":20725:20731   */\n      dup3\n        /* \"#utility.yul\":20721:20735   */\n      add\n        /* \"#utility.yul\":20714:20772   */\n      mstore\n        /* \"#utility.yul\":20806:20822   */\n      0x6e7320746f207472616e73666572000000000000000000000000000000000000\n        /* \"#utility.yul\":20801:20803   */\n      0x20\n        /* \"#utility.yul\":20793:20799   */\n      dup3\n        /* \"#utility.yul\":20789:20804   */\n      add\n        /* \"#utility.yul\":20782:20823   */\n      mstore\n        /* \"#utility.yul\":20597:20830   */\n      pop\n      jump\t// out\n        /* \"#utility.yul\":20836:21202   */\n    tag_403:\n        /* \"#utility.yul\":20978:20981   */\n      0x00\n        /* \"#utility.yul\":20999:21066   */\n      tag_628\n        /* \"#utility.yul\":21063:21065   */\n      0x2e\n        /* \"#utility.yul\":21058:21061   */\n      dup4\n        /* \"#utility.yul\":20999:21066   */\n      tag_347\n      jump\t// in\n    tag_628:\n        /* \"#utility.yul\":20992:21066   */\n      swap2\n      pop\n        /* \"#utility.yul\":21075:21168   */\n      tag_629\n        /* \"#utility.yul\":21164:21167   */\n      dup3\n        /* \"#utility.yul\":21075:21168   */\n      tag_402\n      jump\t// in\n    tag_629:\n        /* \"#utility.yul\":21193:21195   */\n      0x40\n        /* \"#utility.yul\":21188:21191   */\n      dup3\n        /* \"#utility.yul\":21184:21196   */\n      add\n        /* \"#utility.yul\":21177:21196   */\n      swap1\n      pop\n        /* \"#utility.yul\":20836:21202   */\n      swap2\n      swap1\n      pop\n      jump\t// out\n        /* \"#utility.yul\":21208:21627   */\n    tag_285:\n        /* \"#utility.yul\":21374:21378   */\n      0x00\n        /* \"#utility.yul\":21412:21414   */\n      0x20\n        /* \"#utility.yul\":21401:21410   */\n      dup3\n        /* \"#utility.yul\":21397:21415   */\n      add\n        /* \"#utility.yul\":21389:21415   */\n      swap1\n      pop\n        /* \"#utility.yul\":21461:21470   */\n      dup2\n        /* \"#utility.yul\":21455:21459   */\n      dup2\n        /* \"#utility.yul\":21451:21471   */\n      sub\n        /* \"#utility.yul\":21447:21448   */\n      0x00\n        /* \"#utility.yul\":21436:21445   */\n      dup4\n        /* \"#utility.yul\":21432:21449   */\n      add\n        /* \"#utility.yul\":21425:21472   */\n      mstore\n        /* \"#utility.yul\":21489:21620   */\n      tag_631\n        /* \"#utility.yul\":21615:21619   */\n      dup2\n        /* \"#utility.yul\":21489:21620   */\n      tag_403\n      jump\t// in\n    tag_631:\n        /* \"#utility.yul\":21481:21620   */\n      swap1\n      pop\n        /* \"#utility.yul\":21208:21627   */\n      swap2\n      swap1\n      pop\n      jump\t// out\n        /* \"#utility.yul\":21633:21856   */\n    tag_404:\n        /* \"#utility.yul\":21773:21807   */\n      0x45524332303a20617070726f76652066726f6d20746865207a65726f20616464\n        /* \"#utility.yul\":21769:21770   */\n      0x00\n        /* \"#utility.yul\":21761:21767   */\n      dup3\n        /* \"#utility.yul\":21757:21771   */\n      add\n        /* \"#utility.yul\":21750:21808   */\n      mstore\n        /* \"#utility.yul\":21842:21848   */\n      0x7265737300000000000000000000000000000000000000000000000000000000\n        /* \"#utility.yul\":21837:21839   */\n      0x20\n        /* \"#utility.yul\":21829:21835   */\n      dup3\n        /* \"#utility.yul\":21825:21840   */\n      add\n        /* \"#utility.yul\":21818:21849   */\n      mstore\n        /* \"#utility.yul\":21633:21856   */\n      pop\n      jump\t// out\n        /* \"#utility.yul\":21862:22228   */\n    tag_405:\n        /* \"#utility.yul\":22004:22007   */\n      0x00\n        /* \"#utility.yul\":22025:22092   */\n      tag_634\n        /* \"#utility.yul\":22089:22091   */\n      0x24\n        /* \"#utility.yul\":22084:22087   */\n      dup4\n        /* \"#utility.yul\":22025:22092   */\n      tag_347\n      jump\t// in\n    tag_634:\n        /* \"#utility.yul\":22018:22092   */\n      swap2\n      pop\n        /* \"#utility.yul\":22101:22194   */\n      tag_635\n        /* \"#utility.yul\":22190:22193   */\n      dup3\n        /* \"#utility.yul\":22101:22194   */\n      tag_404\n      jump\t// in\n    tag_635:\n        /* \"#utility.yul\":22219:22221   */\n      0x40\n        /* \"#utility.yul\":22214:22217   */\n      dup3\n        /* \"#utility.yul\":22210:22222   */\n      add\n        /* \"#utility.yul\":22203:22222   */\n      swap1\n      pop\n        /* \"#utility.yul\":21862:22228   */\n      swap2\n      swap1\n      pop\n      jump\t// out\n        /* \"#utility.yul\":22234:22653   */\n    tag_292:\n        /* \"#utility.yul\":22400:22404   */\n      0x00\n        /* \"#utility.yul\":22438:22440   */\n      0x20\n        /* \"#utility.yul\":22427:22436   */\n      dup3\n        /* \"#utility.yul\":22423:22441   */\n      add\n        /* \"#utility.yul\":22415:22441   */\n      swap1\n      pop\n        /* \"#utility.yul\":22487:22496   */\n      dup2\n        /* \"#utility.yul\":22481:22485   */\n      dup2\n        /* \"#utility.yul\":22477:22497   */\n      sub\n        /* \"#utility.yul\":22473:22474   */\n      0x00\n        /* \"#utility.yul\":22462:22471   */\n      dup4\n        /* \"#utility.yul\":22458:22475   */\n      add\n        /* \"#utility.yul\":22451:22498   */\n      mstore\n        /* \"#utility.yul\":22515:22646   */\n      tag_637\n        /* \"#utility.yul\":22641:22645   */\n      dup2\n        /* \"#utility.yul\":22515:22646   */\n      tag_405\n      jump\t// in\n    tag_637:\n        /* \"#utility.yul\":22507:22646   */\n      swap1\n      pop\n        /* \"#utility.yul\":22234:22653   */\n      swap2\n      swap1\n      pop\n      jump\t// out\n        /* \"#utility.yul\":22659:22880   */\n    tag_406:\n        /* \"#utility.yul\":22799:22833   */\n      0x45524332303a20617070726f766520746f20746865207a65726f206164647265\n        /* \"#utility.yul\":22795:22796   */\n      0x00\n        /* \"#utility.yul\":22787:22793   */\n      dup3\n        /* \"#utility.yul\":22783:22797   */\n      add\n        /* \"#utility.yul\":22776:22834   */\n      mstore\n        /* \"#utility.yul\":22868:22872   */\n      0x7373000000000000000000000000000000000000000000000000000000000000\n        /* \"#utility.yul\":22863:22865   */\n      0x20\n        /* \"#utility.yul\":22855:22861   */\n      dup3\n        /* \"#utility.yul\":22851:22866   */\n      add\n        /* \"#utility.yul\":22844:22873   */\n      mstore\n        /* \"#utility.yul\":22659:22880   */\n      pop\n      jump\t// out\n        /* \"#utility.yul\":22886:23252   */\n    tag_407:\n        /* \"#utility.yul\":23028:23031   */\n      0x00\n        /* \"#utility.yul\":23049:23116   */\n      tag_640\n        /* \"#utility.yul\":23113:23115   */\n      0x22\n        /* \"#utility.yul\":23108:23111   */\n      dup4\n        /* \"#utility.yul\":23049:23116   */\n      tag_347\n      jump\t// in\n    tag_640:\n        /* \"#utility.yul\":23042:23116   */\n      swap2\n      pop\n        /* \"#utility.yul\":23125:23218   */\n      tag_641\n        /* \"#utility.yul\":23214:23217   */\n      dup3\n        /* \"#utility.yul\":23125:23218   */\n      tag_406\n      jump\t// in\n    tag_641:\n        /* \"#utility.yul\":23243:23245   */\n      0x40\n        /* \"#utility.yul\":23238:23241   */\n      dup3\n        /* \"#utility.yul\":23234:23246   */\n      add\n        /* \"#utility.yul\":23227:23246   */\n      swap1\n      pop\n        /* \"#utility.yul\":22886:23252   */\n      swap2\n      swap1\n      pop\n      jump\t// out\n        /* \"#utility.yul\":23258:23677   */\n    tag_295:\n        /* \"#utility.yul\":23424:23428   */\n      0x00\n        /* \"#utility.yul\":23462:23464   */\n      0x20\n        /* \"#utility.yul\":23451:23460   */\n      dup3\n        /* \"#utility.yul\":23447:23465   */\n      add\n        /* \"#utility.yul\":23439:23465   */\n      swap1\n      pop\n        /* \"#utility.yul\":23511:23520   */\n      dup2\n        /* \"#utility.yul\":23505:23509   */\n      dup2\n        /* \"#utility.yul\":23501:23521   */\n      sub\n        /* \"#utility.yul\":23497:23498   */\n      0x00\n        /* \"#utility.yul\":23486:23495   */\n      dup4\n        /* \"#utility.yul\":23482:23499   */\n      add\n        /* \"#utility.yul\":23475:23522   */\n      mstore\n        /* \"#utility.yul\":23539:23670   */\n      tag_643\n        /* \"#utility.yul\":23665:23669   */\n      dup2\n        /* \"#utility.yul\":23539:23670   */\n      tag_407\n      jump\t// in\n    tag_643:\n        /* \"#utility.yul\":23531:23670   */\n      swap1\n      pop\n        /* \"#utility.yul\":23258:23677   */\n      swap2\n      swap1\n      pop\n      jump\t// out\n        /* \"#utility.yul\":23683:23862   */\n    tag_408:\n        /* \"#utility.yul\":23823:23854   */\n      0x45524332303a20696e73756666696369656e7420616c6c6f77616e6365000000\n        /* \"#utility.yul\":23819:23820   */\n      0x00\n        /* \"#utility.yul\":23811:23817   */\n      dup3\n        /* \"#utility.yul\":23807:23821   */\n      add\n        /* \"#utility.yul\":23800:23855   */\n      mstore\n        /* \"#utility.yul\":23683:23862   */\n      pop\n      jump\t// out\n        /* \"#utility.yul\":23868:24234   */\n    tag_409:\n        /* \"#utility.yul\":24010:24013   */\n      0x00\n        /* \"#utility.yul\":24031:24098   */\n      tag_646\n        /* \"#utility.yul\":24095:24097   */\n      0x1d\n        /* \"#utility.yul\":24090:24093   */\n      dup4\n        /* \"#utility.yul\":24031:24098   */\n      tag_347\n      jump\t// in\n    tag_646:\n        /* \"#utility.yul\":24024:24098   */\n      swap2\n      pop\n        /* \"#utility.yul\":24107:24200   */\n      tag_647\n        /* \"#utility.yul\":24196:24199   */\n      dup3\n        /* \"#utility.yul\":24107:24200   */\n      tag_408\n      jump\t// in\n    tag_647:\n        /* \"#utility.yul\":24225:24227   */\n      0x20\n        /* \"#utility.yul\":24220:24223   */\n      dup3\n        /* \"#utility.yul\":24216:24228   */\n      add\n        /* \"#utility.yul\":24209:24228   */\n      swap1\n      pop\n        /* \"#utility.yul\":23868:24234   */\n      swap2\n      swap1\n      pop\n      jump\t// out\n        /* \"#utility.yul\":24240:24659   */\n    tag_302:\n        /* \"#utility.yul\":24406:24410   */\n      0x00\n        /* \"#utility.yul\":24444:24446   */\n      0x20\n        /* \"#utility.yul\":24433:24442   */\n      dup3\n        /* \"#utility.yul\":24429:24447   */\n      add\n        /* \"#utility.yul\":24421:24447   */\n      swap1\n      pop\n        /* \"#utility.yul\":24493:24502   */\n      dup2\n        /* \"#utility.yul\":24487:24491   */\n      dup2\n        /* \"#utility.yul\":24483:24503   */\n      sub\n        /* \"#utility.yul\":24479:24480   */\n      0x00\n        /* \"#utility.yul\":24468:24477   */\n      dup4\n        /* \"#utility.yul\":24464:24481   */\n      add\n        /* \"#utility.yul\":24457:24504   */\n      mstore\n        /* \"#utility.yul\":24521:24652   */\n      tag_649\n        /* \"#utility.yul\":24647:24651   */\n      dup2\n        /* \"#utility.yul\":24521:24652   */\n      tag_409\n      jump\t// in\n    tag_649:\n        /* \"#utility.yul\":24513:24652   */\n      swap1\n      pop\n        /* \"#utility.yul\":24240:24659   */\n      swap2\n      swap1\n      pop\n      jump\t// out\n        /* \"#utility.yul\":24665:24889   */\n    tag_410:\n        /* \"#utility.yul\":24805:24839   */\n      0x45524332303a207472616e736665722066726f6d20746865207a65726f206164\n        /* \"#utility.yul\":24801:24802   */\n      0x00\n        /* \"#utility.yul\":24793:24799   */\n      dup3\n        /* \"#utility.yul\":24789:24803   */\n      add\n        /* \"#utility.yul\":24782:24840   */\n      mstore\n        /* \"#utility.yul\":24874:24881   */\n      0x6472657373000000000000000000000000000000000000000000000000000000\n        /* \"#utility.yul\":24869:24871   */\n      0x20\n        /* \"#utility.yul\":24861:24867   */\n      dup3\n        /* \"#utility.yul\":24857:24872   */\n      add\n        /* \"#utility.yul\":24850:24882   */\n      mstore\n        /* \"#utility.yul\":24665:24889   */\n      pop\n      jump\t// out\n        /* \"#utility.yul\":24895:25261   */\n    tag_411:\n        /* \"#utility.yul\":25037:25040   */\n      0x00\n        /* \"#utility.yul\":25058:25125   */\n      tag_652\n        /* \"#utility.yul\":25122:25124   */\n      0x25\n        /* \"#utility.yul\":25117:25120   */\n      dup4\n        /* \"#utility.yul\":25058:25125   */\n      tag_347\n      jump\t// in\n    tag_652:\n        /* \"#utility.yul\":25051:25125   */\n      swap2\n      pop\n        /* \"#utility.yul\":25134:25227   */\n      tag_653\n        /* \"#utility.yul\":25223:25226   */\n      dup3\n        /* \"#utility.yul\":25134:25227   */\n      tag_410\n      jump\t// in\n    tag_653:\n        /* \"#utility.yul\":25252:25254   */\n      0x40\n        /* \"#utility.yul\":25247:25250   */\n      dup3\n        /* \"#utility.yul\":25243:25255   */\n      add\n        /* \"#utility.yul\":25236:25255   */\n      swap1\n      pop\n        /* \"#utility.yul\":24895:25261   */\n      swap2\n      swap1\n      pop\n      jump\t// out\n        /* \"#utility.yul\":25267:25686   */\n    tag_307:\n        /* \"#utility.yul\":25433:25437   */\n      0x00\n        /* \"#utility.yul\":25471:25473   */\n      0x20\n        /* \"#utility.yul\":25460:25469   */\n      dup3\n        /* \"#utility.yul\":25456:25474   */\n      add\n        /* \"#utility.yul\":25448:25474   */\n      swap1\n      pop\n        /* \"#utility.yul\":25520:25529   */\n      dup2\n        /* \"#utility.yul\":25514:25518   */\n      dup2\n        /* \"#utility.yul\":25510:25530   */\n      sub\n        /* \"#utility.yul\":25506:25507   */\n      0x00\n        /* \"#utility.yul\":25495:25504   */\n      dup4\n        /* \"#utility.yul\":25491:25508   */\n      add\n        /* \"#utility.yul\":25484:25531   */\n      mstore\n        /* \"#utility.yul\":25548:25679   */\n      tag_655\n        /* \"#utility.yul\":25674:25678   */\n      dup2\n        /* \"#utility.yul\":25548:25679   */\n      tag_411\n      jump\t// in\n    tag_655:\n        /* \"#utility.yul\":25540:25679   */\n      swap1\n      pop\n        /* \"#utility.yul\":25267:25686   */\n      swap2\n      swap1\n      pop\n      jump\t// out\n        /* \"#utility.yul\":25692:25914   */\n    tag_412:\n        /* \"#utility.yul\":25832:25866   */\n      0x45524332303a207472616e7366657220746f20746865207a65726f2061646472\n        /* \"#utility.yul\":25828:25829   */\n      0x00\n        /* \"#utility.yul\":25820:25826   */\n      dup3\n        /* \"#utility.yul\":25816:25830   */\n      add\n        /* \"#utility.yul\":25809:25867   */\n      mstore\n        /* \"#utility.yul\":25901:25906   */\n      0x6573730000000000000000000000000000000000000000000000000000000000\n        /* \"#utility.yul\":25896:25898   */\n      0x20\n        /* \"#utility.yul\":25888:25894   */\n      dup3\n        /* \"#utility.yul\":25884:25899   */\n      add\n        /* \"#utility.yul\":25877:25907   */\n      mstore\n        /* \"#utility.yul\":25692:25914   */\n      pop\n      jump\t// out\n        /* \"#utility.yul\":25920:26286   */\n    tag_413:\n        /* \"#utility.yul\":26062:26065   */\n      0x00\n        /* \"#utility.yul\":26083:26150   */\n      tag_658\n        /* \"#utility.yul\":26147:26149   */\n      0x23\n        /* \"#utility.yul\":26142:26145   */\n      dup4\n        /* \"#utility.yul\":26083:26150   */\n      tag_347\n      jump\t// in\n    tag_658:\n        /* \"#utility.yul\":26076:26150   */\n      swap2\n      pop\n        /* \"#utility.yul\":26159:26252   */\n      tag_659\n        /* \"#utility.yul\":26248:26251   */\n      dup3\n        /* \"#utility.yul\":26159:26252   */\n      tag_412\n      jump\t// in\n    tag_659:\n        /* \"#utility.yul\":26277:26279   */\n      0x40\n        /* \"#utility.yul\":26272:26275   */\n      dup3\n        /* \"#utility.yul\":26268:26280   */\n      add\n        /* \"#utility.yul\":26261:26280   */\n      swap1\n      pop\n        /* \"#utility.yul\":25920:26286   */\n      swap2\n      swap1\n      pop\n      jump\t// out\n        /* \"#utility.yul\":26292:26711   */\n    tag_310:\n        /* \"#utility.yul\":26458:26462   */\n      0x00\n        /* \"#utility.yul\":26496:26498   */\n      0x20\n        /* \"#utility.yul\":26485:26494   */\n      dup3\n        /* \"#utility.yul\":26481:26499   */\n      add\n        /* \"#utility.yul\":26473:26499   */\n      swap1\n      pop\n        /* \"#utility.yul\":26545:26554   */\n      dup2\n        /* \"#utility.yul\":26539:26543   */\n      dup2\n        /* \"#utility.yul\":26535:26555   */\n      sub\n        /* \"#utility.yul\":26531:26532   */\n      0x00\n        /* \"#utility.yul\":26520:26529   */\n      dup4\n        /* \"#utility.yul\":26516:26533   */\n      add\n        /* \"#utility.yul\":26509:26556   */\n      mstore\n        /* \"#utility.yul\":26573:26704   */\n      tag_661\n        /* \"#utility.yul\":26699:26703   */\n      dup2\n        /* \"#utility.yul\":26573:26704   */\n      tag_413\n      jump\t// in\n    tag_661:\n        /* \"#utility.yul\":26565:26704   */\n      swap1\n      pop\n        /* \"#utility.yul\":26292:26711   */\n      swap2\n      swap1\n      pop\n      jump\t// out\n        /* \"#utility.yul\":26717:26942   */\n    tag_414:\n        /* \"#utility.yul\":26857:26891   */\n      0x45524332303a207472616e7366657220616d6f756e7420657863656564732062\n        /* \"#utility.yul\":26853:26854   */\n      0x00\n        /* \"#utility.yul\":26845:26851   */\n      dup3\n        /* \"#utility.yul\":26841:26855   */\n      add\n        /* \"#utility.yul\":26834:26892   */\n      mstore\n        /* \"#utility.yul\":26926:26934   */\n      0x616c616e63650000000000000000000000000000000000000000000000000000\n        /* \"#utility.yul\":26921:26923   */\n      0x20\n        /* \"#utility.yul\":26913:26919   */\n      dup3\n        /* \"#utility.yul\":26909:26924   */\n      add\n        /* \"#utility.yul\":26902:26935   */\n      mstore\n        /* \"#utility.yul\":26717:26942   */\n      pop\n      jump\t// out\n        /* \"#utility.yul\":26948:27314   */\n    tag_415:\n        /* \"#utility.yul\":27090:27093   */\n      0x00\n        /* \"#utility.yul\":27111:27178   */\n      tag_664\n        /* \"#utility.yul\":27175:27177   */\n      0x26\n        /* \"#utility.yul\":27170:27173   */\n      dup4\n        /* \"#utility.yul\":27111:27178   */\n      tag_347\n      jump\t// in\n    tag_664:\n        /* \"#utility.yul\":27104:27178   */\n      swap2\n      pop\n        /* \"#utility.yul\":27187:27280   */\n      tag_665\n        /* \"#utility.yul\":27276:27279   */\n      dup3\n        /* \"#utility.yul\":27187:27280   */\n      tag_414\n      jump\t// in\n    tag_665:\n        /* \"#utility.yul\":27305:27307   */\n      0x40\n        /* \"#utility.yul\":27300:27303   */\n      dup3\n        /* \"#utility.yul\":27296:27308   */\n      add\n        /* \"#utility.yul\":27289:27308   */\n      swap1\n      pop\n        /* \"#utility.yul\":26948:27314   */\n      swap2\n      swap1\n      pop\n      jump\t// out\n        /* \"#utility.yul\":27320:27739   */\n    tag_315:\n        /* \"#utility.yul\":27486:27490   */\n      0x00\n        /* \"#utility.yul\":27524:27526   */\n      0x20\n        /* \"#utility.yul\":27513:27522   */\n      dup3\n        /* \"#utility.yul\":27509:27527   */\n      add\n        /* \"#utility.yul\":27501:27527   */\n      swap1\n      pop\n        /* \"#utility.yul\":27573:27582   */\n      dup2\n        /* \"#utility.yul\":27567:27571   */\n      dup2\n        /* \"#utility.yul\":27563:27583   */\n      sub\n        /* \"#utility.yul\":27559:27560   */\n      0x00\n        /* \"#utility.yul\":27548:27557   */\n      dup4\n        /* \"#utility.yul\":27544:27561   */\n      add\n        /* \"#utility.yul\":27537:27584   */\n      mstore\n        /* \"#utility.yul\":27601:27732   */\n      tag_667\n        /* \"#utility.yul\":27727:27731   */\n      dup2\n        /* \"#utility.yul\":27601:27732   */\n      tag_415\n      jump\t// in\n    tag_667:\n        /* \"#utility.yul\":27593:27732   */\n      swap1\n      pop\n        /* \"#utility.yul\":27320:27739   */\n      swap2\n      swap1\n      pop\n      jump\t// out\n        /* \"#utility.yul\":27745:27927   */\n    tag_416:\n        /* \"#utility.yul\":27885:27919   */\n      0x4f776e61626c653a2063616c6c6572206973206e6f7420746865206f776e6572\n        /* \"#utility.yul\":27881:27882   */\n      0x00\n        /* \"#utility.yul\":27873:27879   */\n      dup3\n        /* \"#utility.yul\":27869:27883   */\n      add\n        /* \"#utility.yul\":27862:27920   */\n      mstore\n        /* \"#utility.yul\":27745:27927   */\n      pop\n      jump\t// out\n        /* \"#utility.yul\":27933:28299   */\n    tag_417:\n        /* \"#utility.yul\":28075:28078   */\n      0x00\n        /* \"#utility.yul\":28096:28163   */\n      tag_670\n        /* \"#utility.yul\":28160:28162   */\n      0x20\n        /* \"#utility.yul\":28155:28158   */\n      dup4\n        /* \"#utility.yul\":28096:28163   */\n      tag_347\n      jump\t// in\n    tag_670:\n        /* \"#utility.yul\":28089:28163   */\n      swap2\n      pop\n        /* \"#utility.yul\":28172:28265   */\n      tag_671\n        /* \"#utility.yul\":28261:28264   */\n      dup3\n        /* \"#utility.yul\":28172:28265   */\n      tag_416\n      jump\t// in\n    tag_671:\n        /* \"#utility.yul\":28290:28292   */\n      0x20\n        /* \"#utility.yul\":28285:28288   */\n      dup3\n        /* \"#utility.yul\":28281:28293   */\n      add\n        /* \"#utility.yul\":28274:28293   */\n      swap1\n      pop\n        /* \"#utility.yul\":27933:28299   */\n      swap2\n      swap1\n      pop\n      jump\t// out\n        /* \"#utility.yul\":28305:28724   */\n    tag_324:\n        /* \"#utility.yul\":28471:28475   */\n      0x00\n        /* \"#utility.yul\":28509:28511   */\n      0x20\n        /* \"#utility.yul\":28498:28507   */\n      dup3\n        /* \"#utility.yul\":28494:28512   */\n      add\n        /* \"#utility.yul\":28486:28512   */\n      swap1\n      pop\n        /* \"#utility.yul\":28558:28567   */\n      dup2\n        /* \"#utility.yul\":28552:28556   */\n      dup2\n        /* \"#utility.yul\":28548:28568   */\n      sub\n        /* \"#utility.yul\":28544:28545   */\n      0x00\n        /* \"#utility.yul\":28533:28542   */\n      dup4\n        /* \"#utility.yul\":28529:28546   */\n      add\n        /* \"#utility.yul\":28522:28569   */\n      mstore\n        /* \"#utility.yul\":28586:28717   */\n      tag_673\n        /* \"#utility.yul\":28712:28716   */\n      dup2\n        /* \"#utility.yul\":28586:28717   */\n      tag_417\n      jump\t// in\n    tag_673:\n        /* \"#utility.yul\":28578:28717   */\n      swap1\n      pop\n        /* \"#utility.yul\":28305:28724   */\n      swap2\n      swap1\n      pop\n      jump\t// out\n        /* \"#utility.yul\":28730:28911   */\n    tag_418:\n        /* \"#utility.yul\":28870:28903   */\n      0x45524332303a206d696e7420746f20746865207a65726f206164647265737300\n        /* \"#utility.yul\":28866:28867   */\n      0x00\n        /* \"#utility.yul\":28858:28864   */\n      dup3\n        /* \"#utility.yul\":28854:28868   */\n      add\n        /* \"#utility.yul\":28847:28904   */\n      mstore\n        /* \"#utility.yul\":28730:28911   */\n      pop\n      jump\t// out\n        /* \"#utility.yul\":28917:29283   */\n    tag_419:\n        /* \"#utility.yul\":29059:29062   */\n      0x00\n        /* \"#utility.yul\":29080:29147   */\n      tag_676\n        /* \"#utility.yul\":29144:29146   */\n      0x1f\n        /* \"#utility.yul\":29139:29142   */\n      dup4\n        /* \"#utility.yul\":29080:29147   */\n      tag_347\n      jump\t// in\n    tag_676:\n        /* \"#utility.yul\":29073:29147   */\n      swap2\n      pop\n        /* \"#utility.yul\":29156:29249   */\n      tag_677\n        /* \"#utility.yul\":29245:29248   */\n      dup3\n        /* \"#utility.yul\":29156:29249   */\n      tag_418\n      jump\t// in\n    tag_677:\n        /* \"#utility.yul\":29274:29276   */\n      0x20\n        /* \"#utility.yul\":29269:29272   */\n      dup3\n        /* \"#utility.yul\":29265:29277   */\n      add\n        /* \"#utility.yul\":29258:29277   */\n      swap1\n      pop\n        /* \"#utility.yul\":28917:29283   */\n      swap2\n      swap1\n      pop\n      jump\t// out\n        /* \"#utility.yul\":29289:29708   */\n    tag_328:\n        /* \"#utility.yul\":29455:29459   */\n      0x00\n        /* \"#utility.yul\":29493:29495   */\n      0x20\n        /* \"#utility.yul\":29482:29491   */\n      dup3\n        /* \"#utility.yul\":29478:29496   */\n      add\n        /* \"#utility.yul\":29470:29496   */\n      swap1\n      pop\n        /* \"#utility.yul\":29542:29551   */\n      dup2\n        /* \"#utility.yul\":29536:29540   */\n      dup2\n        /* \"#utility.yul\":29532:29552   */\n      sub\n        /* \"#utility.yul\":29528:29529   */\n      0x00\n        /* \"#utility.yul\":29517:29526   */\n      dup4\n        /* \"#utility.yul\":29513:29530   */\n      add\n        /* \"#utility.yul\":29506:29553   */\n      mstore\n        /* \"#utility.yul\":29570:29701   */\n      tag_679\n        /* \"#utility.yul\":29696:29700   */\n      dup2\n        /* \"#utility.yul\":29570:29701   */\n      tag_419\n      jump\t// in\n    tag_679:\n        /* \"#utility.yul\":29562:29701   */\n      swap1\n      pop\n        /* \"#utility.yul\":29289:29708   */\n      swap2\n      swap1\n      pop\n      jump\t// out\n        /* \"#utility.yul\":29714:29934   */\n    tag_420:\n        /* \"#utility.yul\":29854:29888   */\n      0x45524332303a206275726e2066726f6d20746865207a65726f20616464726573\n        /* \"#utility.yul\":29850:29851   */\n      0x00\n        /* \"#utility.yul\":29842:29848   */\n      dup3\n        /* \"#utility.yul\":29838:29852   */\n      add\n        /* \"#utility.yul\":29831:29889   */\n      mstore\n        /* \"#utility.yul\":29923:29926   */\n      0x7300000000000000000000000000000000000000000000000000000000000000\n        /* \"#utility.yul\":29918:29920   */\n      0x20\n        /* \"#utility.yul\":29910:29916   */\n      dup3\n        /* \"#utility.yul\":29906:29921   */\n      add\n        /* \"#utility.yul\":29899:29927   */\n      mstore\n        /* \"#utility.yul\":29714:29934   */\n      pop\n      jump\t// out\n        /* \"#utility.yul\":29940:30306   */\n    tag_421:\n        /* \"#utility.yul\":30082:30085   */\n      0x00\n        /* \"#utility.yul\":30103:30170   */\n      tag_682\n        /* \"#utility.yul\":30167:30169   */\n      0x21\n        /* \"#utility.yul\":30162:30165   */\n      dup4\n        /* \"#utility.yul\":30103:30170   */\n      tag_347\n      jump\t// in\n    tag_682:\n        /* \"#utility.yul\":30096:30170   */\n      swap2\n      pop\n        /* \"#utility.yul\":30179:30272   */\n      tag_683\n        /* \"#utility.yul\":30268:30271   */\n      dup3\n        /* \"#utility.yul\":30179:30272   */\n      tag_420\n      jump\t// in\n    tag_683:\n        /* \"#utility.yul\":30297:30299   */\n      0x40\n        /* \"#utility.yul\":30292:30295   */\n      dup3\n        /* \"#utility.yul\":30288:30300   */\n      add\n        /* \"#utility.yul\":30281:30300   */\n      swap1\n      pop\n        /* \"#utility.yul\":29940:30306   */\n      swap2\n      swap1\n      pop\n      jump\t// out\n        /* \"#utility.yul\":30312:30731   */\n    tag_336:\n        /* \"#utility.yul\":30478:30482   */\n      0x00\n        /* \"#utility.yul\":30516:30518   */\n      0x20\n        /* \"#utility.yul\":30505:30514   */\n      dup3\n        /* \"#utility.yul\":30501:30519   */\n      add\n        /* \"#utility.yul\":30493:30519   */\n      swap1\n      pop\n        /* \"#utility.yul\":30565:30574   */\n      dup2\n        /* \"#utility.yul\":30559:30563   */\n      dup2\n        /* \"#utility.yul\":30555:30575   */\n      sub\n        /* \"#utility.yul\":30551:30552   */\n      0x00\n        /* \"#utility.yul\":30540:30549   */\n      dup4\n        /* \"#utility.yul\":30536:30553   */\n      add\n        /* \"#utility.yul\":30529:30576   */\n      mstore\n        /* \"#utility.yul\":30593:30724   */\n      tag_685\n        /* \"#utility.yul\":30719:30723   */\n      dup2\n        /* \"#utility.yul\":30593:30724   */\n      tag_421\n      jump\t// in\n    tag_685:\n        /* \"#utility.yul\":30585:30724   */\n      swap1\n      pop\n        /* \"#utility.yul\":30312:30731   */\n      swap2\n      swap1\n      pop\n      jump\t// out\n        /* \"#utility.yul\":30737:30958   */\n    tag_422:\n        /* \"#utility.yul\":30877:30911   */\n      0x45524332303a206275726e20616d6f756e7420657863656564732062616c616e\n        /* \"#utility.yul\":30873:30874   */\n      0x00\n        /* \"#utility.yul\":30865:30871   */\n      dup3\n        /* \"#utility.yul\":30861:30875   */\n      add\n        /* \"#utility.yul\":30854:30912   */\n      mstore\n        /* \"#utility.yul\":30946:30950   */\n      0x6365000000000000000000000000000000000000000000000000000000000000\n        /* \"#utility.yul\":30941:30943   */\n      0x20\n        /* \"#utility.yul\":30933:30939   */\n      dup3\n        /* \"#utility.yul\":30929:30944   */\n      add\n        /* \"#utility.yul\":30922:30951   */\n      mstore\n        /* \"#utility.yul\":30737:30958   */\n      pop\n      jump\t// out\n        /* \"#utility.yul\":30964:31330   */\n    tag_423:\n        /* \"#utility.yul\":31106:31109   */\n      0x00\n        /* \"#utility.yul\":31127:31194   */\n      tag_688\n        /* \"#utility.yul\":31191:31193   */\n      0x22\n        /* \"#utility.yul\":31186:31189   */\n      dup4\n        /* \"#utility.yul\":31127:31194   */\n      tag_347\n      jump\t// in\n    tag_688:\n        /* \"#utility.yul\":31120:31194   */\n      swap2\n      pop\n        /* \"#utility.yul\":31203:31296   */\n      tag_689\n        /* \"#utility.yul\":31292:31295   */\n      dup3\n        /* \"#utility.yul\":31203:31296   */\n      tag_422\n      jump\t// in\n    tag_689:\n        /* \"#utility.yul\":31321:31323   */\n      0x40\n        /* \"#utility.yul\":31316:31319   */\n      dup3\n        /* \"#utility.yul\":31312:31324   */\n      add\n        /* \"#utility.yul\":31305:31324   */\n      swap1\n      pop\n        /* \"#utility.yul\":30964:31330   */\n      swap2\n      swap1\n      pop\n      jump\t// out\n        /* \"#utility.yul\":31336:31755   */\n    tag_340:\n        /* \"#utility.yul\":31502:31506   */\n      0x00\n        /* \"#utility.yul\":31540:31542   */\n      0x20\n        /* \"#utility.yul\":31529:31538   */\n      dup3\n        /* \"#utility.yul\":31525:31543   */\n      add\n        /* \"#utility.yul\":31517:31543   */\n      swap1\n      pop\n        /* \"#utility.yul\":31589:31598   */\n      dup2\n        /* \"#utility.yul\":31583:31587   */\n      dup2\n        /* \"#utility.yul\":31579:31599   */\n      sub\n        /* \"#utility.yul\":31575:31576   */\n      0x00\n        /* \"#utility.yul\":31564:31573   */\n      dup4\n        /* \"#utility.yul\":31560:31577   */\n      add\n        /* \"#utility.yul\":31553:31600   */\n      mstore\n        /* \"#utility.yul\":31617:31748   */\n      tag_691\n        /* \"#utility.yul\":31743:31747   */\n      dup2\n        /* \"#utility.yul\":31617:31748   */\n      tag_423\n      jump\t// in\n    tag_691:\n        /* \"#utility.yul\":31609:31748   */\n      swap1\n      pop\n        /* \"#utility.yul\":31336:31755   */\n      swap2\n      swap1\n      pop\n      jump\t// out\n\n    auxdata: 0xa2646970667358221220fca35772fde5c06e2e5be94ace648ff4d4b45d329c74617a6bc9e2d1b0828ce864736f6c634300081a0033\n}\n",
				"bytecode": {
					"linkReferences": {},
					"object": "608060405234801561000f575f80fd5b506040518060400160405280600b81526020017f446567656e20546f6b656e0000000000000000000000000000000000000000008152506040518060400160405280600581526020017f444547454e000000000000000000000000000000000000000000000000000000815250816003908161008b91906107bb565b50806004908161009b91906107bb565b5050506100ba6100af6104b760201b60201c565b6104be60201b60201c565b60405180604001604052806040518060400160405280601381526020017f4e46543a204275676174746920436869726f6e00000000000000000000000000815250815260200161213481525060065f600181526020019081526020015f205f820151815f01908161012b91906107bb565b506020820151816001015590505060405180604001604052806040518060400160405280601a81526020017f4e46543a204c616d626f726768696e69204176656e7461646f7200000000000081525081526020016107d081525060065f600281526020019081526020015f205f820151815f0190816101aa91906107bb565b506020820151816001015590505060405180604001604052806040518060400160405280601681526020017f4e46543a2046657272617269204c6146657272617269000000000000000000008152508152602001610bb881525060065f600381526020019081526020015f205f820151815f01908161022991906107bb565b506020820151816001015590505060405180604001604052806040518060400160405280601881526020017f4e46543a20526f6c6c732d526f796365205068616e746f6d0000000000000000815250815260200161138881525060065f600481526020019081526020015f205f820151815f0190816102a891906107bb565b506020820151816001015590505060405180604001604052806040518060400160405280601a81526020017f4e46543a204173746f6e204d617274696e2056616c6b79726965000000000000815250815260200161177081525060065f600581526020019081526020015f205f820151815f01908161032791906107bb565b506020820151816001015590505060405180604001604052806040518060400160405280600f81526020017f4e46543a204d634c6172656e2050310000000000000000000000000000000000815250815260200161177081525060065f600681526020019081526020015f205f820151815f0190816103a691906107bb565b506020820151816001015590505060405180604001604052806040518060400160405280601581526020017f4e46543a204b6f656e696773656767204a65736b6f00000000000000000000008152508152602001611b5881525060065f600781526020019081526020015f205f820151815f01908161042591906107bb565b506020820151816001015590505060405180604001604052806040518060400160405280601281526020017f4e46543a20506167616e692048756179726100000000000000000000000000008152508152602001611f4081525060065f600881526020019081526020015f205f820151815f0190816104a491906107bb565b506020820151816001015590505061088a565b5f33905090565b5f60055f9054906101000a900473ffffffffffffffffffffffffffffffffffffffff1690508160055f6101000a81548173ffffffffffffffffffffffffffffffffffffffff021916908373ffffffffffffffffffffffffffffffffffffffff1602179055508173ffffffffffffffffffffffffffffffffffffffff168173ffffffffffffffffffffffffffffffffffffffff167f8be0079c531659141344cd1fd0a4f28419497f9722a3daafe3b4186f6b6457e060405160405180910390a35050565b5f81519050919050565b7f4e487b71000000000000000000000000000000000000000000000000000000005f52604160045260245ffd5b7f4e487b71000000000000000000000000000000000000000000000000000000005f52602260045260245ffd5b5f60028204905060018216806105fc57607f821691505b60208210810361060f5761060e6105b8565b5b50919050565b5f819050815f5260205f209050919050565b5f6020601f8301049050919050565b5f82821b905092915050565b5f600883026106717fffffffffffffffffffffffffffffffffffffffffffffffffffffffffffffffff82610636565b61067b8683610636565b95508019841693508086168417925050509392505050565b5f819050919050565b5f819050919050565b5f6106bf6106ba6106b584610693565b61069c565b610693565b9050919050565b5f819050919050565b6106d8836106a5565b6106ec6106e4826106c6565b848454610642565b825550505050565b5f90565b6107006106f4565b61070b8184846106cf565b505050565b5b8181101561072e576107235f826106f8565b600181019050610711565b5050565b601f8211156107735761074481610615565b61074d84610627565b8101602085101561075c578190505b61077061076885610627565b830182610710565b50505b505050565b5f82821c905092915050565b5f6107935f1984600802610778565b1980831691505092915050565b5f6107ab8383610784565b9150826002028217905092915050565b6107c482610581565b67ffffffffffffffff8111156107dd576107dc61058b565b5b6107e782546105e5565b6107f2828285610732565b5f60209050601f831160018114610823575f8415610811578287015190505b61081b85826107a0565b865550610882565b601f19841661083186610615565b5f5b8281101561085857848901518255600182019150602085019450602081019050610833565b868310156108755784890151610871601f891682610784565b8355505b6001600288020188555050505b505050505050565b612b26806108975f395ff3fe60806040526004361061013f575f3560e01c806370a08231116100b5578063a9059cbb1161006e578063a9059cbb14610479578063a9d0e2e5146104b5578063acc8b146146104df578063dd62ed3e1461051b578063f2fde38b14610557578063f5537ede1461057f5761013f565b806370a082311461037b578063715018a6146103b7578063830cbbbd146103cd5780638da5cb5b146103e957806395d89b4114610413578063a457c2d71461043d5761013f565b8063313ce56711610107578063313ce5671461024b57806339509351146102755780633dfcf101146102b157806340c10f19146102ee578063428a61711461031657806342966c68146103535761013f565b806306fdde0314610143578063095ea7b31461016d5780630e63afed146101a957806318160ddd146101e557806323b872dd1461020f575b5f80fd5b34801561014e575f80fd5b506101576105a7565b6040516101649190611ad0565b60405180910390f35b348015610178575f80fd5b50610193600480360381019061018e9190611b81565b610637565b6040516101a09190611bd9565b60405180910390f35b3480156101b4575f80fd5b506101cf60048036038101906101ca9190611b81565b610659565b6040516101dc9190611c01565b60405180910390f35b3480156101f0575f80fd5b506101f9610679565b6040516102069190611c01565b60405180910390f35b34801561021a575f80fd5b5061023560048036038101906102309190611c1a565b610682565b6040516102429190611bd9565b60405180910390f35b348015610256575f80fd5b5061025f6106b0565b60405161026c9190611c85565b60405180910390f35b348015610280575f80fd5b5061029b60048036038101906102969190611b81565b6106b8565b6040516102a89190611bd9565b60405180910390f35b3480156102bc575f80fd5b506102d760048036038101906102d29190611c9e565b6106ee565b6040516102e5929190611cc9565b60405180910390f35b3480156102f9575f80fd5b50610314600480360381019061030f9190611b81565b610794565b005b348015610321575f80fd5b5061033c60048036038101906103379190611b81565b6107aa565b60405161034a929190611cc9565b60405180910390f35b34801561035e575f80fd5b5061037960048036038101906103749190611c9e565b61086a565b005b348015610386575f80fd5b506103a1600480360381019061039c9190611cf7565b6108c2565b6040516103ae9190611c01565b60405180910390f35b3480156103c2575f80fd5b506103cb610907565b005b6103e760048036038101906103e29190611b81565b61091a565b005b3480156103f4575f80fd5b506103fd610b8e565b60405161040a9190611d31565b60405180910390f35b34801561041e575f80fd5b50610427610bb6565b6040516104349190611ad0565b60405180910390f35b348015610448575f80fd5b50610463600480360381019061045e9190611b81565b610c46565b6040516104709190611bd9565b60405180910390f35b348015610484575f80fd5b5061049f600480360381019061049a9190611b81565b610cbb565b6040516104ac9190611bd9565b60405180910390f35b3480156104c0575f80fd5b506104c9610cdd565b6040516104d69190611e4d565b60405180910390f35b3480156104ea575f80fd5b5061050560048036038101906105009190611cf7565b610e1e565b6040516105129190611e4d565b60405180910390f35b348015610526575f80fd5b50610541600480360381019061053c9190611e6d565b610fd9565b60405161054e9190611c01565b60405180910390f35b348015610562575f80fd5b5061057d60048036038101906105789190611cf7565b61105b565b005b34801561058a575f80fd5b506105a560048036038101906105a09190611c1a565b6110dd565b005b6060600380546105b690611ed8565b80601f01602080910402602001604051908101604052809291908181526020018280546105e290611ed8565b801561062d5780601f106106045761010080835404028352916020019161062d565b820191905f5260205f20905b81548152906001019060200180831161061057829003601f168201915b5050505050905090565b5f80610641611143565b905061064e81858561114a565b600191505092915050565b6007602052815f5260405f20602052805f5260405f205f91509150505481565b5f600254905090565b5f8061068c611143565b905061069985828561130d565b6106a4858585611398565b60019150509392505050565b5f6012905090565b5f806106c2611143565b90506106e38185856106d48589610fd9565b6106de9190611f35565b61114a565b600191505092915050565b6006602052805f5260405f205f91509050805f01805461070d90611ed8565b80601f016020809104026020016040519081016040528092919081815260200182805461073990611ed8565b80156107845780601f1061075b57610100808354040283529160200191610784565b820191905f5260205f20905b81548152906001019060200180831161076757829003601f168201915b5050505050908060010154905082565b61079c611604565b6107a68282611682565b5050565b6008602052815f5260405f2081815481106107c3575f80fd5b905f5260205f2090600202015f9150915050805f0180546107e390611ed8565b80601f016020809104026020016040519081016040528092919081815260200182805461080f90611ed8565b801561085a5780601f106108315761010080835404028352916020019161085a565b820191905f5260205f20905b81548152906001019060200180831161083d57829003601f168201915b5050505050908060010154905082565b80610874336108c2565b10156108b5576040517f08c379a00000000000000000000000000000000000000000000000000000000081526004016108ac90611fd8565b60405180910390fd5b6108bf33826117d0565b50565b5f805f8373ffffffffffffffffffffffffffffffffffffffff1673ffffffffffffffffffffffffffffffffffffffff1681526020019081526020015f20549050919050565b61090f611604565b6109185f611993565b565b610923826108c2565b60065f8381526020019081526020015f20600101541115610979576040517f08c379a000000000000000000000000000000000000000000000000000000000815260040161097090612040565b60405180910390fd5b60065f8281526020019081526020015f2060010154610997836108c2565b10156109d8576040517f08c379a00000000000000000000000000000000000000000000000000000000081526004016109cf906120ce565b60405180910390fd5b6109f68260065f8481526020019081526020015f20600101546117d0565b600160075f8473ffffffffffffffffffffffffffffffffffffffff1673ffffffffffffffffffffffffffffffffffffffff1681526020019081526020015f205f8381526020019081526020015f205f828254610a529190611f35565b9250508190555060085f8373ffffffffffffffffffffffffffffffffffffffff1673ffffffffffffffffffffffffffffffffffffffff1681526020019081526020015f20604051806040016040528060065f8581526020019081526020015f205f018054610abf90611ed8565b80601f0160208091040260200160405190810160405280929190818152602001828054610aeb90611ed8565b8015610b365780601f10610b0d57610100808354040283529160200191610b36565b820191905f5260205f20905b815481529060010190602001808311610b1957829003601f168201915b5050505050815260200183815250908060018154018082558091505060019003905f5260205f2090600202015f909190919091505f820151815f019081610b7d91906122b6565b506020820151816001015550505050565b5f60055f9054906101000a900473ffffffffffffffffffffffffffffffffffffffff16905090565b606060048054610bc590611ed8565b80601f0160208091040260200160405190810160405280929190818152602001828054610bf190611ed8565b8015610c3c5780601f10610c1357610100808354040283529160200191610c3c565b820191905f5260205f20905b815481529060010190602001808311610c1f57829003601f168201915b5050505050905090565b5f80610c50611143565b90505f610c5d8286610fd9565b905083811015610ca2576040517f08c379a0000000000000000000000000000000000000000000000000000000008152600401610c99906123f5565b60405180910390fd5b610caf828686840361114a565b60019250505092915050565b5f80610cc5611143565b9050610cd2818585611398565b600191505092915050565b60605f600867ffffffffffffffff811115610cfb57610cfa6120ec565b5b604051908082528060200260200182016040528015610d2e57816020015b6060815260200190600190039081610d195790505b5090505f600190505b60088111610e165760065f8281526020019081526020015f205f018054610d5d90611ed8565b80601f0160208091040260200160405190810160405280929190818152602001828054610d8990611ed8565b8015610dd45780601f10610dab57610100808354040283529160200191610dd4565b820191905f5260205f20905b815481529060010190602001808311610db757829003601f168201915b505050505082600183610de79190612413565b81518110610df857610df7612446565b5b60200260200101819052508080610e0e90612473565b915050610d37565b508091505090565b60605f60085f8473ffffffffffffffffffffffffffffffffffffffff1673ffffffffffffffffffffffffffffffffffffffff1681526020019081526020015f208054905090505f8167ffffffffffffffff811115610e7f57610e7e6120ec565b5b604051908082528060200260200182016040528015610eb257816020015b6060815260200190600190039081610e9d5790505b5090505f5b82811015610fce5760085f8673ffffffffffffffffffffffffffffffffffffffff1673ffffffffffffffffffffffffffffffffffffffff1681526020019081526020015f208181548110610f0e57610f0d612446565b5b905f5260205f2090600202015f018054610f2790611ed8565b80601f0160208091040260200160405190810160405280929190818152602001828054610f5390611ed8565b8015610f9e5780601f10610f7557610100808354040283529160200191610f9e565b820191905f5260205f20905b815481529060010190602001808311610f8157829003601f168201915b5050505050828281518110610fb657610fb5612446565b5b60200260200101819052508080600101915050610eb7565b508092505050919050565b5f60015f8473ffffffffffffffffffffffffffffffffffffffff1673ffffffffffffffffffffffffffffffffffffffff1681526020019081526020015f205f8373ffffffffffffffffffffffffffffffffffffffff1673ffffffffffffffffffffffffffffffffffffffff1681526020019081526020015f2054905092915050565b611063611604565b5f73ffffffffffffffffffffffffffffffffffffffff168173ffffffffffffffffffffffffffffffffffffffff16036110d1576040517f08c379a00000000000000000000000000000000000000000000000000000000081526004016110c89061252a565b60405180910390fd5b6110da81611993565b50565b806110e7846108c2565b1015611128576040517f08c379a000000000000000000000000000000000000000000000000000000000815260040161111f906125b8565b60405180910390fd5b6111328382610637565b5061113e838383611398565b505050565b5f33905090565b5f73ffffffffffffffffffffffffffffffffffffffff168373ffffffffffffffffffffffffffffffffffffffff16036111b8576040517f08c379a00000000000000000000000000000000000000000000000000000000081526004016111af90612646565b60405180910390fd5b5f73ffffffffffffffffffffffffffffffffffffffff168273ffffffffffffffffffffffffffffffffffffffff1603611226576040517f08c379a000000000000000000000000000000000000000000000000000000000815260040161121d906126d4565b60405180910390fd5b8060015f8573ffffffffffffffffffffffffffffffffffffffff1673ffffffffffffffffffffffffffffffffffffffff1681526020019081526020015f205f8473ffffffffffffffffffffffffffffffffffffffff1673ffffffffffffffffffffffffffffffffffffffff1681526020019081526020015f20819055508173ffffffffffffffffffffffffffffffffffffffff168373ffffffffffffffffffffffffffffffffffffffff167f8c5be1e5ebec7d5bd14f71427d1e84f3dd0314c0f7b2291e5b200ac8c7c3b925836040516113009190611c01565b60405180910390a3505050565b5f6113188484610fd9565b90507fffffffffffffffffffffffffffffffffffffffffffffffffffffffffffffffff81146113925781811015611384576040517f08c379a000000000000000000000000000000000000000000000000000000000815260040161137b9061273c565b60405180910390fd5b611391848484840361114a565b5b50505050565b5f73ffffffffffffffffffffffffffffffffffffffff168373ffffffffffffffffffffffffffffffffffffffff1603611406576040517f08c379a00000000000000000000000000000000000000000000000000000000081526004016113fd906127ca565b60405180910390fd5b5f73ffffffffffffffffffffffffffffffffffffffff168273ffffffffffffffffffffffffffffffffffffffff1603611474576040517f08c379a000000000000000000000000000000000000000000000000000000000815260040161146b90612858565b60405180910390fd5b61147f838383611a56565b5f805f8573ffffffffffffffffffffffffffffffffffffffff1673ffffffffffffffffffffffffffffffffffffffff1681526020019081526020015f2054905081811015611502576040517f08c379a00000000000000000000000000000000000000000000000000000000081526004016114f9906128e6565b60405180910390fd5b8181035f808673ffffffffffffffffffffffffffffffffffffffff1673ffffffffffffffffffffffffffffffffffffffff1681526020019081526020015f2081905550815f808573ffffffffffffffffffffffffffffffffffffffff1673ffffffffffffffffffffffffffffffffffffffff1681526020019081526020015f205f82825401925050819055508273ffffffffffffffffffffffffffffffffffffffff168473ffffffffffffffffffffffffffffffffffffffff167fddf252ad1be2c89b69c2b068fc378daa952ba7f163c4a11628f55a4df523b3ef846040516115eb9190611c01565b60405180910390a36115fe848484611a5b565b50505050565b61160c611143565b73ffffffffffffffffffffffffffffffffffffffff1661162a610b8e565b73ffffffffffffffffffffffffffffffffffffffff1614611680576040517f08c379a00000000000000000000000000000000000000000000000000000000081526004016116779061294e565b60405180910390fd5b565b5f73ffffffffffffffffffffffffffffffffffffffff168273ffffffffffffffffffffffffffffffffffffffff16036116f0576040517f08c379a00000000000000000000000000000000000000000000000000000000081526004016116e7906129b6565b60405180910390fd5b6116fb5f8383611a56565b8060025f82825461170c9190611f35565b92505081905550805f808473ffffffffffffffffffffffffffffffffffffffff1673ffffffffffffffffffffffffffffffffffffffff1681526020019081526020015f205f82825401925050819055508173ffffffffffffffffffffffffffffffffffffffff165f73ffffffffffffffffffffffffffffffffffffffff167fddf252ad1be2c89b69c2b068fc378daa952ba7f163c4a11628f55a4df523b3ef836040516117b99190611c01565b60405180910390a36117cc5f8383611a5b565b5050565b5f73ffffffffffffffffffffffffffffffffffffffff168273ffffffffffffffffffffffffffffffffffffffff160361183e576040517f08c379a000000000000000000000000000000000000000000000000000000000815260040161183590612a44565b60405180910390fd5b611849825f83611a56565b5f805f8473ffffffffffffffffffffffffffffffffffffffff1673ffffffffffffffffffffffffffffffffffffffff1681526020019081526020015f20549050818110156118cc576040517f08c379a00000000000000000000000000000000000000000000000000000000081526004016118c390612ad2565b60405180910390fd5b8181035f808573ffffffffffffffffffffffffffffffffffffffff1673ffffffffffffffffffffffffffffffffffffffff1681526020019081526020015f20819055508160025f82825403925050819055505f73ffffffffffffffffffffffffffffffffffffffff168373ffffffffffffffffffffffffffffffffffffffff167fddf252ad1be2c89b69c2b068fc378daa952ba7f163c4a11628f55a4df523b3ef8460405161197b9190611c01565b60405180910390a361198e835f84611a5b565b505050565b5f60055f9054906101000a900473ffffffffffffffffffffffffffffffffffffffff1690508160055f6101000a81548173ffffffffffffffffffffffffffffffffffffffff021916908373ffffffffffffffffffffffffffffffffffffffff1602179055508173ffffffffffffffffffffffffffffffffffffffff168173ffffffffffffffffffffffffffffffffffffffff167f8be0079c531659141344cd1fd0a4f28419497f9722a3daafe3b4186f6b6457e060405160405180910390a35050565b505050565b505050565b5f81519050919050565b5f82825260208201905092915050565b8281835e5f83830152505050565b5f601f19601f8301169050919050565b5f611aa282611a60565b611aac8185611a6a565b9350611abc818560208601611a7a565b611ac581611a88565b840191505092915050565b5f6020820190508181035f830152611ae88184611a98565b905092915050565b5f80fd5b5f73ffffffffffffffffffffffffffffffffffffffff82169050919050565b5f611b1d82611af4565b9050919050565b611b2d81611b13565b8114611b37575f80fd5b50565b5f81359050611b4881611b24565b92915050565b5f819050919050565b611b6081611b4e565b8114611b6a575f80fd5b50565b5f81359050611b7b81611b57565b92915050565b5f8060408385031215611b9757611b96611af0565b5b5f611ba485828601611b3a565b9250506020611bb585828601611b6d565b9150509250929050565b5f8115159050919050565b611bd381611bbf565b82525050565b5f602082019050611bec5f830184611bca565b92915050565b611bfb81611b4e565b82525050565b5f602082019050611c145f830184611bf2565b92915050565b5f805f60608486031215611c3157611c30611af0565b5b5f611c3e86828701611b3a565b9350506020611c4f86828701611b3a565b9250506040611c6086828701611b6d565b9150509250925092565b5f60ff82169050919050565b611c7f81611c6a565b82525050565b5f602082019050611c985f830184611c76565b92915050565b5f60208284031215611cb357611cb2611af0565b5b5f611cc084828501611b6d565b91505092915050565b5f6040820190508181035f830152611ce18185611a98565b9050611cf06020830184611bf2565b9392505050565b5f60208284031215611d0c57611d0b611af0565b5b5f611d1984828501611b3a565b91505092915050565b611d2b81611b13565b82525050565b5f602082019050611d445f830184611d22565b92915050565b5f81519050919050565b5f82825260208201905092915050565b5f819050602082019050919050565b5f82825260208201905092915050565b5f611d8d82611a60565b611d978185611d73565b9350611da7818560208601611a7a565b611db081611a88565b840191505092915050565b5f611dc68383611d83565b905092915050565b5f602082019050919050565b5f611de482611d4a565b611dee8185611d54565b935083602082028501611e0085611d64565b805f5b85811015611e3b5784840389528151611e1c8582611dbb565b9450611e2783611dce565b925060208a01995050600181019050611e03565b50829750879550505050505092915050565b5f6020820190508181035f830152611e658184611dda565b905092915050565b5f8060408385031215611e8357611e82611af0565b5b5f611e9085828601611b3a565b9250506020611ea185828601611b3a565b9150509250929050565b7f4e487b71000000000000000000000000000000000000000000000000000000005f52602260045260245ffd5b5f6002820490506001821680611eef57607f821691505b602082108103611f0257611f01611eab565b5b50919050565b7f4e487b71000000000000000000000000000000000000000000000000000000005f52601160045260245ffd5b5f611f3f82611b4e565b9150611f4a83611b4e565b9250828201905080821115611f6257611f61611f08565b5b92915050565b7f596f7520646f6e2774206861766520656e6f75676820446567656e20746f6b655f8201527f6e7320746f206275726e00000000000000000000000000000000000000000000602082015250565b5f611fc2602a83611a6a565b9150611fcd82611f68565b604082019050919050565b5f6020820190508181035f830152611fef81611fb6565b9050919050565b7f496e73756666696369656e742066756e647300000000000000000000000000005f82015250565b5f61202a601283611a6a565b915061203582611ff6565b602082019050919050565b5f6020820190508181035f8301526120578161201e565b9050919050565b7f596f7520646f6e2774206861766520656e6f75676820446567656e20746f6b655f8201527f6e7320746f2072656465656d0000000000000000000000000000000000000000602082015250565b5f6120b8602c83611a6a565b91506120c38261205e565b604082019050919050565b5f6020820190508181035f8301526120e5816120ac565b9050919050565b7f4e487b71000000000000000000000000000000000000000000000000000000005f52604160045260245ffd5b5f819050815f5260205f209050919050565b5f6020601f8301049050919050565b5f82821b905092915050565b5f600883026121757fffffffffffffffffffffffffffffffffffffffffffffffffffffffffffffffff8261213a565b61217f868361213a565b95508019841693508086168417925050509392505050565b5f819050919050565b5f6121ba6121b56121b084611b4e565b612197565b611b4e565b9050919050565b5f819050919050565b6121d3836121a0565b6121e76121df826121c1565b848454612146565b825550505050565b5f90565b6121fb6121ef565b6122068184846121ca565b505050565b5b818110156122295761221e5f826121f3565b60018101905061220c565b5050565b601f82111561226e5761223f81612119565b6122488461212b565b81016020851015612257578190505b61226b6122638561212b565b83018261220b565b50505b505050565b5f82821c905092915050565b5f61228e5f1984600802612273565b1980831691505092915050565b5f6122a6838361227f565b9150826002028217905092915050565b6122bf82611a60565b67ffffffffffffffff8111156122d8576122d76120ec565b5b6122e28254611ed8565b6122ed82828561222d565b5f60209050601f83116001811461231e575f841561230c578287015190505b612316858261229b565b86555061237d565b601f19841661232c86612119565b5f5b828110156123535784890151825560018201915060208501945060208101905061232e565b86831015612370578489015161236c601f89168261227f565b8355505b6001600288020188555050505b505050505050565b7f45524332303a2064656372656173656420616c6c6f77616e63652062656c6f775f8201527f207a65726f000000000000000000000000000000000000000000000000000000602082015250565b5f6123df602583611a6a565b91506123ea82612385565b604082019050919050565b5f6020820190508181035f83015261240c816123d3565b9050919050565b5f61241d82611b4e565b915061242883611b4e565b92508282039050818111156124405761243f611f08565b5b92915050565b7f4e487b71000000000000000000000000000000000000000000000000000000005f52603260045260245ffd5b5f61247d82611b4e565b91507fffffffffffffffffffffffffffffffffffffffffffffffffffffffffffffffff82036124af576124ae611f08565b5b600182019050919050565b7f4f776e61626c653a206e6577206f776e657220697320746865207a65726f20615f8201527f6464726573730000000000000000000000000000000000000000000000000000602082015250565b5f612514602683611a6a565b915061251f826124ba565b604082019050919050565b5f6020820190508181035f83015261254181612508565b9050919050565b7f596f7520646f6e2774206861766520656e6f75676820446567656e20746f6b655f8201527f6e7320746f207472616e73666572000000000000000000000000000000000000602082015250565b5f6125a2602e83611a6a565b91506125ad82612548565b604082019050919050565b5f6020820190508181035f8301526125cf81612596565b9050919050565b7f45524332303a20617070726f76652066726f6d20746865207a65726f206164645f8201527f7265737300000000000000000000000000000000000000000000000000000000602082015250565b5f612630602483611a6a565b915061263b826125d6565b604082019050919050565b5f6020820190508181035f83015261265d81612624565b9050919050565b7f45524332303a20617070726f766520746f20746865207a65726f2061646472655f8201527f7373000000000000000000000000000000000000000000000000000000000000602082015250565b5f6126be602283611a6a565b91506126c982612664565b604082019050919050565b5f6020820190508181035f8301526126eb816126b2565b9050919050565b7f45524332303a20696e73756666696369656e7420616c6c6f77616e63650000005f82015250565b5f612726601d83611a6a565b9150612731826126f2565b602082019050919050565b5f6020820190508181035f8301526127538161271a565b9050919050565b7f45524332303a207472616e736665722066726f6d20746865207a65726f2061645f8201527f6472657373000000000000000000000000000000000000000000000000000000602082015250565b5f6127b4602583611a6a565b91506127bf8261275a565b604082019050919050565b5f6020820190508181035f8301526127e1816127a8565b9050919050565b7f45524332303a207472616e7366657220746f20746865207a65726f20616464725f8201527f6573730000000000000000000000000000000000000000000000000000000000602082015250565b5f612842602383611a6a565b915061284d826127e8565b604082019050919050565b5f6020820190508181035f83015261286f81612836565b9050919050565b7f45524332303a207472616e7366657220616d6f756e74206578636565647320625f8201527f616c616e63650000000000000000000000000000000000000000000000000000602082015250565b5f6128d0602683611a6a565b91506128db82612876565b604082019050919050565b5f6020820190508181035f8301526128fd816128c4565b9050919050565b7f4f776e61626c653a2063616c6c6572206973206e6f7420746865206f776e65725f82015250565b5f612938602083611a6a565b915061294382612904565b602082019050919050565b5f6020820190508181035f8301526129658161292c565b9050919050565b7f45524332303a206d696e7420746f20746865207a65726f2061646472657373005f82015250565b5f6129a0601f83611a6a565b91506129ab8261296c565b602082019050919050565b5f6020820190508181035f8301526129cd81612994565b9050919050565b7f45524332303a206275726e2066726f6d20746865207a65726f206164647265735f8201527f7300000000000000000000000000000000000000000000000000000000000000602082015250565b5f612a2e602183611a6a565b9150612a39826129d4565b604082019050919050565b5f6020820190508181035f830152612a5b81612a22565b9050919050565b7f45524332303a206275726e20616d6f756e7420657863656564732062616c616e5f8201527f6365000000000000000000000000000000000000000000000000000000000000602082015250565b5f612abc602283611a6a565b9150612ac782612a62565b604082019050919050565b5f6020820190508181035f830152612ae981612ab0565b905091905056fea2646970667358221220fca35772fde5c06e2e5be94ace648ff4d4b45d329c74617a6bc9e2d1b0828ce864736f6c634300081a0033",
					"opcodes": "PUSH1 0x80 PUSH1 0x40 MSTORE CALLVALUE DUP1 ISZERO PUSH2 0xF JUMPI PUSH0 DUP1 REVERT JUMPDEST POP PUSH1 0x40 MLOAD DUP1 PUSH1 0x40 ADD PUSH1 0x40 MSTORE DUP1 PUSH1 0xB DUP2 MSTORE PUSH1 0x20 ADD PUSH32 0x446567656E20546F6B656E000000000000000000000000000000000000000000 DUP2 MSTORE POP PUSH1 0x40 MLOAD DUP1 PUSH1 0x40 ADD PUSH1 0x40 MSTORE DUP1 PUSH1 0x5 DUP2 MSTORE PUSH1 0x20 ADD PUSH32 0x444547454E000000000000000000000000000000000000000000000000000000 DUP2 MSTORE POP DUP2 PUSH1 0x3 SWAP1 DUP2 PUSH2 0x8B SWAP2 SWAP1 PUSH2 0x7BB JUMP JUMPDEST POP DUP1 PUSH1 0x4 SWAP1 DUP2 PUSH2 0x9B SWAP2 SWAP1 PUSH2 0x7BB JUMP JUMPDEST POP POP POP PUSH2 0xBA PUSH2 0xAF PUSH2 0x4B7 PUSH1 0x20 SHL PUSH1 0x20 SHR JUMP JUMPDEST PUSH2 0x4BE PUSH1 0x20 SHL PUSH1 0x20 SHR JUMP JUMPDEST PUSH1 0x40 MLOAD DUP1 PUSH1 0x40 ADD PUSH1 0x40 MSTORE DUP1 PUSH1 0x40 MLOAD DUP1 PUSH1 0x40 ADD PUSH1 0x40 MSTORE DUP1 PUSH1 0x13 DUP2 MSTORE PUSH1 0x20 ADD PUSH32 0x4E46543A204275676174746920436869726F6E00000000000000000000000000 DUP2 MSTORE POP DUP2 MSTORE PUSH1 0x20 ADD PUSH2 0x2134 DUP2 MSTORE POP PUSH1 0x6 PUSH0 PUSH1 0x1 DUP2 MSTORE PUSH1 0x20 ADD SWAP1 DUP2 MSTORE PUSH1 0x20 ADD PUSH0 KECCAK256 PUSH0 DUP3 ADD MLOAD DUP2 PUSH0 ADD SWAP1 DUP2 PUSH2 0x12B SWAP2 SWAP1 PUSH2 0x7BB JUMP JUMPDEST POP PUSH1 0x20 DUP3 ADD MLOAD DUP2 PUSH1 0x1 ADD SSTORE SWAP1 POP POP PUSH1 0x40 MLOAD DUP1 PUSH1 0x40 ADD PUSH1 0x40 MSTORE DUP1 PUSH1 0x40 MLOAD DUP1 PUSH1 0x40 ADD PUSH1 0x40 MSTORE DUP1 PUSH1 0x1A DUP2 MSTORE PUSH1 0x20 ADD PUSH32 0x4E46543A204C616D626F726768696E69204176656E7461646F72000000000000 DUP2 MSTORE POP DUP2 MSTORE PUSH1 0x20 ADD PUSH2 0x7D0 DUP2 MSTORE POP PUSH1 0x6 PUSH0 PUSH1 0x2 DUP2 MSTORE PUSH1 0x20 ADD SWAP1 DUP2 MSTORE PUSH1 0x20 ADD PUSH0 KECCAK256 PUSH0 DUP3 ADD MLOAD DUP2 PUSH0 ADD SWAP1 DUP2 PUSH2 0x1AA SWAP2 SWAP1 PUSH2 0x7BB JUMP JUMPDEST POP PUSH1 0x20 DUP3 ADD MLOAD DUP2 PUSH1 0x1 ADD SSTORE SWAP1 POP POP PUSH1 0x40 MLOAD DUP1 PUSH1 0x40 ADD PUSH1 0x40 MSTORE DUP1 PUSH1 0x40 MLOAD DUP1 PUSH1 0x40 ADD PUSH1 0x40 MSTORE DUP1 PUSH1 0x16 DUP2 MSTORE PUSH1 0x20 ADD PUSH32 0x4E46543A2046657272617269204C614665727261726900000000000000000000 DUP2 MSTORE POP DUP2 MSTORE PUSH1 0x20 ADD PUSH2 0xBB8 DUP2 MSTORE POP PUSH1 0x6 PUSH0 PUSH1 0x3 DUP2 MSTORE PUSH1 0x20 ADD SWAP1 DUP2 MSTORE PUSH1 0x20 ADD PUSH0 KECCAK256 PUSH0 DUP3 ADD MLOAD DUP2 PUSH0 ADD SWAP1 DUP2 PUSH2 0x229 SWAP2 SWAP1 PUSH2 0x7BB JUMP JUMPDEST POP PUSH1 0x20 DUP3 ADD MLOAD DUP2 PUSH1 0x1 ADD SSTORE SWAP1 POP POP PUSH1 0x40 MLOAD DUP1 PUSH1 0x40 ADD PUSH1 0x40 MSTORE DUP1 PUSH1 0x40 MLOAD DUP1 PUSH1 0x40 ADD PUSH1 0x40 MSTORE DUP1 PUSH1 0x18 DUP2 MSTORE PUSH1 0x20 ADD PUSH32 0x4E46543A20526F6C6C732D526F796365205068616E746F6D0000000000000000 DUP2 MSTORE POP DUP2 MSTORE PUSH1 0x20 ADD PUSH2 0x1388 DUP2 MSTORE POP PUSH1 0x6 PUSH0 PUSH1 0x4 DUP2 MSTORE PUSH1 0x20 ADD SWAP1 DUP2 MSTORE PUSH1 0x20 ADD PUSH0 KECCAK256 PUSH0 DUP3 ADD MLOAD DUP2 PUSH0 ADD SWAP1 DUP2 PUSH2 0x2A8 SWAP2 SWAP1 PUSH2 0x7BB JUMP JUMPDEST POP PUSH1 0x20 DUP3 ADD MLOAD DUP2 PUSH1 0x1 ADD SSTORE SWAP1 POP POP PUSH1 0x40 MLOAD DUP1 PUSH1 0x40 ADD PUSH1 0x40 MSTORE DUP1 PUSH1 0x40 MLOAD DUP1 PUSH1 0x40 ADD PUSH1 0x40 MSTORE DUP1 PUSH1 0x1A DUP2 MSTORE PUSH1 0x20 ADD PUSH32 0x4E46543A204173746F6E204D617274696E2056616C6B79726965000000000000 DUP2 MSTORE POP DUP2 MSTORE PUSH1 0x20 ADD PUSH2 0x1770 DUP2 MSTORE POP PUSH1 0x6 PUSH0 PUSH1 0x5 DUP2 MSTORE PUSH1 0x20 ADD SWAP1 DUP2 MSTORE PUSH1 0x20 ADD PUSH0 KECCAK256 PUSH0 DUP3 ADD MLOAD DUP2 PUSH0 ADD SWAP1 DUP2 PUSH2 0x327 SWAP2 SWAP1 PUSH2 0x7BB JUMP JUMPDEST POP PUSH1 0x20 DUP3 ADD MLOAD DUP2 PUSH1 0x1 ADD SSTORE SWAP1 POP POP PUSH1 0x40 MLOAD DUP1 PUSH1 0x40 ADD PUSH1 0x40 MSTORE DUP1 PUSH1 0x40 MLOAD DUP1 PUSH1 0x40 ADD PUSH1 0x40 MSTORE DUP1 PUSH1 0xF DUP2 MSTORE PUSH1 0x20 ADD PUSH32 0x4E46543A204D634C6172656E2050310000000000000000000000000000000000 DUP2 MSTORE POP DUP2 MSTORE PUSH1 0x20 ADD PUSH2 0x1770 DUP2 MSTORE POP PUSH1 0x6 PUSH0 PUSH1 0x6 DUP2 MSTORE PUSH1 0x20 ADD SWAP1 DUP2 MSTORE PUSH1 0x20 ADD PUSH0 KECCAK256 PUSH0 DUP3 ADD MLOAD DUP2 PUSH0 ADD SWAP1 DUP2 PUSH2 0x3A6 SWAP2 SWAP1 PUSH2 0x7BB JUMP JUMPDEST POP PUSH1 0x20 DUP3 ADD MLOAD DUP2 PUSH1 0x1 ADD SSTORE SWAP1 POP POP PUSH1 0x40 MLOAD DUP1 PUSH1 0x40 ADD PUSH1 0x40 MSTORE DUP1 PUSH1 0x40 MLOAD DUP1 PUSH1 0x40 ADD PUSH1 0x40 MSTORE DUP1 PUSH1 0x15 DUP2 MSTORE PUSH1 0x20 ADD PUSH32 0x4E46543A204B6F656E696773656767204A65736B6F0000000000000000000000 DUP2 MSTORE POP DUP2 MSTORE PUSH1 0x20 ADD PUSH2 0x1B58 DUP2 MSTORE POP PUSH1 0x6 PUSH0 PUSH1 0x7 DUP2 MSTORE PUSH1 0x20 ADD SWAP1 DUP2 MSTORE PUSH1 0x20 ADD PUSH0 KECCAK256 PUSH0 DUP3 ADD MLOAD DUP2 PUSH0 ADD SWAP1 DUP2 PUSH2 0x425 SWAP2 SWAP1 PUSH2 0x7BB JUMP JUMPDEST POP PUSH1 0x20 DUP3 ADD MLOAD DUP2 PUSH1 0x1 ADD SSTORE SWAP1 POP POP PUSH1 0x40 MLOAD DUP1 PUSH1 0x40 ADD PUSH1 0x40 MSTORE DUP1 PUSH1 0x40 MLOAD DUP1 PUSH1 0x40 ADD PUSH1 0x40 MSTORE DUP1 PUSH1 0x12 DUP2 MSTORE PUSH1 0x20 ADD PUSH32 0x4E46543A20506167616E69204875617972610000000000000000000000000000 DUP2 MSTORE POP DUP2 MSTORE PUSH1 0x20 ADD PUSH2 0x1F40 DUP2 MSTORE POP PUSH1 0x6 PUSH0 PUSH1 0x8 DUP2 MSTORE PUSH1 0x20 ADD SWAP1 DUP2 MSTORE PUSH1 0x20 ADD PUSH0 KECCAK256 PUSH0 DUP3 ADD MLOAD DUP2 PUSH0 ADD SWAP1 DUP2 PUSH2 0x4A4 SWAP2 SWAP1 PUSH2 0x7BB JUMP JUMPDEST POP PUSH1 0x20 DUP3 ADD MLOAD DUP2 PUSH1 0x1 ADD SSTORE SWAP1 POP POP PUSH2 0x88A JUMP JUMPDEST PUSH0 CALLER SWAP1 POP SWAP1 JUMP JUMPDEST PUSH0 PUSH1 0x5 PUSH0 SWAP1 SLOAD SWAP1 PUSH2 0x100 EXP SWAP1 DIV PUSH20 0xFFFFFFFFFFFFFFFFFFFFFFFFFFFFFFFFFFFFFFFF AND SWAP1 POP DUP2 PUSH1 0x5 PUSH0 PUSH2 0x100 EXP DUP2 SLOAD DUP2 PUSH20 0xFFFFFFFFFFFFFFFFFFFFFFFFFFFFFFFFFFFFFFFF MUL NOT AND SWAP1 DUP4 PUSH20 0xFFFFFFFFFFFFFFFFFFFFFFFFFFFFFFFFFFFFFFFF AND MUL OR SWAP1 SSTORE POP DUP2 PUSH20 0xFFFFFFFFFFFFFFFFFFFFFFFFFFFFFFFFFFFFFFFF AND DUP2 PUSH20 0xFFFFFFFFFFFFFFFFFFFFFFFFFFFFFFFFFFFFFFFF AND PUSH32 0x8BE0079C531659141344CD1FD0A4F28419497F9722A3DAAFE3B4186F6B6457E0 PUSH1 0x40 MLOAD PUSH1 0x40 MLOAD DUP1 SWAP2 SUB SWAP1 LOG3 POP POP JUMP JUMPDEST PUSH0 DUP2 MLOAD SWAP1 POP SWAP2 SWAP1 POP JUMP JUMPDEST PUSH32 0x4E487B7100000000000000000000000000000000000000000000000000000000 PUSH0 MSTORE PUSH1 0x41 PUSH1 0x4 MSTORE PUSH1 0x24 PUSH0 REVERT JUMPDEST PUSH32 0x4E487B7100000000000000000000000000000000000000000000000000000000 PUSH0 MSTORE PUSH1 0x22 PUSH1 0x4 MSTORE PUSH1 0x24 PUSH0 REVERT JUMPDEST PUSH0 PUSH1 0x2 DUP3 DIV SWAP1 POP PUSH1 0x1 DUP3 AND DUP1 PUSH2 0x5FC JUMPI PUSH1 0x7F DUP3 AND SWAP2 POP JUMPDEST PUSH1 0x20 DUP3 LT DUP2 SUB PUSH2 0x60F JUMPI PUSH2 0x60E PUSH2 0x5B8 JUMP JUMPDEST JUMPDEST POP SWAP2 SWAP1 POP JUMP JUMPDEST PUSH0 DUP2 SWAP1 POP DUP2 PUSH0 MSTORE PUSH1 0x20 PUSH0 KECCAK256 SWAP1 POP SWAP2 SWAP1 POP JUMP JUMPDEST PUSH0 PUSH1 0x20 PUSH1 0x1F DUP4 ADD DIV SWAP1 POP SWAP2 SWAP1 POP JUMP JUMPDEST PUSH0 DUP3 DUP3 SHL SWAP1 POP SWAP3 SWAP2 POP POP JUMP JUMPDEST PUSH0 PUSH1 0x8 DUP4 MUL PUSH2 0x671 PUSH32 0xFFFFFFFFFFFFFFFFFFFFFFFFFFFFFFFFFFFFFFFFFFFFFFFFFFFFFFFFFFFFFFFF DUP3 PUSH2 0x636 JUMP JUMPDEST PUSH2 0x67B DUP7 DUP4 PUSH2 0x636 JUMP JUMPDEST SWAP6 POP DUP1 NOT DUP5 AND SWAP4 POP DUP1 DUP7 AND DUP5 OR SWAP3 POP POP POP SWAP4 SWAP3 POP POP POP JUMP JUMPDEST PUSH0 DUP2 SWAP1 POP SWAP2 SWAP1 POP JUMP JUMPDEST PUSH0 DUP2 SWAP1 POP SWAP2 SWAP1 POP JUMP JUMPDEST PUSH0 PUSH2 0x6BF PUSH2 0x6BA PUSH2 0x6B5 DUP5 PUSH2 0x693 JUMP JUMPDEST PUSH2 0x69C JUMP JUMPDEST PUSH2 0x693 JUMP JUMPDEST SWAP1 POP SWAP2 SWAP1 POP JUMP JUMPDEST PUSH0 DUP2 SWAP1 POP SWAP2 SWAP1 POP JUMP JUMPDEST PUSH2 0x6D8 DUP4 PUSH2 0x6A5 JUMP JUMPDEST PUSH2 0x6EC PUSH2 0x6E4 DUP3 PUSH2 0x6C6 JUMP JUMPDEST DUP5 DUP5 SLOAD PUSH2 0x642 JUMP JUMPDEST DUP3 SSTORE POP POP POP POP JUMP JUMPDEST PUSH0 SWAP1 JUMP JUMPDEST PUSH2 0x700 PUSH2 0x6F4 JUMP JUMPDEST PUSH2 0x70B DUP2 DUP5 DUP5 PUSH2 0x6CF JUMP JUMPDEST POP POP POP JUMP JUMPDEST JUMPDEST DUP2 DUP2 LT ISZERO PUSH2 0x72E JUMPI PUSH2 0x723 PUSH0 DUP3 PUSH2 0x6F8 JUMP JUMPDEST PUSH1 0x1 DUP2 ADD SWAP1 POP PUSH2 0x711 JUMP JUMPDEST POP POP JUMP JUMPDEST PUSH1 0x1F DUP3 GT ISZERO PUSH2 0x773 JUMPI PUSH2 0x744 DUP2 PUSH2 0x615 JUMP JUMPDEST PUSH2 0x74D DUP5 PUSH2 0x627 JUMP JUMPDEST DUP2 ADD PUSH1 0x20 DUP6 LT ISZERO PUSH2 0x75C JUMPI DUP2 SWAP1 POP JUMPDEST PUSH2 0x770 PUSH2 0x768 DUP6 PUSH2 0x627 JUMP JUMPDEST DUP4 ADD DUP3 PUSH2 0x710 JUMP JUMPDEST POP POP JUMPDEST POP POP POP JUMP JUMPDEST PUSH0 DUP3 DUP3 SHR SWAP1 POP SWAP3 SWAP2 POP POP JUMP JUMPDEST PUSH0 PUSH2 0x793 PUSH0 NOT DUP5 PUSH1 0x8 MUL PUSH2 0x778 JUMP JUMPDEST NOT DUP1 DUP4 AND SWAP2 POP POP SWAP3 SWAP2 POP POP JUMP JUMPDEST PUSH0 PUSH2 0x7AB DUP4 DUP4 PUSH2 0x784 JUMP JUMPDEST SWAP2 POP DUP3 PUSH1 0x2 MUL DUP3 OR SWAP1 POP SWAP3 SWAP2 POP POP JUMP JUMPDEST PUSH2 0x7C4 DUP3 PUSH2 0x581 JUMP JUMPDEST PUSH8 0xFFFFFFFFFFFFFFFF DUP2 GT ISZERO PUSH2 0x7DD JUMPI PUSH2 0x7DC PUSH2 0x58B JUMP JUMPDEST JUMPDEST PUSH2 0x7E7 DUP3 SLOAD PUSH2 0x5E5 JUMP JUMPDEST PUSH2 0x7F2 DUP3 DUP3 DUP6 PUSH2 0x732 JUMP JUMPDEST PUSH0 PUSH1 0x20 SWAP1 POP PUSH1 0x1F DUP4 GT PUSH1 0x1 DUP2 EQ PUSH2 0x823 JUMPI PUSH0 DUP5 ISZERO PUSH2 0x811 JUMPI DUP3 DUP8 ADD MLOAD SWAP1 POP JUMPDEST PUSH2 0x81B DUP6 DUP3 PUSH2 0x7A0 JUMP JUMPDEST DUP7 SSTORE POP PUSH2 0x882 JUMP JUMPDEST PUSH1 0x1F NOT DUP5 AND PUSH2 0x831 DUP7 PUSH2 0x615 JUMP JUMPDEST PUSH0 JUMPDEST DUP3 DUP2 LT ISZERO PUSH2 0x858 JUMPI DUP5 DUP10 ADD MLOAD DUP3 SSTORE PUSH1 0x1 DUP3 ADD SWAP2 POP PUSH1 0x20 DUP6 ADD SWAP5 POP PUSH1 0x20 DUP2 ADD SWAP1 POP PUSH2 0x833 JUMP JUMPDEST DUP7 DUP4 LT ISZERO PUSH2 0x875 JUMPI DUP5 DUP10 ADD MLOAD PUSH2 0x871 PUSH1 0x1F DUP10 AND DUP3 PUSH2 0x784 JUMP JUMPDEST DUP4 SSTORE POP JUMPDEST PUSH1 0x1 PUSH1 0x2 DUP9 MUL ADD DUP9 SSTORE POP POP POP JUMPDEST POP POP POP POP POP POP JUMP JUMPDEST PUSH2 0x2B26 DUP1 PUSH2 0x897 PUSH0 CODECOPY PUSH0 RETURN INVALID PUSH1 0x80 PUSH1 0x40 MSTORE PUSH1 0x4 CALLDATASIZE LT PUSH2 0x13F JUMPI PUSH0 CALLDATALOAD PUSH1 0xE0 SHR DUP1 PUSH4 0x70A08231 GT PUSH2 0xB5 JUMPI DUP1 PUSH4 0xA9059CBB GT PUSH2 0x6E JUMPI DUP1 PUSH4 0xA9059CBB EQ PUSH2 0x479 JUMPI DUP1 PUSH4 0xA9D0E2E5 EQ PUSH2 0x4B5 JUMPI DUP1 PUSH4 0xACC8B146 EQ PUSH2 0x4DF JUMPI DUP1 PUSH4 0xDD62ED3E EQ PUSH2 0x51B JUMPI DUP1 PUSH4 0xF2FDE38B EQ PUSH2 0x557 JUMPI DUP1 PUSH4 0xF5537EDE EQ PUSH2 0x57F JUMPI PUSH2 0x13F JUMP JUMPDEST DUP1 PUSH4 0x70A08231 EQ PUSH2 0x37B JUMPI DUP1 PUSH4 0x715018A6 EQ PUSH2 0x3B7 JUMPI DUP1 PUSH4 0x830CBBBD EQ PUSH2 0x3CD JUMPI DUP1 PUSH4 0x8DA5CB5B EQ PUSH2 0x3E9 JUMPI DUP1 PUSH4 0x95D89B41 EQ PUSH2 0x413 JUMPI DUP1 PUSH4 0xA457C2D7 EQ PUSH2 0x43D JUMPI PUSH2 0x13F JUMP JUMPDEST DUP1 PUSH4 0x313CE567 GT PUSH2 0x107 JUMPI DUP1 PUSH4 0x313CE567 EQ PUSH2 0x24B JUMPI DUP1 PUSH4 0x39509351 EQ PUSH2 0x275 JUMPI DUP1 PUSH4 0x3DFCF101 EQ PUSH2 0x2B1 JUMPI DUP1 PUSH4 0x40C10F19 EQ PUSH2 0x2EE JUMPI DUP1 PUSH4 0x428A6171 EQ PUSH2 0x316 JUMPI DUP1 PUSH4 0x42966C68 EQ PUSH2 0x353 JUMPI PUSH2 0x13F JUMP JUMPDEST DUP1 PUSH4 0x6FDDE03 EQ PUSH2 0x143 JUMPI DUP1 PUSH4 0x95EA7B3 EQ PUSH2 0x16D JUMPI DUP1 PUSH4 0xE63AFED EQ PUSH2 0x1A9 JUMPI DUP1 PUSH4 0x18160DDD EQ PUSH2 0x1E5 JUMPI DUP1 PUSH4 0x23B872DD EQ PUSH2 0x20F JUMPI JUMPDEST PUSH0 DUP1 REVERT JUMPDEST CALLVALUE DUP1 ISZERO PUSH2 0x14E JUMPI PUSH0 DUP1 REVERT JUMPDEST POP PUSH2 0x157 PUSH2 0x5A7 JUMP JUMPDEST PUSH1 0x40 MLOAD PUSH2 0x164 SWAP2 SWAP1 PUSH2 0x1AD0 JUMP JUMPDEST PUSH1 0x40 MLOAD DUP1 SWAP2 SUB SWAP1 RETURN JUMPDEST CALLVALUE DUP1 ISZERO PUSH2 0x178 JUMPI PUSH0 DUP1 REVERT JUMPDEST POP PUSH2 0x193 PUSH1 0x4 DUP1 CALLDATASIZE SUB DUP2 ADD SWAP1 PUSH2 0x18E SWAP2 SWAP1 PUSH2 0x1B81 JUMP JUMPDEST PUSH2 0x637 JUMP JUMPDEST PUSH1 0x40 MLOAD PUSH2 0x1A0 SWAP2 SWAP1 PUSH2 0x1BD9 JUMP JUMPDEST PUSH1 0x40 MLOAD DUP1 SWAP2 SUB SWAP1 RETURN JUMPDEST CALLVALUE DUP1 ISZERO PUSH2 0x1B4 JUMPI PUSH0 DUP1 REVERT JUMPDEST POP PUSH2 0x1CF PUSH1 0x4 DUP1 CALLDATASIZE SUB DUP2 ADD SWAP1 PUSH2 0x1CA SWAP2 SWAP1 PUSH2 0x1B81 JUMP JUMPDEST PUSH2 0x659 JUMP JUMPDEST PUSH1 0x40 MLOAD PUSH2 0x1DC SWAP2 SWAP1 PUSH2 0x1C01 JUMP JUMPDEST PUSH1 0x40 MLOAD DUP1 SWAP2 SUB SWAP1 RETURN JUMPDEST CALLVALUE DUP1 ISZERO PUSH2 0x1F0 JUMPI PUSH0 DUP1 REVERT JUMPDEST POP PUSH2 0x1F9 PUSH2 0x679 JUMP JUMPDEST PUSH1 0x40 MLOAD PUSH2 0x206 SWAP2 SWAP1 PUSH2 0x1C01 JUMP JUMPDEST PUSH1 0x40 MLOAD DUP1 SWAP2 SUB SWAP1 RETURN JUMPDEST CALLVALUE DUP1 ISZERO PUSH2 0x21A JUMPI PUSH0 DUP1 REVERT JUMPDEST POP PUSH2 0x235 PUSH1 0x4 DUP1 CALLDATASIZE SUB DUP2 ADD SWAP1 PUSH2 0x230 SWAP2 SWAP1 PUSH2 0x1C1A JUMP JUMPDEST PUSH2 0x682 JUMP JUMPDEST PUSH1 0x40 MLOAD PUSH2 0x242 SWAP2 SWAP1 PUSH2 0x1BD9 JUMP JUMPDEST PUSH1 0x40 MLOAD DUP1 SWAP2 SUB SWAP1 RETURN JUMPDEST CALLVALUE DUP1 ISZERO PUSH2 0x256 JUMPI PUSH0 DUP1 REVERT JUMPDEST POP PUSH2 0x25F PUSH2 0x6B0 JUMP JUMPDEST PUSH1 0x40 MLOAD PUSH2 0x26C SWAP2 SWAP1 PUSH2 0x1C85 JUMP JUMPDEST PUSH1 0x40 MLOAD DUP1 SWAP2 SUB SWAP1 RETURN JUMPDEST CALLVALUE DUP1 ISZERO PUSH2 0x280 JUMPI PUSH0 DUP1 REVERT JUMPDEST POP PUSH2 0x29B PUSH1 0x4 DUP1 CALLDATASIZE SUB DUP2 ADD SWAP1 PUSH2 0x296 SWAP2 SWAP1 PUSH2 0x1B81 JUMP JUMPDEST PUSH2 0x6B8 JUMP JUMPDEST PUSH1 0x40 MLOAD PUSH2 0x2A8 SWAP2 SWAP1 PUSH2 0x1BD9 JUMP JUMPDEST PUSH1 0x40 MLOAD DUP1 SWAP2 SUB SWAP1 RETURN JUMPDEST CALLVALUE DUP1 ISZERO PUSH2 0x2BC JUMPI PUSH0 DUP1 REVERT JUMPDEST POP PUSH2 0x2D7 PUSH1 0x4 DUP1 CALLDATASIZE SUB DUP2 ADD SWAP1 PUSH2 0x2D2 SWAP2 SWAP1 PUSH2 0x1C9E JUMP JUMPDEST PUSH2 0x6EE JUMP JUMPDEST PUSH1 0x40 MLOAD PUSH2 0x2E5 SWAP3 SWAP2 SWAP1 PUSH2 0x1CC9 JUMP JUMPDEST PUSH1 0x40 MLOAD DUP1 SWAP2 SUB SWAP1 RETURN JUMPDEST CALLVALUE DUP1 ISZERO PUSH2 0x2F9 JUMPI PUSH0 DUP1 REVERT JUMPDEST POP PUSH2 0x314 PUSH1 0x4 DUP1 CALLDATASIZE SUB DUP2 ADD SWAP1 PUSH2 0x30F SWAP2 SWAP1 PUSH2 0x1B81 JUMP JUMPDEST PUSH2 0x794 JUMP JUMPDEST STOP JUMPDEST CALLVALUE DUP1 ISZERO PUSH2 0x321 JUMPI PUSH0 DUP1 REVERT JUMPDEST POP PUSH2 0x33C PUSH1 0x4 DUP1 CALLDATASIZE SUB DUP2 ADD SWAP1 PUSH2 0x337 SWAP2 SWAP1 PUSH2 0x1B81 JUMP JUMPDEST PUSH2 0x7AA JUMP JUMPDEST PUSH1 0x40 MLOAD PUSH2 0x34A SWAP3 SWAP2 SWAP1 PUSH2 0x1CC9 JUMP JUMPDEST PUSH1 0x40 MLOAD DUP1 SWAP2 SUB SWAP1 RETURN JUMPDEST CALLVALUE DUP1 ISZERO PUSH2 0x35E JUMPI PUSH0 DUP1 REVERT JUMPDEST POP PUSH2 0x379 PUSH1 0x4 DUP1 CALLDATASIZE SUB DUP2 ADD SWAP1 PUSH2 0x374 SWAP2 SWAP1 PUSH2 0x1C9E JUMP JUMPDEST PUSH2 0x86A JUMP JUMPDEST STOP JUMPDEST CALLVALUE DUP1 ISZERO PUSH2 0x386 JUMPI PUSH0 DUP1 REVERT JUMPDEST POP PUSH2 0x3A1 PUSH1 0x4 DUP1 CALLDATASIZE SUB DUP2 ADD SWAP1 PUSH2 0x39C SWAP2 SWAP1 PUSH2 0x1CF7 JUMP JUMPDEST PUSH2 0x8C2 JUMP JUMPDEST PUSH1 0x40 MLOAD PUSH2 0x3AE SWAP2 SWAP1 PUSH2 0x1C01 JUMP JUMPDEST PUSH1 0x40 MLOAD DUP1 SWAP2 SUB SWAP1 RETURN JUMPDEST CALLVALUE DUP1 ISZERO PUSH2 0x3C2 JUMPI PUSH0 DUP1 REVERT JUMPDEST POP PUSH2 0x3CB PUSH2 0x907 JUMP JUMPDEST STOP JUMPDEST PUSH2 0x3E7 PUSH1 0x4 DUP1 CALLDATASIZE SUB DUP2 ADD SWAP1 PUSH2 0x3E2 SWAP2 SWAP1 PUSH2 0x1B81 JUMP JUMPDEST PUSH2 0x91A JUMP JUMPDEST STOP JUMPDEST CALLVALUE DUP1 ISZERO PUSH2 0x3F4 JUMPI PUSH0 DUP1 REVERT JUMPDEST POP PUSH2 0x3FD PUSH2 0xB8E JUMP JUMPDEST PUSH1 0x40 MLOAD PUSH2 0x40A SWAP2 SWAP1 PUSH2 0x1D31 JUMP JUMPDEST PUSH1 0x40 MLOAD DUP1 SWAP2 SUB SWAP1 RETURN JUMPDEST CALLVALUE DUP1 ISZERO PUSH2 0x41E JUMPI PUSH0 DUP1 REVERT JUMPDEST POP PUSH2 0x427 PUSH2 0xBB6 JUMP JUMPDEST PUSH1 0x40 MLOAD PUSH2 0x434 SWAP2 SWAP1 PUSH2 0x1AD0 JUMP JUMPDEST PUSH1 0x40 MLOAD DUP1 SWAP2 SUB SWAP1 RETURN JUMPDEST CALLVALUE DUP1 ISZERO PUSH2 0x448 JUMPI PUSH0 DUP1 REVERT JUMPDEST POP PUSH2 0x463 PUSH1 0x4 DUP1 CALLDATASIZE SUB DUP2 ADD SWAP1 PUSH2 0x45E SWAP2 SWAP1 PUSH2 0x1B81 JUMP JUMPDEST PUSH2 0xC46 JUMP JUMPDEST PUSH1 0x40 MLOAD PUSH2 0x470 SWAP2 SWAP1 PUSH2 0x1BD9 JUMP JUMPDEST PUSH1 0x40 MLOAD DUP1 SWAP2 SUB SWAP1 RETURN JUMPDEST CALLVALUE DUP1 ISZERO PUSH2 0x484 JUMPI PUSH0 DUP1 REVERT JUMPDEST POP PUSH2 0x49F PUSH1 0x4 DUP1 CALLDATASIZE SUB DUP2 ADD SWAP1 PUSH2 0x49A SWAP2 SWAP1 PUSH2 0x1B81 JUMP JUMPDEST PUSH2 0xCBB JUMP JUMPDEST PUSH1 0x40 MLOAD PUSH2 0x4AC SWAP2 SWAP1 PUSH2 0x1BD9 JUMP JUMPDEST PUSH1 0x40 MLOAD DUP1 SWAP2 SUB SWAP1 RETURN JUMPDEST CALLVALUE DUP1 ISZERO PUSH2 0x4C0 JUMPI PUSH0 DUP1 REVERT JUMPDEST POP PUSH2 0x4C9 PUSH2 0xCDD JUMP JUMPDEST PUSH1 0x40 MLOAD PUSH2 0x4D6 SWAP2 SWAP1 PUSH2 0x1E4D JUMP JUMPDEST PUSH1 0x40 MLOAD DUP1 SWAP2 SUB SWAP1 RETURN JUMPDEST CALLVALUE DUP1 ISZERO PUSH2 0x4EA JUMPI PUSH0 DUP1 REVERT JUMPDEST POP PUSH2 0x505 PUSH1 0x4 DUP1 CALLDATASIZE SUB DUP2 ADD SWAP1 PUSH2 0x500 SWAP2 SWAP1 PUSH2 0x1CF7 JUMP JUMPDEST PUSH2 0xE1E JUMP JUMPDEST PUSH1 0x40 MLOAD PUSH2 0x512 SWAP2 SWAP1 PUSH2 0x1E4D JUMP JUMPDEST PUSH1 0x40 MLOAD DUP1 SWAP2 SUB SWAP1 RETURN JUMPDEST CALLVALUE DUP1 ISZERO PUSH2 0x526 JUMPI PUSH0 DUP1 REVERT JUMPDEST POP PUSH2 0x541 PUSH1 0x4 DUP1 CALLDATASIZE SUB DUP2 ADD SWAP1 PUSH2 0x53C SWAP2 SWAP1 PUSH2 0x1E6D JUMP JUMPDEST PUSH2 0xFD9 JUMP JUMPDEST PUSH1 0x40 MLOAD PUSH2 0x54E SWAP2 SWAP1 PUSH2 0x1C01 JUMP JUMPDEST PUSH1 0x40 MLOAD DUP1 SWAP2 SUB SWAP1 RETURN JUMPDEST CALLVALUE DUP1 ISZERO PUSH2 0x562 JUMPI PUSH0 DUP1 REVERT JUMPDEST POP PUSH2 0x57D PUSH1 0x4 DUP1 CALLDATASIZE SUB DUP2 ADD SWAP1 PUSH2 0x578 SWAP2 SWAP1 PUSH2 0x1CF7 JUMP JUMPDEST PUSH2 0x105B JUMP JUMPDEST STOP JUMPDEST CALLVALUE DUP1 ISZERO PUSH2 0x58A JUMPI PUSH0 DUP1 REVERT JUMPDEST POP PUSH2 0x5A5 PUSH1 0x4 DUP1 CALLDATASIZE SUB DUP2 ADD SWAP1 PUSH2 0x5A0 SWAP2 SWAP1 PUSH2 0x1C1A JUMP JUMPDEST PUSH2 0x10DD JUMP JUMPDEST STOP JUMPDEST PUSH1 0x60 PUSH1 0x3 DUP1 SLOAD PUSH2 0x5B6 SWAP1 PUSH2 0x1ED8 JUMP JUMPDEST DUP1 PUSH1 0x1F ADD PUSH1 0x20 DUP1 SWAP2 DIV MUL PUSH1 0x20 ADD PUSH1 0x40 MLOAD SWAP1 DUP2 ADD PUSH1 0x40 MSTORE DUP1 SWAP3 SWAP2 SWAP1 DUP2 DUP2 MSTORE PUSH1 0x20 ADD DUP3 DUP1 SLOAD PUSH2 0x5E2 SWAP1 PUSH2 0x1ED8 JUMP JUMPDEST DUP1 ISZERO PUSH2 0x62D JUMPI DUP1 PUSH1 0x1F LT PUSH2 0x604 JUMPI PUSH2 0x100 DUP1 DUP4 SLOAD DIV MUL DUP4 MSTORE SWAP2 PUSH1 0x20 ADD SWAP2 PUSH2 0x62D JUMP JUMPDEST DUP3 ADD SWAP2 SWAP1 PUSH0 MSTORE PUSH1 0x20 PUSH0 KECCAK256 SWAP1 JUMPDEST DUP2 SLOAD DUP2 MSTORE SWAP1 PUSH1 0x1 ADD SWAP1 PUSH1 0x20 ADD DUP1 DUP4 GT PUSH2 0x610 JUMPI DUP3 SWAP1 SUB PUSH1 0x1F AND DUP3 ADD SWAP2 JUMPDEST POP POP POP POP POP SWAP1 POP SWAP1 JUMP JUMPDEST PUSH0 DUP1 PUSH2 0x641 PUSH2 0x1143 JUMP JUMPDEST SWAP1 POP PUSH2 0x64E DUP2 DUP6 DUP6 PUSH2 0x114A JUMP JUMPDEST PUSH1 0x1 SWAP2 POP POP SWAP3 SWAP2 POP POP JUMP JUMPDEST PUSH1 0x7 PUSH1 0x20 MSTORE DUP2 PUSH0 MSTORE PUSH1 0x40 PUSH0 KECCAK256 PUSH1 0x20 MSTORE DUP1 PUSH0 MSTORE PUSH1 0x40 PUSH0 KECCAK256 PUSH0 SWAP2 POP SWAP2 POP POP SLOAD DUP2 JUMP JUMPDEST PUSH0 PUSH1 0x2 SLOAD SWAP1 POP SWAP1 JUMP JUMPDEST PUSH0 DUP1 PUSH2 0x68C PUSH2 0x1143 JUMP JUMPDEST SWAP1 POP PUSH2 0x699 DUP6 DUP3 DUP6 PUSH2 0x130D JUMP JUMPDEST PUSH2 0x6A4 DUP6 DUP6 DUP6 PUSH2 0x1398 JUMP JUMPDEST PUSH1 0x1 SWAP2 POP POP SWAP4 SWAP3 POP POP POP JUMP JUMPDEST PUSH0 PUSH1 0x12 SWAP1 POP SWAP1 JUMP JUMPDEST PUSH0 DUP1 PUSH2 0x6C2 PUSH2 0x1143 JUMP JUMPDEST SWAP1 POP PUSH2 0x6E3 DUP2 DUP6 DUP6 PUSH2 0x6D4 DUP6 DUP10 PUSH2 0xFD9 JUMP JUMPDEST PUSH2 0x6DE SWAP2 SWAP1 PUSH2 0x1F35 JUMP JUMPDEST PUSH2 0x114A JUMP JUMPDEST PUSH1 0x1 SWAP2 POP POP SWAP3 SWAP2 POP POP JUMP JUMPDEST PUSH1 0x6 PUSH1 0x20 MSTORE DUP1 PUSH0 MSTORE PUSH1 0x40 PUSH0 KECCAK256 PUSH0 SWAP2 POP SWAP1 POP DUP1 PUSH0 ADD DUP1 SLOAD PUSH2 0x70D SWAP1 PUSH2 0x1ED8 JUMP JUMPDEST DUP1 PUSH1 0x1F ADD PUSH1 0x20 DUP1 SWAP2 DIV MUL PUSH1 0x20 ADD PUSH1 0x40 MLOAD SWAP1 DUP2 ADD PUSH1 0x40 MSTORE DUP1 SWAP3 SWAP2 SWAP1 DUP2 DUP2 MSTORE PUSH1 0x20 ADD DUP3 DUP1 SLOAD PUSH2 0x739 SWAP1 PUSH2 0x1ED8 JUMP JUMPDEST DUP1 ISZERO PUSH2 0x784 JUMPI DUP1 PUSH1 0x1F LT PUSH2 0x75B JUMPI PUSH2 0x100 DUP1 DUP4 SLOAD DIV MUL DUP4 MSTORE SWAP2 PUSH1 0x20 ADD SWAP2 PUSH2 0x784 JUMP JUMPDEST DUP3 ADD SWAP2 SWAP1 PUSH0 MSTORE PUSH1 0x20 PUSH0 KECCAK256 SWAP1 JUMPDEST DUP2 SLOAD DUP2 MSTORE SWAP1 PUSH1 0x1 ADD SWAP1 PUSH1 0x20 ADD DUP1 DUP4 GT PUSH2 0x767 JUMPI DUP3 SWAP1 SUB PUSH1 0x1F AND DUP3 ADD SWAP2 JUMPDEST POP POP POP POP POP SWAP1 DUP1 PUSH1 0x1 ADD SLOAD SWAP1 POP DUP3 JUMP JUMPDEST PUSH2 0x79C PUSH2 0x1604 JUMP JUMPDEST PUSH2 0x7A6 DUP3 DUP3 PUSH2 0x1682 JUMP JUMPDEST POP POP JUMP JUMPDEST PUSH1 0x8 PUSH1 0x20 MSTORE DUP2 PUSH0 MSTORE PUSH1 0x40 PUSH0 KECCAK256 DUP2 DUP2 SLOAD DUP2 LT PUSH2 0x7C3 JUMPI PUSH0 DUP1 REVERT JUMPDEST SWAP1 PUSH0 MSTORE PUSH1 0x20 PUSH0 KECCAK256 SWAP1 PUSH1 0x2 MUL ADD PUSH0 SWAP2 POP SWAP2 POP POP DUP1 PUSH0 ADD DUP1 SLOAD PUSH2 0x7E3 SWAP1 PUSH2 0x1ED8 JUMP JUMPDEST DUP1 PUSH1 0x1F ADD PUSH1 0x20 DUP1 SWAP2 DIV MUL PUSH1 0x20 ADD PUSH1 0x40 MLOAD SWAP1 DUP2 ADD PUSH1 0x40 MSTORE DUP1 SWAP3 SWAP2 SWAP1 DUP2 DUP2 MSTORE PUSH1 0x20 ADD DUP3 DUP1 SLOAD PUSH2 0x80F SWAP1 PUSH2 0x1ED8 JUMP JUMPDEST DUP1 ISZERO PUSH2 0x85A JUMPI DUP1 PUSH1 0x1F LT PUSH2 0x831 JUMPI PUSH2 0x100 DUP1 DUP4 SLOAD DIV MUL DUP4 MSTORE SWAP2 PUSH1 0x20 ADD SWAP2 PUSH2 0x85A JUMP JUMPDEST DUP3 ADD SWAP2 SWAP1 PUSH0 MSTORE PUSH1 0x20 PUSH0 KECCAK256 SWAP1 JUMPDEST DUP2 SLOAD DUP2 MSTORE SWAP1 PUSH1 0x1 ADD SWAP1 PUSH1 0x20 ADD DUP1 DUP4 GT PUSH2 0x83D JUMPI DUP3 SWAP1 SUB PUSH1 0x1F AND DUP3 ADD SWAP2 JUMPDEST POP POP POP POP POP SWAP1 DUP1 PUSH1 0x1 ADD SLOAD SWAP1 POP DUP3 JUMP JUMPDEST DUP1 PUSH2 0x874 CALLER PUSH2 0x8C2 JUMP JUMPDEST LT ISZERO PUSH2 0x8B5 JUMPI PUSH1 0x40 MLOAD PUSH32 0x8C379A000000000000000000000000000000000000000000000000000000000 DUP2 MSTORE PUSH1 0x4 ADD PUSH2 0x8AC SWAP1 PUSH2 0x1FD8 JUMP JUMPDEST PUSH1 0x40 MLOAD DUP1 SWAP2 SUB SWAP1 REVERT JUMPDEST PUSH2 0x8BF CALLER DUP3 PUSH2 0x17D0 JUMP JUMPDEST POP JUMP JUMPDEST PUSH0 DUP1 PUSH0 DUP4 PUSH20 0xFFFFFFFFFFFFFFFFFFFFFFFFFFFFFFFFFFFFFFFF AND PUSH20 0xFFFFFFFFFFFFFFFFFFFFFFFFFFFFFFFFFFFFFFFF AND DUP2 MSTORE PUSH1 0x20 ADD SWAP1 DUP2 MSTORE PUSH1 0x20 ADD PUSH0 KECCAK256 SLOAD SWAP1 POP SWAP2 SWAP1 POP JUMP JUMPDEST PUSH2 0x90F PUSH2 0x1604 JUMP JUMPDEST PUSH2 0x918 PUSH0 PUSH2 0x1993 JUMP JUMPDEST JUMP JUMPDEST PUSH2 0x923 DUP3 PUSH2 0x8C2 JUMP JUMPDEST PUSH1 0x6 PUSH0 DUP4 DUP2 MSTORE PUSH1 0x20 ADD SWAP1 DUP2 MSTORE PUSH1 0x20 ADD PUSH0 KECCAK256 PUSH1 0x1 ADD SLOAD GT ISZERO PUSH2 0x979 JUMPI PUSH1 0x40 MLOAD PUSH32 0x8C379A000000000000000000000000000000000000000000000000000000000 DUP2 MSTORE PUSH1 0x4 ADD PUSH2 0x970 SWAP1 PUSH2 0x2040 JUMP JUMPDEST PUSH1 0x40 MLOAD DUP1 SWAP2 SUB SWAP1 REVERT JUMPDEST PUSH1 0x6 PUSH0 DUP3 DUP2 MSTORE PUSH1 0x20 ADD SWAP1 DUP2 MSTORE PUSH1 0x20 ADD PUSH0 KECCAK256 PUSH1 0x1 ADD SLOAD PUSH2 0x997 DUP4 PUSH2 0x8C2 JUMP JUMPDEST LT ISZERO PUSH2 0x9D8 JUMPI PUSH1 0x40 MLOAD PUSH32 0x8C379A000000000000000000000000000000000000000000000000000000000 DUP2 MSTORE PUSH1 0x4 ADD PUSH2 0x9CF SWAP1 PUSH2 0x20CE JUMP JUMPDEST PUSH1 0x40 MLOAD DUP1 SWAP2 SUB SWAP1 REVERT JUMPDEST PUSH2 0x9F6 DUP3 PUSH1 0x6 PUSH0 DUP5 DUP2 MSTORE PUSH1 0x20 ADD SWAP1 DUP2 MSTORE PUSH1 0x20 ADD PUSH0 KECCAK256 PUSH1 0x1 ADD SLOAD PUSH2 0x17D0 JUMP JUMPDEST PUSH1 0x1 PUSH1 0x7 PUSH0 DUP5 PUSH20 0xFFFFFFFFFFFFFFFFFFFFFFFFFFFFFFFFFFFFFFFF AND PUSH20 0xFFFFFFFFFFFFFFFFFFFFFFFFFFFFFFFFFFFFFFFF AND DUP2 MSTORE PUSH1 0x20 ADD SWAP1 DUP2 MSTORE PUSH1 0x20 ADD PUSH0 KECCAK256 PUSH0 DUP4 DUP2 MSTORE PUSH1 0x20 ADD SWAP1 DUP2 MSTORE PUSH1 0x20 ADD PUSH0 KECCAK256 PUSH0 DUP3 DUP3 SLOAD PUSH2 0xA52 SWAP2 SWAP1 PUSH2 0x1F35 JUMP JUMPDEST SWAP3 POP POP DUP2 SWAP1 SSTORE POP PUSH1 0x8 PUSH0 DUP4 PUSH20 0xFFFFFFFFFFFFFFFFFFFFFFFFFFFFFFFFFFFFFFFF AND PUSH20 0xFFFFFFFFFFFFFFFFFFFFFFFFFFFFFFFFFFFFFFFF AND DUP2 MSTORE PUSH1 0x20 ADD SWAP1 DUP2 MSTORE PUSH1 0x20 ADD PUSH0 KECCAK256 PUSH1 0x40 MLOAD DUP1 PUSH1 0x40 ADD PUSH1 0x40 MSTORE DUP1 PUSH1 0x6 PUSH0 DUP6 DUP2 MSTORE PUSH1 0x20 ADD SWAP1 DUP2 MSTORE PUSH1 0x20 ADD PUSH0 KECCAK256 PUSH0 ADD DUP1 SLOAD PUSH2 0xABF SWAP1 PUSH2 0x1ED8 JUMP JUMPDEST DUP1 PUSH1 0x1F ADD PUSH1 0x20 DUP1 SWAP2 DIV MUL PUSH1 0x20 ADD PUSH1 0x40 MLOAD SWAP1 DUP2 ADD PUSH1 0x40 MSTORE DUP1 SWAP3 SWAP2 SWAP1 DUP2 DUP2 MSTORE PUSH1 0x20 ADD DUP3 DUP1 SLOAD PUSH2 0xAEB SWAP1 PUSH2 0x1ED8 JUMP JUMPDEST DUP1 ISZERO PUSH2 0xB36 JUMPI DUP1 PUSH1 0x1F LT PUSH2 0xB0D JUMPI PUSH2 0x100 DUP1 DUP4 SLOAD DIV MUL DUP4 MSTORE SWAP2 PUSH1 0x20 ADD SWAP2 PUSH2 0xB36 JUMP JUMPDEST DUP3 ADD SWAP2 SWAP1 PUSH0 MSTORE PUSH1 0x20 PUSH0 KECCAK256 SWAP1 JUMPDEST DUP2 SLOAD DUP2 MSTORE SWAP1 PUSH1 0x1 ADD SWAP1 PUSH1 0x20 ADD DUP1 DUP4 GT PUSH2 0xB19 JUMPI DUP3 SWAP1 SUB PUSH1 0x1F AND DUP3 ADD SWAP2 JUMPDEST POP POP POP POP POP DUP2 MSTORE PUSH1 0x20 ADD DUP4 DUP2 MSTORE POP SWAP1 DUP1 PUSH1 0x1 DUP2 SLOAD ADD DUP1 DUP3 SSTORE DUP1 SWAP2 POP POP PUSH1 0x1 SWAP1 SUB SWAP1 PUSH0 MSTORE PUSH1 0x20 PUSH0 KECCAK256 SWAP1 PUSH1 0x2 MUL ADD PUSH0 SWAP1 SWAP2 SWAP1 SWAP2 SWAP1 SWAP2 POP PUSH0 DUP3 ADD MLOAD DUP2 PUSH0 ADD SWAP1 DUP2 PUSH2 0xB7D SWAP2 SWAP1 PUSH2 0x22B6 JUMP JUMPDEST POP PUSH1 0x20 DUP3 ADD MLOAD DUP2 PUSH1 0x1 ADD SSTORE POP POP POP POP JUMP JUMPDEST PUSH0 PUSH1 0x5 PUSH0 SWAP1 SLOAD SWAP1 PUSH2 0x100 EXP SWAP1 DIV PUSH20 0xFFFFFFFFFFFFFFFFFFFFFFFFFFFFFFFFFFFFFFFF AND SWAP1 POP SWAP1 JUMP JUMPDEST PUSH1 0x60 PUSH1 0x4 DUP1 SLOAD PUSH2 0xBC5 SWAP1 PUSH2 0x1ED8 JUMP JUMPDEST DUP1 PUSH1 0x1F ADD PUSH1 0x20 DUP1 SWAP2 DIV MUL PUSH1 0x20 ADD PUSH1 0x40 MLOAD SWAP1 DUP2 ADD PUSH1 0x40 MSTORE DUP1 SWAP3 SWAP2 SWAP1 DUP2 DUP2 MSTORE PUSH1 0x20 ADD DUP3 DUP1 SLOAD PUSH2 0xBF1 SWAP1 PUSH2 0x1ED8 JUMP JUMPDEST DUP1 ISZERO PUSH2 0xC3C JUMPI DUP1 PUSH1 0x1F LT PUSH2 0xC13 JUMPI PUSH2 0x100 DUP1 DUP4 SLOAD DIV MUL DUP4 MSTORE SWAP2 PUSH1 0x20 ADD SWAP2 PUSH2 0xC3C JUMP JUMPDEST DUP3 ADD SWAP2 SWAP1 PUSH0 MSTORE PUSH1 0x20 PUSH0 KECCAK256 SWAP1 JUMPDEST DUP2 SLOAD DUP2 MSTORE SWAP1 PUSH1 0x1 ADD SWAP1 PUSH1 0x20 ADD DUP1 DUP4 GT PUSH2 0xC1F JUMPI DUP3 SWAP1 SUB PUSH1 0x1F AND DUP3 ADD SWAP2 JUMPDEST POP POP POP POP POP SWAP1 POP SWAP1 JUMP JUMPDEST PUSH0 DUP1 PUSH2 0xC50 PUSH2 0x1143 JUMP JUMPDEST SWAP1 POP PUSH0 PUSH2 0xC5D DUP3 DUP7 PUSH2 0xFD9 JUMP JUMPDEST SWAP1 POP DUP4 DUP2 LT ISZERO PUSH2 0xCA2 JUMPI PUSH1 0x40 MLOAD PUSH32 0x8C379A000000000000000000000000000000000000000000000000000000000 DUP2 MSTORE PUSH1 0x4 ADD PUSH2 0xC99 SWAP1 PUSH2 0x23F5 JUMP JUMPDEST PUSH1 0x40 MLOAD DUP1 SWAP2 SUB SWAP1 REVERT JUMPDEST PUSH2 0xCAF DUP3 DUP7 DUP7 DUP5 SUB PUSH2 0x114A JUMP JUMPDEST PUSH1 0x1 SWAP3 POP POP POP SWAP3 SWAP2 POP POP JUMP JUMPDEST PUSH0 DUP1 PUSH2 0xCC5 PUSH2 0x1143 JUMP JUMPDEST SWAP1 POP PUSH2 0xCD2 DUP2 DUP6 DUP6 PUSH2 0x1398 JUMP JUMPDEST PUSH1 0x1 SWAP2 POP POP SWAP3 SWAP2 POP POP JUMP JUMPDEST PUSH1 0x60 PUSH0 PUSH1 0x8 PUSH8 0xFFFFFFFFFFFFFFFF DUP2 GT ISZERO PUSH2 0xCFB JUMPI PUSH2 0xCFA PUSH2 0x20EC JUMP JUMPDEST JUMPDEST PUSH1 0x40 MLOAD SWAP1 DUP1 DUP3 MSTORE DUP1 PUSH1 0x20 MUL PUSH1 0x20 ADD DUP3 ADD PUSH1 0x40 MSTORE DUP1 ISZERO PUSH2 0xD2E JUMPI DUP2 PUSH1 0x20 ADD JUMPDEST PUSH1 0x60 DUP2 MSTORE PUSH1 0x20 ADD SWAP1 PUSH1 0x1 SWAP1 SUB SWAP1 DUP2 PUSH2 0xD19 JUMPI SWAP1 POP JUMPDEST POP SWAP1 POP PUSH0 PUSH1 0x1 SWAP1 POP JUMPDEST PUSH1 0x8 DUP2 GT PUSH2 0xE16 JUMPI PUSH1 0x6 PUSH0 DUP3 DUP2 MSTORE PUSH1 0x20 ADD SWAP1 DUP2 MSTORE PUSH1 0x20 ADD PUSH0 KECCAK256 PUSH0 ADD DUP1 SLOAD PUSH2 0xD5D SWAP1 PUSH2 0x1ED8 JUMP JUMPDEST DUP1 PUSH1 0x1F ADD PUSH1 0x20 DUP1 SWAP2 DIV MUL PUSH1 0x20 ADD PUSH1 0x40 MLOAD SWAP1 DUP2 ADD PUSH1 0x40 MSTORE DUP1 SWAP3 SWAP2 SWAP1 DUP2 DUP2 MSTORE PUSH1 0x20 ADD DUP3 DUP1 SLOAD PUSH2 0xD89 SWAP1 PUSH2 0x1ED8 JUMP JUMPDEST DUP1 ISZERO PUSH2 0xDD4 JUMPI DUP1 PUSH1 0x1F LT PUSH2 0xDAB JUMPI PUSH2 0x100 DUP1 DUP4 SLOAD DIV MUL DUP4 MSTORE SWAP2 PUSH1 0x20 ADD SWAP2 PUSH2 0xDD4 JUMP JUMPDEST DUP3 ADD SWAP2 SWAP1 PUSH0 MSTORE PUSH1 0x20 PUSH0 KECCAK256 SWAP1 JUMPDEST DUP2 SLOAD DUP2 MSTORE SWAP1 PUSH1 0x1 ADD SWAP1 PUSH1 0x20 ADD DUP1 DUP4 GT PUSH2 0xDB7 JUMPI DUP3 SWAP1 SUB PUSH1 0x1F AND DUP3 ADD SWAP2 JUMPDEST POP POP POP POP POP DUP3 PUSH1 0x1 DUP4 PUSH2 0xDE7 SWAP2 SWAP1 PUSH2 0x2413 JUMP JUMPDEST DUP2 MLOAD DUP2 LT PUSH2 0xDF8 JUMPI PUSH2 0xDF7 PUSH2 0x2446 JUMP JUMPDEST JUMPDEST PUSH1 0x20 MUL PUSH1 0x20 ADD ADD DUP2 SWAP1 MSTORE POP DUP1 DUP1 PUSH2 0xE0E SWAP1 PUSH2 0x2473 JUMP JUMPDEST SWAP2 POP POP PUSH2 0xD37 JUMP JUMPDEST POP DUP1 SWAP2 POP POP SWAP1 JUMP JUMPDEST PUSH1 0x60 PUSH0 PUSH1 0x8 PUSH0 DUP5 PUSH20 0xFFFFFFFFFFFFFFFFFFFFFFFFFFFFFFFFFFFFFFFF AND PUSH20 0xFFFFFFFFFFFFFFFFFFFFFFFFFFFFFFFFFFFFFFFF AND DUP2 MSTORE PUSH1 0x20 ADD SWAP1 DUP2 MSTORE PUSH1 0x20 ADD PUSH0 KECCAK256 DUP1 SLOAD SWAP1 POP SWAP1 POP PUSH0 DUP2 PUSH8 0xFFFFFFFFFFFFFFFF DUP2 GT ISZERO PUSH2 0xE7F JUMPI PUSH2 0xE7E PUSH2 0x20EC JUMP JUMPDEST JUMPDEST PUSH1 0x40 MLOAD SWAP1 DUP1 DUP3 MSTORE DUP1 PUSH1 0x20 MUL PUSH1 0x20 ADD DUP3 ADD PUSH1 0x40 MSTORE DUP1 ISZERO PUSH2 0xEB2 JUMPI DUP2 PUSH1 0x20 ADD JUMPDEST PUSH1 0x60 DUP2 MSTORE PUSH1 0x20 ADD SWAP1 PUSH1 0x1 SWAP1 SUB SWAP1 DUP2 PUSH2 0xE9D JUMPI SWAP1 POP JUMPDEST POP SWAP1 POP PUSH0 JUMPDEST DUP3 DUP2 LT ISZERO PUSH2 0xFCE JUMPI PUSH1 0x8 PUSH0 DUP7 PUSH20 0xFFFFFFFFFFFFFFFFFFFFFFFFFFFFFFFFFFFFFFFF AND PUSH20 0xFFFFFFFFFFFFFFFFFFFFFFFFFFFFFFFFFFFFFFFF AND DUP2 MSTORE PUSH1 0x20 ADD SWAP1 DUP2 MSTORE PUSH1 0x20 ADD PUSH0 KECCAK256 DUP2 DUP2 SLOAD DUP2 LT PUSH2 0xF0E JUMPI PUSH2 0xF0D PUSH2 0x2446 JUMP JUMPDEST JUMPDEST SWAP1 PUSH0 MSTORE PUSH1 0x20 PUSH0 KECCAK256 SWAP1 PUSH1 0x2 MUL ADD PUSH0 ADD DUP1 SLOAD PUSH2 0xF27 SWAP1 PUSH2 0x1ED8 JUMP JUMPDEST DUP1 PUSH1 0x1F ADD PUSH1 0x20 DUP1 SWAP2 DIV MUL PUSH1 0x20 ADD PUSH1 0x40 MLOAD SWAP1 DUP2 ADD PUSH1 0x40 MSTORE DUP1 SWAP3 SWAP2 SWAP1 DUP2 DUP2 MSTORE PUSH1 0x20 ADD DUP3 DUP1 SLOAD PUSH2 0xF53 SWAP1 PUSH2 0x1ED8 JUMP JUMPDEST DUP1 ISZERO PUSH2 0xF9E JUMPI DUP1 PUSH1 0x1F LT PUSH2 0xF75 JUMPI PUSH2 0x100 DUP1 DUP4 SLOAD DIV MUL DUP4 MSTORE SWAP2 PUSH1 0x20 ADD SWAP2 PUSH2 0xF9E JUMP JUMPDEST DUP3 ADD SWAP2 SWAP1 PUSH0 MSTORE PUSH1 0x20 PUSH0 KECCAK256 SWAP1 JUMPDEST DUP2 SLOAD DUP2 MSTORE SWAP1 PUSH1 0x1 ADD SWAP1 PUSH1 0x20 ADD DUP1 DUP4 GT PUSH2 0xF81 JUMPI DUP3 SWAP1 SUB PUSH1 0x1F AND DUP3 ADD SWAP2 JUMPDEST POP POP POP POP POP DUP3 DUP3 DUP2 MLOAD DUP2 LT PUSH2 0xFB6 JUMPI PUSH2 0xFB5 PUSH2 0x2446 JUMP JUMPDEST JUMPDEST PUSH1 0x20 MUL PUSH1 0x20 ADD ADD DUP2 SWAP1 MSTORE POP DUP1 DUP1 PUSH1 0x1 ADD SWAP2 POP POP PUSH2 0xEB7 JUMP JUMPDEST POP DUP1 SWAP3 POP POP POP SWAP2 SWAP1 POP JUMP JUMPDEST PUSH0 PUSH1 0x1 PUSH0 DUP5 PUSH20 0xFFFFFFFFFFFFFFFFFFFFFFFFFFFFFFFFFFFFFFFF AND PUSH20 0xFFFFFFFFFFFFFFFFFFFFFFFFFFFFFFFFFFFFFFFF AND DUP2 MSTORE PUSH1 0x20 ADD SWAP1 DUP2 MSTORE PUSH1 0x20 ADD PUSH0 KECCAK256 PUSH0 DUP4 PUSH20 0xFFFFFFFFFFFFFFFFFFFFFFFFFFFFFFFFFFFFFFFF AND PUSH20 0xFFFFFFFFFFFFFFFFFFFFFFFFFFFFFFFFFFFFFFFF AND DUP2 MSTORE PUSH1 0x20 ADD SWAP1 DUP2 MSTORE PUSH1 0x20 ADD PUSH0 KECCAK256 SLOAD SWAP1 POP SWAP3 SWAP2 POP POP JUMP JUMPDEST PUSH2 0x1063 PUSH2 0x1604 JUMP JUMPDEST PUSH0 PUSH20 0xFFFFFFFFFFFFFFFFFFFFFFFFFFFFFFFFFFFFFFFF AND DUP2 PUSH20 0xFFFFFFFFFFFFFFFFFFFFFFFFFFFFFFFFFFFFFFFF AND SUB PUSH2 0x10D1 JUMPI PUSH1 0x40 MLOAD PUSH32 0x8C379A000000000000000000000000000000000000000000000000000000000 DUP2 MSTORE PUSH1 0x4 ADD PUSH2 0x10C8 SWAP1 PUSH2 0x252A JUMP JUMPDEST PUSH1 0x40 MLOAD DUP1 SWAP2 SUB SWAP1 REVERT JUMPDEST PUSH2 0x10DA DUP2 PUSH2 0x1993 JUMP JUMPDEST POP JUMP JUMPDEST DUP1 PUSH2 0x10E7 DUP5 PUSH2 0x8C2 JUMP JUMPDEST LT ISZERO PUSH2 0x1128 JUMPI PUSH1 0x40 MLOAD PUSH32 0x8C379A000000000000000000000000000000000000000000000000000000000 DUP2 MSTORE PUSH1 0x4 ADD PUSH2 0x111F SWAP1 PUSH2 0x25B8 JUMP JUMPDEST PUSH1 0x40 MLOAD DUP1 SWAP2 SUB SWAP1 REVERT JUMPDEST PUSH2 0x1132 DUP4 DUP3 PUSH2 0x637 JUMP JUMPDEST POP PUSH2 0x113E DUP4 DUP4 DUP4 PUSH2 0x1398 JUMP JUMPDEST POP POP POP JUMP JUMPDEST PUSH0 CALLER SWAP1 POP SWAP1 JUMP JUMPDEST PUSH0 PUSH20 0xFFFFFFFFFFFFFFFFFFFFFFFFFFFFFFFFFFFFFFFF AND DUP4 PUSH20 0xFFFFFFFFFFFFFFFFFFFFFFFFFFFFFFFFFFFFFFFF AND SUB PUSH2 0x11B8 JUMPI PUSH1 0x40 MLOAD PUSH32 0x8C379A000000000000000000000000000000000000000000000000000000000 DUP2 MSTORE PUSH1 0x4 ADD PUSH2 0x11AF SWAP1 PUSH2 0x2646 JUMP JUMPDEST PUSH1 0x40 MLOAD DUP1 SWAP2 SUB SWAP1 REVERT JUMPDEST PUSH0 PUSH20 0xFFFFFFFFFFFFFFFFFFFFFFFFFFFFFFFFFFFFFFFF AND DUP3 PUSH20 0xFFFFFFFFFFFFFFFFFFFFFFFFFFFFFFFFFFFFFFFF AND SUB PUSH2 0x1226 JUMPI PUSH1 0x40 MLOAD PUSH32 0x8C379A000000000000000000000000000000000000000000000000000000000 DUP2 MSTORE PUSH1 0x4 ADD PUSH2 0x121D SWAP1 PUSH2 0x26D4 JUMP JUMPDEST PUSH1 0x40 MLOAD DUP1 SWAP2 SUB SWAP1 REVERT JUMPDEST DUP1 PUSH1 0x1 PUSH0 DUP6 PUSH20 0xFFFFFFFFFFFFFFFFFFFFFFFFFFFFFFFFFFFFFFFF AND PUSH20 0xFFFFFFFFFFFFFFFFFFFFFFFFFFFFFFFFFFFFFFFF AND DUP2 MSTORE PUSH1 0x20 ADD SWAP1 DUP2 MSTORE PUSH1 0x20 ADD PUSH0 KECCAK256 PUSH0 DUP5 PUSH20 0xFFFFFFFFFFFFFFFFFFFFFFFFFFFFFFFFFFFFFFFF AND PUSH20 0xFFFFFFFFFFFFFFFFFFFFFFFFFFFFFFFFFFFFFFFF AND DUP2 MSTORE PUSH1 0x20 ADD SWAP1 DUP2 MSTORE PUSH1 0x20 ADD PUSH0 KECCAK256 DUP2 SWAP1 SSTORE POP DUP2 PUSH20 0xFFFFFFFFFFFFFFFFFFFFFFFFFFFFFFFFFFFFFFFF AND DUP4 PUSH20 0xFFFFFFFFFFFFFFFFFFFFFFFFFFFFFFFFFFFFFFFF AND PUSH32 0x8C5BE1E5EBEC7D5BD14F71427D1E84F3DD0314C0F7B2291E5B200AC8C7C3B925 DUP4 PUSH1 0x40 MLOAD PUSH2 0x1300 SWAP2 SWAP1 PUSH2 0x1C01 JUMP JUMPDEST PUSH1 0x40 MLOAD DUP1 SWAP2 SUB SWAP1 LOG3 POP POP POP JUMP JUMPDEST PUSH0 PUSH2 0x1318 DUP5 DUP5 PUSH2 0xFD9 JUMP JUMPDEST SWAP1 POP PUSH32 0xFFFFFFFFFFFFFFFFFFFFFFFFFFFFFFFFFFFFFFFFFFFFFFFFFFFFFFFFFFFFFFFF DUP2 EQ PUSH2 0x1392 JUMPI DUP2 DUP2 LT ISZERO PUSH2 0x1384 JUMPI PUSH1 0x40 MLOAD PUSH32 0x8C379A000000000000000000000000000000000000000000000000000000000 DUP2 MSTORE PUSH1 0x4 ADD PUSH2 0x137B SWAP1 PUSH2 0x273C JUMP JUMPDEST PUSH1 0x40 MLOAD DUP1 SWAP2 SUB SWAP1 REVERT JUMPDEST PUSH2 0x1391 DUP5 DUP5 DUP5 DUP5 SUB PUSH2 0x114A JUMP JUMPDEST JUMPDEST POP POP POP POP JUMP JUMPDEST PUSH0 PUSH20 0xFFFFFFFFFFFFFFFFFFFFFFFFFFFFFFFFFFFFFFFF AND DUP4 PUSH20 0xFFFFFFFFFFFFFFFFFFFFFFFFFFFFFFFFFFFFFFFF AND SUB PUSH2 0x1406 JUMPI PUSH1 0x40 MLOAD PUSH32 0x8C379A000000000000000000000000000000000000000000000000000000000 DUP2 MSTORE PUSH1 0x4 ADD PUSH2 0x13FD SWAP1 PUSH2 0x27CA JUMP JUMPDEST PUSH1 0x40 MLOAD DUP1 SWAP2 SUB SWAP1 REVERT JUMPDEST PUSH0 PUSH20 0xFFFFFFFFFFFFFFFFFFFFFFFFFFFFFFFFFFFFFFFF AND DUP3 PUSH20 0xFFFFFFFFFFFFFFFFFFFFFFFFFFFFFFFFFFFFFFFF AND SUB PUSH2 0x1474 JUMPI PUSH1 0x40 MLOAD PUSH32 0x8C379A000000000000000000000000000000000000000000000000000000000 DUP2 MSTORE PUSH1 0x4 ADD PUSH2 0x146B SWAP1 PUSH2 0x2858 JUMP JUMPDEST PUSH1 0x40 MLOAD DUP1 SWAP2 SUB SWAP1 REVERT JUMPDEST PUSH2 0x147F DUP4 DUP4 DUP4 PUSH2 0x1A56 JUMP JUMPDEST PUSH0 DUP1 PUSH0 DUP6 PUSH20 0xFFFFFFFFFFFFFFFFFFFFFFFFFFFFFFFFFFFFFFFF AND PUSH20 0xFFFFFFFFFFFFFFFFFFFFFFFFFFFFFFFFFFFFFFFF AND DUP2 MSTORE PUSH1 0x20 ADD SWAP1 DUP2 MSTORE PUSH1 0x20 ADD PUSH0 KECCAK256 SLOAD SWAP1 POP DUP2 DUP2 LT ISZERO PUSH2 0x1502 JUMPI PUSH1 0x40 MLOAD PUSH32 0x8C379A000000000000000000000000000000000000000000000000000000000 DUP2 MSTORE PUSH1 0x4 ADD PUSH2 0x14F9 SWAP1 PUSH2 0x28E6 JUMP JUMPDEST PUSH1 0x40 MLOAD DUP1 SWAP2 SUB SWAP1 REVERT JUMPDEST DUP2 DUP2 SUB PUSH0 DUP1 DUP7 PUSH20 0xFFFFFFFFFFFFFFFFFFFFFFFFFFFFFFFFFFFFFFFF AND PUSH20 0xFFFFFFFFFFFFFFFFFFFFFFFFFFFFFFFFFFFFFFFF AND DUP2 MSTORE PUSH1 0x20 ADD SWAP1 DUP2 MSTORE PUSH1 0x20 ADD PUSH0 KECCAK256 DUP2 SWAP1 SSTORE POP DUP2 PUSH0 DUP1 DUP6 PUSH20 0xFFFFFFFFFFFFFFFFFFFFFFFFFFFFFFFFFFFFFFFF AND PUSH20 0xFFFFFFFFFFFFFFFFFFFFFFFFFFFFFFFFFFFFFFFF AND DUP2 MSTORE PUSH1 0x20 ADD SWAP1 DUP2 MSTORE PUSH1 0x20 ADD PUSH0 KECCAK256 PUSH0 DUP3 DUP3 SLOAD ADD SWAP3 POP POP DUP2 SWAP1 SSTORE POP DUP3 PUSH20 0xFFFFFFFFFFFFFFFFFFFFFFFFFFFFFFFFFFFFFFFF AND DUP5 PUSH20 0xFFFFFFFFFFFFFFFFFFFFFFFFFFFFFFFFFFFFFFFF AND PUSH32 0xDDF252AD1BE2C89B69C2B068FC378DAA952BA7F163C4A11628F55A4DF523B3EF DUP5 PUSH1 0x40 MLOAD PUSH2 0x15EB SWAP2 SWAP1 PUSH2 0x1C01 JUMP JUMPDEST PUSH1 0x40 MLOAD DUP1 SWAP2 SUB SWAP1 LOG3 PUSH2 0x15FE DUP5 DUP5 DUP5 PUSH2 0x1A5B JUMP JUMPDEST POP POP POP POP JUMP JUMPDEST PUSH2 0x160C PUSH2 0x1143 JUMP JUMPDEST PUSH20 0xFFFFFFFFFFFFFFFFFFFFFFFFFFFFFFFFFFFFFFFF AND PUSH2 0x162A PUSH2 0xB8E JUMP JUMPDEST PUSH20 0xFFFFFFFFFFFFFFFFFFFFFFFFFFFFFFFFFFFFFFFF AND EQ PUSH2 0x1680 JUMPI PUSH1 0x40 MLOAD PUSH32 0x8C379A000000000000000000000000000000000000000000000000000000000 DUP2 MSTORE PUSH1 0x4 ADD PUSH2 0x1677 SWAP1 PUSH2 0x294E JUMP JUMPDEST PUSH1 0x40 MLOAD DUP1 SWAP2 SUB SWAP1 REVERT JUMPDEST JUMP JUMPDEST PUSH0 PUSH20 0xFFFFFFFFFFFFFFFFFFFFFFFFFFFFFFFFFFFFFFFF AND DUP3 PUSH20 0xFFFFFFFFFFFFFFFFFFFFFFFFFFFFFFFFFFFFFFFF AND SUB PUSH2 0x16F0 JUMPI PUSH1 0x40 MLOAD PUSH32 0x8C379A000000000000000000000000000000000000000000000000000000000 DUP2 MSTORE PUSH1 0x4 ADD PUSH2 0x16E7 SWAP1 PUSH2 0x29B6 JUMP JUMPDEST PUSH1 0x40 MLOAD DUP1 SWAP2 SUB SWAP1 REVERT JUMPDEST PUSH2 0x16FB PUSH0 DUP4 DUP4 PUSH2 0x1A56 JUMP JUMPDEST DUP1 PUSH1 0x2 PUSH0 DUP3 DUP3 SLOAD PUSH2 0x170C SWAP2 SWAP1 PUSH2 0x1F35 JUMP JUMPDEST SWAP3 POP POP DUP2 SWAP1 SSTORE POP DUP1 PUSH0 DUP1 DUP5 PUSH20 0xFFFFFFFFFFFFFFFFFFFFFFFFFFFFFFFFFFFFFFFF AND PUSH20 0xFFFFFFFFFFFFFFFFFFFFFFFFFFFFFFFFFFFFFFFF AND DUP2 MSTORE PUSH1 0x20 ADD SWAP1 DUP2 MSTORE PUSH1 0x20 ADD PUSH0 KECCAK256 PUSH0 DUP3 DUP3 SLOAD ADD SWAP3 POP POP DUP2 SWAP1 SSTORE POP DUP2 PUSH20 0xFFFFFFFFFFFFFFFFFFFFFFFFFFFFFFFFFFFFFFFF AND PUSH0 PUSH20 0xFFFFFFFFFFFFFFFFFFFFFFFFFFFFFFFFFFFFFFFF AND PUSH32 0xDDF252AD1BE2C89B69C2B068FC378DAA952BA7F163C4A11628F55A4DF523B3EF DUP4 PUSH1 0x40 MLOAD PUSH2 0x17B9 SWAP2 SWAP1 PUSH2 0x1C01 JUMP JUMPDEST PUSH1 0x40 MLOAD DUP1 SWAP2 SUB SWAP1 LOG3 PUSH2 0x17CC PUSH0 DUP4 DUP4 PUSH2 0x1A5B JUMP JUMPDEST POP POP JUMP JUMPDEST PUSH0 PUSH20 0xFFFFFFFFFFFFFFFFFFFFFFFFFFFFFFFFFFFFFFFF AND DUP3 PUSH20 0xFFFFFFFFFFFFFFFFFFFFFFFFFFFFFFFFFFFFFFFF AND SUB PUSH2 0x183E JUMPI PUSH1 0x40 MLOAD PUSH32 0x8C379A000000000000000000000000000000000000000000000000000000000 DUP2 MSTORE PUSH1 0x4 ADD PUSH2 0x1835 SWAP1 PUSH2 0x2A44 JUMP JUMPDEST PUSH1 0x40 MLOAD DUP1 SWAP2 SUB SWAP1 REVERT JUMPDEST PUSH2 0x1849 DUP3 PUSH0 DUP4 PUSH2 0x1A56 JUMP JUMPDEST PUSH0 DUP1 PUSH0 DUP5 PUSH20 0xFFFFFFFFFFFFFFFFFFFFFFFFFFFFFFFFFFFFFFFF AND PUSH20 0xFFFFFFFFFFFFFFFFFFFFFFFFFFFFFFFFFFFFFFFF AND DUP2 MSTORE PUSH1 0x20 ADD SWAP1 DUP2 MSTORE PUSH1 0x20 ADD PUSH0 KECCAK256 SLOAD SWAP1 POP DUP2 DUP2 LT ISZERO PUSH2 0x18CC JUMPI PUSH1 0x40 MLOAD PUSH32 0x8C379A000000000000000000000000000000000000000000000000000000000 DUP2 MSTORE PUSH1 0x4 ADD PUSH2 0x18C3 SWAP1 PUSH2 0x2AD2 JUMP JUMPDEST PUSH1 0x40 MLOAD DUP1 SWAP2 SUB SWAP1 REVERT JUMPDEST DUP2 DUP2 SUB PUSH0 DUP1 DUP6 PUSH20 0xFFFFFFFFFFFFFFFFFFFFFFFFFFFFFFFFFFFFFFFF AND PUSH20 0xFFFFFFFFFFFFFFFFFFFFFFFFFFFFFFFFFFFFFFFF AND DUP2 MSTORE PUSH1 0x20 ADD SWAP1 DUP2 MSTORE PUSH1 0x20 ADD PUSH0 KECCAK256 DUP2 SWAP1 SSTORE POP DUP2 PUSH1 0x2 PUSH0 DUP3 DUP3 SLOAD SUB SWAP3 POP POP DUP2 SWAP1 SSTORE POP PUSH0 PUSH20 0xFFFFFFFFFFFFFFFFFFFFFFFFFFFFFFFFFFFFFFFF AND DUP4 PUSH20 0xFFFFFFFFFFFFFFFFFFFFFFFFFFFFFFFFFFFFFFFF AND PUSH32 0xDDF252AD1BE2C89B69C2B068FC378DAA952BA7F163C4A11628F55A4DF523B3EF DUP5 PUSH1 0x40 MLOAD PUSH2 0x197B SWAP2 SWAP1 PUSH2 0x1C01 JUMP JUMPDEST PUSH1 0x40 MLOAD DUP1 SWAP2 SUB SWAP1 LOG3 PUSH2 0x198E DUP4 PUSH0 DUP5 PUSH2 0x1A5B JUMP JUMPDEST POP POP POP JUMP JUMPDEST PUSH0 PUSH1 0x5 PUSH0 SWAP1 SLOAD SWAP1 PUSH2 0x100 EXP SWAP1 DIV PUSH20 0xFFFFFFFFFFFFFFFFFFFFFFFFFFFFFFFFFFFFFFFF AND SWAP1 POP DUP2 PUSH1 0x5 PUSH0 PUSH2 0x100 EXP DUP2 SLOAD DUP2 PUSH20 0xFFFFFFFFFFFFFFFFFFFFFFFFFFFFFFFFFFFFFFFF MUL NOT AND SWAP1 DUP4 PUSH20 0xFFFFFFFFFFFFFFFFFFFFFFFFFFFFFFFFFFFFFFFF AND MUL OR SWAP1 SSTORE POP DUP2 PUSH20 0xFFFFFFFFFFFFFFFFFFFFFFFFFFFFFFFFFFFFFFFF AND DUP2 PUSH20 0xFFFFFFFFFFFFFFFFFFFFFFFFFFFFFFFFFFFFFFFF AND PUSH32 0x8BE0079C531659141344CD1FD0A4F28419497F9722A3DAAFE3B4186F6B6457E0 PUSH1 0x40 MLOAD PUSH1 0x40 MLOAD DUP1 SWAP2 SUB SWAP1 LOG3 POP POP JUMP JUMPDEST POP POP POP JUMP JUMPDEST POP POP POP JUMP JUMPDEST PUSH0 DUP2 MLOAD SWAP1 POP SWAP2 SWAP1 POP JUMP JUMPDEST PUSH0 DUP3 DUP3 MSTORE PUSH1 0x20 DUP3 ADD SWAP1 POP SWAP3 SWAP2 POP POP JUMP JUMPDEST DUP3 DUP2 DUP4 MCOPY PUSH0 DUP4 DUP4 ADD MSTORE POP POP POP JUMP JUMPDEST PUSH0 PUSH1 0x1F NOT PUSH1 0x1F DUP4 ADD AND SWAP1 POP SWAP2 SWAP1 POP JUMP JUMPDEST PUSH0 PUSH2 0x1AA2 DUP3 PUSH2 0x1A60 JUMP JUMPDEST PUSH2 0x1AAC DUP2 DUP6 PUSH2 0x1A6A JUMP JUMPDEST SWAP4 POP PUSH2 0x1ABC DUP2 DUP6 PUSH1 0x20 DUP7 ADD PUSH2 0x1A7A JUMP JUMPDEST PUSH2 0x1AC5 DUP2 PUSH2 0x1A88 JUMP JUMPDEST DUP5 ADD SWAP2 POP POP SWAP3 SWAP2 POP POP JUMP JUMPDEST PUSH0 PUSH1 0x20 DUP3 ADD SWAP1 POP DUP2 DUP2 SUB PUSH0 DUP4 ADD MSTORE PUSH2 0x1AE8 DUP2 DUP5 PUSH2 0x1A98 JUMP JUMPDEST SWAP1 POP SWAP3 SWAP2 POP POP JUMP JUMPDEST PUSH0 DUP1 REVERT JUMPDEST PUSH0 PUSH20 0xFFFFFFFFFFFFFFFFFFFFFFFFFFFFFFFFFFFFFFFF DUP3 AND SWAP1 POP SWAP2 SWAP1 POP JUMP JUMPDEST PUSH0 PUSH2 0x1B1D DUP3 PUSH2 0x1AF4 JUMP JUMPDEST SWAP1 POP SWAP2 SWAP1 POP JUMP JUMPDEST PUSH2 0x1B2D DUP2 PUSH2 0x1B13 JUMP JUMPDEST DUP2 EQ PUSH2 0x1B37 JUMPI PUSH0 DUP1 REVERT JUMPDEST POP JUMP JUMPDEST PUSH0 DUP2 CALLDATALOAD SWAP1 POP PUSH2 0x1B48 DUP2 PUSH2 0x1B24 JUMP JUMPDEST SWAP3 SWAP2 POP POP JUMP JUMPDEST PUSH0 DUP2 SWAP1 POP SWAP2 SWAP1 POP JUMP JUMPDEST PUSH2 0x1B60 DUP2 PUSH2 0x1B4E JUMP JUMPDEST DUP2 EQ PUSH2 0x1B6A JUMPI PUSH0 DUP1 REVERT JUMPDEST POP JUMP JUMPDEST PUSH0 DUP2 CALLDATALOAD SWAP1 POP PUSH2 0x1B7B DUP2 PUSH2 0x1B57 JUMP JUMPDEST SWAP3 SWAP2 POP POP JUMP JUMPDEST PUSH0 DUP1 PUSH1 0x40 DUP4 DUP6 SUB SLT ISZERO PUSH2 0x1B97 JUMPI PUSH2 0x1B96 PUSH2 0x1AF0 JUMP JUMPDEST JUMPDEST PUSH0 PUSH2 0x1BA4 DUP6 DUP3 DUP7 ADD PUSH2 0x1B3A JUMP JUMPDEST SWAP3 POP POP PUSH1 0x20 PUSH2 0x1BB5 DUP6 DUP3 DUP7 ADD PUSH2 0x1B6D JUMP JUMPDEST SWAP2 POP POP SWAP3 POP SWAP3 SWAP1 POP JUMP JUMPDEST PUSH0 DUP2 ISZERO ISZERO SWAP1 POP SWAP2 SWAP1 POP JUMP JUMPDEST PUSH2 0x1BD3 DUP2 PUSH2 0x1BBF JUMP JUMPDEST DUP3 MSTORE POP POP JUMP JUMPDEST PUSH0 PUSH1 0x20 DUP3 ADD SWAP1 POP PUSH2 0x1BEC PUSH0 DUP4 ADD DUP5 PUSH2 0x1BCA JUMP JUMPDEST SWAP3 SWAP2 POP POP JUMP JUMPDEST PUSH2 0x1BFB DUP2 PUSH2 0x1B4E JUMP JUMPDEST DUP3 MSTORE POP POP JUMP JUMPDEST PUSH0 PUSH1 0x20 DUP3 ADD SWAP1 POP PUSH2 0x1C14 PUSH0 DUP4 ADD DUP5 PUSH2 0x1BF2 JUMP JUMPDEST SWAP3 SWAP2 POP POP JUMP JUMPDEST PUSH0 DUP1 PUSH0 PUSH1 0x60 DUP5 DUP7 SUB SLT ISZERO PUSH2 0x1C31 JUMPI PUSH2 0x1C30 PUSH2 0x1AF0 JUMP JUMPDEST JUMPDEST PUSH0 PUSH2 0x1C3E DUP7 DUP3 DUP8 ADD PUSH2 0x1B3A JUMP JUMPDEST SWAP4 POP POP PUSH1 0x20 PUSH2 0x1C4F DUP7 DUP3 DUP8 ADD PUSH2 0x1B3A JUMP JUMPDEST SWAP3 POP POP PUSH1 0x40 PUSH2 0x1C60 DUP7 DUP3 DUP8 ADD PUSH2 0x1B6D JUMP JUMPDEST SWAP2 POP POP SWAP3 POP SWAP3 POP SWAP3 JUMP JUMPDEST PUSH0 PUSH1 0xFF DUP3 AND SWAP1 POP SWAP2 SWAP1 POP JUMP JUMPDEST PUSH2 0x1C7F DUP2 PUSH2 0x1C6A JUMP JUMPDEST DUP3 MSTORE POP POP JUMP JUMPDEST PUSH0 PUSH1 0x20 DUP3 ADD SWAP1 POP PUSH2 0x1C98 PUSH0 DUP4 ADD DUP5 PUSH2 0x1C76 JUMP JUMPDEST SWAP3 SWAP2 POP POP JUMP JUMPDEST PUSH0 PUSH1 0x20 DUP3 DUP5 SUB SLT ISZERO PUSH2 0x1CB3 JUMPI PUSH2 0x1CB2 PUSH2 0x1AF0 JUMP JUMPDEST JUMPDEST PUSH0 PUSH2 0x1CC0 DUP5 DUP3 DUP6 ADD PUSH2 0x1B6D JUMP JUMPDEST SWAP2 POP POP SWAP3 SWAP2 POP POP JUMP JUMPDEST PUSH0 PUSH1 0x40 DUP3 ADD SWAP1 POP DUP2 DUP2 SUB PUSH0 DUP4 ADD MSTORE PUSH2 0x1CE1 DUP2 DUP6 PUSH2 0x1A98 JUMP JUMPDEST SWAP1 POP PUSH2 0x1CF0 PUSH1 0x20 DUP4 ADD DUP5 PUSH2 0x1BF2 JUMP JUMPDEST SWAP4 SWAP3 POP POP POP JUMP JUMPDEST PUSH0 PUSH1 0x20 DUP3 DUP5 SUB SLT ISZERO PUSH2 0x1D0C JUMPI PUSH2 0x1D0B PUSH2 0x1AF0 JUMP JUMPDEST JUMPDEST PUSH0 PUSH2 0x1D19 DUP5 DUP3 DUP6 ADD PUSH2 0x1B3A JUMP JUMPDEST SWAP2 POP POP SWAP3 SWAP2 POP POP JUMP JUMPDEST PUSH2 0x1D2B DUP2 PUSH2 0x1B13 JUMP JUMPDEST DUP3 MSTORE POP POP JUMP JUMPDEST PUSH0 PUSH1 0x20 DUP3 ADD SWAP1 POP PUSH2 0x1D44 PUSH0 DUP4 ADD DUP5 PUSH2 0x1D22 JUMP JUMPDEST SWAP3 SWAP2 POP POP JUMP JUMPDEST PUSH0 DUP2 MLOAD SWAP1 POP SWAP2 SWAP1 POP JUMP JUMPDEST PUSH0 DUP3 DUP3 MSTORE PUSH1 0x20 DUP3 ADD SWAP1 POP SWAP3 SWAP2 POP POP JUMP JUMPDEST PUSH0 DUP2 SWAP1 POP PUSH1 0x20 DUP3 ADD SWAP1 POP SWAP2 SWAP1 POP JUMP JUMPDEST PUSH0 DUP3 DUP3 MSTORE PUSH1 0x20 DUP3 ADD SWAP1 POP SWAP3 SWAP2 POP POP JUMP JUMPDEST PUSH0 PUSH2 0x1D8D DUP3 PUSH2 0x1A60 JUMP JUMPDEST PUSH2 0x1D97 DUP2 DUP6 PUSH2 0x1D73 JUMP JUMPDEST SWAP4 POP PUSH2 0x1DA7 DUP2 DUP6 PUSH1 0x20 DUP7 ADD PUSH2 0x1A7A JUMP JUMPDEST PUSH2 0x1DB0 DUP2 PUSH2 0x1A88 JUMP JUMPDEST DUP5 ADD SWAP2 POP POP SWAP3 SWAP2 POP POP JUMP JUMPDEST PUSH0 PUSH2 0x1DC6 DUP4 DUP4 PUSH2 0x1D83 JUMP JUMPDEST SWAP1 POP SWAP3 SWAP2 POP POP JUMP JUMPDEST PUSH0 PUSH1 0x20 DUP3 ADD SWAP1 POP SWAP2 SWAP1 POP JUMP JUMPDEST PUSH0 PUSH2 0x1DE4 DUP3 PUSH2 0x1D4A JUMP JUMPDEST PUSH2 0x1DEE DUP2 DUP6 PUSH2 0x1D54 JUMP JUMPDEST SWAP4 POP DUP4 PUSH1 0x20 DUP3 MUL DUP6 ADD PUSH2 0x1E00 DUP6 PUSH2 0x1D64 JUMP JUMPDEST DUP1 PUSH0 JUMPDEST DUP6 DUP2 LT ISZERO PUSH2 0x1E3B JUMPI DUP5 DUP5 SUB DUP10 MSTORE DUP2 MLOAD PUSH2 0x1E1C DUP6 DUP3 PUSH2 0x1DBB JUMP JUMPDEST SWAP5 POP PUSH2 0x1E27 DUP4 PUSH2 0x1DCE JUMP JUMPDEST SWAP3 POP PUSH1 0x20 DUP11 ADD SWAP10 POP POP PUSH1 0x1 DUP2 ADD SWAP1 POP PUSH2 0x1E03 JUMP JUMPDEST POP DUP3 SWAP8 POP DUP8 SWAP6 POP POP POP POP POP POP SWAP3 SWAP2 POP POP JUMP JUMPDEST PUSH0 PUSH1 0x20 DUP3 ADD SWAP1 POP DUP2 DUP2 SUB PUSH0 DUP4 ADD MSTORE PUSH2 0x1E65 DUP2 DUP5 PUSH2 0x1DDA JUMP JUMPDEST SWAP1 POP SWAP3 SWAP2 POP POP JUMP JUMPDEST PUSH0 DUP1 PUSH1 0x40 DUP4 DUP6 SUB SLT ISZERO PUSH2 0x1E83 JUMPI PUSH2 0x1E82 PUSH2 0x1AF0 JUMP JUMPDEST JUMPDEST PUSH0 PUSH2 0x1E90 DUP6 DUP3 DUP7 ADD PUSH2 0x1B3A JUMP JUMPDEST SWAP3 POP POP PUSH1 0x20 PUSH2 0x1EA1 DUP6 DUP3 DUP7 ADD PUSH2 0x1B3A JUMP JUMPDEST SWAP2 POP POP SWAP3 POP SWAP3 SWAP1 POP JUMP JUMPDEST PUSH32 0x4E487B7100000000000000000000000000000000000000000000000000000000 PUSH0 MSTORE PUSH1 0x22 PUSH1 0x4 MSTORE PUSH1 0x24 PUSH0 REVERT JUMPDEST PUSH0 PUSH1 0x2 DUP3 DIV SWAP1 POP PUSH1 0x1 DUP3 AND DUP1 PUSH2 0x1EEF JUMPI PUSH1 0x7F DUP3 AND SWAP2 POP JUMPDEST PUSH1 0x20 DUP3 LT DUP2 SUB PUSH2 0x1F02 JUMPI PUSH2 0x1F01 PUSH2 0x1EAB JUMP JUMPDEST JUMPDEST POP SWAP2 SWAP1 POP JUMP JUMPDEST PUSH32 0x4E487B7100000000000000000000000000000000000000000000000000000000 PUSH0 MSTORE PUSH1 0x11 PUSH1 0x4 MSTORE PUSH1 0x24 PUSH0 REVERT JUMPDEST PUSH0 PUSH2 0x1F3F DUP3 PUSH2 0x1B4E JUMP JUMPDEST SWAP2 POP PUSH2 0x1F4A DUP4 PUSH2 0x1B4E JUMP JUMPDEST SWAP3 POP DUP3 DUP3 ADD SWAP1 POP DUP1 DUP3 GT ISZERO PUSH2 0x1F62 JUMPI PUSH2 0x1F61 PUSH2 0x1F08 JUMP JUMPDEST JUMPDEST SWAP3 SWAP2 POP POP JUMP JUMPDEST PUSH32 0x596F7520646F6E2774206861766520656E6F75676820446567656E20746F6B65 PUSH0 DUP3 ADD MSTORE PUSH32 0x6E7320746F206275726E00000000000000000000000000000000000000000000 PUSH1 0x20 DUP3 ADD MSTORE POP JUMP JUMPDEST PUSH0 PUSH2 0x1FC2 PUSH1 0x2A DUP4 PUSH2 0x1A6A JUMP JUMPDEST SWAP2 POP PUSH2 0x1FCD DUP3 PUSH2 0x1F68 JUMP JUMPDEST PUSH1 0x40 DUP3 ADD SWAP1 POP SWAP2 SWAP1 POP JUMP JUMPDEST PUSH0 PUSH1 0x20 DUP3 ADD SWAP1 POP DUP2 DUP2 SUB PUSH0 DUP4 ADD MSTORE PUSH2 0x1FEF DUP2 PUSH2 0x1FB6 JUMP JUMPDEST SWAP1 POP SWAP2 SWAP1 POP JUMP JUMPDEST PUSH32 0x496E73756666696369656E742066756E64730000000000000000000000000000 PUSH0 DUP3 ADD MSTORE POP JUMP JUMPDEST PUSH0 PUSH2 0x202A PUSH1 0x12 DUP4 PUSH2 0x1A6A JUMP JUMPDEST SWAP2 POP PUSH2 0x2035 DUP3 PUSH2 0x1FF6 JUMP JUMPDEST PUSH1 0x20 DUP3 ADD SWAP1 POP SWAP2 SWAP1 POP JUMP JUMPDEST PUSH0 PUSH1 0x20 DUP3 ADD SWAP1 POP DUP2 DUP2 SUB PUSH0 DUP4 ADD MSTORE PUSH2 0x2057 DUP2 PUSH2 0x201E JUMP JUMPDEST SWAP1 POP SWAP2 SWAP1 POP JUMP JUMPDEST PUSH32 0x596F7520646F6E2774206861766520656E6F75676820446567656E20746F6B65 PUSH0 DUP3 ADD MSTORE PUSH32 0x6E7320746F2072656465656D0000000000000000000000000000000000000000 PUSH1 0x20 DUP3 ADD MSTORE POP JUMP JUMPDEST PUSH0 PUSH2 0x20B8 PUSH1 0x2C DUP4 PUSH2 0x1A6A JUMP JUMPDEST SWAP2 POP PUSH2 0x20C3 DUP3 PUSH2 0x205E JUMP JUMPDEST PUSH1 0x40 DUP3 ADD SWAP1 POP SWAP2 SWAP1 POP JUMP JUMPDEST PUSH0 PUSH1 0x20 DUP3 ADD SWAP1 POP DUP2 DUP2 SUB PUSH0 DUP4 ADD MSTORE PUSH2 0x20E5 DUP2 PUSH2 0x20AC JUMP JUMPDEST SWAP1 POP SWAP2 SWAP1 POP JUMP JUMPDEST PUSH32 0x4E487B7100000000000000000000000000000000000000000000000000000000 PUSH0 MSTORE PUSH1 0x41 PUSH1 0x4 MSTORE PUSH1 0x24 PUSH0 REVERT JUMPDEST PUSH0 DUP2 SWAP1 POP DUP2 PUSH0 MSTORE PUSH1 0x20 PUSH0 KECCAK256 SWAP1 POP SWAP2 SWAP1 POP JUMP JUMPDEST PUSH0 PUSH1 0x20 PUSH1 0x1F DUP4 ADD DIV SWAP1 POP SWAP2 SWAP1 POP JUMP JUMPDEST PUSH0 DUP3 DUP3 SHL SWAP1 POP SWAP3 SWAP2 POP POP JUMP JUMPDEST PUSH0 PUSH1 0x8 DUP4 MUL PUSH2 0x2175 PUSH32 0xFFFFFFFFFFFFFFFFFFFFFFFFFFFFFFFFFFFFFFFFFFFFFFFFFFFFFFFFFFFFFFFF DUP3 PUSH2 0x213A JUMP JUMPDEST PUSH2 0x217F DUP7 DUP4 PUSH2 0x213A JUMP JUMPDEST SWAP6 POP DUP1 NOT DUP5 AND SWAP4 POP DUP1 DUP7 AND DUP5 OR SWAP3 POP POP POP SWAP4 SWAP3 POP POP POP JUMP JUMPDEST PUSH0 DUP2 SWAP1 POP SWAP2 SWAP1 POP JUMP JUMPDEST PUSH0 PUSH2 0x21BA PUSH2 0x21B5 PUSH2 0x21B0 DUP5 PUSH2 0x1B4E JUMP JUMPDEST PUSH2 0x2197 JUMP JUMPDEST PUSH2 0x1B4E JUMP JUMPDEST SWAP1 POP SWAP2 SWAP1 POP JUMP JUMPDEST PUSH0 DUP2 SWAP1 POP SWAP2 SWAP1 POP JUMP JUMPDEST PUSH2 0x21D3 DUP4 PUSH2 0x21A0 JUMP JUMPDEST PUSH2 0x21E7 PUSH2 0x21DF DUP3 PUSH2 0x21C1 JUMP JUMPDEST DUP5 DUP5 SLOAD PUSH2 0x2146 JUMP JUMPDEST DUP3 SSTORE POP POP POP POP JUMP JUMPDEST PUSH0 SWAP1 JUMP JUMPDEST PUSH2 0x21FB PUSH2 0x21EF JUMP JUMPDEST PUSH2 0x2206 DUP2 DUP5 DUP5 PUSH2 0x21CA JUMP JUMPDEST POP POP POP JUMP JUMPDEST JUMPDEST DUP2 DUP2 LT ISZERO PUSH2 0x2229 JUMPI PUSH2 0x221E PUSH0 DUP3 PUSH2 0x21F3 JUMP JUMPDEST PUSH1 0x1 DUP2 ADD SWAP1 POP PUSH2 0x220C JUMP JUMPDEST POP POP JUMP JUMPDEST PUSH1 0x1F DUP3 GT ISZERO PUSH2 0x226E JUMPI PUSH2 0x223F DUP2 PUSH2 0x2119 JUMP JUMPDEST PUSH2 0x2248 DUP5 PUSH2 0x212B JUMP JUMPDEST DUP2 ADD PUSH1 0x20 DUP6 LT ISZERO PUSH2 0x2257 JUMPI DUP2 SWAP1 POP JUMPDEST PUSH2 0x226B PUSH2 0x2263 DUP6 PUSH2 0x212B JUMP JUMPDEST DUP4 ADD DUP3 PUSH2 0x220B JUMP JUMPDEST POP POP JUMPDEST POP POP POP JUMP JUMPDEST PUSH0 DUP3 DUP3 SHR SWAP1 POP SWAP3 SWAP2 POP POP JUMP JUMPDEST PUSH0 PUSH2 0x228E PUSH0 NOT DUP5 PUSH1 0x8 MUL PUSH2 0x2273 JUMP JUMPDEST NOT DUP1 DUP4 AND SWAP2 POP POP SWAP3 SWAP2 POP POP JUMP JUMPDEST PUSH0 PUSH2 0x22A6 DUP4 DUP4 PUSH2 0x227F JUMP JUMPDEST SWAP2 POP DUP3 PUSH1 0x2 MUL DUP3 OR SWAP1 POP SWAP3 SWAP2 POP POP JUMP JUMPDEST PUSH2 0x22BF DUP3 PUSH2 0x1A60 JUMP JUMPDEST PUSH8 0xFFFFFFFFFFFFFFFF DUP2 GT ISZERO PUSH2 0x22D8 JUMPI PUSH2 0x22D7 PUSH2 0x20EC JUMP JUMPDEST JUMPDEST PUSH2 0x22E2 DUP3 SLOAD PUSH2 0x1ED8 JUMP JUMPDEST PUSH2 0x22ED DUP3 DUP3 DUP6 PUSH2 0x222D JUMP JUMPDEST PUSH0 PUSH1 0x20 SWAP1 POP PUSH1 0x1F DUP4 GT PUSH1 0x1 DUP2 EQ PUSH2 0x231E JUMPI PUSH0 DUP5 ISZERO PUSH2 0x230C JUMPI DUP3 DUP8 ADD MLOAD SWAP1 POP JUMPDEST PUSH2 0x2316 DUP6 DUP3 PUSH2 0x229B JUMP JUMPDEST DUP7 SSTORE POP PUSH2 0x237D JUMP JUMPDEST PUSH1 0x1F NOT DUP5 AND PUSH2 0x232C DUP7 PUSH2 0x2119 JUMP JUMPDEST PUSH0 JUMPDEST DUP3 DUP2 LT ISZERO PUSH2 0x2353 JUMPI DUP5 DUP10 ADD MLOAD DUP3 SSTORE PUSH1 0x1 DUP3 ADD SWAP2 POP PUSH1 0x20 DUP6 ADD SWAP5 POP PUSH1 0x20 DUP2 ADD SWAP1 POP PUSH2 0x232E JUMP JUMPDEST DUP7 DUP4 LT ISZERO PUSH2 0x2370 JUMPI DUP5 DUP10 ADD MLOAD PUSH2 0x236C PUSH1 0x1F DUP10 AND DUP3 PUSH2 0x227F JUMP JUMPDEST DUP4 SSTORE POP JUMPDEST PUSH1 0x1 PUSH1 0x2 DUP9 MUL ADD DUP9 SSTORE POP POP POP JUMPDEST POP POP POP POP POP POP JUMP JUMPDEST PUSH32 0x45524332303A2064656372656173656420616C6C6F77616E63652062656C6F77 PUSH0 DUP3 ADD MSTORE PUSH32 0x207A65726F000000000000000000000000000000000000000000000000000000 PUSH1 0x20 DUP3 ADD MSTORE POP JUMP JUMPDEST PUSH0 PUSH2 0x23DF PUSH1 0x25 DUP4 PUSH2 0x1A6A JUMP JUMPDEST SWAP2 POP PUSH2 0x23EA DUP3 PUSH2 0x2385 JUMP JUMPDEST PUSH1 0x40 DUP3 ADD SWAP1 POP SWAP2 SWAP1 POP JUMP JUMPDEST PUSH0 PUSH1 0x20 DUP3 ADD SWAP1 POP DUP2 DUP2 SUB PUSH0 DUP4 ADD MSTORE PUSH2 0x240C DUP2 PUSH2 0x23D3 JUMP JUMPDEST SWAP1 POP SWAP2 SWAP1 POP JUMP JUMPDEST PUSH0 PUSH2 0x241D DUP3 PUSH2 0x1B4E JUMP JUMPDEST SWAP2 POP PUSH2 0x2428 DUP4 PUSH2 0x1B4E JUMP JUMPDEST SWAP3 POP DUP3 DUP3 SUB SWAP1 POP DUP2 DUP2 GT ISZERO PUSH2 0x2440 JUMPI PUSH2 0x243F PUSH2 0x1F08 JUMP JUMPDEST JUMPDEST SWAP3 SWAP2 POP POP JUMP JUMPDEST PUSH32 0x4E487B7100000000000000000000000000000000000000000000000000000000 PUSH0 MSTORE PUSH1 0x32 PUSH1 0x4 MSTORE PUSH1 0x24 PUSH0 REVERT JUMPDEST PUSH0 PUSH2 0x247D DUP3 PUSH2 0x1B4E JUMP JUMPDEST SWAP2 POP PUSH32 0xFFFFFFFFFFFFFFFFFFFFFFFFFFFFFFFFFFFFFFFFFFFFFFFFFFFFFFFFFFFFFFFF DUP3 SUB PUSH2 0x24AF JUMPI PUSH2 0x24AE PUSH2 0x1F08 JUMP JUMPDEST JUMPDEST PUSH1 0x1 DUP3 ADD SWAP1 POP SWAP2 SWAP1 POP JUMP JUMPDEST PUSH32 0x4F776E61626C653A206E6577206F776E657220697320746865207A65726F2061 PUSH0 DUP3 ADD MSTORE PUSH32 0x6464726573730000000000000000000000000000000000000000000000000000 PUSH1 0x20 DUP3 ADD MSTORE POP JUMP JUMPDEST PUSH0 PUSH2 0x2514 PUSH1 0x26 DUP4 PUSH2 0x1A6A JUMP JUMPDEST SWAP2 POP PUSH2 0x251F DUP3 PUSH2 0x24BA JUMP JUMPDEST PUSH1 0x40 DUP3 ADD SWAP1 POP SWAP2 SWAP1 POP JUMP JUMPDEST PUSH0 PUSH1 0x20 DUP3 ADD SWAP1 POP DUP2 DUP2 SUB PUSH0 DUP4 ADD MSTORE PUSH2 0x2541 DUP2 PUSH2 0x2508 JUMP JUMPDEST SWAP1 POP SWAP2 SWAP1 POP JUMP JUMPDEST PUSH32 0x596F7520646F6E2774206861766520656E6F75676820446567656E20746F6B65 PUSH0 DUP3 ADD MSTORE PUSH32 0x6E7320746F207472616E73666572000000000000000000000000000000000000 PUSH1 0x20 DUP3 ADD MSTORE POP JUMP JUMPDEST PUSH0 PUSH2 0x25A2 PUSH1 0x2E DUP4 PUSH2 0x1A6A JUMP JUMPDEST SWAP2 POP PUSH2 0x25AD DUP3 PUSH2 0x2548 JUMP JUMPDEST PUSH1 0x40 DUP3 ADD SWAP1 POP SWAP2 SWAP1 POP JUMP JUMPDEST PUSH0 PUSH1 0x20 DUP3 ADD SWAP1 POP DUP2 DUP2 SUB PUSH0 DUP4 ADD MSTORE PUSH2 0x25CF DUP2 PUSH2 0x2596 JUMP JUMPDEST SWAP1 POP SWAP2 SWAP1 POP JUMP JUMPDEST PUSH32 0x45524332303A20617070726F76652066726F6D20746865207A65726F20616464 PUSH0 DUP3 ADD MSTORE PUSH32 0x7265737300000000000000000000000000000000000000000000000000000000 PUSH1 0x20 DUP3 ADD MSTORE POP JUMP JUMPDEST PUSH0 PUSH2 0x2630 PUSH1 0x24 DUP4 PUSH2 0x1A6A JUMP JUMPDEST SWAP2 POP PUSH2 0x263B DUP3 PUSH2 0x25D6 JUMP JUMPDEST PUSH1 0x40 DUP3 ADD SWAP1 POP SWAP2 SWAP1 POP JUMP JUMPDEST PUSH0 PUSH1 0x20 DUP3 ADD SWAP1 POP DUP2 DUP2 SUB PUSH0 DUP4 ADD MSTORE PUSH2 0x265D DUP2 PUSH2 0x2624 JUMP JUMPDEST SWAP1 POP SWAP2 SWAP1 POP JUMP JUMPDEST PUSH32 0x45524332303A20617070726F766520746F20746865207A65726F206164647265 PUSH0 DUP3 ADD MSTORE PUSH32 0x7373000000000000000000000000000000000000000000000000000000000000 PUSH1 0x20 DUP3 ADD MSTORE POP JUMP JUMPDEST PUSH0 PUSH2 0x26BE PUSH1 0x22 DUP4 PUSH2 0x1A6A JUMP JUMPDEST SWAP2 POP PUSH2 0x26C9 DUP3 PUSH2 0x2664 JUMP JUMPDEST PUSH1 0x40 DUP3 ADD SWAP1 POP SWAP2 SWAP1 POP JUMP JUMPDEST PUSH0 PUSH1 0x20 DUP3 ADD SWAP1 POP DUP2 DUP2 SUB PUSH0 DUP4 ADD MSTORE PUSH2 0x26EB DUP2 PUSH2 0x26B2 JUMP JUMPDEST SWAP1 POP SWAP2 SWAP1 POP JUMP JUMPDEST PUSH32 0x45524332303A20696E73756666696369656E7420616C6C6F77616E6365000000 PUSH0 DUP3 ADD MSTORE POP JUMP JUMPDEST PUSH0 PUSH2 0x2726 PUSH1 0x1D DUP4 PUSH2 0x1A6A JUMP JUMPDEST SWAP2 POP PUSH2 0x2731 DUP3 PUSH2 0x26F2 JUMP JUMPDEST PUSH1 0x20 DUP3 ADD SWAP1 POP SWAP2 SWAP1 POP JUMP JUMPDEST PUSH0 PUSH1 0x20 DUP3 ADD SWAP1 POP DUP2 DUP2 SUB PUSH0 DUP4 ADD MSTORE PUSH2 0x2753 DUP2 PUSH2 0x271A JUMP JUMPDEST SWAP1 POP SWAP2 SWAP1 POP JUMP JUMPDEST PUSH32 0x45524332303A207472616E736665722066726F6D20746865207A65726F206164 PUSH0 DUP3 ADD MSTORE PUSH32 0x6472657373000000000000000000000000000000000000000000000000000000 PUSH1 0x20 DUP3 ADD MSTORE POP JUMP JUMPDEST PUSH0 PUSH2 0x27B4 PUSH1 0x25 DUP4 PUSH2 0x1A6A JUMP JUMPDEST SWAP2 POP PUSH2 0x27BF DUP3 PUSH2 0x275A JUMP JUMPDEST PUSH1 0x40 DUP3 ADD SWAP1 POP SWAP2 SWAP1 POP JUMP JUMPDEST PUSH0 PUSH1 0x20 DUP3 ADD SWAP1 POP DUP2 DUP2 SUB PUSH0 DUP4 ADD MSTORE PUSH2 0x27E1 DUP2 PUSH2 0x27A8 JUMP JUMPDEST SWAP1 POP SWAP2 SWAP1 POP JUMP JUMPDEST PUSH32 0x45524332303A207472616E7366657220746F20746865207A65726F2061646472 PUSH0 DUP3 ADD MSTORE PUSH32 0x6573730000000000000000000000000000000000000000000000000000000000 PUSH1 0x20 DUP3 ADD MSTORE POP JUMP JUMPDEST PUSH0 PUSH2 0x2842 PUSH1 0x23 DUP4 PUSH2 0x1A6A JUMP JUMPDEST SWAP2 POP PUSH2 0x284D DUP3 PUSH2 0x27E8 JUMP JUMPDEST PUSH1 0x40 DUP3 ADD SWAP1 POP SWAP2 SWAP1 POP JUMP JUMPDEST PUSH0 PUSH1 0x20 DUP3 ADD SWAP1 POP DUP2 DUP2 SUB PUSH0 DUP4 ADD MSTORE PUSH2 0x286F DUP2 PUSH2 0x2836 JUMP JUMPDEST SWAP1 POP SWAP2 SWAP1 POP JUMP JUMPDEST PUSH32 0x45524332303A207472616E7366657220616D6F756E7420657863656564732062 PUSH0 DUP3 ADD MSTORE PUSH32 0x616C616E63650000000000000000000000000000000000000000000000000000 PUSH1 0x20 DUP3 ADD MSTORE POP JUMP JUMPDEST PUSH0 PUSH2 0x28D0 PUSH1 0x26 DUP4 PUSH2 0x1A6A JUMP JUMPDEST SWAP2 POP PUSH2 0x28DB DUP3 PUSH2 0x2876 JUMP JUMPDEST PUSH1 0x40 DUP3 ADD SWAP1 POP SWAP2 SWAP1 POP JUMP JUMPDEST PUSH0 PUSH1 0x20 DUP3 ADD SWAP1 POP DUP2 DUP2 SUB PUSH0 DUP4 ADD MSTORE PUSH2 0x28FD DUP2 PUSH2 0x28C4 JUMP JUMPDEST SWAP1 POP SWAP2 SWAP1 POP JUMP JUMPDEST PUSH32 0x4F776E61626C653A2063616C6C6572206973206E6F7420746865206F776E6572 PUSH0 DUP3 ADD MSTORE POP JUMP JUMPDEST PUSH0 PUSH2 0x2938 PUSH1 0x20 DUP4 PUSH2 0x1A6A JUMP JUMPDEST SWAP2 POP PUSH2 0x2943 DUP3 PUSH2 0x2904 JUMP JUMPDEST PUSH1 0x20 DUP3 ADD SWAP1 POP SWAP2 SWAP1 POP JUMP JUMPDEST PUSH0 PUSH1 0x20 DUP3 ADD SWAP1 POP DUP2 DUP2 SUB PUSH0 DUP4 ADD MSTORE PUSH2 0x2965 DUP2 PUSH2 0x292C JUMP JUMPDEST SWAP1 POP SWAP2 SWAP1 POP JUMP JUMPDEST PUSH32 0x45524332303A206D696E7420746F20746865207A65726F206164647265737300 PUSH0 DUP3 ADD MSTORE POP JUMP JUMPDEST PUSH0 PUSH2 0x29A0 PUSH1 0x1F DUP4 PUSH2 0x1A6A JUMP JUMPDEST SWAP2 POP PUSH2 0x29AB DUP3 PUSH2 0x296C JUMP JUMPDEST PUSH1 0x20 DUP3 ADD SWAP1 POP SWAP2 SWAP1 POP JUMP JUMPDEST PUSH0 PUSH1 0x20 DUP3 ADD SWAP1 POP DUP2 DUP2 SUB PUSH0 DUP4 ADD MSTORE PUSH2 0x29CD DUP2 PUSH2 0x2994 JUMP JUMPDEST SWAP1 POP SWAP2 SWAP1 POP JUMP JUMPDEST PUSH32 0x45524332303A206275726E2066726F6D20746865207A65726F20616464726573 PUSH0 DUP3 ADD MSTORE PUSH32 0x7300000000000000000000000000000000000000000000000000000000000000 PUSH1 0x20 DUP3 ADD MSTORE POP JUMP JUMPDEST PUSH0 PUSH2 0x2A2E PUSH1 0x21 DUP4 PUSH2 0x1A6A JUMP JUMPDEST SWAP2 POP PUSH2 0x2A39 DUP3 PUSH2 0x29D4 JUMP JUMPDEST PUSH1 0x40 DUP3 ADD SWAP1 POP SWAP2 SWAP1 POP JUMP JUMPDEST PUSH0 PUSH1 0x20 DUP3 ADD SWAP1 POP DUP2 DUP2 SUB PUSH0 DUP4 ADD MSTORE PUSH2 0x2A5B DUP2 PUSH2 0x2A22 JUMP JUMPDEST SWAP1 POP SWAP2 SWAP1 POP JUMP JUMPDEST PUSH32 0x45524332303A206275726E20616D6F756E7420657863656564732062616C616E PUSH0 DUP3 ADD MSTORE PUSH32 0x6365000000000000000000000000000000000000000000000000000000000000 PUSH1 0x20 DUP3 ADD MSTORE POP JUMP JUMPDEST PUSH0 PUSH2 0x2ABC PUSH1 0x22 DUP4 PUSH2 0x1A6A JUMP JUMPDEST SWAP2 POP PUSH2 0x2AC7 DUP3 PUSH2 0x2A62 JUMP JUMPDEST PUSH1 0x40 DUP3 ADD SWAP1 POP SWAP2 SWAP1 POP JUMP JUMPDEST PUSH0 PUSH1 0x20 DUP3 ADD SWAP1 POP DUP2 DUP2 SUB PUSH0 DUP4 ADD MSTORE PUSH2 0x2AE9 DUP2 PUSH2 0x2AB0 JUMP JUMPDEST SWAP1 POP SWAP2 SWAP1 POP JUMP INVALID LOG2 PUSH5 0x6970667358 0x22 SLT KECCAK256 0xFC LOG3 JUMPI PUSH19 0xFDE5C06E2E5BE94ACE648FF4D4B45D329C7461 PUSH27 0x6BC9E2D1B0828CE864736F6C634300081A00330000000000000000 "
				},
				"gasEstimates": {
					"creation": {
						"codeDepositCost": "2209200",
						"executionCost": "infinite",
						"totalCost": "infinite"
					},
					"external": {
						"CarsNftCollection(address,uint256)": "infinite",
						"allowance(address,address)": "infinite",
						"approve(address,uint256)": "infinite",
						"balanceOf(address)": "2852",
						"burn(uint256)": "infinite",
						"decimals()": "361",
						"decreaseAllowance(address,uint256)": "infinite",
						"increaseAllowance(address,uint256)": "infinite",
						"mint(address,uint256)": "infinite",
						"name()": "infinite",
						"owner()": "2604",
						"redeemToken(address,uint256)": "infinite",
						"redeemableCars(uint256)": "infinite",
						"renounceOwnership()": "30435",
						"showStore()": "infinite",
						"showUserCollection(address)": "infinite",
						"symbol()": "infinite",
						"totalSupply()": "2522",
						"transfer(address,uint256)": "infinite",
						"transferFrom(address,address,uint256)": "infinite",
						"transferOwnership(address)": "30841",
						"transferToken(address,address,uint256)": "infinite",
						"userCollections(address,uint256)": "infinite"
					}
				},
				"methodIdentifiers": {
					"CarsNftCollection(address,uint256)": "0e63afed",
					"allowance(address,address)": "dd62ed3e",
					"approve(address,uint256)": "095ea7b3",
					"balanceOf(address)": "70a08231",
					"burn(uint256)": "42966c68",
					"decimals()": "313ce567",
					"decreaseAllowance(address,uint256)": "a457c2d7",
					"increaseAllowance(address,uint256)": "39509351",
					"mint(address,uint256)": "40c10f19",
					"name()": "06fdde03",
					"owner()": "8da5cb5b",
					"redeemToken(address,uint256)": "830cbbbd",
					"redeemableCars(uint256)": "3dfcf101",
					"renounceOwnership()": "715018a6",
					"showStore()": "a9d0e2e5",
					"showUserCollection(address)": "acc8b146",
					"symbol()": "95d89b41",
					"totalSupply()": "18160ddd",
					"transfer(address,uint256)": "a9059cbb",
					"transferFrom(address,address,uint256)": "23b872dd",
					"transferOwnership(address)": "f2fde38b",
					"transferToken(address,address,uint256)": "f5537ede",
					"userCollections(address,uint256)": "428a6171"
				}
			},
			"storageLayout": {
				"storage": [
					{
						"astId": 128,
						"contract": "contracts/DegenToken.sol:DegenToken",
						"label": "_balances",
						"offset": 0,
						"slot": "0",
						"type": "t_mapping(t_address,t_uint256)"
					},
					{
						"astId": 134,
						"contract": "contracts/DegenToken.sol:DegenToken",
						"label": "_allowances",
						"offset": 0,
						"slot": "1",
						"type": "t_mapping(t_address,t_mapping(t_address,t_uint256))"
					},
					{
						"astId": 136,
						"contract": "contracts/DegenToken.sol:DegenToken",
						"label": "_totalSupply",
						"offset": 0,
						"slot": "2",
						"type": "t_uint256"
					},
					{
						"astId": 138,
						"contract": "contracts/DegenToken.sol:DegenToken",
						"label": "_name",
						"offset": 0,
						"slot": "3",
						"type": "t_string_storage"
					},
					{
						"astId": 140,
						"contract": "contracts/DegenToken.sol:DegenToken",
						"label": "_symbol",
						"offset": 0,
						"slot": "4",
						"type": "t_string_storage"
					},
					{
						"astId": 7,
						"contract": "contracts/DegenToken.sol:DegenToken",
						"label": "_owner",
						"offset": 0,
						"slot": "5",
						"type": "t_address"
					},
					{
						"astId": 855,
						"contract": "contracts/DegenToken.sol:DegenToken",
						"label": "redeemableCars",
						"offset": 0,
						"slot": "6",
						"type": "t_mapping(t_uint256,t_struct(Store)845_storage)"
					},
					{
						"astId": 861,
						"contract": "contracts/DegenToken.sol:DegenToken",
						"label": "CarsNftCollection",
						"offset": 0,
						"slot": "7",
						"type": "t_mapping(t_address,t_mapping(t_uint256,t_uint256))"
					},
					{
						"astId": 867,
						"contract": "contracts/DegenToken.sol:DegenToken",
						"label": "userCollections",
						"offset": 0,
						"slot": "8",
						"type": "t_mapping(t_address,t_array(t_struct(UserCollection)850_storage)dyn_storage)"
					}
				],
				"types": {
					"t_address": {
						"encoding": "inplace",
						"label": "address",
						"numberOfBytes": "20"
					},
					"t_array(t_struct(UserCollection)850_storage)dyn_storage": {
						"base": "t_struct(UserCollection)850_storage",
						"encoding": "dynamic_array",
						"label": "struct DegenToken.UserCollection[]",
						"numberOfBytes": "32"
					},
					"t_mapping(t_address,t_array(t_struct(UserCollection)850_storage)dyn_storage)": {
						"encoding": "mapping",
						"key": "t_address",
						"label": "mapping(address => struct DegenToken.UserCollection[])",
						"numberOfBytes": "32",
						"value": "t_array(t_struct(UserCollection)850_storage)dyn_storage"
					},
					"t_mapping(t_address,t_mapping(t_address,t_uint256))": {
						"encoding": "mapping",
						"key": "t_address",
						"label": "mapping(address => mapping(address => uint256))",
						"numberOfBytes": "32",
						"value": "t_mapping(t_address,t_uint256)"
					},
					"t_mapping(t_address,t_mapping(t_uint256,t_uint256))": {
						"encoding": "mapping",
						"key": "t_address",
						"label": "mapping(address => mapping(uint256 => uint256))",
						"numberOfBytes": "32",
						"value": "t_mapping(t_uint256,t_uint256)"
					},
					"t_mapping(t_address,t_uint256)": {
						"encoding": "mapping",
						"key": "t_address",
						"label": "mapping(address => uint256)",
						"numberOfBytes": "32",
						"value": "t_uint256"
					},
					"t_mapping(t_uint256,t_struct(Store)845_storage)": {
						"encoding": "mapping",
						"key": "t_uint256",
						"label": "mapping(uint256 => struct DegenToken.Store)",
						"numberOfBytes": "32",
						"value": "t_struct(Store)845_storage"
					},
					"t_mapping(t_uint256,t_uint256)": {
						"encoding": "mapping",
						"key": "t_uint256",
						"label": "mapping(uint256 => uint256)",
						"numberOfBytes": "32",
						"value": "t_uint256"
					},
					"t_string_storage": {
						"encoding": "bytes",
						"label": "string",
						"numberOfBytes": "32"
					},
					"t_struct(Store)845_storage": {
						"encoding": "inplace",
						"label": "struct DegenToken.Store",
						"members": [
							{
								"astId": 842,
								"contract": "contracts/DegenToken.sol:DegenToken",
								"label": "name",
								"offset": 0,
								"slot": "0",
								"type": "t_string_storage"
							},
							{
								"astId": 844,
								"contract": "contracts/DegenToken.sol:DegenToken",
								"label": "price",
								"offset": 0,
								"slot": "1",
								"type": "t_uint256"
							}
						],
						"numberOfBytes": "64"
					},
					"t_struct(UserCollection)850_storage": {
						"encoding": "inplace",
						"label": "struct DegenToken.UserCollection",
						"members": [
							{
								"astId": 847,
								"contract": "contracts/DegenToken.sol:DegenToken",
								"label": "name",
								"offset": 0,
								"slot": "0",
								"type": "t_string_storage"
							},
							{
								"astId": 849,
								"contract": "contracts/DegenToken.sol:DegenToken",
								"label": "id",
								"offset": 0,
								"slot": "1",
								"type": "t_uint256"
							}
						],
						"numberOfBytes": "64"
					},
					"t_uint256": {
						"encoding": "inplace",
						"label": "uint256",
						"numberOfBytes": "32"
					}
				}
			},
			"userdoc": {
				"kind": "user",
				"methods": {},
				"version": 1
			}
		}
	}
}