{
  "_format": "hh-sol-artifact-1",
  "contractName": "DegenToken",
  "sourceName": "contracts/DegenToken.sol",
  "abi": [
    {
      "inputs": [],
      "stateMutability": "nonpayable",
      "type": "constructor"
    },
    {
      "anonymous": false,
      "inputs": [
        {
          "indexed": true,
          "internalType": "address",
          "name": "owner",
          "type": "address"
        },
        {
          "indexed": true,
          "internalType": "address",
          "name": "spender",
          "type": "address"
        },
        {
          "indexed": false,
          "internalType": "uint256",
          "name": "value",
          "type": "uint256"
        }
      ],
      "name": "Approval",
      "type": "event"
    },
    {
      "anonymous": false,
      "inputs": [
        {
          "indexed": true,
          "internalType": "address",
          "name": "previousOwner",
          "type": "address"
        },
        {
          "indexed": true,
          "internalType": "address",
          "name": "newOwner",
          "type": "address"
        }
      ],
      "name": "OwnershipTransferred",
      "type": "event"
    },
    {
      "anonymous": false,
      "inputs": [
        {
          "indexed": true,
          "internalType": "address",
          "name": "from",
          "type": "address"
        },
        {
          "indexed": true,
          "internalType": "address",
          "name": "to",
          "type": "address"
        },
        {
          "indexed": false,
          "internalType": "uint256",
          "name": "value",
          "type": "uint256"
        }
      ],
      "name": "Transfer",
      "type": "event"
    },
    {
      "inputs": [
        {
          "internalType": "address",
          "name": "",
          "type": "address"
        },
        {
          "internalType": "uint256",
          "name": "",
          "type": "uint256"
        }
      ],
      "name": "CarsNftCollection",
      "outputs": [
        {
          "internalType": "uint256",
          "name": "",
          "type": "uint256"
        }
      ],
      "stateMutability": "view",
      "type": "function"
    },
    {
      "inputs": [
        {
          "internalType": "address",
          "name": "owner",
          "type": "address"
        },
        {
          "internalType": "address",
          "name": "spender",
          "type": "address"
        }
      ],
      "name": "allowance",
      "outputs": [
        {
          "internalType": "uint256",
          "name": "",
          "type": "uint256"
        }
      ],
      "stateMutability": "view",
      "type": "function"
    },
    {
      "inputs": [
        {
          "internalType": "address",
          "name": "spender",
          "type": "address"
        },
        {
          "internalType": "uint256",
          "name": "amount",
          "type": "uint256"
        }
      ],
      "name": "approve",
      "outputs": [
        {
          "internalType": "bool",
          "name": "",
          "type": "bool"
        }
      ],
      "stateMutability": "nonpayable",
      "type": "function"
    },
    {
      "inputs": [
        {
          "internalType": "address",
          "name": "account",
          "type": "address"
        }
      ],
      "name": "balanceOf",
      "outputs": [
        {
          "internalType": "uint256",
          "name": "",
          "type": "uint256"
        }
      ],
      "stateMutability": "view",
      "type": "function"
    },
    {
      "inputs": [
        {
          "internalType": "uint256",
          "name": "val",
          "type": "uint256"
        }
      ],
      "name": "burn",
      "outputs": [],
      "stateMutability": "nonpayable",
      "type": "function"
    },
    {
      "inputs": [],
      "name": "decimals",
      "outputs": [
        {
          "internalType": "uint8",
          "name": "",
          "type": "uint8"
        }
      ],
      "stateMutability": "view",
      "type": "function"
    },
    {
      "inputs": [
        {
          "internalType": "address",
          "name": "spender",
          "type": "address"
        },
        {
          "internalType": "uint256",
          "name": "subtractedValue",
          "type": "uint256"
        }
      ],
      "name": "decreaseAllowance",
      "outputs": [
        {
          "internalType": "bool",
          "name": "",
          "type": "bool"
        }
      ],
      "stateMutability": "nonpayable",
      "type": "function"
    },
    {
      "inputs": [
        {
          "internalType": "address",
          "name": "spender",
          "type": "address"
        },
        {
          "internalType": "uint256",
          "name": "addedValue",
          "type": "uint256"
        }
      ],
      "name": "increaseAllowance",
      "outputs": [
        {
          "internalType": "bool",
          "name": "",
          "type": "bool"
        }
      ],
      "stateMutability": "nonpayable",
      "type": "function"
    },
    {
      "inputs": [
        {
          "internalType": "address",
          "name": "to",
          "type": "address"
        },
        {
          "internalType": "uint256",
          "name": "amount",
          "type": "uint256"
        }
      ],
      "name": "mint",
      "outputs": [],
      "stateMutability": "nonpayable",
      "type": "function"
    },
    {
      "inputs": [],
      "name": "name",
      "outputs": [
        {
          "internalType": "string",
          "name": "",
          "type": "string"
        }
      ],
      "stateMutability": "view",
      "type": "function"
    },
    {
      "inputs": [],
      "name": "owner",
      "outputs": [
        {
          "internalType": "address",
          "name": "",
          "type": "address"
        }
      ],
      "stateMutability": "view",
      "type": "function"
    },
    {
      "inputs": [
        {
          "internalType": "uint256",
          "name": "_carId",
          "type": "uint256"
        }
      ],
      "name": "redeemCar",
      "outputs": [],
      "stateMutability": "nonpayable",
      "type": "function"
    },
    {
      "inputs": [
        {
          "internalType": "uint256",
          "name": "",
          "type": "uint256"
        }
      ],
      "name": "redeemableCars",
      "outputs": [
        {
          "internalType": "string",
          "name": "name",
          "type": "string"
        },
        {
          "internalType": "uint256",
          "name": "price",
          "type": "uint256"
        }
      ],
      "stateMutability": "view",
      "type": "function"
    },
    {
      "inputs": [],
      "name": "renounceOwnership",
      "outputs": [],
      "stateMutability": "nonpayable",
      "type": "function"
    },
    {
      "inputs": [],
      "name": "symbol",
      "outputs": [
        {
          "internalType": "string",
          "name": "",
          "type": "string"
        }
      ],
      "stateMutability": "view",
      "type": "function"
    },
    {
      "inputs": [],
      "name": "totalSupply",
      "outputs": [
        {
          "internalType": "uint256",
          "name": "",
          "type": "uint256"
        }
      ],
      "stateMutability": "view",
      "type": "function"
    },
    {
      "inputs": [
        {
          "internalType": "address",
          "name": "to",
          "type": "address"
        },
        {
          "internalType": "uint256",
          "name": "amount",
          "type": "uint256"
        }
      ],
      "name": "transfer",
      "outputs": [
        {
          "internalType": "bool",
          "name": "",
          "type": "bool"
        }
      ],
      "stateMutability": "nonpayable",
      "type": "function"
    },
    {
      "inputs": [
        {
          "internalType": "address",
          "name": "from",
          "type": "address"
        },
        {
          "internalType": "address",
          "name": "to",
          "type": "address"
        },
        {
          "internalType": "uint256",
          "name": "amount",
          "type": "uint256"
        }
      ],
      "name": "transferFrom",
      "outputs": [
        {
          "internalType": "bool",
          "name": "",
          "type": "bool"
        }
      ],
      "stateMutability": "nonpayable",
      "type": "function"
    },
    {
      "inputs": [
        {
          "internalType": "address",
          "name": "newOwner",
          "type": "address"
        }
      ],
      "name": "transferOwnership",
      "outputs": [],
      "stateMutability": "nonpayable",
      "type": "function"
    },
    {
      "inputs": [
        {
          "internalType": "address",
          "name": "_receiver",
          "type": "address"
        },
        {
          "internalType": "uint256",
          "name": "val",
          "type": "uint256"
        }
      ],
      "name": "transferToken",
      "outputs": [],
      "stateMutability": "nonpayable",
      "type": "function"
    }
  ],
  "bytecode": "0x60806040523480156200001157600080fd5b506040518060400160405280600b81526020017f446567656e20546f6b656e0000000000000000000000000000000000000000008152506040518060400160405280600581526020017f444547454e00000000000000000000000000000000000000000000000000000081525081600390816200008f91906200083a565b508060049081620000a191906200083a565b505050620000c4620000b8620004f260201b60201c565b620004fa60201b60201c565b60405180604001604052806040518060400160405280601381526020017f4e46543a204275676174746920436869726f6e000000000000000000000000008152508152602001612134815250600660006001815260200190815260200160002060008201518160000190816200013b91906200083a565b506020820151816001015590505060405180604001604052806040518060400160405280601a81526020017f4e46543a204c616d626f726768696e69204176656e7461646f7200000000000081525081526020016107d081525060066000600281526020019081526020016000206000820151816000019081620001c091906200083a565b506020820151816001015590505060405180604001604052806040518060400160405280601681526020017f4e46543a2046657272617269204c6146657272617269000000000000000000008152508152602001610bb8815250600660006003815260200190815260200160002060008201518160000190816200024591906200083a565b506020820151816001015590505060405180604001604052806040518060400160405280601881526020017f4e46543a20526f6c6c732d526f796365205068616e746f6d0000000000000000815250815260200161138881525060066000600481526020019081526020016000206000820151816000019081620002ca91906200083a565b506020820151816001015590505060405180604001604052806040518060400160405280601a81526020017f4e46543a204173746f6e204d617274696e2056616c6b797269650000000000008152508152602001611770815250600660006005815260200190815260200160002060008201518160000190816200034f91906200083a565b506020820151816001015590505060405180604001604052806040518060400160405280600f81526020017f4e46543a204d634c6172656e2050310000000000000000000000000000000000815250815260200161177081525060066000600681526020019081526020016000206000820151816000019081620003d491906200083a565b506020820151816001015590505060405180604001604052806040518060400160405280601581526020017f4e46543a204b6f656e696773656767204a65736b6f00000000000000000000008152508152602001611b58815250600660006007815260200190815260200160002060008201518160000190816200045991906200083a565b506020820151816001015590505060405180604001604052806040518060400160405280601281526020017f4e46543a20506167616e692048756179726100000000000000000000000000008152508152602001611f4081525060066000600881526020019081526020016000206000820151816000019081620004de91906200083a565b506020820151816001015590505062000921565b600033905090565b6000600560009054906101000a900473ffffffffffffffffffffffffffffffffffffffff16905081600560006101000a81548173ffffffffffffffffffffffffffffffffffffffff021916908373ffffffffffffffffffffffffffffffffffffffff1602179055508173ffffffffffffffffffffffffffffffffffffffff168173ffffffffffffffffffffffffffffffffffffffff167f8be0079c531659141344cd1fd0a4f28419497f9722a3daafe3b4186f6b6457e060405160405180910390a35050565b600081519050919050565b7f4e487b7100000000000000000000000000000000000000000000000000000000600052604160045260246000fd5b7f4e487b7100000000000000000000000000000000000000000000000000000000600052602260045260246000fd5b600060028204905060018216806200064257607f821691505b602082108103620006585762000657620005fa565b5b50919050565b60008190508160005260206000209050919050565b60006020601f8301049050919050565b600082821b905092915050565b600060088302620006c27fffffffffffffffffffffffffffffffffffffffffffffffffffffffffffffffff8262000683565b620006ce868362000683565b95508019841693508086168417925050509392505050565b6000819050919050565b6000819050919050565b60006200071b620007156200070f84620006e6565b620006f0565b620006e6565b9050919050565b6000819050919050565b6200073783620006fa565b6200074f620007468262000722565b84845462000690565b825550505050565b600090565b6200076662000757565b620007738184846200072c565b505050565b5b818110156200079b576200078f6000826200075c565b60018101905062000779565b5050565b601f821115620007ea57620007b4816200065e565b620007bf8462000673565b81016020851015620007cf578190505b620007e7620007de8562000673565b83018262000778565b50505b505050565b600082821c905092915050565b60006200080f60001984600802620007ef565b1980831691505092915050565b60006200082a8383620007fc565b9150826002028217905092915050565b6200084582620005c0565b67ffffffffffffffff811115620008615762000860620005cb565b5b6200086d825462000629565b6200087a8282856200079f565b600060209050601f831160018114620008b257600084156200089d578287015190505b620008a985826200081c565b86555062000919565b601f198416620008c2866200065e565b60005b82811015620008ec57848901518255600182019150602085019450602081019050620008c5565b868310156200090c578489015162000908601f891682620007fc565b8355505b6001600288020188555050505b505050505050565b611fb980620009316000396000f3fe608060405234801561001057600080fd5b506004361061012c5760003560e01c806342966c68116100ad578063a457c2d711610071578063a457c2d714610346578063a9059cbb14610376578063ae463f6d146103a6578063dd62ed3e146103c2578063f2fde38b146103f25761012c565b806342966c68146102b457806370a08231146102d0578063715018a6146103005780638da5cb5b1461030a57806395d89b41146103285761012c565b806323b872dd116100f457806323b872dd146101e9578063313ce5671461021957806339509351146102375780633dfcf1011461026757806340c10f19146102985761012c565b806306fdde0314610131578063095ea7b31461014f5780630e63afed1461017f5780631072cbea146101af57806318160ddd146101cb575b600080fd5b61013961040e565b604051610146919061145d565b60405180910390f35b61016960048036038101906101649190611518565b6104a0565b6040516101769190611573565b60405180910390f35b61019960048036038101906101949190611518565b6104c3565b6040516101a6919061159d565b60405180910390f35b6101c960048036038101906101c49190611518565b6104e8565b005b6101d361054e565b6040516101e0919061159d565b60405180910390f35b61020360048036038101906101fe91906115b8565b610558565b6040516102109190611573565b60405180910390f35b610221610587565b60405161022e9190611627565b60405180910390f35b610251600480360381019061024c9190611518565b610590565b60405161025e9190611573565b60405180910390f35b610281600480360381019061027c9190611642565b6105c7565b60405161028f92919061166f565b60405180910390f35b6102b260048036038101906102ad9190611518565b610673565b005b6102ce60048036038101906102c99190611642565b610689565b005b6102ea60048036038101906102e5919061169f565b6106e1565b6040516102f7919061159d565b60405180910390f35b610308610729565b005b61031261073d565b60405161031f91906116db565b60405180910390f35b610330610767565b60405161033d919061145d565b60405180910390f35b610360600480360381019061035b9190611518565b6107f9565b60405161036d9190611573565b60405180910390f35b610390600480360381019061038b9190611518565b610870565b60405161039d9190611573565b60405180910390f35b6103c060048036038101906103bb9190611642565b610893565b005b6103dc60048036038101906103d791906116f6565b61097f565b6040516103e9919061159d565b60405180910390f35b61040c6004803603810190610407919061169f565b610a06565b005b60606003805461041d90611765565b80601f016020809104026020016040519081016040528092919081815260200182805461044990611765565b80156104965780601f1061046b57610100808354040283529160200191610496565b820191906000526020600020905b81548152906001019060200180831161047957829003601f168201915b5050505050905090565b6000806104ab610a89565b90506104b8818585610a91565b600191505092915050565b6007602052816000526040600020602052806000526040600020600091509150505481565b806104f2336106e1565b1015610533576040517f08c379a000000000000000000000000000000000000000000000000000000000815260040161052a90611808565b60405180910390fd5b61053d33826104a0565b50610549338383610558565b505050565b6000600254905090565b600080610563610a89565b9050610570858285610c5a565b61057b858585610ce6565b60019150509392505050565b60006012905090565b60008061059b610a89565b90506105bc8185856105ad858961097f565b6105b79190611857565b610a91565b600191505092915050565b60066020528060005260406000206000915090508060000180546105ea90611765565b80601f016020809104026020016040519081016040528092919081815260200182805461061690611765565b80156106635780601f1061063857610100808354040283529160200191610663565b820191906000526020600020905b81548152906001019060200180831161064657829003601f168201915b5050505050908060010154905082565b61067b610f5c565b6106858282610fda565b5050565b80610693336106e1565b10156106d4576040517f08c379a00000000000000000000000000000000000000000000000000000000081526004016106cb906118fd565b60405180910390fd5b6106de3382611130565b50565b60008060008373ffffffffffffffffffffffffffffffffffffffff1673ffffffffffffffffffffffffffffffffffffffff168152602001908152602001600020549050919050565b610731610f5c565b61073b60006112fd565b565b6000600560009054906101000a900473ffffffffffffffffffffffffffffffffffffffff16905090565b60606004805461077690611765565b80601f01602080910402602001604051908101604052809291908181526020018280546107a290611765565b80156107ef5780601f106107c4576101008083540402835291602001916107ef565b820191906000526020600020905b8154815290600101906020018083116107d257829003601f168201915b5050505050905090565b600080610804610a89565b90506000610812828661097f565b905083811015610857576040517f08c379a000000000000000000000000000000000000000000000000000000000815260040161084e9061198f565b60405180910390fd5b6108648286868403610a91565b60019250505092915050565b60008061087b610a89565b9050610888818585610ce6565b600191505092915050565b60066000828152602001908152602001600020600101546108b3336106e1565b10156108f4576040517f08c379a00000000000000000000000000000000000000000000000000000000081526004016108eb90611808565b60405180910390fd5b6001600760003373ffffffffffffffffffffffffffffffffffffffff1673ffffffffffffffffffffffffffffffffffffffff168152602001908152602001600020600083815260200190815260200160002060008282546109559190611857565b9250508190555061097c336006600084815260200190815260200160002060010154611130565b50565b6000600160008473ffffffffffffffffffffffffffffffffffffffff1673ffffffffffffffffffffffffffffffffffffffff16815260200190815260200160002060008373ffffffffffffffffffffffffffffffffffffffff1673ffffffffffffffffffffffffffffffffffffffff16815260200190815260200160002054905092915050565b610a0e610f5c565b600073ffffffffffffffffffffffffffffffffffffffff168173ffffffffffffffffffffffffffffffffffffffff1603610a7d576040517f08c379a0000000000000000000000000000000000000000000000000000000008152600401610a7490611a21565b60405180910390fd5b610a86816112fd565b50565b600033905090565b600073ffffffffffffffffffffffffffffffffffffffff168373ffffffffffffffffffffffffffffffffffffffff1603610b00576040517f08c379a0000000000000000000000000000000000000000000000000000000008152600401610af790611ab3565b60405180910390fd5b600073ffffffffffffffffffffffffffffffffffffffff168273ffffffffffffffffffffffffffffffffffffffff1603610b6f576040517f08c379a0000000000000000000000000000000000000000000000000000000008152600401610b6690611b45565b60405180910390fd5b80600160008573ffffffffffffffffffffffffffffffffffffffff1673ffffffffffffffffffffffffffffffffffffffff16815260200190815260200160002060008473ffffffffffffffffffffffffffffffffffffffff1673ffffffffffffffffffffffffffffffffffffffff168152602001908152602001600020819055508173ffffffffffffffffffffffffffffffffffffffff168373ffffffffffffffffffffffffffffffffffffffff167f8c5be1e5ebec7d5bd14f71427d1e84f3dd0314c0f7b2291e5b200ac8c7c3b92583604051610c4d919061159d565b60405180910390a3505050565b6000610c66848461097f565b90507fffffffffffffffffffffffffffffffffffffffffffffffffffffffffffffffff8114610ce05781811015610cd2576040517f08c379a0000000000000000000000000000000000000000000000000000000008152600401610cc990611bb1565b60405180910390fd5b610cdf8484848403610a91565b5b50505050565b600073ffffffffffffffffffffffffffffffffffffffff168373ffffffffffffffffffffffffffffffffffffffff1603610d55576040517f08c379a0000000000000000000000000000000000000000000000000000000008152600401610d4c90611c43565b60405180910390fd5b600073ffffffffffffffffffffffffffffffffffffffff168273ffffffffffffffffffffffffffffffffffffffff1603610dc4576040517f08c379a0000000000000000000000000000000000000000000000000000000008152600401610dbb90611cd5565b60405180910390fd5b610dcf8383836113c3565b60008060008573ffffffffffffffffffffffffffffffffffffffff1673ffffffffffffffffffffffffffffffffffffffff16815260200190815260200160002054905081811015610e55576040517f08c379a0000000000000000000000000000000000000000000000000000000008152600401610e4c90611d67565b60405180910390fd5b8181036000808673ffffffffffffffffffffffffffffffffffffffff1673ffffffffffffffffffffffffffffffffffffffff16815260200190815260200160002081905550816000808573ffffffffffffffffffffffffffffffffffffffff1673ffffffffffffffffffffffffffffffffffffffff168152602001908152602001600020600082825401925050819055508273ffffffffffffffffffffffffffffffffffffffff168473ffffffffffffffffffffffffffffffffffffffff167fddf252ad1be2c89b69c2b068fc378daa952ba7f163c4a11628f55a4df523b3ef84604051610f43919061159d565b60405180910390a3610f568484846113c8565b50505050565b610f64610a89565b73ffffffffffffffffffffffffffffffffffffffff16610f8261073d565b73ffffffffffffffffffffffffffffffffffffffff1614610fd8576040517f08c379a0000000000000000000000000000000000000000000000000000000008152600401610fcf90611dd3565b60405180910390fd5b565b600073ffffffffffffffffffffffffffffffffffffffff168273ffffffffffffffffffffffffffffffffffffffff1603611049576040517f08c379a000000000000000000000000000000000000000000000000000000000815260040161104090611e3f565b60405180910390fd5b611055600083836113c3565b80600260008282546110679190611857565b92505081905550806000808473ffffffffffffffffffffffffffffffffffffffff1673ffffffffffffffffffffffffffffffffffffffff168152602001908152602001600020600082825401925050819055508173ffffffffffffffffffffffffffffffffffffffff16600073ffffffffffffffffffffffffffffffffffffffff167fddf252ad1be2c89b69c2b068fc378daa952ba7f163c4a11628f55a4df523b3ef83604051611118919061159d565b60405180910390a361112c600083836113c8565b5050565b600073ffffffffffffffffffffffffffffffffffffffff168273ffffffffffffffffffffffffffffffffffffffff160361119f576040517f08c379a000000000000000000000000000000000000000000000000000000000815260040161119690611ed1565b60405180910390fd5b6111ab826000836113c3565b60008060008473ffffffffffffffffffffffffffffffffffffffff1673ffffffffffffffffffffffffffffffffffffffff16815260200190815260200160002054905081811015611231576040517f08c379a000000000000000000000000000000000000000000000000000000000815260040161122890611f63565b60405180910390fd5b8181036000808573ffffffffffffffffffffffffffffffffffffffff1673ffffffffffffffffffffffffffffffffffffffff1681526020019081526020016000208190555081600260008282540392505081905550600073ffffffffffffffffffffffffffffffffffffffff168373ffffffffffffffffffffffffffffffffffffffff167fddf252ad1be2c89b69c2b068fc378daa952ba7f163c4a11628f55a4df523b3ef846040516112e4919061159d565b60405180910390a36112f8836000846113c8565b505050565b6000600560009054906101000a900473ffffffffffffffffffffffffffffffffffffffff16905081600560006101000a81548173ffffffffffffffffffffffffffffffffffffffff021916908373ffffffffffffffffffffffffffffffffffffffff1602179055508173ffffffffffffffffffffffffffffffffffffffff168173ffffffffffffffffffffffffffffffffffffffff167f8be0079c531659141344cd1fd0a4f28419497f9722a3daafe3b4186f6b6457e060405160405180910390a35050565b505050565b505050565b600081519050919050565b600082825260208201905092915050565b60005b838110156114075780820151818401526020810190506113ec565b60008484015250505050565b6000601f19601f8301169050919050565b600061142f826113cd565b61143981856113d8565b93506114498185602086016113e9565b61145281611413565b840191505092915050565b600060208201905081810360008301526114778184611424565b905092915050565b600080fd5b600073ffffffffffffffffffffffffffffffffffffffff82169050919050565b60006114af82611484565b9050919050565b6114bf816114a4565b81146114ca57600080fd5b50565b6000813590506114dc816114b6565b92915050565b6000819050919050565b6114f5816114e2565b811461150057600080fd5b50565b600081359050611512816114ec565b92915050565b6000806040838503121561152f5761152e61147f565b5b600061153d858286016114cd565b925050602061154e85828601611503565b9150509250929050565b60008115159050919050565b61156d81611558565b82525050565b60006020820190506115886000830184611564565b92915050565b611597816114e2565b82525050565b60006020820190506115b2600083018461158e565b92915050565b6000806000606084860312156115d1576115d061147f565b5b60006115df868287016114cd565b93505060206115f0868287016114cd565b925050604061160186828701611503565b9150509250925092565b600060ff82169050919050565b6116218161160b565b82525050565b600060208201905061163c6000830184611618565b92915050565b6000602082840312156116585761165761147f565b5b600061166684828501611503565b91505092915050565b600060408201905081810360008301526116898185611424565b9050611698602083018461158e565b9392505050565b6000602082840312156116b5576116b461147f565b5b60006116c3848285016114cd565b91505092915050565b6116d5816114a4565b82525050565b60006020820190506116f060008301846116cc565b92915050565b6000806040838503121561170d5761170c61147f565b5b600061171b858286016114cd565b925050602061172c858286016114cd565b9150509250929050565b7f4e487b7100000000000000000000000000000000000000000000000000000000600052602260045260246000fd5b6000600282049050600182168061177d57607f821691505b6020821081036117905761178f611736565b5b50919050565b7f536f7272792c204e6f7420656e6f75676820446567656e20746f6b656e73206160008201527f7661696c61626c65000000000000000000000000000000000000000000000000602082015250565b60006117f26028836113d8565b91506117fd82611796565b604082019050919050565b60006020820190508181036000830152611821816117e5565b9050919050565b7f4e487b7100000000000000000000000000000000000000000000000000000000600052601160045260246000fd5b6000611862826114e2565b915061186d836114e2565b925082820190508082111561188557611884611828565b5b92915050565b7f596f7520646f6e2774206861766520656e6f75676820446567656e20746f6b6560008201527f6e7320746f206275726e00000000000000000000000000000000000000000000602082015250565b60006118e7602a836113d8565b91506118f28261188b565b604082019050919050565b60006020820190508181036000830152611916816118da565b9050919050565b7f45524332303a2064656372656173656420616c6c6f77616e63652062656c6f7760008201527f207a65726f000000000000000000000000000000000000000000000000000000602082015250565b60006119796025836113d8565b91506119848261191d565b604082019050919050565b600060208201905081810360008301526119a88161196c565b9050919050565b7f4f776e61626c653a206e6577206f776e657220697320746865207a65726f206160008201527f6464726573730000000000000000000000000000000000000000000000000000602082015250565b6000611a0b6026836113d8565b9150611a16826119af565b604082019050919050565b60006020820190508181036000830152611a3a816119fe565b9050919050565b7f45524332303a20617070726f76652066726f6d20746865207a65726f2061646460008201527f7265737300000000000000000000000000000000000000000000000000000000602082015250565b6000611a9d6024836113d8565b9150611aa882611a41565b604082019050919050565b60006020820190508181036000830152611acc81611a90565b9050919050565b7f45524332303a20617070726f766520746f20746865207a65726f20616464726560008201527f7373000000000000000000000000000000000000000000000000000000000000602082015250565b6000611b2f6022836113d8565b9150611b3a82611ad3565b604082019050919050565b60006020820190508181036000830152611b5e81611b22565b9050919050565b7f45524332303a20696e73756666696369656e7420616c6c6f77616e6365000000600082015250565b6000611b9b601d836113d8565b9150611ba682611b65565b602082019050919050565b60006020820190508181036000830152611bca81611b8e565b9050919050565b7f45524332303a207472616e736665722066726f6d20746865207a65726f20616460008201527f6472657373000000000000000000000000000000000000000000000000000000602082015250565b6000611c2d6025836113d8565b9150611c3882611bd1565b604082019050919050565b60006020820190508181036000830152611c5c81611c20565b9050919050565b7f45524332303a207472616e7366657220746f20746865207a65726f206164647260008201527f6573730000000000000000000000000000000000000000000000000000000000602082015250565b6000611cbf6023836113d8565b9150611cca82611c63565b604082019050919050565b60006020820190508181036000830152611cee81611cb2565b9050919050565b7f45524332303a207472616e7366657220616d6f756e742065786365656473206260008201527f616c616e63650000000000000000000000000000000000000000000000000000602082015250565b6000611d516026836113d8565b9150611d5c82611cf5565b604082019050919050565b60006020820190508181036000830152611d8081611d44565b9050919050565b7f4f776e61626c653a2063616c6c6572206973206e6f7420746865206f776e6572600082015250565b6000611dbd6020836113d8565b9150611dc882611d87565b602082019050919050565b60006020820190508181036000830152611dec81611db0565b9050919050565b7f45524332303a206d696e7420746f20746865207a65726f206164647265737300600082015250565b6000611e29601f836113d8565b9150611e3482611df3565b602082019050919050565b60006020820190508181036000830152611e5881611e1c565b9050919050565b7f45524332303a206275726e2066726f6d20746865207a65726f2061646472657360008201527f7300000000000000000000000000000000000000000000000000000000000000602082015250565b6000611ebb6021836113d8565b9150611ec682611e5f565b604082019050919050565b60006020820190508181036000830152611eea81611eae565b9050919050565b7f45524332303a206275726e20616d6f756e7420657863656564732062616c616e60008201527f6365000000000000000000000000000000000000000000000000000000000000602082015250565b6000611f4d6022836113d8565b9150611f5882611ef1565b604082019050919050565b60006020820190508181036000830152611f7c81611f40565b905091905056fea2646970667358221220cbb004ddf33addb565c7edaabba6fd17bef0c1311d57ea27defc52fbda072eef64736f6c63430008120033",
  "linkReferences": {},
  "deployedLinkReferences": {}
}