{
  "_format": "hh-sol-artifact-1",
  "contractName": "DegenToken",
  "sourceName": "contracts/DegenToken.sol",
  "abi": [
    {
      "inputs": [],
      "stateMutability": "nonpayable",
      "type": "constructor"
    },
    {
      "anonymous": false,
      "inputs": [
        {
          "indexed": true,
          "internalType": "address",
          "name": "owner",
          "type": "address"
        },
        {
          "indexed": true,
          "internalType": "address",
          "name": "spender",
          "type": "address"
        },
        {
          "indexed": false,
          "internalType": "uint256",
          "name": "value",
          "type": "uint256"
        }
      ],
      "name": "Approval",
      "type": "event"
    },
    {
      "anonymous": false,
      "inputs": [
        {
          "indexed": true,
          "internalType": "address",
          "name": "previousOwner",
          "type": "address"
        },
        {
          "indexed": true,
          "internalType": "address",
          "name": "newOwner",
          "type": "address"
        }
      ],
      "name": "OwnershipTransferred",
      "type": "event"
    },
    {
      "anonymous": false,
      "inputs": [
        {
          "indexed": true,
          "internalType": "address",
          "name": "from",
          "type": "address"
        },
        {
          "indexed": true,
          "internalType": "address",
          "name": "to",
          "type": "address"
        },
        {
          "indexed": false,
          "internalType": "uint256",
          "name": "value",
          "type": "uint256"
        }
      ],
      "name": "Transfer",
      "type": "event"
    },
    {
      "inputs": [
        {
          "internalType": "address",
          "name": "",
          "type": "address"
        },
        {
          "internalType": "uint256",
          "name": "",
          "type": "uint256"
        }
      ],
      "name": "CarsNftCollection",
      "outputs": [
        {
          "internalType": "uint256",
          "name": "",
          "type": "uint256"
        }
      ],
      "stateMutability": "view",
      "type": "function"
    },
    {
      "inputs": [
        {
          "internalType": "address",
          "name": "owner",
          "type": "address"
        },
        {
          "internalType": "address",
          "name": "spender",
          "type": "address"
        }
      ],
      "name": "allowance",
      "outputs": [
        {
          "internalType": "uint256",
          "name": "",
          "type": "uint256"
        }
      ],
      "stateMutability": "view",
      "type": "function"
    },
    {
      "inputs": [
        {
          "internalType": "address",
          "name": "spender",
          "type": "address"
        },
        {
          "internalType": "uint256",
          "name": "amount",
          "type": "uint256"
        }
      ],
      "name": "approve",
      "outputs": [
        {
          "internalType": "bool",
          "name": "",
          "type": "bool"
        }
      ],
      "stateMutability": "nonpayable",
      "type": "function"
    },
    {
      "inputs": [
        {
          "internalType": "address",
          "name": "account",
          "type": "address"
        }
      ],
      "name": "balanceOf",
      "outputs": [
        {
          "internalType": "uint256",
          "name": "",
          "type": "uint256"
        }
      ],
      "stateMutability": "view",
      "type": "function"
    },
    {
      "inputs": [
        {
          "internalType": "uint256",
          "name": "val",
          "type": "uint256"
        }
      ],
      "name": "burn",
      "outputs": [],
      "stateMutability": "nonpayable",
      "type": "function"
    },
    {
      "inputs": [],
      "name": "decimals",
      "outputs": [
        {
          "internalType": "uint8",
          "name": "",
          "type": "uint8"
        }
      ],
      "stateMutability": "view",
      "type": "function"
    },
    {
      "inputs": [
        {
          "internalType": "address",
          "name": "spender",
          "type": "address"
        },
        {
          "internalType": "uint256",
          "name": "subtractedValue",
          "type": "uint256"
        }
      ],
      "name": "decreaseAllowance",
      "outputs": [
        {
          "internalType": "bool",
          "name": "",
          "type": "bool"
        }
      ],
      "stateMutability": "nonpayable",
      "type": "function"
    },
    {
      "inputs": [
        {
          "internalType": "address",
          "name": "spender",
          "type": "address"
        },
        {
          "internalType": "uint256",
          "name": "addedValue",
          "type": "uint256"
        }
      ],
      "name": "increaseAllowance",
      "outputs": [
        {
          "internalType": "bool",
          "name": "",
          "type": "bool"
        }
      ],
      "stateMutability": "nonpayable",
      "type": "function"
    },
    {
      "inputs": [
        {
          "internalType": "address",
          "name": "to",
          "type": "address"
        },
        {
          "internalType": "uint256",
          "name": "amount",
          "type": "uint256"
        }
      ],
      "name": "mint",
      "outputs": [],
      "stateMutability": "nonpayable",
      "type": "function"
    },
    {
      "inputs": [],
      "name": "name",
      "outputs": [
        {
          "internalType": "string",
          "name": "",
          "type": "string"
        }
      ],
      "stateMutability": "view",
      "type": "function"
    },
    {
      "inputs": [],
      "name": "owner",
      "outputs": [
        {
          "internalType": "address",
          "name": "",
          "type": "address"
        }
      ],
      "stateMutability": "view",
      "type": "function"
    },
    {
      "inputs": [
        {
          "internalType": "uint256",
          "name": "carId",
          "type": "uint256"
        }
      ],
      "name": "redeemToken",
      "outputs": [],
      "stateMutability": "payable",
      "type": "function"
    },
    {
      "inputs": [
        {
          "internalType": "uint256",
          "name": "",
          "type": "uint256"
        }
      ],
      "name": "redeemableCars",
      "outputs": [
        {
          "internalType": "string",
          "name": "name",
          "type": "string"
        },
        {
          "internalType": "uint256",
          "name": "price",
          "type": "uint256"
        }
      ],
      "stateMutability": "view",
      "type": "function"
    },
    {
      "inputs": [],
      "name": "renounceOwnership",
      "outputs": [],
      "stateMutability": "nonpayable",
      "type": "function"
    },
    {
      "inputs": [],
      "name": "showStore",
      "outputs": [
        {
          "internalType": "string",
          "name": "",
          "type": "string"
        }
      ],
      "stateMutability": "pure",
      "type": "function"
    },
    {
      "inputs": [
        {
          "internalType": "address",
          "name": "user",
          "type": "address"
        }
      ],
      "name": "showUserCollection",
      "outputs": [
        {
          "internalType": "uint256[]",
          "name": "",
          "type": "uint256[]"
        }
      ],
      "stateMutability": "view",
      "type": "function"
    },
    {
      "inputs": [],
      "name": "symbol",
      "outputs": [
        {
          "internalType": "string",
          "name": "",
          "type": "string"
        }
      ],
      "stateMutability": "view",
      "type": "function"
    },
    {
      "inputs": [],
      "name": "totalSupply",
      "outputs": [
        {
          "internalType": "uint256",
          "name": "",
          "type": "uint256"
        }
      ],
      "stateMutability": "view",
      "type": "function"
    },
    {
      "inputs": [
        {
          "internalType": "address",
          "name": "to",
          "type": "address"
        },
        {
          "internalType": "uint256",
          "name": "amount",
          "type": "uint256"
        }
      ],
      "name": "transfer",
      "outputs": [
        {
          "internalType": "bool",
          "name": "",
          "type": "bool"
        }
      ],
      "stateMutability": "nonpayable",
      "type": "function"
    },
    {
      "inputs": [
        {
          "internalType": "address",
          "name": "from",
          "type": "address"
        },
        {
          "internalType": "address",
          "name": "to",
          "type": "address"
        },
        {
          "internalType": "uint256",
          "name": "amount",
          "type": "uint256"
        }
      ],
      "name": "transferFrom",
      "outputs": [
        {
          "internalType": "bool",
          "name": "",
          "type": "bool"
        }
      ],
      "stateMutability": "nonpayable",
      "type": "function"
    },
    {
      "inputs": [
        {
          "internalType": "address",
          "name": "newOwner",
          "type": "address"
        }
      ],
      "name": "transferOwnership",
      "outputs": [],
      "stateMutability": "nonpayable",
      "type": "function"
    },
    {
      "inputs": [
        {
          "internalType": "address",
          "name": "sender",
          "type": "address"
        },
        {
          "internalType": "address",
          "name": "_receiver",
          "type": "address"
        },
        {
          "internalType": "uint256",
          "name": "val",
          "type": "uint256"
        }
      ],
      "name": "transferToken",
      "outputs": [],
      "stateMutability": "nonpayable",
      "type": "function"
    },
    {
      "inputs": [
        {
          "internalType": "address",
          "name": "",
          "type": "address"
        },
        {
          "internalType": "uint256",
          "name": "",
          "type": "uint256"
        }
      ],
      "name": "userCollections",
      "outputs": [
        {
          "internalType": "uint256",
          "name": "id",
          "type": "uint256"
        }
      ],
      "stateMutability": "view",
      "type": "function"
    }
  ],
  "bytecode": "0x60806040523480156200001157600080fd5b506040518060400160405280600b81526020017f446567656e20546f6b656e0000000000000000000000000000000000000000008152506040518060400160405280600581526020017f444547454e00000000000000000000000000000000000000000000000000000081525081600390816200008f91906200083a565b508060049081620000a191906200083a565b505050620000c4620000b8620004f260201b60201c565b620004fa60201b60201c565b60405180604001604052806040518060400160405280601381526020017f4e46543a204275676174746920436869726f6e000000000000000000000000008152508152602001612134815250600660006001815260200190815260200160002060008201518160000190816200013b91906200083a565b506020820151816001015590505060405180604001604052806040518060400160405280601a81526020017f4e46543a204c616d626f726768696e69204176656e7461646f7200000000000081525081526020016107d081525060066000600281526020019081526020016000206000820151816000019081620001c091906200083a565b506020820151816001015590505060405180604001604052806040518060400160405280601681526020017f4e46543a2046657272617269204c6146657272617269000000000000000000008152508152602001610bb8815250600660006003815260200190815260200160002060008201518160000190816200024591906200083a565b506020820151816001015590505060405180604001604052806040518060400160405280601881526020017f4e46543a20526f6c6c732d526f796365205068616e746f6d0000000000000000815250815260200161138881525060066000600481526020019081526020016000206000820151816000019081620002ca91906200083a565b506020820151816001015590505060405180604001604052806040518060400160405280601a81526020017f4e46543a204173746f6e204d617274696e2056616c6b797269650000000000008152508152602001611770815250600660006005815260200190815260200160002060008201518160000190816200034f91906200083a565b506020820151816001015590505060405180604001604052806040518060400160405280600f81526020017f4e46543a204d634c6172656e2050310000000000000000000000000000000000815250815260200161177081525060066000600681526020019081526020016000206000820151816000019081620003d491906200083a565b506020820151816001015590505060405180604001604052806040518060400160405280601581526020017f4e46543a204b6f656e696773656767204a65736b6f00000000000000000000008152508152602001611b58815250600660006007815260200190815260200160002060008201518160000190816200045991906200083a565b506020820151816001015590505060405180604001604052806040518060400160405280601281526020017f4e46543a20506167616e692048756179726100000000000000000000000000008152508152602001611f4081525060066000600881526020019081526020016000206000820151816000019081620004de91906200083a565b506020820151816001015590505062000921565b600033905090565b6000600560009054906101000a900473ffffffffffffffffffffffffffffffffffffffff16905081600560006101000a81548173ffffffffffffffffffffffffffffffffffffffff021916908373ffffffffffffffffffffffffffffffffffffffff1602179055508173ffffffffffffffffffffffffffffffffffffffff168173ffffffffffffffffffffffffffffffffffffffff167f8be0079c531659141344cd1fd0a4f28419497f9722a3daafe3b4186f6b6457e060405160405180910390a35050565b600081519050919050565b7f4e487b7100000000000000000000000000000000000000000000000000000000600052604160045260246000fd5b7f4e487b7100000000000000000000000000000000000000000000000000000000600052602260045260246000fd5b600060028204905060018216806200064257607f821691505b602082108103620006585762000657620005fa565b5b50919050565b60008190508160005260206000209050919050565b60006020601f8301049050919050565b600082821b905092915050565b600060088302620006c27fffffffffffffffffffffffffffffffffffffffffffffffffffffffffffffffff8262000683565b620006ce868362000683565b95508019841693508086168417925050509392505050565b6000819050919050565b6000819050919050565b60006200071b620007156200070f84620006e6565b620006f0565b620006e6565b9050919050565b6000819050919050565b6200073783620006fa565b6200074f620007468262000722565b84845462000690565b825550505050565b600090565b6200076662000757565b620007738184846200072c565b505050565b5b818110156200079b576200078f6000826200075c565b60018101905062000779565b5050565b601f821115620007ea57620007b4816200065e565b620007bf8462000673565b81016020851015620007cf578190505b620007e7620007de8562000673565b83018262000778565b50505b505050565b600082821c905092915050565b60006200080f60001984600802620007ef565b1980831691505092915050565b60006200082a8383620007fc565b9150826002028217905092915050565b6200084582620005c0565b67ffffffffffffffff811115620008615762000860620005cb565b5b6200086d825462000629565b6200087a8282856200079f565b600060209050601f831160018114620008b257600084156200089d578287015190505b620008a985826200081c565b86555062000919565b601f198416620008c2866200065e565b60005b82811015620008ec57848901518255600182019150602085019450602081019050620008c5565b868310156200090c578489015162000908601f891682620007fc565b8355505b6001600288020188555050505b505050505050565b61271b80620009316000396000f3fe6080604052600436106101405760003560e01c806342966c68116100b6578063a9059cbb1161006f578063a9059cbb1461048a578063a9d0e2e5146104c7578063acc8b146146104f2578063dd62ed3e1461052f578063f2fde38b1461056c578063f5537ede1461059557610140565b806342966c681461037a57806370a08231146103a3578063715018a6146103e05780638da5cb5b146103f757806395d89b4114610422578063a457c2d71461044d57610140565b806323b872dd1161010857806323b872dd14610231578063313ce5671461026e57806339509351146102995780633dfcf101146102d657806340c10f1914610314578063428a61711461033d57610140565b8063013054c21461014557806306fdde0314610161578063095ea7b31461018c5780630e63afed146101c957806318160ddd14610206575b600080fd5b61015f600480360381019061015a91906117e8565b6105be565b005b34801561016d57600080fd5b5061017661078a565b60405161018391906118a5565b60405180910390f35b34801561019857600080fd5b506101b360048036038101906101ae9190611925565b61081c565b6040516101c09190611980565b60405180910390f35b3480156101d557600080fd5b506101f060048036038101906101eb9190611925565b61083f565b6040516101fd91906119aa565b60405180910390f35b34801561021257600080fd5b5061021b610864565b60405161022891906119aa565b60405180910390f35b34801561023d57600080fd5b50610258600480360381019061025391906119c5565b61086e565b6040516102659190611980565b60405180910390f35b34801561027a57600080fd5b5061028361089d565b6040516102909190611a34565b60405180910390f35b3480156102a557600080fd5b506102c060048036038101906102bb9190611925565b6108a6565b6040516102cd9190611980565b60405180910390f35b3480156102e257600080fd5b506102fd60048036038101906102f891906117e8565b6108dd565b60405161030b929190611a4f565b60405180910390f35b34801561032057600080fd5b5061033b60048036038101906103369190611925565b610989565b005b34801561034957600080fd5b50610364600480360381019061035f9190611925565b61099f565b60405161037191906119aa565b60405180910390f35b34801561038657600080fd5b506103a1600480360381019061039c91906117e8565b6109d6565b005b3480156103af57600080fd5b506103ca60048036038101906103c59190611a7f565b610a2e565b6040516103d791906119aa565b60405180910390f35b3480156103ec57600080fd5b506103f5610a76565b005b34801561040357600080fd5b5061040c610a8a565b6040516104199190611abb565b60405180910390f35b34801561042e57600080fd5b50610437610ab4565b60405161044491906118a5565b60405180910390f35b34801561045957600080fd5b50610474600480360381019061046f9190611925565b610b46565b6040516104819190611980565b60405180910390f35b34801561049657600080fd5b506104b160048036038101906104ac9190611925565b610bbd565b6040516104be9190611980565b60405180910390f35b3480156104d357600080fd5b506104dc610be0565b6040516104e991906118a5565b60405180910390f35b3480156104fe57600080fd5b5061051960048036038101906105149190611a7f565b610c01565b6040516105269190611b94565b60405180910390f35b34801561053b57600080fd5b5061055660048036038101906105519190611bb6565b610cf9565b60405161056391906119aa565b60405180910390f35b34801561057857600080fd5b50610593600480360381019061058e9190611a7f565b610d80565b005b3480156105a157600080fd5b506105bc60048036038101906105b791906119c5565b610e03565b005b6105c733610a2e565b6006600083815260200190815260200160002060010154111561061f576040517f08c379a000000000000000000000000000000000000000000000000000000000815260040161061690611c42565b60405180910390fd5b600660008281526020019081526020016000206001015461063f33610a2e565b1015610680576040517f08c379a000000000000000000000000000000000000000000000000000000000815260040161067790611cd4565b60405180910390fd5b6106a0336006600084815260200190815260200160002060010154610e69565b6001600760003373ffffffffffffffffffffffffffffffffffffffff1673ffffffffffffffffffffffffffffffffffffffff168152602001908152602001600020600083815260200190815260200160002060008282546107019190611d23565b92505081905550600860003373ffffffffffffffffffffffffffffffffffffffff1673ffffffffffffffffffffffffffffffffffffffff1681526020019081526020016000206040518060200160405280838152509080600181540180825580915050600190039060005260206000200160009091909190915060008201518160000155505050565b60606003805461079990611d86565b80601f01602080910402602001604051908101604052809291908181526020018280546107c590611d86565b80156108125780601f106107e757610100808354040283529160200191610812565b820191906000526020600020905b8154815290600101906020018083116107f557829003601f168201915b5050505050905090565b600080610827611036565b905061083481858561103e565b600191505092915050565b6007602052816000526040600020602052806000526040600020600091509150505481565b6000600254905090565b600080610879611036565b9050610886858285611207565b610891858585611293565b60019150509392505050565b60006001905090565b6000806108b1611036565b90506108d28185856108c38589610cf9565b6108cd9190611d23565b61103e565b600191505092915050565b600660205280600052604060002060009150905080600001805461090090611d86565b80601f016020809104026020016040519081016040528092919081815260200182805461092c90611d86565b80156109795780601f1061094e57610100808354040283529160200191610979565b820191906000526020600020905b81548152906001019060200180831161095c57829003601f168201915b5050505050908060010154905082565b610991611509565b61099b8282611587565b5050565b600860205281600052604060002081815481106109bb57600080fd5b90600052602060002001600091509150508060000154905081565b806109e033610a2e565b1015610a21576040517f08c379a0000000000000000000000000000000000000000000000000000000008152600401610a1890611e29565b60405180910390fd5b610a2b3382610e69565b50565b60008060008373ffffffffffffffffffffffffffffffffffffffff1673ffffffffffffffffffffffffffffffffffffffff168152602001908152602001600020549050919050565b610a7e611509565b610a8860006116dd565b565b6000600560009054906101000a900473ffffffffffffffffffffffffffffffffffffffff16905090565b606060048054610ac390611d86565b80601f0160208091040260200160405190810160405280929190818152602001828054610aef90611d86565b8015610b3c5780601f10610b1157610100808354040283529160200191610b3c565b820191906000526020600020905b815481529060010190602001808311610b1f57829003601f168201915b5050505050905090565b600080610b51611036565b90506000610b5f8286610cf9565b905083811015610ba4576040517f08c379a0000000000000000000000000000000000000000000000000000000008152600401610b9b90611ebb565b60405180910390fd5b610bb1828686840361103e565b60019250505092915050565b600080610bc8611036565b9050610bd5818585611293565b600191505092915050565b606060405180610100016040528060ca815260200161261c60ca9139905090565b60606000600867ffffffffffffffff811115610c2057610c1f611edb565b5b604051908082528060200260200182016040528015610c4e5781602001602082028036833780820191505090505b5090506000600190505b60088111610cef57600760008573ffffffffffffffffffffffffffffffffffffffff1673ffffffffffffffffffffffffffffffffffffffff16815260200190815260200160002060008281526020019081526020016000205482600183610cbf9190611f0a565b81518110610cd057610ccf611f3e565b5b6020026020010181815250508080610ce790611f6d565b915050610c58565b5080915050919050565b6000600160008473ffffffffffffffffffffffffffffffffffffffff1673ffffffffffffffffffffffffffffffffffffffff16815260200190815260200160002060008373ffffffffffffffffffffffffffffffffffffffff1673ffffffffffffffffffffffffffffffffffffffff16815260200190815260200160002054905092915050565b610d88611509565b600073ffffffffffffffffffffffffffffffffffffffff168173ffffffffffffffffffffffffffffffffffffffff1603610df7576040517f08c379a0000000000000000000000000000000000000000000000000000000008152600401610dee90612027565b60405180910390fd5b610e00816116dd565b50565b80610e0d84610a2e565b1015610e4e576040517f08c379a0000000000000000000000000000000000000000000000000000000008152600401610e45906120b9565b60405180910390fd5b610e58838261081c565b50610e64838383611293565b505050565b600073ffffffffffffffffffffffffffffffffffffffff168273ffffffffffffffffffffffffffffffffffffffff1603610ed8576040517f08c379a0000000000000000000000000000000000000000000000000000000008152600401610ecf9061214b565b60405180910390fd5b610ee4826000836117a3565b60008060008473ffffffffffffffffffffffffffffffffffffffff1673ffffffffffffffffffffffffffffffffffffffff16815260200190815260200160002054905081811015610f6a576040517f08c379a0000000000000000000000000000000000000000000000000000000008152600401610f61906121dd565b60405180910390fd5b8181036000808573ffffffffffffffffffffffffffffffffffffffff1673ffffffffffffffffffffffffffffffffffffffff1681526020019081526020016000208190555081600260008282540392505081905550600073ffffffffffffffffffffffffffffffffffffffff168373ffffffffffffffffffffffffffffffffffffffff167fddf252ad1be2c89b69c2b068fc378daa952ba7f163c4a11628f55a4df523b3ef8460405161101d91906119aa565b60405180910390a3611031836000846117a8565b505050565b600033905090565b600073ffffffffffffffffffffffffffffffffffffffff168373ffffffffffffffffffffffffffffffffffffffff16036110ad576040517f08c379a00000000000000000000000000000000000000000000000000000000081526004016110a49061226f565b60405180910390fd5b600073ffffffffffffffffffffffffffffffffffffffff168273ffffffffffffffffffffffffffffffffffffffff160361111c576040517f08c379a000000000000000000000000000000000000000000000000000000000815260040161111390612301565b60405180910390fd5b80600160008573ffffffffffffffffffffffffffffffffffffffff1673ffffffffffffffffffffffffffffffffffffffff16815260200190815260200160002060008473ffffffffffffffffffffffffffffffffffffffff1673ffffffffffffffffffffffffffffffffffffffff168152602001908152602001600020819055508173ffffffffffffffffffffffffffffffffffffffff168373ffffffffffffffffffffffffffffffffffffffff167f8c5be1e5ebec7d5bd14f71427d1e84f3dd0314c0f7b2291e5b200ac8c7c3b925836040516111fa91906119aa565b60405180910390a3505050565b60006112138484610cf9565b90507fffffffffffffffffffffffffffffffffffffffffffffffffffffffffffffffff811461128d578181101561127f576040517f08c379a00000000000000000000000000000000000000000000000000000000081526004016112769061236d565b60405180910390fd5b61128c848484840361103e565b5b50505050565b600073ffffffffffffffffffffffffffffffffffffffff168373ffffffffffffffffffffffffffffffffffffffff1603611302576040517f08c379a00000000000000000000000000000000000000000000000000000000081526004016112f9906123ff565b60405180910390fd5b600073ffffffffffffffffffffffffffffffffffffffff168273ffffffffffffffffffffffffffffffffffffffff1603611371576040517f08c379a000000000000000000000000000000000000000000000000000000000815260040161136890612491565b60405180910390fd5b61137c8383836117a3565b60008060008573ffffffffffffffffffffffffffffffffffffffff1673ffffffffffffffffffffffffffffffffffffffff16815260200190815260200160002054905081811015611402576040517f08c379a00000000000000000000000000000000000000000000000000000000081526004016113f990612523565b60405180910390fd5b8181036000808673ffffffffffffffffffffffffffffffffffffffff1673ffffffffffffffffffffffffffffffffffffffff16815260200190815260200160002081905550816000808573ffffffffffffffffffffffffffffffffffffffff1673ffffffffffffffffffffffffffffffffffffffff168152602001908152602001600020600082825401925050819055508273ffffffffffffffffffffffffffffffffffffffff168473ffffffffffffffffffffffffffffffffffffffff167fddf252ad1be2c89b69c2b068fc378daa952ba7f163c4a11628f55a4df523b3ef846040516114f091906119aa565b60405180910390a36115038484846117a8565b50505050565b611511611036565b73ffffffffffffffffffffffffffffffffffffffff1661152f610a8a565b73ffffffffffffffffffffffffffffffffffffffff1614611585576040517f08c379a000000000000000000000000000000000000000000000000000000000815260040161157c9061258f565b60405180910390fd5b565b600073ffffffffffffffffffffffffffffffffffffffff168273ffffffffffffffffffffffffffffffffffffffff16036115f6576040517f08c379a00000000000000000000000000000000000000000000000000000000081526004016115ed906125fb565b60405180910390fd5b611602600083836117a3565b80600260008282546116149190611d23565b92505081905550806000808473ffffffffffffffffffffffffffffffffffffffff1673ffffffffffffffffffffffffffffffffffffffff168152602001908152602001600020600082825401925050819055508173ffffffffffffffffffffffffffffffffffffffff16600073ffffffffffffffffffffffffffffffffffffffff167fddf252ad1be2c89b69c2b068fc378daa952ba7f163c4a11628f55a4df523b3ef836040516116c591906119aa565b60405180910390a36116d9600083836117a8565b5050565b6000600560009054906101000a900473ffffffffffffffffffffffffffffffffffffffff16905081600560006101000a81548173ffffffffffffffffffffffffffffffffffffffff021916908373ffffffffffffffffffffffffffffffffffffffff1602179055508173ffffffffffffffffffffffffffffffffffffffff168173ffffffffffffffffffffffffffffffffffffffff167f8be0079c531659141344cd1fd0a4f28419497f9722a3daafe3b4186f6b6457e060405160405180910390a35050565b505050565b505050565b600080fd5b6000819050919050565b6117c5816117b2565b81146117d057600080fd5b50565b6000813590506117e2816117bc565b92915050565b6000602082840312156117fe576117fd6117ad565b5b600061180c848285016117d3565b91505092915050565b600081519050919050565b600082825260208201905092915050565b60005b8381101561184f578082015181840152602081019050611834565b60008484015250505050565b6000601f19601f8301169050919050565b600061187782611815565b6118818185611820565b9350611891818560208601611831565b61189a8161185b565b840191505092915050565b600060208201905081810360008301526118bf818461186c565b905092915050565b600073ffffffffffffffffffffffffffffffffffffffff82169050919050565b60006118f2826118c7565b9050919050565b611902816118e7565b811461190d57600080fd5b50565b60008135905061191f816118f9565b92915050565b6000806040838503121561193c5761193b6117ad565b5b600061194a85828601611910565b925050602061195b858286016117d3565b9150509250929050565b60008115159050919050565b61197a81611965565b82525050565b60006020820190506119956000830184611971565b92915050565b6119a4816117b2565b82525050565b60006020820190506119bf600083018461199b565b92915050565b6000806000606084860312156119de576119dd6117ad565b5b60006119ec86828701611910565b93505060206119fd86828701611910565b9250506040611a0e868287016117d3565b9150509250925092565b600060ff82169050919050565b611a2e81611a18565b82525050565b6000602082019050611a496000830184611a25565b92915050565b60006040820190508181036000830152611a69818561186c565b9050611a78602083018461199b565b9392505050565b600060208284031215611a9557611a946117ad565b5b6000611aa384828501611910565b91505092915050565b611ab5816118e7565b82525050565b6000602082019050611ad06000830184611aac565b92915050565b600081519050919050565b600082825260208201905092915050565b6000819050602082019050919050565b611b0b816117b2565b82525050565b6000611b1d8383611b02565b60208301905092915050565b6000602082019050919050565b6000611b4182611ad6565b611b4b8185611ae1565b9350611b5683611af2565b8060005b83811015611b87578151611b6e8882611b11565b9750611b7983611b29565b925050600181019050611b5a565b5085935050505092915050565b60006020820190508181036000830152611bae8184611b36565b905092915050565b60008060408385031215611bcd57611bcc6117ad565b5b6000611bdb85828601611910565b9250506020611bec85828601611910565b9150509250929050565b7f496e73756666696369656e742066756e64730000000000000000000000000000600082015250565b6000611c2c601283611820565b9150611c3782611bf6565b602082019050919050565b60006020820190508181036000830152611c5b81611c1f565b9050919050565b7f596f7520646f6e2774206861766520656e6f75676820446567656e20746f6b6560008201527f6e7320746f2072656465656d0000000000000000000000000000000000000000602082015250565b6000611cbe602c83611820565b9150611cc982611c62565b604082019050919050565b60006020820190508181036000830152611ced81611cb1565b9050919050565b7f4e487b7100000000000000000000000000000000000000000000000000000000600052601160045260246000fd5b6000611d2e826117b2565b9150611d39836117b2565b9250828201905080821115611d5157611d50611cf4565b5b92915050565b7f4e487b7100000000000000000000000000000000000000000000000000000000600052602260045260246000fd5b60006002820490506001821680611d9e57607f821691505b602082108103611db157611db0611d57565b5b50919050565b7f596f7520646f6e2774206861766520656e6f75676820446567656e20746f6b6560008201527f6e7320746f206275726e00000000000000000000000000000000000000000000602082015250565b6000611e13602a83611820565b9150611e1e82611db7565b604082019050919050565b60006020820190508181036000830152611e4281611e06565b9050919050565b7f45524332303a2064656372656173656420616c6c6f77616e63652062656c6f7760008201527f207a65726f000000000000000000000000000000000000000000000000000000602082015250565b6000611ea5602583611820565b9150611eb082611e49565b604082019050919050565b60006020820190508181036000830152611ed481611e98565b9050919050565b7f4e487b7100000000000000000000000000000000000000000000000000000000600052604160045260246000fd5b6000611f15826117b2565b9150611f20836117b2565b9250828203905081811115611f3857611f37611cf4565b5b92915050565b7f4e487b7100000000000000000000000000000000000000000000000000000000600052603260045260246000fd5b6000611f78826117b2565b91507fffffffffffffffffffffffffffffffffffffffffffffffffffffffffffffffff8203611faa57611fa9611cf4565b5b600182019050919050565b7f4f776e61626c653a206e6577206f776e657220697320746865207a65726f206160008201527f6464726573730000000000000000000000000000000000000000000000000000602082015250565b6000612011602683611820565b915061201c82611fb5565b604082019050919050565b6000602082019050818103600083015261204081612004565b9050919050565b7f596f7520646f6e2774206861766520656e6f75676820446567656e20746f6b6560008201527f6e7320746f207472616e73666572000000000000000000000000000000000000602082015250565b60006120a3602e83611820565b91506120ae82612047565b604082019050919050565b600060208201905081810360008301526120d281612096565b9050919050565b7f45524332303a206275726e2066726f6d20746865207a65726f2061646472657360008201527f7300000000000000000000000000000000000000000000000000000000000000602082015250565b6000612135602183611820565b9150612140826120d9565b604082019050919050565b6000602082019050818103600083015261216481612128565b9050919050565b7f45524332303a206275726e20616d6f756e7420657863656564732062616c616e60008201527f6365000000000000000000000000000000000000000000000000000000000000602082015250565b60006121c7602283611820565b91506121d28261216b565b604082019050919050565b600060208201905081810360008301526121f6816121ba565b9050919050565b7f45524332303a20617070726f76652066726f6d20746865207a65726f2061646460008201527f7265737300000000000000000000000000000000000000000000000000000000602082015250565b6000612259602483611820565b9150612264826121fd565b604082019050919050565b600060208201905081810360008301526122888161224c565b9050919050565b7f45524332303a20617070726f766520746f20746865207a65726f20616464726560008201527f7373000000000000000000000000000000000000000000000000000000000000602082015250565b60006122eb602283611820565b91506122f68261228f565b604082019050919050565b6000602082019050818103600083015261231a816122de565b9050919050565b7f45524332303a20696e73756666696369656e7420616c6c6f77616e6365000000600082015250565b6000612357601d83611820565b915061236282612321565b602082019050919050565b600060208201905081810360008301526123868161234a565b9050919050565b7f45524332303a207472616e736665722066726f6d20746865207a65726f20616460008201527f6472657373000000000000000000000000000000000000000000000000000000602082015250565b60006123e9602583611820565b91506123f48261238d565b604082019050919050565b60006020820190508181036000830152612418816123dc565b9050919050565b7f45524332303a207472616e7366657220746f20746865207a65726f206164647260008201527f6573730000000000000000000000000000000000000000000000000000000000602082015250565b600061247b602383611820565b91506124868261241f565b604082019050919050565b600060208201905081810360008301526124aa8161246e565b9050919050565b7f45524332303a207472616e7366657220616d6f756e742065786365656473206260008201527f616c616e63650000000000000000000000000000000000000000000000000000602082015250565b600061250d602683611820565b9150612518826124b1565b604082019050919050565b6000602082019050818103600083015261253c81612500565b9050919050565b7f4f776e61626c653a2063616c6c6572206973206e6f7420746865206f776e6572600082015250565b6000612579602083611820565b915061258482612543565b602082019050919050565b600060208201905081810360008301526125a88161256c565b9050919050565b7f45524332303a206d696e7420746f20746865207a65726f206164647265737300600082015250565b60006125e5601f83611820565b91506125f0826125af565b602082019050919050565b60006020820190508181036000830152612614816125d8565b905091905056fe312e204e46543a204275676174746920436869726f6e0a322e204e46543a204c616d626f726768696e69204176656e7461646f720a332e204e46543a2046657272617269204c61466572726172690a342e204e46543a20526f6c6c732d526f796365205068616e746f6d0a352e204e46543a204173746f6e204d617274696e2056616c6b797269650a362e204e46543a204d634c6172656e2050310a372e204e46543a204b6f656e696773656767204a65736b6f0a382e204e46543a20506167616e6920487561797261a26469706673582212207a63796dcea65b5506de5157703b7ee824f21081c6f5f7fcb835bce2ffa454f664736f6c63430008120033",
  "linkReferences": {},
  "deployedLinkReferences": {}
}